{
  "_format": "hh-sol-artifact-1",
  "contractName": "GuardCM",
  "sourceName": "contracts/multisigs/GuardCM.sol",
  "abi": [
    {
      "inputs": [
        {
          "internalType": "address",
          "name": "_timelock",
          "type": "address"
        },
        {
          "internalType": "address",
          "name": "_multisig",
          "type": "address"
        },
        {
          "internalType": "address",
          "name": "_governor",
          "type": "address"
        }
      ],
      "stateMutability": "nonpayable",
      "type": "constructor"
    },
    {
      "inputs": [
        {
          "internalType": "address",
          "name": "account",
          "type": "address"
        }
      ],
      "name": "ContractOnly",
      "type": "error"
    },
    {
      "inputs": [],
      "name": "DelegateCallFailed",
      "type": "error"
    },
    {
      "inputs": [
        {
          "internalType": "uint256",
          "name": "expected",
          "type": "uint256"
        },
        {
          "internalType": "uint256",
          "name": "provided",
          "type": "uint256"
        }
      ],
      "name": "IncorrectDataLength",
      "type": "error"
    },
    {
      "inputs": [
        {
          "internalType": "uint256",
          "name": "chainId",
          "type": "uint256"
        }
      ],
      "name": "L2ChainIdNotSupported",
      "type": "error"
    },
    {
      "inputs": [
        {
          "internalType": "address",
          "name": "sender",
          "type": "address"
        },
        {
          "internalType": "address",
          "name": "manager",
          "type": "address"
        }
      ],
      "name": "ManagerOnly",
      "type": "error"
    },
    {
      "inputs": [],
      "name": "NoDelegateCall",
      "type": "error"
    },
    {
      "inputs": [],
      "name": "NoSelfCall",
      "type": "error"
    },
    {
      "inputs": [
        {
          "internalType": "address",
          "name": "target",
          "type": "address"
        },
        {
          "internalType": "bytes4",
          "name": "selector",
          "type": "bytes4"
        },
        {
          "internalType": "uint256",
          "name": "chainId",
          "type": "uint256"
        }
      ],
      "name": "NotAuthorized",
      "type": "error"
    },
    {
      "inputs": [
        {
          "internalType": "uint256",
          "name": "proposalId",
          "type": "uint256"
        },
        {
          "internalType": "enum ProposalState",
          "name": "state",
          "type": "uint8"
        }
      ],
      "name": "NotDefeated",
      "type": "error"
    },
    {
      "inputs": [
        {
          "internalType": "address",
          "name": "sender",
          "type": "address"
        },
        {
          "internalType": "address",
          "name": "owner",
          "type": "address"
        }
      ],
      "name": "OwnerOnly",
      "type": "error"
    },
    {
      "inputs": [
        {
          "internalType": "uint256",
          "name": "numValues1",
          "type": "uint256"
        },
        {
          "internalType": "uint256",
          "name": "numValues2",
          "type": "uint256"
        },
        {
          "internalType": "uint256",
          "name": "numValues3",
          "type": "uint256"
        },
        {
          "internalType": "uint256",
          "name": "numValues4",
          "type": "uint256"
        }
      ],
      "name": "WrongArrayLength",
      "type": "error"
    },
    {
      "inputs": [],
      "name": "ZeroAddress",
      "type": "error"
    },
    {
      "inputs": [],
      "name": "ZeroValue",
      "type": "error"
    },
    {
      "anonymous": false,
      "inputs": [
        {
          "indexed": true,
          "internalType": "uint256",
          "name": "proposalId",
          "type": "uint256"
        }
      ],
      "name": "GovernorCheckProposalIdChanged",
      "type": "event"
    },
    {
      "anonymous": false,
      "inputs": [
        {
          "indexed": true,
          "internalType": "address",
          "name": "governor",
          "type": "address"
        }
      ],
      "name": "GovernorUpdated",
      "type": "event"
    },
    {
      "anonymous": false,
      "inputs": [
        {
          "indexed": true,
          "internalType": "address",
          "name": "account",
          "type": "address"
        }
      ],
      "name": "GuardPaused",
      "type": "event"
    },
    {
      "anonymous": false,
      "inputs": [],
      "name": "GuardUnpaused",
      "type": "event"
    },
    {
      "anonymous": false,
      "inputs": [
        {
          "indexed": true,
          "internalType": "address[]",
          "name": "bridgeMediatorL1s",
          "type": "address[]"
        },
        {
          "indexed": true,
          "internalType": "address[]",
          "name": "verifierL2s",
          "type": "address[]"
        },
        {
          "indexed": true,
          "internalType": "address[]",
          "name": "bridgeMediatorL2s",
          "type": "address[]"
        },
        {
          "indexed": false,
          "internalType": "uint256[]",
          "name": "chainIds",
          "type": "uint256[]"
        }
      ],
      "name": "SetBridgeMediators",
      "type": "event"
    },
    {
      "anonymous": false,
      "inputs": [
        {
          "indexed": true,
          "internalType": "address[]",
          "name": "targets",
          "type": "address[]"
        },
        {
          "indexed": true,
          "internalType": "bytes4[]",
          "name": "selectors",
          "type": "bytes4[]"
        },
        {
          "indexed": false,
          "internalType": "uint256[]",
          "name": "chainIds",
          "type": "uint256[]"
        },
        {
          "indexed": false,
          "internalType": "bool[]",
          "name": "statuses",
          "type": "bool[]"
        }
      ],
      "name": "SetTargetSelectors",
      "type": "event"
    },
    {
      "inputs": [],
      "name": "MAX_CHAIN_ID",
      "outputs": [
        {
          "internalType": "uint256",
          "name": "",
          "type": "uint256"
        }
      ],
      "stateMutability": "view",
      "type": "function"
    },
    {
      "inputs": [],
      "name": "MIN_SCHEDULE_DATA_LENGTH",
      "outputs": [
        {
          "internalType": "uint256",
          "name": "",
          "type": "uint256"
        }
      ],
      "stateMutability": "view",
      "type": "function"
    },
    {
      "inputs": [],
      "name": "SCHEDULE",
      "outputs": [
        {
          "internalType": "bytes4",
          "name": "",
          "type": "bytes4"
        }
      ],
      "stateMutability": "view",
      "type": "function"
    },
    {
      "inputs": [],
      "name": "SCHEDULE_BATCH",
      "outputs": [
        {
          "internalType": "bytes4",
          "name": "",
          "type": "bytes4"
        }
      ],
      "stateMutability": "view",
      "type": "function"
    },
    {
      "inputs": [],
      "name": "SELECTOR_DATA_LENGTH",
      "outputs": [
        {
          "internalType": "uint256",
          "name": "",
          "type": "uint256"
        }
      ],
      "stateMutability": "view",
      "type": "function"
    },
    {
      "inputs": [
        {
          "internalType": "address",
          "name": "newGovernor",
          "type": "address"
        }
      ],
      "name": "changeGovernor",
      "outputs": [],
      "stateMutability": "nonpayable",
      "type": "function"
    },
    {
      "inputs": [
        {
          "internalType": "uint256",
          "name": "proposalId",
          "type": "uint256"
        }
      ],
      "name": "changeGovernorCheckProposalId",
      "outputs": [],
      "stateMutability": "nonpayable",
      "type": "function"
    },
    {
      "inputs": [
        {
          "internalType": "bytes32",
          "name": "",
          "type": "bytes32"
        },
        {
          "internalType": "bool",
          "name": "",
          "type": "bool"
        }
      ],
      "name": "checkAfterExecution",
      "outputs": [],
      "stateMutability": "nonpayable",
      "type": "function"
    },
    {
      "inputs": [
        {
          "internalType": "address",
          "name": "to",
          "type": "address"
        },
        {
          "internalType": "uint256",
          "name": "",
          "type": "uint256"
        },
        {
          "internalType": "bytes",
          "name": "data",
          "type": "bytes"
        },
        {
          "internalType": "enum Enum.Operation",
          "name": "operation",
          "type": "uint8"
        },
        {
          "internalType": "uint256",
          "name": "",
          "type": "uint256"
        },
        {
          "internalType": "uint256",
          "name": "",
          "type": "uint256"
        },
        {
          "internalType": "uint256",
          "name": "",
          "type": "uint256"
        },
        {
          "internalType": "address",
          "name": "",
          "type": "address"
        },
        {
          "internalType": "address payable",
          "name": "",
          "type": "address"
        },
        {
          "internalType": "bytes",
          "name": "",
          "type": "bytes"
        },
        {
          "internalType": "address",
          "name": "",
          "type": "address"
        }
      ],
      "name": "checkTransaction",
      "outputs": [],
      "stateMutability": "nonpayable",
      "type": "function"
    },
    {
      "inputs": [
        {
          "internalType": "address",
          "name": "target",
          "type": "address"
        },
        {
          "internalType": "bytes4",
          "name": "selector",
          "type": "bytes4"
        },
        {
          "internalType": "uint256",
          "name": "chainId",
          "type": "uint256"
        }
      ],
      "name": "getTargetSelectorChainId",
      "outputs": [
        {
          "internalType": "bool",
          "name": "status",
          "type": "bool"
        }
      ],
      "stateMutability": "view",
      "type": "function"
    },
    {
      "inputs": [],
      "name": "governor",
      "outputs": [
        {
          "internalType": "address",
          "name": "",
          "type": "address"
        }
      ],
      "stateMutability": "view",
      "type": "function"
    },
    {
      "inputs": [],
      "name": "governorCheckProposalId",
      "outputs": [
        {
          "internalType": "uint256",
          "name": "",
          "type": "uint256"
        }
      ],
      "stateMutability": "view",
      "type": "function"
    },
    {
      "inputs": [
        {
          "internalType": "uint256",
          "name": "",
          "type": "uint256"
        }
      ],
      "name": "mapAllowedTargetSelectorChainIds",
      "outputs": [
        {
          "internalType": "bool",
          "name": "",
          "type": "bool"
        }
      ],
      "stateMutability": "view",
      "type": "function"
    },
    {
      "inputs": [
        {
          "internalType": "address",
          "name": "",
          "type": "address"
        }
      ],
      "name": "mapBridgeMediatorL1BridgeParams",
      "outputs": [
        {
          "internalType": "address",
          "name": "verifierL2",
          "type": "address"
        },
        {
          "internalType": "address",
          "name": "bridgeMediatorL2",
          "type": "address"
        },
        {
          "internalType": "uint64",
          "name": "chainId",
          "type": "uint64"
        }
      ],
      "stateMutability": "view",
      "type": "function"
    },
    {
      "inputs": [],
      "name": "multisig",
      "outputs": [
        {
          "internalType": "address",
          "name": "",
          "type": "address"
        }
      ],
      "stateMutability": "view",
      "type": "function"
    },
    {
      "inputs": [],
      "name": "owner",
      "outputs": [
        {
          "internalType": "address",
          "name": "",
          "type": "address"
        }
      ],
      "stateMutability": "view",
      "type": "function"
    },
    {
      "inputs": [],
      "name": "pause",
      "outputs": [],
      "stateMutability": "nonpayable",
      "type": "function"
    },
    {
      "inputs": [],
      "name": "paused",
      "outputs": [
        {
          "internalType": "uint8",
          "name": "",
          "type": "uint8"
        }
      ],
      "stateMutability": "view",
      "type": "function"
    },
    {
      "inputs": [
        {
          "internalType": "address[]",
          "name": "bridgeMediatorL1s",
          "type": "address[]"
        },
        {
          "internalType": "address[]",
          "name": "verifierL2s",
          "type": "address[]"
        },
        {
          "internalType": "uint256[]",
          "name": "chainIds",
          "type": "uint256[]"
        },
        {
          "internalType": "address[]",
          "name": "bridgeMediatorL2s",
          "type": "address[]"
        }
      ],
      "name": "setBridgeMediatorL1BridgeParams",
      "outputs": [],
      "stateMutability": "nonpayable",
      "type": "function"
    },
    {
      "inputs": [
        {
          "internalType": "address[]",
          "name": "targets",
          "type": "address[]"
        },
        {
          "internalType": "bytes4[]",
          "name": "selectors",
          "type": "bytes4[]"
        },
        {
          "internalType": "uint256[]",
          "name": "chainIds",
          "type": "uint256[]"
        },
        {
          "internalType": "bool[]",
          "name": "statuses",
          "type": "bool[]"
        }
      ],
      "name": "setTargetSelectorChainIds",
      "outputs": [],
      "stateMutability": "nonpayable",
      "type": "function"
    },
    {
      "inputs": [],
      "name": "unpause",
      "outputs": [],
      "stateMutability": "nonpayable",
      "type": "function"
    }
  ],
  "bytecode": "0x60c06040527fc31bbc1e3236488ae8f22fbf502bfdf157c6632d6e26bf7aecc7efa40d960d296001556002805460ff60a01b1916600160a01b179055348015610046575f80fd5b50604051612a8b380380612a8b833981016040819052610065916100fb565b6001600160a01b038316158061008257506001600160a01b038216155b8061009457506001600160a01b038116155b156100b25760405163d92e233d60e01b815260040160405180910390fd5b6001600160a01b0392831660805290821660a052600280546001600160a01b0319169190921617905561013b565b80516001600160a01b03811681146100f6575f80fd5b919050565b5f805f6060848603121561010d575f80fd5b610116846100e0565b9250610124602085016100e0565b9150610132604085016100e0565b90509250925092565b60805160a0516128c66101c55f395f8181610300015281816110dd0152818161120501526113a101525f818161041101528181610481015281816104e9015281816109b301528181610a1b01528181610af501528181610b5d01528181610f0c01528181611184015281816114120152818161147a0152818161152a015261159201526128c65ff3fe608060405234801561000f575f80fd5b506004361061016e575f3560e01c80635d78d469116100d257806387b68df111610088578063e4c0aaf411610063578063e4c0aaf414610445578063ed7a975414610458578063f7cde1cc14610460575f80fd5b806387b68df1146103f95780638da5cb5b1461040c5780639327136814610433575f80fd5b80637c257f9d116100b85780637c257f9d1461038757806381792616146103e85780638456cb59146103f1575f80fd5b80635d78d4691461036157806375f0bb5214610374575f80fd5b80633ce3778c116101275780634783c35b1161010d5780634783c35b146102fb5780635bc105c0146103225780635c975abb1461032a575f80fd5b80633ce3778c146102dd5780633f4ba83a146102f3575f80fd5b806316979a181161015757806316979a18146101d157806336b057601461020a57806337a36b1f1461023c575f80fd5b80630c340a24146101725780631602c55c146101bc575b5f80fd5b6002546101929073ffffffffffffffffffffffffffffffffffffffff1681565b60405173ffffffffffffffffffffffffffffffffffffffff90911681526020015b60405180910390f35b6101cf6101ca366004611da8565b610469565b005b6101d9610978565b6040517fffffffff0000000000000000000000000000000000000000000000000000000090911681526020016101b3565b61022c610218366004611e4e565b5f6020819052908152604090205460ff1681565b60405190151581526020016101b3565b6102a061024a366004611e65565b60036020525f90815260409020805460019091015473ffffffffffffffffffffffffffffffffffffffff9182169181169074010000000000000000000000000000000000000000900467ffffffffffffffff1683565b6040805173ffffffffffffffffffffffffffffffffffffffff948516815293909216602084015267ffffffffffffffff16908201526060016101b3565b6102e5600481565b6040519081526020016101b3565b6101cf61099b565b6101927f000000000000000000000000000000000000000000000000000000000000000081565b6102e5610ab1565b60025461034f9074010000000000000000000000000000000000000000900460ff1681565b60405160ff90911681526020016101b3565b6101cf61036f366004611f28565b610add565b6101cf6103823660046120bb565b610e9a565b61022c610395366004612197565b60c01b77ffffffff0000000000000000000000000000000000000000604092831c1673ffffffffffffffffffffffffffffffffffffffff90931692909217919091175f9081526020819052205460ff1690565b6102e561010481565b6101cf61116d565b6101cf610407366004611e4e565b6113fa565b6101927f000000000000000000000000000000000000000000000000000000000000000081565b6101cf6104413660046121d2565b5050565b6101cf610453366004611e65565b611512565b6101d961167a565b6102e560015481565b3373ffffffffffffffffffffffffffffffffffffffff7f0000000000000000000000000000000000000000000000000000000000000000161461051b576040517fa43d6ada00000000000000000000000000000000000000000000000000000000815233600482015273ffffffffffffffffffffffffffffffffffffffff7f00000000000000000000000000000000000000000000000000000000000000001660248201526044015b60405180910390fd5b8251845114158061052e57508151845114155b8061053b57508051845114155b156105905783518351835183516040517f1d0d38490000000000000000000000000000000000000000000000000000000081526004810194909452602484019290925260448301526064820152608401610512565b5f5b82518110156108f8575f73ffffffffffffffffffffffffffffffffffffffff168582815181106105c4576105c46121fc565b602002602001015173ffffffffffffffffffffffffffffffffffffffff16148061063257505f73ffffffffffffffffffffffffffffffffffffffff16848281518110610612576106126121fc565b602002602001015173ffffffffffffffffffffffffffffffffffffffff16145b15610669576040517fd92e233d00000000000000000000000000000000000000000000000000000000815260040160405180910390fd5b83818151811061067b5761067b6121fc565b602002602001015173ffffffffffffffffffffffffffffffffffffffff163b5f03610709578381815181106106b2576106b26121fc565b60200260200101516040517f601c0c21000000000000000000000000000000000000000000000000000000008152600401610512919073ffffffffffffffffffffffffffffffffffffffff91909116815260200190565b5f83828151811061071c5761071c6121fc565b60200260200101519050805f148061075b57506024610744600267ffffffffffffffff612256565b61074e91906122a1565b67ffffffffffffffff1681115b15610795576040517f05877c3500000000000000000000000000000000000000000000000000000000815260048101829052602401610512565b5f60035f8885815181106107ab576107ab6121fc565b602002602001015173ffffffffffffffffffffffffffffffffffffffff1673ffffffffffffffffffffffffffffffffffffffff1681526020019081526020015f209050858381518110610800576108006121fc565b602090810291909101015181547fffffffffffffffffffffffff00000000000000000000000000000000000000001673ffffffffffffffffffffffffffffffffffffffff909116178155835184908490811061085e5761085e6121fc565b6020026020010151816001015f6101000a81548173ffffffffffffffffffffffffffffffffffffffff021916908373ffffffffffffffffffffffffffffffffffffffff1602179055508483815181106108b9576108b96121fc565b60200260200101518160010160146101000a81548167ffffffffffffffff021916908367ffffffffffffffff1602179055505050806001019050610592565b508060405161090791906122c9565b60405180910390208360405161091d91906122c9565b60405180910390208560405161093391906122c9565b60405180910390207fccffb126c66cf191a234c0410e40143d5af455b72fbc66713d2d5a8c32105d438560405161096a919061234e565b60405180910390a450505050565b604051806060016040528060378152602001612818603791398051906020012081565b3373ffffffffffffffffffffffffffffffffffffffff7f00000000000000000000000000000000000000000000000000000000000000001614610a48576040517fa43d6ada00000000000000000000000000000000000000000000000000000000815233600482015273ffffffffffffffffffffffffffffffffffffffff7f0000000000000000000000000000000000000000000000000000000000000000166024820152604401610512565b600280547fffffffffffffffffffffff00ffffffffffffffffffffffffffffffffffffffff16740100000000000000000000000000000000000000001790556040517fb7494247183e272909cbb2787cfe307a720be20191d035876006b8903349b361905f90a1565b6024610ac6600267ffffffffffffffff612256565b610ad091906122a1565b67ffffffffffffffff1681565b3373ffffffffffffffffffffffffffffffffffffffff7f00000000000000000000000000000000000000000000000000000000000000001614610b8a576040517fa43d6ada00000000000000000000000000000000000000000000000000000000815233600482015273ffffffffffffffffffffffffffffffffffffffff7f0000000000000000000000000000000000000000000000000000000000000000166024820152604401610512565b82518451141580610b9d57508051845114155b80610baa57508151845114155b15610bff5783518351825184516040517f1d0d38490000000000000000000000000000000000000000000000000000000081526004810194909452602484019290925260448301526064820152608401610512565b5f5b8451811015610e2e575f73ffffffffffffffffffffffffffffffffffffffff16858281518110610c3357610c336121fc565b602002602001015173ffffffffffffffffffffffffffffffffffffffff1603610c88576040517fd92e233d00000000000000000000000000000000000000000000000000000000815260040160405180910390fd5b83515f90859083908110610c9e57610c9e6121fc565b60200260200101517bffffffffffffffffffffffffffffffffffffffffffffffffffffffff191603610cfc576040517f7c946ed700000000000000000000000000000000000000000000000000000000815260040160405180910390fd5b828181518110610d0e57610d0e6121fc565b60200260200101515f03610d4e576040517f7c946ed700000000000000000000000000000000000000000000000000000000815260040160405180910390fd5b5f858281518110610d6157610d616121fc565b602002602001015173ffffffffffffffffffffffffffffffffffffffff16905060a0858381518110610d9557610d956121fc565b602002602001015160e01c63ffffffff16901b8117905060c0848381518110610dc057610dc06121fc565b6020026020010151901b81179050828281518110610de057610de06121fc565b6020908102919091018101515f92835290829052604090912080547fffffffffffffffffffffffffffffffffffffffffffffffffffffffffffffff0016911515919091179055600101610c01565b5082604051610e3d9190612360565b604051809103902084604051610e5391906122c9565b60405180910390207f820c9405a0f2bb85b6d3faa5e7cc32aab79e983e6b14fc2f47c34855003cd8b48484604051610e8c9291906123ab565b60405180910390a350505050565b60025474010000000000000000000000000000000000000000900460ff16600103611160576001886001811115610ed357610ed3612402565b03610f0a576040517f034aef8500000000000000000000000000000000000000000000000000000000815260040160405180910390fd5b7f000000000000000000000000000000000000000000000000000000000000000073ffffffffffffffffffffffffffffffffffffffff168b73ffffffffffffffffffffffffffffffffffffffff16036110db57600489511015610fa857885160046040517f34c9027a000000000000000000000000000000000000000000000000000000008152600401610512929190918252602082015260400190565b5f610fb28a61242f565b905060405180606001604052806037815260200161281860379139805190602001207bffffffffffffffffffffffffffffffffffffffffffffffffffffffff1916817bffffffffffffffffffffffffffffffffffffffffffffffffffffffff1916148061107b575060405180608001604052806042815260200161284f60429139805190602001207bffffffffffffffffffffffffffffffffffffffffffffffffffffffff1916817bffffffffffffffffffffffffffffffffffffffffffffffffffffffff1916145b156110d5576101048a5110156110cb5789516040517f34c9027a00000000000000000000000000000000000000000000000000000000815260048101919091526101046024820152604401610512565b6110d58a8261169d565b50611160565b7f000000000000000000000000000000000000000000000000000000000000000073ffffffffffffffffffffffffffffffffffffffff168b73ffffffffffffffffffffffffffffffffffffffff1603611160576040517f73dc029f00000000000000000000000000000000000000000000000000000000815260040160405180910390fd5b5050505050505050505050565b73ffffffffffffffffffffffffffffffffffffffff7f00000000000000000000000000000000000000000000000000000000000000001633036111ee57600280547fffffffffffffffffffffff00ffffffffffffffffffffffffffffffffffffffff16740200000000000000000000000000000000000000001790556113ce565b73ffffffffffffffffffffffffffffffffffffffff7f000000000000000000000000000000000000000000000000000000000000000016330361135e576002546001546040517f3e4f49e600000000000000000000000000000000000000000000000000000000815260048101919091525f9173ffffffffffffffffffffffffffffffffffffffff1690633e4f49e6906024016020604051808303815f875af115801561129d573d5f803e3d5ffd5b505050506040513d601f19601f820116820180604052508101906112c1919061247e565b905060038160078111156112d7576112d7612402565b0361132057600280547fffffffffffffffffffffff00ffffffffffffffffffffffffffffffffffffffff1674020000000000000000000000000000000000000000179055611358565b600154816040517fe83cca1700000000000000000000000000000000000000000000000000000000815260040161051292919061249c565b506113ce565b6040517f625a43fe00000000000000000000000000000000000000000000000000000000815233600482015273ffffffffffffffffffffffffffffffffffffffff7f0000000000000000000000000000000000000000000000000000000000000000166024820152604401610512565b60405133907fe09b21d6dd32859666ae309428ea624d48855f4762e0c91f342016e4947d793b905f90a2565b3373ffffffffffffffffffffffffffffffffffffffff7f000000000000000000000000000000000000000000000000000000000000000016146114a7576040517fa43d6ada00000000000000000000000000000000000000000000000000000000815233600482015273ffffffffffffffffffffffffffffffffffffffff7f0000000000000000000000000000000000000000000000000000000000000000166024820152604401610512565b805f036114e0576040517f7c946ed700000000000000000000000000000000000000000000000000000000815260040160405180910390fd5b600181905560405181907f63a01eaabe199ab888e562c930e21f3436583ea5acd4ca5c4ceffac3a523e039905f90a250565b3373ffffffffffffffffffffffffffffffffffffffff7f000000000000000000000000000000000000000000000000000000000000000016146115bf576040517fa43d6ada00000000000000000000000000000000000000000000000000000000815233600482015273ffffffffffffffffffffffffffffffffffffffff7f0000000000000000000000000000000000000000000000000000000000000000166024820152604401610512565b73ffffffffffffffffffffffffffffffffffffffff811661160c576040517fd92e233d00000000000000000000000000000000000000000000000000000000815260040160405180910390fd5b600280547fffffffffffffffffffffffff00000000000000000000000000000000000000001673ffffffffffffffffffffffffffffffffffffffff83169081179091556040517f386c8d5fb4be6c928b7de4c7ae0a4b2ad0d2b2a7edad65d9f0af9ba255e51219905f90a250565b60405180608001604052806042815260200161284f604291398051906020012081565b5f600483516116ac91906124e5565b67ffffffffffffffff8111156116c4576116c4611c04565b6040519080825280601f01601f1916602001820160405280156116ee576020820181803683370190505b5090505f5b815181101561176b57836117088260046124fe565b81518110611718576117186121fc565b602001015160f81c60f81b828281518110611735576117356121fc565b60200101907effffffffffffffffffffffffffffffffffffffffffffffffffffffffffffff191690815f1a9053506001016116f3565b5060608060405180606001604052806037815260200161281860379139805190602001207bffffffffffffffffffffffffffffffffffffffffffffffffffffffff1916847bffffffffffffffffffffffffffffffffffffffffffffffffffffffff1916036118a557604080516001808252818301909252906020808301908036833701905050604080516001808252818301909252919350816020015b606081526020019060019003908161180857905050905082806020019051810190611833919061255e565b5050855191925085915f915061184b5761184b6121fc565b60200260200101835f81518110611864576118646121fc565b602002602001018290528273ffffffffffffffffffffffffffffffffffffffff1673ffffffffffffffffffffffffffffffffffffffff1681525050506118c4565b828060200190518101906118b991906126a6565b509395509093505050505b5f5b8251811015611b1a575f60035f8584815181106118e5576118e56121fc565b60209081029190910181015173ffffffffffffffffffffffffffffffffffffffff90811683528282019390935260409182015f20825160608101845281548516808252600190920154948516928101929092527401000000000000000000000000000000000000000090930467ffffffffffffffff1691810191909152915015611ad4575f83838151811061197c5761197c6121fc565b6020026020010151826020015183604001516040516024016119a093929190612780565b604080517fffffffffffffffffffffffffffffffffffffffffffffffffffffffffffffffe08184030181529181526020820180517bffffffffffffffffffffffffffffffffffffffffffffffffffffffff167f224b0de700000000000000000000000000000000000000000000000000000000179052835190519192505f91829173ffffffffffffffffffffffffffffffffffffffff1690611a43908590612801565b5f60405180830381855af49150503d805f8114611a7b576040519150601f19603f3d011682016040523d82523d5f602084013e611a80565b606091505b509150915081611acc57805115611a9a5780518082602001fd5b6040517f18cecad500000000000000000000000000000000000000000000000000000000815260040160405180910390fd5b505050611b11565b611b11848381518110611ae957611ae96121fc565b6020026020010151848481518110611b0357611b036121fc565b602002602001015146611b22565b506001016118c6565b505050505050565b73ffffffffffffffffffffffffffffffffffffffff83165f611b438461242f565b604081811c77ffffffff0000000000000000000000000000000000000000169390931760c085901b175f8181526020819052939093205490915060ff16611bfd576040517f43abfb6c00000000000000000000000000000000000000000000000000000000815273ffffffffffffffffffffffffffffffffffffffff861660048201527fffffffff000000000000000000000000000000000000000000000000000000008216602482015260448101849052606401610512565b5050505050565b7f4e487b71000000000000000000000000000000000000000000000000000000005f52604160045260245ffd5b604051601f82017fffffffffffffffffffffffffffffffffffffffffffffffffffffffffffffffe016810167ffffffffffffffff81118282101715611c7857611c78611c04565b604052919050565b5f67ffffffffffffffff821115611c9957611c99611c04565b5060051b60200190565b73ffffffffffffffffffffffffffffffffffffffff81168114611cc4575f80fd5b50565b8035611cd281611ca3565b919050565b5f82601f830112611ce6575f80fd5b81356020611cfb611cf683611c80565b611c31565b8083825260208201915060208460051b870101935086841115611d1c575f80fd5b602086015b84811015611d41578035611d3481611ca3565b8352918301918301611d21565b509695505050505050565b5f82601f830112611d5b575f80fd5b81356020611d6b611cf683611c80565b8083825260208201915060208460051b870101935086841115611d8c575f80fd5b602086015b84811015611d415780358352918301918301611d91565b5f805f8060808587031215611dbb575f80fd5b843567ffffffffffffffff80821115611dd2575f80fd5b611dde88838901611cd7565b95506020870135915080821115611df3575f80fd5b611dff88838901611cd7565b94506040870135915080821115611e14575f80fd5b611e2088838901611d4c565b93506060870135915080821115611e35575f80fd5b50611e4287828801611cd7565b91505092959194509250565b5f60208284031215611e5e575f80fd5b5035919050565b5f60208284031215611e75575f80fd5b8135611e8081611ca3565b9392505050565b80357fffffffff0000000000000000000000000000000000000000000000000000000081168114611cd2575f80fd5b80358015158114611cd2575f80fd5b5f82601f830112611ed4575f80fd5b81356020611ee4611cf683611c80565b8083825260208201915060208460051b870101935086841115611f05575f80fd5b602086015b84811015611d4157611f1b81611eb6565b8352918301918301611f0a565b5f805f8060808587031215611f3b575f80fd5b843567ffffffffffffffff80821115611f52575f80fd5b611f5e88838901611cd7565b9550602091508187013581811115611f74575f80fd5b8701601f81018913611f84575f80fd5b8035611f92611cf682611c80565b81815260059190911b8201840190848101908b831115611fb0575f80fd5b928501925b82841015611fd557611fc684611e87565b82529285019290850190611fb5565b97505050506040870135915080821115611fed575f80fd5b611ff988838901611d4c565b9350606087013591508082111561200e575f80fd5b50611e4287828801611ec5565b5f67ffffffffffffffff82111561203457612034611c04565b50601f017fffffffffffffffffffffffffffffffffffffffffffffffffffffffffffffffe01660200190565b5f82601f83011261206f575f80fd5b813561207d611cf68261201b565b818152846020838601011115612091575f80fd5b816020850160208301375f918101602001919091529392505050565b803560028110611cd2575f80fd5b5f805f805f805f805f805f6101608c8e0312156120d6575f80fd5b6120df8c611cc7565b9a5060208c0135995067ffffffffffffffff8060408e01351115612101575f80fd5b6121118e60408f01358f01612060565b995061211f60608e016120ad565b985060808d0135975060a08d0135965060c08d0135955061214260e08e01611cc7565b94506121516101008e01611cc7565b9350806101208e01351115612164575f80fd5b506121768d6101208e01358e01612060565b91506121856101408d01611cc7565b90509295989b509295989b9093969950565b5f805f606084860312156121a9575f80fd5b83356121b481611ca3565b92506121c260208501611e87565b9150604084013590509250925092565b5f80604083850312156121e3575f80fd5b823591506121f360208401611eb6565b90509250929050565b7f4e487b71000000000000000000000000000000000000000000000000000000005f52603260045260245ffd5b7f4e487b71000000000000000000000000000000000000000000000000000000005f52601160045260245ffd5b5f67ffffffffffffffff80841680612295577f4e487b71000000000000000000000000000000000000000000000000000000005f52601260045260245ffd5b92169190910492915050565b67ffffffffffffffff8281168282160390808211156122c2576122c2612229565b5092915050565b81515f9082906020808601845b8381101561230857815173ffffffffffffffffffffffffffffffffffffffff16855293820193908201906001016122d6565b50929695505050505050565b5f815180845260208085019450602084015f5b8381101561234357815187529582019590820190600101612327565b509495945050505050565b602081525f611e806020830184612314565b81515f9082906020808601845b838110156123085781517fffffffff00000000000000000000000000000000000000000000000000000000168552938201939082019060010161236d565b604081525f6123bd6040830185612314565b8281036020848101919091528451808352858201928201905f5b818110156123f55784511515835293830193918301916001016123d7565b5090979650505050505050565b7f4e487b71000000000000000000000000000000000000000000000000000000005f52602160045260245ffd5b5f815160208301517fffffffff00000000000000000000000000000000000000000000000000000000808216935060048310156124765780818460040360031b1b83161693505b505050919050565b5f6020828403121561248e575f80fd5b815160088110611e80575f80fd5b82815260408101600883106124d8577f4e487b71000000000000000000000000000000000000000000000000000000005f52602160045260245ffd5b8260208301529392505050565b818103818111156124f8576124f8612229565b92915050565b808201808211156124f8576124f8612229565b5f82601f830112612520575f80fd5b815161252e611cf68261201b565b818152846020838601011115612542575f80fd5b8160208501602083015e5f918101602001919091529392505050565b5f805f805f8060c08789031215612573575f80fd5b865161257e81611ca3565b60208801516040890151919750955067ffffffffffffffff8111156125a1575f80fd5b6125ad89828a01612511565b945050606087015192506080870151915060a087015190509295509295509295565b5f82601f8301126125de575f80fd5b815160206125ee611cf683611c80565b8083825260208201915060208460051b87010193508684111561260f575f80fd5b602086015b84811015611d415780518352918301918301612614565b5f82601f83011261263a575f80fd5b8151602061264a611cf683611c80565b82815260059290921b84018101918181019086841115612668575f80fd5b8286015b84811015611d4157805167ffffffffffffffff81111561268a575f80fd5b6126988986838b0101612511565b84525091830191830161266c565b5f805f805f8060c087890312156126bb575f80fd5b865167ffffffffffffffff808211156126d2575f80fd5b818901915089601f8301126126e5575f80fd5b815160206126f5611cf683611c80565b82815260059290921b8401810191818101908d841115612713575f80fd5b948201945b8386101561273a57855161272b81611ca3565b82529482019490820190612718565b918c0151919a50909350505080821115612752575f80fd5b61275e8a838b016125cf565b96506040890151915080821115612773575f80fd5b506125ad89828a0161262b565b606081525f84518060608401528060208701608085015e5f6080828501015260807fffffffffffffffffffffffffffffffffffffffffffffffffffffffffffffffe0601f83011684010191505073ffffffffffffffffffffffffffffffffffffffff8416602083015267ffffffffffffffff83166040830152949350505050565b5f82518060208501845e5f92019182525091905056fe7363686564756c6528616464726573732c75696e743235362c62797465732c627974657333322c627974657333322c75696e74323536297363686564756c65426174636828616464726573735b5d2c75696e743235365b5d2c62797465735b5d2c627974657333322c627974657333322c75696e7432353629a2646970667358221220fceec9aedc11836c1fcf42303e8b32f8f8d5f6ba388cdd2e0f6c21c371d8828164736f6c63430008190033",
  "linkReferences": {},
  "deployedLinkReferences": {}
}