{
  "_format": "hh-sol-artifact-1",
  "contractName": "VoteWeighting",
  "sourceName": "contracts/VoteWeighting.sol",
  "abi": [
    {
      "inputs": [
        {
          "internalType": "address",
          "name": "_ve",
          "type": "address"
        }
      ],
      "stateMutability": "nonpayable",
      "type": "constructor"
    },
    {
      "inputs": [
        {
          "internalType": "address",
          "name": "account",
          "type": "address"
        },
        {
          "internalType": "uint256",
          "name": "deadline",
          "type": "uint256"
        },
        {
          "internalType": "uint256",
          "name": "curTime",
          "type": "uint256"
        }
      ],
      "name": "LockExpired",
      "type": "error"
    },
    {
      "inputs": [
        {
          "internalType": "address",
          "name": "account",
          "type": "address"
        },
        {
          "internalType": "int128",
          "name": "slope",
          "type": "int128"
        }
      ],
      "name": "NegativeSlope",
      "type": "error"
    },
    {
      "inputs": [
        {
          "internalType": "bytes32",
          "name": "account",
          "type": "bytes32"
        },
        {
          "internalType": "uint256",
          "name": "chainId",
          "type": "uint256"
        }
      ],
      "name": "NomineeAlreadyExists",
      "type": "error"
    },
    {
      "inputs": [
        {
          "internalType": "bytes32",
          "name": "account",
          "type": "bytes32"
        },
        {
          "internalType": "uint256",
          "name": "chainId",
          "type": "uint256"
        }
      ],
      "name": "NomineeDoesNotExist",
      "type": "error"
    },
    {
      "inputs": [
        {
          "internalType": "bytes32",
          "name": "account",
          "type": "bytes32"
        },
        {
          "internalType": "uint256",
          "name": "chainId",
          "type": "uint256"
        }
      ],
      "name": "NomineeNotRemoved",
      "type": "error"
    },
    {
      "inputs": [
        {
          "internalType": "bytes32",
          "name": "account",
          "type": "bytes32"
        },
        {
          "internalType": "uint256",
          "name": "chainId",
          "type": "uint256"
        }
      ],
      "name": "NomineeRemoved",
      "type": "error"
    },
    {
      "inputs": [
        {
          "internalType": "uint256",
          "name": "provided",
          "type": "uint256"
        },
        {
          "internalType": "uint256",
          "name": "max",
          "type": "uint256"
        }
      ],
      "name": "Overflow",
      "type": "error"
    },
    {
      "inputs": [
        {
          "internalType": "address",
          "name": "sender",
          "type": "address"
        },
        {
          "internalType": "address",
          "name": "owner",
          "type": "address"
        }
      ],
      "name": "OwnerOnly",
      "type": "error"
    },
    {
      "inputs": [
        {
          "internalType": "uint256",
          "name": "provided",
          "type": "uint256"
        },
        {
          "internalType": "uint256",
          "name": "expected",
          "type": "uint256"
        }
      ],
      "name": "Underflow",
      "type": "error"
    },
    {
      "inputs": [
        {
          "internalType": "address",
          "name": "voter",
          "type": "address"
        },
        {
          "internalType": "uint256",
          "name": "curTime",
          "type": "uint256"
        },
        {
          "internalType": "uint256",
          "name": "nextAllowedVotingTime",
          "type": "uint256"
        }
      ],
      "name": "VoteTooOften",
      "type": "error"
    },
    {
      "inputs": [
        {
          "internalType": "uint256",
          "name": "numValues1",
          "type": "uint256"
        },
        {
          "internalType": "uint256",
          "name": "numValues2",
          "type": "uint256"
        }
      ],
      "name": "WrongArrayLength",
      "type": "error"
    },
    {
      "inputs": [],
      "name": "ZeroAddress",
      "type": "error"
    },
    {
      "inputs": [],
      "name": "ZeroValue",
      "type": "error"
    },
    {
      "anonymous": false,
      "inputs": [
        {
          "indexed": true,
          "internalType": "bytes32",
          "name": "account",
          "type": "bytes32"
        },
        {
          "indexed": false,
          "internalType": "uint256",
          "name": "chainId",
          "type": "uint256"
        },
        {
          "indexed": false,
          "internalType": "uint256",
          "name": "id",
          "type": "uint256"
        }
      ],
      "name": "AddNominee",
      "type": "event"
    },
    {
      "anonymous": false,
      "inputs": [
        {
          "indexed": true,
          "internalType": "address",
          "name": "sender",
          "type": "address"
        },
        {
          "indexed": false,
          "internalType": "uint256",
          "name": "sumBias",
          "type": "uint256"
        }
      ],
      "name": "Checkpoint",
      "type": "event"
    },
    {
      "anonymous": false,
      "inputs": [
        {
          "indexed": true,
          "internalType": "address",
          "name": "sender",
          "type": "address"
        },
        {
          "indexed": true,
          "internalType": "bytes32",
          "name": "nomineeAccount",
          "type": "bytes32"
        },
        {
          "indexed": false,
          "internalType": "uint256",
          "name": "chainId",
          "type": "uint256"
        },
        {
          "indexed": false,
          "internalType": "uint256",
          "name": "nomineeWeight",
          "type": "uint256"
        },
        {
          "indexed": false,
          "internalType": "uint256",
          "name": "totalSum",
          "type": "uint256"
        }
      ],
      "name": "CheckpointNominee",
      "type": "event"
    },
    {
      "anonymous": false,
      "inputs": [
        {
          "indexed": true,
          "internalType": "address",
          "name": "dispenser",
          "type": "address"
        }
      ],
      "name": "DispenserUpdated",
      "type": "event"
    },
    {
      "anonymous": false,
      "inputs": [
        {
          "indexed": true,
          "internalType": "address",
          "name": "sender",
          "type": "address"
        },
        {
          "indexed": true,
          "internalType": "bytes32",
          "name": "nomineeAccount",
          "type": "bytes32"
        },
        {
          "indexed": false,
          "internalType": "uint256",
          "name": "chainId",
          "type": "uint256"
        },
        {
          "indexed": false,
          "internalType": "uint256",
          "name": "nomineeWeight",
          "type": "uint256"
        },
        {
          "indexed": false,
          "internalType": "uint256",
          "name": "totalSum",
          "type": "uint256"
        },
        {
          "indexed": false,
          "internalType": "uint256",
          "name": "nomineeRelativeWeight",
          "type": "uint256"
        }
      ],
      "name": "NomineeRelativeWeightWrite",
      "type": "event"
    },
    {
      "anonymous": false,
      "inputs": [
        {
          "indexed": true,
          "internalType": "address",
          "name": "owner",
          "type": "address"
        }
      ],
      "name": "OwnerUpdated",
      "type": "event"
    },
    {
      "anonymous": false,
      "inputs": [
        {
          "indexed": true,
          "internalType": "bytes32",
          "name": "account",
          "type": "bytes32"
        },
        {
          "indexed": false,
          "internalType": "uint256",
          "name": "chainId",
          "type": "uint256"
        },
        {
          "indexed": false,
          "internalType": "uint256",
          "name": "newSum",
          "type": "uint256"
        }
      ],
      "name": "RemoveNominee",
      "type": "event"
    },
    {
      "anonymous": false,
      "inputs": [
        {
          "indexed": true,
          "internalType": "address",
          "name": "user",
          "type": "address"
        },
        {
          "indexed": true,
          "internalType": "bytes32",
          "name": "nominee",
          "type": "bytes32"
        },
        {
          "indexed": false,
          "internalType": "uint256",
          "name": "chainId",
          "type": "uint256"
        },
        {
          "indexed": false,
          "internalType": "uint256",
          "name": "weight",
          "type": "uint256"
        }
      ],
      "name": "VoteForNominee",
      "type": "event"
    },
    {
      "inputs": [],
      "name": "MAX_EVM_CHAIN_ID",
      "outputs": [
        {
          "internalType": "uint256",
          "name": "",
          "type": "uint256"
        }
      ],
      "stateMutability": "view",
      "type": "function"
    },
    {
      "inputs": [],
      "name": "MAX_WEIGHT",
      "outputs": [
        {
          "internalType": "uint256",
          "name": "",
          "type": "uint256"
        }
      ],
      "stateMutability": "view",
      "type": "function"
    },
    {
      "inputs": [],
      "name": "WEEK",
      "outputs": [
        {
          "internalType": "uint256",
          "name": "",
          "type": "uint256"
        }
      ],
      "stateMutability": "view",
      "type": "function"
    },
    {
      "inputs": [],
      "name": "WEIGHT_VOTE_DELAY",
      "outputs": [
        {
          "internalType": "uint256",
          "name": "",
          "type": "uint256"
        }
      ],
      "stateMutability": "view",
      "type": "function"
    },
    {
      "inputs": [
        {
          "internalType": "address",
          "name": "account",
          "type": "address"
        },
        {
          "internalType": "uint256",
          "name": "chainId",
          "type": "uint256"
        }
      ],
      "name": "addNomineeEVM",
      "outputs": [],
      "stateMutability": "nonpayable",
      "type": "function"
    },
    {
      "inputs": [
        {
          "internalType": "bytes32",
          "name": "account",
          "type": "bytes32"
        },
        {
          "internalType": "uint256",
          "name": "chainId",
          "type": "uint256"
        }
      ],
      "name": "addNomineeNonEVM",
      "outputs": [],
      "stateMutability": "nonpayable",
      "type": "function"
    },
    {
      "inputs": [
        {
          "internalType": "address",
          "name": "newDispenser",
          "type": "address"
        }
      ],
      "name": "changeDispenser",
      "outputs": [],
      "stateMutability": "nonpayable",
      "type": "function"
    },
    {
      "inputs": [
        {
          "internalType": "address",
          "name": "newOwner",
          "type": "address"
        }
      ],
      "name": "changeOwner",
      "outputs": [],
      "stateMutability": "nonpayable",
      "type": "function"
    },
    {
      "inputs": [
        {
          "internalType": "uint256",
          "name": "",
          "type": "uint256"
        }
      ],
      "name": "changesSum",
      "outputs": [
        {
          "internalType": "uint256",
          "name": "",
          "type": "uint256"
        }
      ],
      "stateMutability": "view",
      "type": "function"
    },
    {
      "inputs": [
        {
          "internalType": "bytes32",
          "name": "",
          "type": "bytes32"
        },
        {
          "internalType": "uint256",
          "name": "",
          "type": "uint256"
        }
      ],
      "name": "changesWeight",
      "outputs": [
        {
          "internalType": "uint256",
          "name": "",
          "type": "uint256"
        }
      ],
      "stateMutability": "view",
      "type": "function"
    },
    {
      "inputs": [],
      "name": "checkpoint",
      "outputs": [],
      "stateMutability": "nonpayable",
      "type": "function"
    },
    {
      "inputs": [
        {
          "internalType": "bytes32",
          "name": "account",
          "type": "bytes32"
        },
        {
          "internalType": "uint256",
          "name": "chainId",
          "type": "uint256"
        }
      ],
      "name": "checkpointNominee",
      "outputs": [],
      "stateMutability": "nonpayable",
      "type": "function"
    },
    {
      "inputs": [],
      "name": "dispenser",
      "outputs": [
        {
          "internalType": "address",
          "name": "",
          "type": "address"
        }
      ],
      "stateMutability": "view",
      "type": "function"
    },
    {
      "inputs": [],
      "name": "getAllNominees",
      "outputs": [
        {
          "components": [
            {
              "internalType": "bytes32",
              "name": "account",
              "type": "bytes32"
            },
            {
              "internalType": "uint256",
              "name": "chainId",
              "type": "uint256"
            }
          ],
          "internalType": "struct Nominee[]",
          "name": "nominees",
          "type": "tuple[]"
        }
      ],
      "stateMutability": "view",
      "type": "function"
    },
    {
      "inputs": [
        {
          "internalType": "bytes32[]",
          "name": "accounts",
          "type": "bytes32[]"
        },
        {
          "internalType": "uint256[]",
          "name": "chainIds",
          "type": "uint256[]"
        },
        {
          "internalType": "address[]",
          "name": "voters",
          "type": "address[]"
        }
      ],
      "name": "getNextAllowedVotingTimes",
      "outputs": [
        {
          "internalType": "uint256[]",
          "name": "nextAllowedVotingTimes",
          "type": "uint256[]"
        }
      ],
      "stateMutability": "view",
      "type": "function"
    },
    {
      "inputs": [
        {
          "internalType": "uint256",
          "name": "id",
          "type": "uint256"
        }
      ],
      "name": "getNominee",
      "outputs": [
        {
          "components": [
            {
              "internalType": "bytes32",
              "name": "account",
              "type": "bytes32"
            },
            {
              "internalType": "uint256",
              "name": "chainId",
              "type": "uint256"
            }
          ],
          "internalType": "struct Nominee",
          "name": "nominee",
          "type": "tuple"
        }
      ],
      "stateMutability": "view",
      "type": "function"
    },
    {
      "inputs": [
        {
          "internalType": "bytes32",
          "name": "account",
          "type": "bytes32"
        },
        {
          "internalType": "uint256",
          "name": "chainId",
          "type": "uint256"
        }
      ],
      "name": "getNomineeId",
      "outputs": [
        {
          "internalType": "uint256",
          "name": "id",
          "type": "uint256"
        }
      ],
      "stateMutability": "view",
      "type": "function"
    },
    {
      "inputs": [
        {
          "internalType": "bytes32",
          "name": "account",
          "type": "bytes32"
        },
        {
          "internalType": "uint256",
          "name": "chainId",
          "type": "uint256"
        }
      ],
      "name": "getNomineeWeight",
      "outputs": [
        {
          "internalType": "uint256",
          "name": "",
          "type": "uint256"
        }
      ],
      "stateMutability": "view",
      "type": "function"
    },
    {
      "inputs": [
        {
          "internalType": "uint256",
          "name": "startId",
          "type": "uint256"
        },
        {
          "internalType": "uint256",
          "name": "numNominees",
          "type": "uint256"
        }
      ],
      "name": "getNominees",
      "outputs": [
        {
          "components": [
            {
              "internalType": "bytes32",
              "name": "account",
              "type": "bytes32"
            },
            {
              "internalType": "uint256",
              "name": "chainId",
              "type": "uint256"
            }
          ],
          "internalType": "struct Nominee[]",
          "name": "nominees",
          "type": "tuple[]"
        }
      ],
      "stateMutability": "view",
      "type": "function"
    },
    {
      "inputs": [],
      "name": "getNumNominees",
      "outputs": [
        {
          "internalType": "uint256",
          "name": "",
          "type": "uint256"
        }
      ],
      "stateMutability": "view",
      "type": "function"
    },
    {
      "inputs": [],
      "name": "getWeightsSum",
      "outputs": [
        {
          "internalType": "uint256",
          "name": "",
          "type": "uint256"
        }
      ],
      "stateMutability": "view",
      "type": "function"
    },
    {
      "inputs": [
        {
          "internalType": "address",
          "name": "",
          "type": "address"
        },
        {
          "internalType": "bytes32",
          "name": "",
          "type": "bytes32"
        }
      ],
      "name": "lastUserVote",
      "outputs": [
        {
          "internalType": "uint256",
          "name": "",
          "type": "uint256"
        }
      ],
      "stateMutability": "view",
      "type": "function"
    },
    {
      "inputs": [
        {
          "internalType": "bytes32",
          "name": "",
          "type": "bytes32"
        }
      ],
      "name": "mapNomineeIds",
      "outputs": [
        {
          "internalType": "uint256",
          "name": "",
          "type": "uint256"
        }
      ],
      "stateMutability": "view",
      "type": "function"
    },
    {
      "inputs": [
        {
          "internalType": "bytes32",
          "name": "",
          "type": "bytes32"
        }
      ],
      "name": "mapRemovedNominees",
      "outputs": [
        {
          "internalType": "bool",
          "name": "",
          "type": "bool"
        }
      ],
      "stateMutability": "view",
      "type": "function"
    },
    {
      "inputs": [
        {
          "internalType": "bytes32",
          "name": "account",
          "type": "bytes32"
        },
        {
          "internalType": "uint256",
          "name": "chainId",
          "type": "uint256"
        },
        {
          "internalType": "uint256",
          "name": "time",
          "type": "uint256"
        }
      ],
      "name": "nomineeRelativeWeight",
      "outputs": [
        {
          "internalType": "uint256",
          "name": "relativeWeight",
          "type": "uint256"
        },
        {
          "internalType": "uint256",
          "name": "totalSum",
          "type": "uint256"
        }
      ],
      "stateMutability": "view",
      "type": "function"
    },
    {
      "inputs": [
        {
          "internalType": "bytes32",
          "name": "account",
          "type": "bytes32"
        },
        {
          "internalType": "uint256",
          "name": "chainId",
          "type": "uint256"
        },
        {
          "internalType": "uint256",
          "name": "time",
          "type": "uint256"
        }
      ],
      "name": "nomineeRelativeWeightWrite",
      "outputs": [
        {
          "internalType": "uint256",
          "name": "relativeWeight",
          "type": "uint256"
        },
        {
          "internalType": "uint256",
          "name": "totalSum",
          "type": "uint256"
        }
      ],
      "stateMutability": "nonpayable",
      "type": "function"
    },
    {
      "inputs": [],
      "name": "owner",
      "outputs": [
        {
          "internalType": "address",
          "name": "",
          "type": "address"
        }
      ],
      "stateMutability": "view",
      "type": "function"
    },
    {
      "inputs": [
        {
          "internalType": "uint256",
          "name": "",
          "type": "uint256"
        }
      ],
      "name": "pointsSum",
      "outputs": [
        {
          "internalType": "uint256",
          "name": "bias",
          "type": "uint256"
        },
        {
          "internalType": "uint256",
          "name": "slope",
          "type": "uint256"
        }
      ],
      "stateMutability": "view",
      "type": "function"
    },
    {
      "inputs": [
        {
          "internalType": "bytes32",
          "name": "",
          "type": "bytes32"
        },
        {
          "internalType": "uint256",
          "name": "",
          "type": "uint256"
        }
      ],
      "name": "pointsWeight",
      "outputs": [
        {
          "internalType": "uint256",
          "name": "bias",
          "type": "uint256"
        },
        {
          "internalType": "uint256",
          "name": "slope",
          "type": "uint256"
        }
      ],
      "stateMutability": "view",
      "type": "function"
    },
    {
      "inputs": [
        {
          "internalType": "bytes32",
          "name": "account",
          "type": "bytes32"
        },
        {
          "internalType": "uint256",
          "name": "chainId",
          "type": "uint256"
        }
      ],
      "name": "removeNominee",
      "outputs": [],
      "stateMutability": "nonpayable",
      "type": "function"
    },
    {
      "inputs": [
        {
          "internalType": "bytes32",
          "name": "account",
          "type": "bytes32"
        },
        {
          "internalType": "uint256",
          "name": "chainId",
          "type": "uint256"
        }
      ],
      "name": "retrieveRemovedNomineeVotingPower",
      "outputs": [],
      "stateMutability": "nonpayable",
      "type": "function"
    },
    {
      "inputs": [
        {
          "internalType": "uint256",
          "name": "",
          "type": "uint256"
        }
      ],
      "name": "setNominees",
      "outputs": [
        {
          "internalType": "bytes32",
          "name": "account",
          "type": "bytes32"
        },
        {
          "internalType": "uint256",
          "name": "chainId",
          "type": "uint256"
        }
      ],
      "stateMutability": "view",
      "type": "function"
    },
    {
      "inputs": [],
      "name": "timeSum",
      "outputs": [
        {
          "internalType": "uint256",
          "name": "",
          "type": "uint256"
        }
      ],
      "stateMutability": "view",
      "type": "function"
    },
    {
      "inputs": [
        {
          "internalType": "bytes32",
          "name": "",
          "type": "bytes32"
        }
      ],
      "name": "timeWeight",
      "outputs": [
        {
          "internalType": "uint256",
          "name": "",
          "type": "uint256"
        }
      ],
      "stateMutability": "view",
      "type": "function"
    },
    {
      "inputs": [],
      "name": "ve",
      "outputs": [
        {
          "internalType": "address",
          "name": "",
          "type": "address"
        }
      ],
      "stateMutability": "view",
      "type": "function"
    },
    {
      "inputs": [
        {
          "internalType": "bytes32",
          "name": "account",
          "type": "bytes32"
        },
        {
          "internalType": "uint256",
          "name": "chainId",
          "type": "uint256"
        },
        {
          "internalType": "uint256",
          "name": "weight",
          "type": "uint256"
        }
      ],
      "name": "voteForNomineeWeights",
      "outputs": [],
      "stateMutability": "nonpayable",
      "type": "function"
    },
    {
      "inputs": [
        {
          "internalType": "bytes32[]",
          "name": "accounts",
          "type": "bytes32[]"
        },
        {
          "internalType": "uint256[]",
          "name": "chainIds",
          "type": "uint256[]"
        },
        {
          "internalType": "uint256[]",
          "name": "weights",
          "type": "uint256[]"
        }
      ],
      "name": "voteForNomineeWeightsBatch",
      "outputs": [],
      "stateMutability": "nonpayable",
      "type": "function"
    },
    {
      "inputs": [
        {
          "internalType": "address",
          "name": "",
          "type": "address"
        }
      ],
      "name": "voteUserPower",
      "outputs": [
        {
          "internalType": "uint256",
          "name": "",
          "type": "uint256"
        }
      ],
      "stateMutability": "view",
      "type": "function"
    },
    {
      "inputs": [
        {
          "internalType": "address",
          "name": "",
          "type": "address"
        },
        {
          "internalType": "bytes32",
          "name": "",
          "type": "bytes32"
        }
      ],
      "name": "voteUserSlopes",
      "outputs": [
        {
          "internalType": "uint256",
          "name": "slope",
          "type": "uint256"
        },
        {
          "internalType": "uint256",
          "name": "power",
          "type": "uint256"
        },
        {
          "internalType": "uint256",
          "name": "end",
          "type": "uint256"
        }
      ],
      "stateMutability": "view",
      "type": "function"
    }
  ],
  "bytecode": "0x60a060405234801561000f575f80fd5b50604051612f15380380612f1583398101604081905261002e9161010b565b6001600160a01b0381166100555760405163d92e233d60e01b815260040160405180910390fd5b5f80546001600160a01b031916331790556001600160a01b03811660805262093a806100818142610138565b61008b9190610157565b600d5550604080518082019091525f8082526020820181815260028054600181018255928190529251919092027f405787fa12a823e0f2b7631cc41b3ba8828b3321ca811111fa75cd3aa3bb5ace81019190915590517f405787fa12a823e0f2b7631cc41b3ba8828b3321ca811111fa75cd3aa3bb5acf90910155610180565b5f6020828403121561011b575f80fd5b81516001600160a01b0381168114610131575f80fd5b9392505050565b5f8261015257634e487b7160e01b5f52601260045260245ffd5b500490565b808202811582820484141761017a57634e487b7160e01b5f52601160045260245ffd5b92915050565b608051612d6f6101a65f395f818161032f01528181611a640152611b610152612d6f5ff3fe608060405234801561000f575f80fd5b506004361061029c575f3560e01c806385556a9511610171578063c54dd0d4116100d2578063ec73d90611610088578063f4359ce51161006e578063f4359ce5146106a7578063f4da12ba146106b1578063f9572f7c146106b9575f80fd5b8063ec73d90614610669578063f0cd64af14610688575f80fd5b8063dc87f536116100b8578063dc87f53614610616578063e09d894d14610640578063e4a28a5214610660575f80fd5b8063c54dd0d4146105f0578063c88d47f014610603575f80fd5b8063a512480311610127578063b174b41c1161010d578063b174b41c146105a3578063beaf44e8146105d5578063c2c4c5c1146105e8575f80fd5b8063a512480314610588578063a6f9dae114610590575f80fd5b80638e28764b116101575780638e28764b146105295780639d1750531461055a578063a18f99ff14610580575f80fd5b806385556a95146104e05780638da5cb5b1461050a575f80fd5b8063415970361161021b578063609c6b87116101d15780636b39ac1a116101b75780636b39ac1a1461049a5780637a75b27e146104ad5780637ee8bfe9146104cd575f80fd5b8063609c6b87146104335780636a28a33c14610487575f80fd5b8063456f099711610201578063456f09971461040d57806348264997146104205780634f6ffd0714610429575f80fd5b806341597036146103e45780634479b5cf146103fa575f80fd5b80631f8507161161027057806327ebf5311161025657806327ebf531146103895780632a53b2af146103a95780633b766b3d146103bc575f80fd5b80631f8507161461032a57806326abaf2414610376575f80fd5b806292a596146102a05780630c423201146102c95780631765ab7f146102f65780631b98dd901461030b575b5f80fd5b6102b36102ae366004612723565b6106cc565b6040516102c09190612743565b60405180910390f35b6102e86102d7366004612799565b600c6020525f908152604090205481565b6040519081526020016102c0565b610309610304366004612723565b61084d565b005b6102e8610319366004612799565b600a6020525f908152604090205481565b6103517f000000000000000000000000000000000000000000000000000000000000000081565b60405173ffffffffffffffffffffffffffffffffffffffff90911681526020016102c0565b6103096103843660046128bb565b610945565b61039c610397366004612799565b610a0b565b6040516102c0919061293d565b6103096103b736600461297c565b610af3565b6103cf6103ca366004612799565b610bd2565b604080519283526020830191909152016102c0565b600d545f908152600b60205260409020546102e8565b6102e8610408366004612723565b610bfe565b6102e861041b366004612723565b610c80565b6102e8600d5481565b6102e8620d2f0081565b61046c610441366004612995565b600560209081525f928352604080842090915290825290208054600182015460029092015490919083565b604080519384526020840192909252908201526060016102c0565b610309610495366004612723565b610cf1565b6103096104a8366004612995565b610edd565b6104c06104bb3660046129bd565b61102b565b6040516102c09190612a9a565b6103cf6104db366004612add565b611275565b6102e86104ee366004612995565b600760209081525f928352604080842090915290825290205481565b5f546103519073ffffffffffffffffffffffffffffffffffffffff1681565b6103cf610537366004612723565b600860209081525f92835260408084209091529082529020805460019091015482565b6103cf610568366004612799565b600b6020525f90815260409020805460019091015482565b6102e86112f2565b6102b3611308565b61030961059e36600461297c565b611377565b6105c56105b1366004612799565b60046020525f908152604090205460ff1681565b60405190151581526020016102c0565b6103096105e3366004612723565b6114a1565b610309611505565b6103096105fe366004612723565b611549565b6103cf610611366004612add565b611940565b6102e8610624366004612723565b600960209081525f928352604080842090915290825290205481565b6001546103519073ffffffffffffffffffffffffffffffffffffffff1681565b6102e861271081565b6102e861067736600461297c565b60066020525f908152604090205481565b6102e8610696366004612799565b60036020525f908152604090205481565b6102e862093a8081565b6102e8611959565b6103096106c7366004612add565b611985565b60608215806106d9575081155b15610710576040517f7c946ed700000000000000000000000000000000000000000000000000000000815260040160405180910390fd5b5f61071b8385612b33565b6002549091508082111561076a576040517f7ae5968500000000000000000000000000000000000000000000000000000000815260048101839052602481018290526044015b60405180910390fd5b8367ffffffffffffffff811115610783576107836127b0565b6040519080825280602002602001820160405280156107c757816020015b604080518082019091525f80825260208201528152602001906001900390816107a15790505b5092505f5b84811015610844575f6107df8783612b33565b9050600281815481106107f4576107f4612b46565b905f5260205f2090600202016040518060400160405290815f820154815260200160018201548152505085838151811061083057610830612b46565b6020908102919091010152506001016107cc565b50505092915050565b81610884576040517fd92e233d00000000000000000000000000000000000000000000000000000000815260040160405180910390fd5b80602461089a600267ffffffffffffffff612ba0565b6108a49190612bc6565b67ffffffffffffffff1610610923578060246108c9600267ffffffffffffffff612ba0565b6108d39190612bc6565b6108e89067ffffffffffffffff166001612b33565b6040517fc076384b00000000000000000000000000000000000000000000000000000000815260048101929092526024820152604401610761565b6040805180820190915282815260208101829052610940816120e8565b505050565b8151835114158061095857508051835114155b1561099c57825181516040517f8151c11000000000000000000000000000000000000000000000000000000000815260048101929092526024820152604401610761565b5f5b8351811015610a05576109fd8482815181106109bc576109bc612b46565b60200260200101518483815181106109d6576109d6612b46565b60200260200101518484815181106109f0576109f0612b46565b6020026020010151611985565b60010161099e565b50505050565b604080518082019091525f80825260208201526002545f90610a2f90600190612bee565b9050825f03610a6a576040517f7c946ed700000000000000000000000000000000000000000000000000000000815260040160405180910390fd5b80831115610aae576040517f7ae596850000000000000000000000000000000000000000000000000000000081526004810184905260248101829052604401610761565b60028381548110610ac157610ac1612b46565b905f5260205f2090600202016040518060400160405290815f8201548152602001600182015481525050915050919050565b5f5473ffffffffffffffffffffffffffffffffffffffff163314610b64575f546040517fa43d6ada00000000000000000000000000000000000000000000000000000000815233600482015273ffffffffffffffffffffffffffffffffffffffff9091166024820152604401610761565b600180547fffffffffffffffffffffffff00000000000000000000000000000000000000001673ffffffffffffffffffffffffffffffffffffffff83169081179091556040517fe4915bbde794cce5e56670cce1c0048ef68276040acd048bdb7157ded9232b48905f90a250565b60028181548110610be1575f80fd5b5f9182526020909120600290910201805460019091015490915082565b604080518082018252838152602080820184905291515f928391610c249184910161293d565b604080517fffffffffffffffffffffffffffffffffffffffffffffffffffffffffffffffe081840301815291815281516020928301205f90815260088352818120600a8452828220548252909252902054925050505b92915050565b604080518082018252838152602080820184905291515f928391610ca69184910161293d565b604080517fffffffffffffffffffffffffffffffffffffffffffffffffffffffffffffffe081840301815291815281516020928301205f908152600390925290205495945050505050565b5f60405180604001604052808481526020018381525090505f81604051602001610d1b919061293d565b604080517fffffffffffffffffffffffffffffffffffffffffffffffffffffffffffffffe081840301815291815281516020928301205f818152600490935291205490915060ff16610da3576040517fa43ec26f0000000000000000000000000000000000000000000000000000000081526004810185905260248101849052604401610761565b335f90815260056020908152604080832084845282528083208151606081018352815481526001820154938101849052600290910154918101919091529103610e18576040517f7c946ed700000000000000000000000000000000000000000000000000000000815260040160405180910390fd5b4281604001511115610e805780515f83815260096020908152604080832081860151845290915281208054909190610e51908490612bee565b909155505080516040808301515f908152600c6020529081208054909190610e7a908490612bee565b90915550505b335f9081526006602090815260409091205490820151610ea09082612bee565b335f908152600660209081526040808320939093556005815282822095825294909452832083815560018101849055600201929092555050505050565b73ffffffffffffffffffffffffffffffffffffffff8216610f2a576040517fd92e233d00000000000000000000000000000000000000000000000000000000815260040160405180910390fd5b805f03610f63576040517f7c946ed700000000000000000000000000000000000000000000000000000000815260040160405180910390fd5b6024610f78600267ffffffffffffffff612ba0565b610f829190612bc6565b67ffffffffffffffff16811115610ff857806024610fa9600267ffffffffffffffff612ba0565b610fb39190612bc6565b6040517f7ae59685000000000000000000000000000000000000000000000000000000008152600481019290925267ffffffffffffffff166024820152604401610761565b6040805180820190915273ffffffffffffffffffffffffffffffffffffffff8316815260208101829052610940816120e8565b60608251845114158061104057508151845114155b1561108457835183516040517f8151c11000000000000000000000000000000000000000000000000000000000815260048101929092526024820152604401610761565b835167ffffffffffffffff81111561109e5761109e6127b0565b6040519080825280602002602001820160405280156110c7578160200160208202803683370190505b5090505f5b845181101561126d575f60405180604001604052808784815181106110f3576110f3612b46565b6020026020010151815260200186848151811061111257611112612b46565b602002602001015181525090505f81604051602001611131919061293d565b60405160208183030381529060405280519060200120905060035f8281526020019081526020015f20545f036111d25786838151811061117357611173612b46565b602002602001015186848151811061118d5761118d612b46565b60200260200101516040517f31b05a80000000000000000000000000000000000000000000000000000000008152600401610761929190918252602082015260400190565b620d2f0060075f8786815181106111eb576111eb612b46565b602002602001015173ffffffffffffffffffffffffffffffffffffffff1673ffffffffffffffffffffffffffffffffffffffff1681526020019081526020015f205f8381526020019081526020015f20546112469190612b33565b84848151811061125857611258612b46565b602090810291909101015250506001016110cc565b509392505050565b5f805f611282868661236b565b905061128c612555565b5061129886868661264e565b6040805188815260208101859052908101829052606081018390529194509250869033907fd5c6370d65eabf98bee6ac71ce6270200ecc37dc6ba99a7856f1232081b312b39060800160405180910390a350935093915050565b6002545f9061130390600190612bee565b905090565b60606002805480602002602001604051908101604052809291908181526020015f905b8282101561136e578382905f5260205f2090600202016040518060400160405290815f82015481526020016001820154815250508152602001906001019061132b565b50505050905090565b5f5473ffffffffffffffffffffffffffffffffffffffff1633146113e8575f546040517fa43d6ada00000000000000000000000000000000000000000000000000000000815233600482015273ffffffffffffffffffffffffffffffffffffffff9091166024820152604401610761565b73ffffffffffffffffffffffffffffffffffffffff8116611435576040517fd92e233d00000000000000000000000000000000000000000000000000000000815260040160405180910390fd5b5f80547fffffffffffffffffffffffff00000000000000000000000000000000000000001673ffffffffffffffffffffffffffffffffffffffff8316908117825560405190917f4ffd725fc4a22075e9ec71c59edf9c38cdeb588a91b24fc5b61388c5be41282b91a250565b5f6114ac838361236b565b90505f6114b7612555565b6040805185815260208101859052908101829052909150849033907f383652a8d239c1168f936d2835a90aa915d1d6bf7af7d5144638be714a3193b39060600160405180910390a350505050565b5f61150e612555565b60405181815290915033907f39cf56b90e9d763f0c102996f87d848a60d5b19bd9d53e36505c49b64aa89c729060200160405180910390a250565b5f5473ffffffffffffffffffffffffffffffffffffffff1633146115ba575f546040517fa43d6ada00000000000000000000000000000000000000000000000000000000815273ffffffffffffffffffffffffffffffffffffffff9091166004820152336024820152604401610761565b5f60405180604001604052808481526020018381525090505f816040516020016115e4919061293d565b604080517fffffffffffffffffffffffffffffffffffffffffffffffffffffffffffffffe081840301815291815281516020928301205f8181526003909352908220549092509081900361166e576040517f31b05a800000000000000000000000000000000000000000000000000000000081526004810186905260248101859052604401610761565b5f611679868661236b565b90505f611684612555565b90505f62093a80806116968142612b33565b6116a09190612c01565b6116aa9190612c14565b5f8681526008602090815260408083208484528252808320839055888352600a90915281208290559091506116df8484612bee565b5f838152600b60209081526040808320849055600d8690558983526004825280832080547fffffffffffffffffffffffffffffffffffffffffffffffffffffffffffffff001660019081179091556003909252822091909155600280549293509161174a9190612bee565b8154811061175a5761175a612b46565b5f9182526020808320604080518082018252600290940290910180548452600101548383015251919950611790918a910161293d565b604080517fffffffffffffffffffffffffffffffffffffffffffffffffffffffffffffffe081840301815291815281516020928301205f81815260039093529120879055600280549192508991889081106117ed576117ed612b46565b905f5260205f2090600202015f820151815f015560208201518160010155905050600280548061181f5761181f612c2b565b5f8281526020812060027fffffffffffffffffffffffffffffffffffffffffffffffffffffffffffffffff9093019283020181815560019081019190915591555473ffffffffffffffffffffffffffffffffffffffff1680156118f8576040517f63c4d28e0000000000000000000000000000000000000000000000000000000081526004810189905273ffffffffffffffffffffffffffffffffffffffff8216906363c4d28e906024015f604051808303815f87803b1580156118e1575f80fd5b505af11580156118f3573d5f803e3d5ffd5b505050505b604080518b8152602081018590528c917f30b83ce9dbee69f017e7059540e314cdce9e25b2288840cfe65ca96c2d7bab06910160405180910390a25050505050505050505050565b5f8061194d85858561264e565b90969095509350505050565b602461196e600267ffffffffffffffff612ba0565b6119789190612bc6565b67ffffffffffffffff1681565b5f6040518060400160405280858152602001848152506040516020016119ab919061293d565b604080517fffffffffffffffffffffffffffffffffffffffffffffffffffffffffffffffe081840301815291815281516020928301205f818152600490935291205490915060ff1615611a34576040517ffcd19b5d0000000000000000000000000000000000000000000000000000000081526004810185905260248101849052604401610761565b6040517fc4698ee50000000000000000000000000000000000000000000000000000000081523360048201525f907f000000000000000000000000000000000000000000000000000000000000000073ffffffffffffffffffffffffffffffffffffffff169063c4698ee59060240160a060405180830381865afa158015611abe573d5f803e3d5ffd5b505050506040513d601f19601f82011682018060405250810190611ae29190612c80565b6020015190505f81600f0b1215611b31576040517fdd1de43a000000000000000000000000000000000000000000000000000000008152336004820152600f82900b6024820152604401610761565b6040517f4deafcae0000000000000000000000000000000000000000000000000000000081523360048201525f907f000000000000000000000000000000000000000000000000000000000000000073ffffffffffffffffffffffffffffffffffffffff1690634deafcae90602401602060405180830381865afa158015611bbb573d5f803e3d5ffd5b505050506040513d601f19601f82011682018060405250810190611bdf9190612d22565b90505f62093a8080611bf18142612b33565b611bfb9190612c01565b611c059190612c14565b9050818110611c50576040517fd78507e10000000000000000000000000000000000000000000000000000000081523360048201526024810183905260448101829052606401610761565b612710851115611c97576040517f7ae59685000000000000000000000000000000000000000000000000000000008152600481018690526127106024820152604401610761565b335f908152600760209081526040808320878452909152812054611cbf90620d2f0090612b33565b905042811115611d0a576040517f1760176500000000000000000000000000000000000000000000000000000000815233600482015242602482015260448101829052606401610761565b335f908152600560209081526040808320888452825280832081516060810183528154815260018201549381019390935260020154908201819052909190841015611d6e57838260400151611d5f9190612bee565b8251611d6b9190612c14565b90505b5f60405180606001604052806127108b8a6fffffffffffffffffffffffffffffffff16611d9b9190612c14565b611da59190612c01565b8152602081018b905260400187905290505f611dc18688612bee565b8251611dcd9190612c14565b335f90815260066020908152604090912054868201519185015192935091611df59083612b33565b611dff9190612bee565b335f9081526006602052604090208190559050612710811115611e59576040517f7ae59685000000000000000000000000000000000000000000000000000000008152600481018290526127106024820152604401610761565b611e7782611e678f8f61236b565b611e719190612b33565b85612704565b5f8b81526008602090815260408083208b8452909152902055611e9c82611e67612555565b5f888152600b60205260409081902091909155850151871015611f3d5782515f8b81526008602090815260408083208b8452909152902060010154611eeb91611ee491612b33565b8651612704565b5f8b81526008602090815260408083208b845282528083206001908101949094558651600b90925290912090910154611f2791611ee491612b33565b5f888152600b6020526040902060010155611f97565b82515f8b81526008602090815260408083208b845290915281206001018054909190611f6a908490612b33565b909155505082515f888152600b602052604081206001018054909190611f91908490612b33565b90915550505b4285604001511115611fff5784515f8b8152600960209081526040808320818a0151845290915281208054909190611fd0908490612bee565b909155505084516040808701515f908152600c6020529081208054909190611ff9908490612bee565b90915550505b82515f8b81526009602090815260408083208188015184529091528120805490919061202c908490612b33565b909155505082516040808501515f908152600c6020529081208054909190612055908490612b33565b9091555050335f8181526005602090815260408083208e845282528083208751815582880151600182015581880151600290910155838352600782528083208e845282529182902042905581518f81529081018e90528f92917f4e44aa6a7d9639e4546a021e5baf51f7aae3bcd1f96e0f5f26880d6834b737ee910160405180910390a350505050505050505050505050565b5f816040516020016120fa919061293d565b604080517fffffffffffffffffffffffffffffffffffffffffffffffffffffffffffffffe081840301815291815281516020928301205f81815260039093529120549091501561218657815160208301516040517f5855e24800000000000000000000000000000000000000000000000000000000815260048101929092526024820152604401610761565b5f8181526004602052604090205460ff16156121de57815160208301516040517ffcd19b5d00000000000000000000000000000000000000000000000000000000815260048101929092526024820152604401610761565b600280545f838152600360209081526040822083905560018301845583825285517f405787fa12a823e0f2b7631cc41b3ba8828b3321ca811111fa75cd3aa3bb5ace948402948501558501517f405787fa12a823e0f2b7631cc41b3ba8828b3321ca811111fa75cd3aa3bb5acf909301929092559062093a80806122628142612b33565b61226c9190612c01565b6122769190612c14565b5f848152600a6020526040902081905560015490915073ffffffffffffffffffffffffffffffffffffffff168015612324576040517fa5edd4fc0000000000000000000000000000000000000000000000000000000081526004810185905273ffffffffffffffffffffffffffffffffffffffff82169063a5edd4fc906024015f604051808303815f87803b15801561230d575f80fd5b505af115801561231f573d5f803e3d5ffd5b505050505b8451602080870151604080519182529181018690527fe990f780082e9ce1c98e6c3b814d9885dd1772962a49213d96b58a946819a565910160405180910390a25050505050565b604080518082018252838152602080820184905291515f9283916123919184910161293d565b604080517fffffffffffffffffffffffffffffffffffffffffffffffffffffffffffffffe081840301815291815281516020928301205f818152600490935291205490915060ff161580156123f157505f81815260036020526040902054155b15612432576040517f31b05a800000000000000000000000000000000000000000000000000000000081526004810186905260248101859052604401610761565b5f818152600a6020908152604080832054600883528184208185528352818420825180840190935280548352600101549282019290925290915b6101f4811015612549574283116125495761248a62093a8084612b33565b92505f62093a8083602001516124a09190612c14565b905080835f015111156124f75780835f018181516124be9190612bee565b9052505f85815260096020908152604080832087845282529091205490840180518291906124ed908390612bee565b9052506125019050565b5f80845260208401525b5f8581526008602090815260408083208784528252909120845181559084015160019091015542841115612540575f858152600a602052604090208490555b5060010161246c565b50519695505050505050565b600d545f818152600b602090815260408083208151808301909252805482526001015491810191909152909190825b6101f481101561264657428311612646576125a262093a8084612b33565b92505f62093a8083602001516125b89190612c14565b905080835f015111156126075780835f018181516125d69190612bee565b9052505f848152600c602090815260409091205490840180518291906125fd908390612bee565b9052506126119050565b5f80845260208401525b5f848152600b6020908152604090912084518155908401516001909101554284111561263d57600d8490555b50600101612584565b505192915050565b5f808062093a8061265f8186612c01565b6126699190612c14565b5f818152600b6020908152604080832054815180830183528b81528084018b905291519096509394509261269f9184910161293d565b6040516020818303038152906040528051906020012090505f8411156126f9575f818152600860209081526040808320868452909152902054846126eb82670de0b6b3a7640000612c14565b6126f59190612c01565b9550505b505050935093915050565b5f818311612712575f61271c565b61271c8284612bee565b9392505050565b5f8060408385031215612734575f80fd5b50508035926020909101359150565b602080825282518282018190525f919060409081850190868401855b8281101561278c5761277c84835180518252602090810151910152565b928401929085019060010161275f565b5091979650505050505050565b5f602082840312156127a9575f80fd5b5035919050565b7f4e487b71000000000000000000000000000000000000000000000000000000005f52604160045260245ffd5b604051601f82017fffffffffffffffffffffffffffffffffffffffffffffffffffffffffffffffe016810167ffffffffffffffff81118282101715612824576128246127b0565b604052919050565b5f67ffffffffffffffff821115612845576128456127b0565b5060051b60200190565b5f82601f83011261285e575f80fd5b8135602061287361286e8361282c565b6127dd565b8083825260208201915060208460051b870101935086841115612894575f80fd5b602086015b848110156128b05780358352918301918301612899565b509695505050505050565b5f805f606084860312156128cd575f80fd5b833567ffffffffffffffff808211156128e4575f80fd5b6128f08783880161284f565b94506020860135915080821115612905575f80fd5b6129118783880161284f565b93506040860135915080821115612926575f80fd5b506129338682870161284f565b9150509250925092565b815181526020808301519082015260408101610c7a565b803573ffffffffffffffffffffffffffffffffffffffff81168114612977575f80fd5b919050565b5f6020828403121561298c575f80fd5b61271c82612954565b5f80604083850312156129a6575f80fd5b6129af83612954565b946020939093013593505050565b5f805f606084860312156129cf575f80fd5b833567ffffffffffffffff808211156129e6575f80fd5b6129f28783880161284f565b9450602091508186013581811115612a08575f80fd5b612a148882890161284f565b945050604086013581811115612a28575f80fd5b86019050601f81018713612a3a575f80fd5b8035612a4861286e8261282c565b81815260059190911b82018301908381019089831115612a66575f80fd5b928401925b82841015612a8b57612a7c84612954565b82529284019290840190612a6b565b80955050505050509250925092565b602080825282518282018190525f9190848201906040850190845b81811015612ad157835183529284019291840191600101612ab5565b50909695505050505050565b5f805f60608486031215612aef575f80fd5b505081359360208301359350604090920135919050565b7f4e487b71000000000000000000000000000000000000000000000000000000005f52601160045260245ffd5b80820180821115610c7a57610c7a612b06565b7f4e487b71000000000000000000000000000000000000000000000000000000005f52603260045260245ffd5b7f4e487b71000000000000000000000000000000000000000000000000000000005f52601260045260245ffd5b5f67ffffffffffffffff80841680612bba57612bba612b73565b92169190910492915050565b67ffffffffffffffff828116828216039080821115612be757612be7612b06565b5092915050565b81810381811115610c7a57610c7a612b06565b5f82612c0f57612c0f612b73565b500490565b8082028115828204841417610c7a57610c7a612b06565b7f4e487b71000000000000000000000000000000000000000000000000000000005f52603160045260245ffd5b8051600f81900b8114612977575f80fd5b805167ffffffffffffffff81168114612977575f80fd5b5f60a08284031215612c90575f80fd5b60405160a0810181811067ffffffffffffffff82111715612cb357612cb36127b0565b604052612cbf83612c58565b8152612ccd60208401612c58565b6020820152612cde60408401612c69565b6040820152612cef60608401612c69565b606082015260808301516fffffffffffffffffffffffffffffffff81168114612d16575f80fd5b60808201529392505050565b5f60208284031215612d32575f80fd5b505191905056fea26469706673582212203cbeaab06de45bb0137758587cf35a2eaf535c02342361c063991013e8f4aaa964736f6c63430008190033",
  "linkReferences": {},
  "deployedLinkReferences": {}
}