{
  "_format": "hh-sol-artifact-1",
  "contractName": "VoteWeighting",
  "sourceName": "contracts/VoteWeighting.sol",
  "abi": [
    {
      "inputs": [
        {
          "internalType": "address",
          "name": "_ve",
          "type": "address"
        }
      ],
      "stateMutability": "nonpayable",
      "type": "constructor"
    },
    {
      "inputs": [
        {
          "internalType": "address",
          "name": "account",
          "type": "address"
        },
        {
          "internalType": "uint256",
          "name": "deadline",
          "type": "uint256"
        },
        {
          "internalType": "uint256",
          "name": "curTime",
          "type": "uint256"
        }
      ],
      "name": "LockExpired",
      "type": "error"
    },
    {
      "inputs": [
        {
          "internalType": "address",
          "name": "account",
          "type": "address"
        },
        {
          "internalType": "int128",
          "name": "slope",
          "type": "int128"
        }
      ],
      "name": "NegativeSlope",
      "type": "error"
    },
    {
      "inputs": [
        {
          "internalType": "bytes32",
          "name": "account",
          "type": "bytes32"
        },
        {
          "internalType": "uint256",
          "name": "chainId",
          "type": "uint256"
        }
      ],
      "name": "NomineeAlreadyExists",
      "type": "error"
    },
    {
      "inputs": [
        {
          "internalType": "bytes32",
          "name": "account",
          "type": "bytes32"
        },
        {
          "internalType": "uint256",
          "name": "chainId",
          "type": "uint256"
        }
      ],
      "name": "NomineeDoesNotExist",
      "type": "error"
    },
    {
      "inputs": [
        {
          "internalType": "bytes32",
          "name": "account",
          "type": "bytes32"
        },
        {
          "internalType": "uint256",
          "name": "chainId",
          "type": "uint256"
        }
      ],
      "name": "NomineeNotRemoved",
      "type": "error"
    },
    {
      "inputs": [
        {
          "internalType": "bytes32",
          "name": "account",
          "type": "bytes32"
        },
        {
          "internalType": "uint256",
          "name": "chainId",
          "type": "uint256"
        }
      ],
      "name": "NomineeRemoved",
      "type": "error"
    },
    {
      "inputs": [
        {
          "internalType": "uint256",
          "name": "provided",
          "type": "uint256"
        },
        {
          "internalType": "uint256",
          "name": "max",
          "type": "uint256"
        }
      ],
      "name": "Overflow",
      "type": "error"
    },
    {
      "inputs": [
        {
          "internalType": "address",
          "name": "sender",
          "type": "address"
        },
        {
          "internalType": "address",
          "name": "owner",
          "type": "address"
        }
      ],
      "name": "OwnerOnly",
      "type": "error"
    },
    {
      "inputs": [
        {
          "internalType": "uint256",
          "name": "provided",
          "type": "uint256"
        },
        {
          "internalType": "uint256",
          "name": "expected",
          "type": "uint256"
        }
      ],
      "name": "Underflow",
      "type": "error"
    },
    {
      "inputs": [
        {
          "internalType": "address",
          "name": "voter",
          "type": "address"
        },
        {
          "internalType": "uint256",
          "name": "curTime",
          "type": "uint256"
        },
        {
          "internalType": "uint256",
          "name": "nextAllowedVotingTime",
          "type": "uint256"
        }
      ],
      "name": "VoteTooOften",
      "type": "error"
    },
    {
      "inputs": [
        {
          "internalType": "uint256",
          "name": "numValues1",
          "type": "uint256"
        },
        {
          "internalType": "uint256",
          "name": "numValues2",
          "type": "uint256"
        }
      ],
      "name": "WrongArrayLength",
      "type": "error"
    },
    {
      "inputs": [],
      "name": "ZeroAddress",
      "type": "error"
    },
    {
      "inputs": [],
      "name": "ZeroValue",
      "type": "error"
    },
    {
      "anonymous": false,
      "inputs": [
        {
          "indexed": true,
          "internalType": "bytes32",
          "name": "account",
          "type": "bytes32"
        },
        {
          "indexed": false,
          "internalType": "uint256",
          "name": "chainId",
          "type": "uint256"
        },
        {
          "indexed": false,
          "internalType": "uint256",
          "name": "id",
          "type": "uint256"
        }
      ],
      "name": "AddNominee",
      "type": "event"
    },
    {
      "anonymous": false,
      "inputs": [
        {
          "indexed": true,
          "internalType": "address",
          "name": "sender",
          "type": "address"
        },
        {
          "indexed": false,
          "internalType": "uint256",
          "name": "sumBias",
          "type": "uint256"
        }
      ],
      "name": "Checkpoint",
      "type": "event"
    },
    {
      "anonymous": false,
      "inputs": [
        {
          "indexed": true,
          "internalType": "address",
          "name": "sender",
          "type": "address"
        },
        {
          "indexed": true,
          "internalType": "bytes32",
          "name": "nomineeAccount",
          "type": "bytes32"
        },
        {
          "indexed": false,
          "internalType": "uint256",
          "name": "chainId",
          "type": "uint256"
        },
        {
          "indexed": false,
          "internalType": "uint256",
          "name": "nomineeWeight",
          "type": "uint256"
        },
        {
          "indexed": false,
          "internalType": "uint256",
          "name": "totalSum",
          "type": "uint256"
        }
      ],
      "name": "CheckpointNominee",
      "type": "event"
    },
    {
      "anonymous": false,
      "inputs": [
        {
          "indexed": true,
          "internalType": "address",
          "name": "dispenser",
          "type": "address"
        }
      ],
      "name": "DispenserUpdated",
      "type": "event"
    },
    {
      "anonymous": false,
      "inputs": [
        {
          "indexed": true,
          "internalType": "address",
          "name": "sender",
          "type": "address"
        },
        {
          "indexed": true,
          "internalType": "bytes32",
          "name": "nomineeAccount",
          "type": "bytes32"
        },
        {
          "indexed": false,
          "internalType": "uint256",
          "name": "chainId",
          "type": "uint256"
        },
        {
          "indexed": false,
          "internalType": "uint256",
          "name": "nomineeWeight",
          "type": "uint256"
        },
        {
          "indexed": false,
          "internalType": "uint256",
          "name": "totalSum",
          "type": "uint256"
        },
        {
          "indexed": false,
          "internalType": "uint256",
          "name": "nomineeRelativeWeight",
          "type": "uint256"
        }
      ],
      "name": "NomineeRelativeWeightWrite",
      "type": "event"
    },
    {
      "anonymous": false,
      "inputs": [
        {
          "indexed": true,
          "internalType": "address",
          "name": "owner",
          "type": "address"
        }
      ],
      "name": "OwnerUpdated",
      "type": "event"
    },
    {
      "anonymous": false,
      "inputs": [
        {
          "indexed": true,
          "internalType": "bytes32",
          "name": "account",
          "type": "bytes32"
        },
        {
          "indexed": false,
          "internalType": "uint256",
          "name": "chainId",
          "type": "uint256"
        },
        {
          "indexed": false,
          "internalType": "uint256",
          "name": "newSum",
          "type": "uint256"
        }
      ],
      "name": "RemoveNominee",
      "type": "event"
    },
    {
      "anonymous": false,
      "inputs": [
        {
          "indexed": true,
          "internalType": "address",
          "name": "user",
          "type": "address"
        },
        {
          "indexed": true,
          "internalType": "bytes32",
          "name": "nominee",
          "type": "bytes32"
        },
        {
          "indexed": false,
          "internalType": "uint256",
          "name": "chainId",
          "type": "uint256"
        },
        {
          "indexed": false,
          "internalType": "uint256",
          "name": "weight",
          "type": "uint256"
        }
      ],
      "name": "VoteForNominee",
      "type": "event"
    },
    {
      "inputs": [],
      "name": "MAX_EVM_CHAIN_ID",
      "outputs": [
        {
          "internalType": "uint256",
          "name": "",
          "type": "uint256"
        }
      ],
      "stateMutability": "view",
      "type": "function"
    },
    {
      "inputs": [],
      "name": "MAX_WEIGHT",
      "outputs": [
        {
          "internalType": "uint256",
          "name": "",
          "type": "uint256"
        }
      ],
      "stateMutability": "view",
      "type": "function"
    },
    {
      "inputs": [],
      "name": "WEEK",
      "outputs": [
        {
          "internalType": "uint256",
          "name": "",
          "type": "uint256"
        }
      ],
      "stateMutability": "view",
      "type": "function"
    },
    {
      "inputs": [],
      "name": "WEIGHT_VOTE_DELAY",
      "outputs": [
        {
          "internalType": "uint256",
          "name": "",
          "type": "uint256"
        }
      ],
      "stateMutability": "view",
      "type": "function"
    },
    {
      "inputs": [
        {
          "internalType": "address",
          "name": "account",
          "type": "address"
        },
        {
          "internalType": "uint256",
          "name": "chainId",
          "type": "uint256"
        }
      ],
      "name": "addNomineeEVM",
      "outputs": [],
      "stateMutability": "nonpayable",
      "type": "function"
    },
    {
      "inputs": [
        {
          "internalType": "bytes32",
          "name": "account",
          "type": "bytes32"
        },
        {
          "internalType": "uint256",
          "name": "chainId",
          "type": "uint256"
        }
      ],
      "name": "addNomineeNonEVM",
      "outputs": [],
      "stateMutability": "nonpayable",
      "type": "function"
    },
    {
      "inputs": [
        {
          "internalType": "address",
          "name": "newDispenser",
          "type": "address"
        }
      ],
      "name": "changeDispenser",
      "outputs": [],
      "stateMutability": "nonpayable",
      "type": "function"
    },
    {
      "inputs": [
        {
          "internalType": "address",
          "name": "newOwner",
          "type": "address"
        }
      ],
      "name": "changeOwner",
      "outputs": [],
      "stateMutability": "nonpayable",
      "type": "function"
    },
    {
      "inputs": [
        {
          "internalType": "uint256",
          "name": "",
          "type": "uint256"
        }
      ],
      "name": "changesSum",
      "outputs": [
        {
          "internalType": "uint256",
          "name": "",
          "type": "uint256"
        }
      ],
      "stateMutability": "view",
      "type": "function"
    },
    {
      "inputs": [
        {
          "internalType": "bytes32",
          "name": "",
          "type": "bytes32"
        },
        {
          "internalType": "uint256",
          "name": "",
          "type": "uint256"
        }
      ],
      "name": "changesWeight",
      "outputs": [
        {
          "internalType": "uint256",
          "name": "",
          "type": "uint256"
        }
      ],
      "stateMutability": "view",
      "type": "function"
    },
    {
      "inputs": [],
      "name": "checkpoint",
      "outputs": [],
      "stateMutability": "nonpayable",
      "type": "function"
    },
    {
      "inputs": [
        {
          "internalType": "bytes32",
          "name": "account",
          "type": "bytes32"
        },
        {
          "internalType": "uint256",
          "name": "chainId",
          "type": "uint256"
        }
      ],
      "name": "checkpointNominee",
      "outputs": [],
      "stateMutability": "nonpayable",
      "type": "function"
    },
    {
      "inputs": [],
      "name": "dispenser",
      "outputs": [
        {
          "internalType": "address",
          "name": "",
          "type": "address"
        }
      ],
      "stateMutability": "view",
      "type": "function"
    },
    {
      "inputs": [],
      "name": "getAllNominees",
      "outputs": [
        {
          "components": [
            {
              "internalType": "bytes32",
              "name": "account",
              "type": "bytes32"
            },
            {
              "internalType": "uint256",
              "name": "chainId",
              "type": "uint256"
            }
          ],
          "internalType": "struct Nominee[]",
          "name": "",
          "type": "tuple[]"
        }
      ],
      "stateMutability": "view",
      "type": "function"
    },
    {
      "inputs": [],
      "name": "getAllRemovedNominees",
      "outputs": [
        {
          "components": [
            {
              "internalType": "bytes32",
              "name": "account",
              "type": "bytes32"
            },
            {
              "internalType": "uint256",
              "name": "chainId",
              "type": "uint256"
            }
          ],
          "internalType": "struct Nominee[]",
          "name": "",
          "type": "tuple[]"
        }
      ],
      "stateMutability": "view",
      "type": "function"
    },
    {
      "inputs": [
        {
          "internalType": "bytes32[]",
          "name": "accounts",
          "type": "bytes32[]"
        },
        {
          "internalType": "uint256[]",
          "name": "chainIds",
          "type": "uint256[]"
        },
        {
          "internalType": "address[]",
          "name": "voters",
          "type": "address[]"
        }
      ],
      "name": "getNextAllowedVotingTimes",
      "outputs": [
        {
          "internalType": "uint256[]",
          "name": "nextAllowedVotingTimes",
          "type": "uint256[]"
        }
      ],
      "stateMutability": "view",
      "type": "function"
    },
    {
      "inputs": [
        {
          "internalType": "uint256",
          "name": "id",
          "type": "uint256"
        }
      ],
      "name": "getNominee",
      "outputs": [
        {
          "components": [
            {
              "internalType": "bytes32",
              "name": "account",
              "type": "bytes32"
            },
            {
              "internalType": "uint256",
              "name": "chainId",
              "type": "uint256"
            }
          ],
          "internalType": "struct Nominee",
          "name": "",
          "type": "tuple"
        }
      ],
      "stateMutability": "view",
      "type": "function"
    },
    {
      "inputs": [
        {
          "internalType": "bytes32",
          "name": "account",
          "type": "bytes32"
        },
        {
          "internalType": "uint256",
          "name": "chainId",
          "type": "uint256"
        }
      ],
      "name": "getNomineeId",
      "outputs": [
        {
          "internalType": "uint256",
          "name": "",
          "type": "uint256"
        }
      ],
      "stateMutability": "view",
      "type": "function"
    },
    {
      "inputs": [
        {
          "internalType": "bytes32",
          "name": "account",
          "type": "bytes32"
        },
        {
          "internalType": "uint256",
          "name": "chainId",
          "type": "uint256"
        }
      ],
      "name": "getNomineeWeight",
      "outputs": [
        {
          "internalType": "uint256",
          "name": "",
          "type": "uint256"
        }
      ],
      "stateMutability": "view",
      "type": "function"
    },
    {
      "inputs": [
        {
          "internalType": "uint256",
          "name": "startId",
          "type": "uint256"
        },
        {
          "internalType": "uint256",
          "name": "numNominees",
          "type": "uint256"
        }
      ],
      "name": "getNominees",
      "outputs": [
        {
          "components": [
            {
              "internalType": "bytes32",
              "name": "account",
              "type": "bytes32"
            },
            {
              "internalType": "uint256",
              "name": "chainId",
              "type": "uint256"
            }
          ],
          "internalType": "struct Nominee[]",
          "name": "nominees",
          "type": "tuple[]"
        }
      ],
      "stateMutability": "view",
      "type": "function"
    },
    {
      "inputs": [],
      "name": "getNumNominees",
      "outputs": [
        {
          "internalType": "uint256",
          "name": "",
          "type": "uint256"
        }
      ],
      "stateMutability": "view",
      "type": "function"
    },
    {
      "inputs": [],
      "name": "getNumRemovedNominees",
      "outputs": [
        {
          "internalType": "uint256",
          "name": "",
          "type": "uint256"
        }
      ],
      "stateMutability": "view",
      "type": "function"
    },
    {
      "inputs": [],
      "name": "getWeightsSum",
      "outputs": [
        {
          "internalType": "uint256",
          "name": "",
          "type": "uint256"
        }
      ],
      "stateMutability": "view",
      "type": "function"
    },
    {
      "inputs": [
        {
          "internalType": "address",
          "name": "",
          "type": "address"
        },
        {
          "internalType": "bytes32",
          "name": "",
          "type": "bytes32"
        }
      ],
      "name": "lastUserVote",
      "outputs": [
        {
          "internalType": "uint256",
          "name": "",
          "type": "uint256"
        }
      ],
      "stateMutability": "view",
      "type": "function"
    },
    {
      "inputs": [
        {
          "internalType": "bytes32",
          "name": "",
          "type": "bytes32"
        }
      ],
      "name": "mapNomineeIds",
      "outputs": [
        {
          "internalType": "uint256",
          "name": "",
          "type": "uint256"
        }
      ],
      "stateMutability": "view",
      "type": "function"
    },
    {
      "inputs": [
        {
          "internalType": "bytes32",
          "name": "",
          "type": "bytes32"
        }
      ],
      "name": "mapRemovedNominees",
      "outputs": [
        {
          "internalType": "bool",
          "name": "",
          "type": "bool"
        }
      ],
      "stateMutability": "view",
      "type": "function"
    },
    {
      "inputs": [
        {
          "internalType": "bytes32",
          "name": "account",
          "type": "bytes32"
        },
        {
          "internalType": "uint256",
          "name": "chainId",
          "type": "uint256"
        },
        {
          "internalType": "uint256",
          "name": "time",
          "type": "uint256"
        }
      ],
      "name": "nomineeRelativeWeight",
      "outputs": [
        {
          "internalType": "uint256",
          "name": "relativeWeight",
          "type": "uint256"
        },
        {
          "internalType": "uint256",
          "name": "totalSum",
          "type": "uint256"
        }
      ],
      "stateMutability": "view",
      "type": "function"
    },
    {
      "inputs": [
        {
          "internalType": "bytes32",
          "name": "account",
          "type": "bytes32"
        },
        {
          "internalType": "uint256",
          "name": "chainId",
          "type": "uint256"
        },
        {
          "internalType": "uint256",
          "name": "time",
          "type": "uint256"
        }
      ],
      "name": "nomineeRelativeWeightWrite",
      "outputs": [
        {
          "internalType": "uint256",
          "name": "relativeWeight",
          "type": "uint256"
        },
        {
          "internalType": "uint256",
          "name": "totalSum",
          "type": "uint256"
        }
      ],
      "stateMutability": "nonpayable",
      "type": "function"
    },
    {
      "inputs": [],
      "name": "owner",
      "outputs": [
        {
          "internalType": "address",
          "name": "",
          "type": "address"
        }
      ],
      "stateMutability": "view",
      "type": "function"
    },
    {
      "inputs": [
        {
          "internalType": "uint256",
          "name": "",
          "type": "uint256"
        }
      ],
      "name": "pointsSum",
      "outputs": [
        {
          "internalType": "uint256",
          "name": "bias",
          "type": "uint256"
        },
        {
          "internalType": "uint256",
          "name": "slope",
          "type": "uint256"
        }
      ],
      "stateMutability": "view",
      "type": "function"
    },
    {
      "inputs": [
        {
          "internalType": "bytes32",
          "name": "",
          "type": "bytes32"
        },
        {
          "internalType": "uint256",
          "name": "",
          "type": "uint256"
        }
      ],
      "name": "pointsWeight",
      "outputs": [
        {
          "internalType": "uint256",
          "name": "bias",
          "type": "uint256"
        },
        {
          "internalType": "uint256",
          "name": "slope",
          "type": "uint256"
        }
      ],
      "stateMutability": "view",
      "type": "function"
    },
    {
      "inputs": [
        {
          "internalType": "bytes32",
          "name": "account",
          "type": "bytes32"
        },
        {
          "internalType": "uint256",
          "name": "chainId",
          "type": "uint256"
        }
      ],
      "name": "removeNominee",
      "outputs": [],
      "stateMutability": "nonpayable",
      "type": "function"
    },
    {
      "inputs": [
        {
          "internalType": "bytes32",
          "name": "account",
          "type": "bytes32"
        },
        {
          "internalType": "uint256",
          "name": "chainId",
          "type": "uint256"
        }
      ],
      "name": "retrieveRemovedNomineeVotingPower",
      "outputs": [],
      "stateMutability": "nonpayable",
      "type": "function"
    },
    {
      "inputs": [
        {
          "internalType": "uint256",
          "name": "",
          "type": "uint256"
        }
      ],
      "name": "setNominees",
      "outputs": [
        {
          "internalType": "bytes32",
          "name": "account",
          "type": "bytes32"
        },
        {
          "internalType": "uint256",
          "name": "chainId",
          "type": "uint256"
        }
      ],
      "stateMutability": "view",
      "type": "function"
    },
    {
      "inputs": [
        {
          "internalType": "uint256",
          "name": "",
          "type": "uint256"
        }
      ],
      "name": "setRemovedNominees",
      "outputs": [
        {
          "internalType": "bytes32",
          "name": "account",
          "type": "bytes32"
        },
        {
          "internalType": "uint256",
          "name": "chainId",
          "type": "uint256"
        }
      ],
      "stateMutability": "view",
      "type": "function"
    },
    {
      "inputs": [],
      "name": "timeSum",
      "outputs": [
        {
          "internalType": "uint256",
          "name": "",
          "type": "uint256"
        }
      ],
      "stateMutability": "view",
      "type": "function"
    },
    {
      "inputs": [
        {
          "internalType": "bytes32",
          "name": "",
          "type": "bytes32"
        }
      ],
      "name": "timeWeight",
      "outputs": [
        {
          "internalType": "uint256",
          "name": "",
          "type": "uint256"
        }
      ],
      "stateMutability": "view",
      "type": "function"
    },
    {
      "inputs": [],
      "name": "ve",
      "outputs": [
        {
          "internalType": "address",
          "name": "",
          "type": "address"
        }
      ],
      "stateMutability": "view",
      "type": "function"
    },
    {
      "inputs": [
        {
          "internalType": "bytes32",
          "name": "account",
          "type": "bytes32"
        },
        {
          "internalType": "uint256",
          "name": "chainId",
          "type": "uint256"
        },
        {
          "internalType": "uint256",
          "name": "weight",
          "type": "uint256"
        }
      ],
      "name": "voteForNomineeWeights",
      "outputs": [],
      "stateMutability": "nonpayable",
      "type": "function"
    },
    {
      "inputs": [
        {
          "internalType": "bytes32[]",
          "name": "accounts",
          "type": "bytes32[]"
        },
        {
          "internalType": "uint256[]",
          "name": "chainIds",
          "type": "uint256[]"
        },
        {
          "internalType": "uint256[]",
          "name": "weights",
          "type": "uint256[]"
        }
      ],
      "name": "voteForNomineeWeightsBatch",
      "outputs": [],
      "stateMutability": "nonpayable",
      "type": "function"
    },
    {
      "inputs": [
        {
          "internalType": "address",
          "name": "",
          "type": "address"
        }
      ],
      "name": "voteUserPower",
      "outputs": [
        {
          "internalType": "uint256",
          "name": "",
          "type": "uint256"
        }
      ],
      "stateMutability": "view",
      "type": "function"
    },
    {
      "inputs": [
        {
          "internalType": "address",
          "name": "",
          "type": "address"
        },
        {
          "internalType": "bytes32",
          "name": "",
          "type": "bytes32"
        }
      ],
      "name": "voteUserSlopes",
      "outputs": [
        {
          "internalType": "uint256",
          "name": "slope",
          "type": "uint256"
        },
        {
          "internalType": "uint256",
          "name": "power",
          "type": "uint256"
        },
        {
          "internalType": "uint256",
          "name": "end",
          "type": "uint256"
        }
      ],
      "stateMutability": "view",
      "type": "function"
    }
  ],
  "bytecode": "0x60a060405234801561000f575f80fd5b506040516130c43803806130c483398101604081905261002e9161017d565b6001600160a01b0381166100555760405163d92e233d60e01b815260040160405180910390fd5b5f80546001600160a01b031916331790556001600160a01b03811660805262093a8061008181426101aa565b61008b91906101c9565b600e55506040805180820182525f8082526020808301828152600280546001808201835582865295517f405787fa12a823e0f2b7631cc41b3ba8828b3321ca811111fa75cd3aa3bb5ace9183029182015591517f405787fa12a823e0f2b7631cc41b3ba8828b3321ca811111fa75cd3aa3bb5acf90920191909155845180860190955282855290840182815260038054948501815590925292517fc2575a0e9e593c00f959f8c92f12db2869c3395a3b0502d05e2516446f71f85b929093029182019290925590517fc2575a0e9e593c00f959f8c92f12db2869c3395a3b0502d05e2516446f71f85c909101556101f2565b5f6020828403121561018d575f80fd5b81516001600160a01b03811681146101a3575f80fd5b9392505050565b5f826101c457634e487b7160e01b5f52601260045260245ffd5b500490565b80820281158282048414176101ec57634e487b7160e01b5f52601160045260245ffd5b92915050565b608051612eac6102185f395f818161035f01528181611ba10152611c9e0152612eac5ff3fe608060405234801561000f575f80fd5b50600436106102cc575f3560e01c80638da5cb5b1161017c578063c54dd0d4116100dd578063e4a28a5211610093578063f4359ce51161006e578063f4359ce5146106fa578063f4da12ba14610704578063f9572f7c1461070c575f80fd5b8063e4a28a52146106b3578063ec73d906146106bc578063f0cd64af146106db575f80fd5b8063d4b9d748116100c3578063d4b9d74814610656578063dc87f53614610669578063e09d894d14610693575f80fd5b8063c54dd0d414610630578063c88d47f014610643575f80fd5b8063a6f9dae111610132578063beaf44e811610118578063beaf44e81461060d578063c191ec4814610620578063c2c4c5c114610628575f80fd5b8063a6f9dae1146105c8578063b174b41c146105db575f80fd5b80639d175053116101625780639d17505314610592578063a18f99ff146105b8578063a5124803146105c0575f80fd5b80638da5cb5b146105425780638e28764b14610561575f80fd5b80634479b5cf1161023157806360d2d13d116101e75780637a75b27e116101c25780637a75b27e146104e55780637ee8bfe91461050557806385556a9514610518575f80fd5b806360d2d13d146104b75780636a28a33c146104bf5780636b39ac1a146104d2575f80fd5b8063482649971161021757806348264997146104505780634f6ffd0714610459578063609c6b8714610463575f80fd5b80634479b5cf1461042a578063456f09971461043d575f80fd5b806326abaf24116102865780632a53b2af1161026c5780632a53b2af146103d95780633b766b3d146103ec5780634159703614610414575f80fd5b806326abaf24146103a657806327ebf531146103b9575f80fd5b80631765ab7f116102b65780631765ab7f146103265780631b98dd901461033b5780631f8507161461035a575f80fd5b806292a596146102d05780630c423201146102f9575b5f80fd5b6102e36102de366004612860565b61071f565b6040516102f09190612880565b60405180910390f35b6103186103073660046128d6565b600d6020525f908152604090205481565b6040519081526020016102f0565b610339610334366004612860565b6108a0565b005b6103186103493660046128d6565b600b6020525f908152604090205481565b6103817f000000000000000000000000000000000000000000000000000000000000000081565b60405173ffffffffffffffffffffffffffffffffffffffff90911681526020016102f0565b6103396103b43660046129f8565b610998565b6103cc6103c73660046128d6565b610a5e565b6040516102f09190612a7a565b6103396103e7366004612ab9565b610b46565b6103ff6103fa3660046128d6565b610c25565b604080519283526020830191909152016102f0565b600e545f908152600c6020526040902054610318565b610318610438366004612860565b610c51565b61031861044b366004612860565b610cd3565b610318600e5481565b610318620d2f0081565b61049c610471366004612ad2565b600660209081525f928352604080842090915290825290208054600182015460029092015490919083565b604080519384526020840192909252908201526060016102f0565b6102e3610d44565b6103396104cd366004612860565b610db3565b6103396104e0366004612ad2565b610f9f565b6104f86104f3366004612afa565b6110ed565b6040516102f09190612bd7565b6103ff610513366004612c1a565b611337565b610318610526366004612ad2565b600860209081525f928352604080842090915290825290205481565b5f546103819073ffffffffffffffffffffffffffffffffffffffff1681565b6103ff61056f366004612860565b600960209081525f92835260408084209091529082529020805460019091015482565b6103ff6105a03660046128d6565b600c6020525f90815260409020805460019091015482565b6103186113b4565b6102e36113ca565b6103396105d6366004612ab9565b61142f565b6105fd6105e93660046128d6565b60056020525f908152604090205460ff1681565b60405190151581526020016102f0565b61033961061b366004612860565b611559565b6103186115bd565b6103396115ce565b61033961063e366004612860565b611612565b6103ff610651366004612c1a565b611a6e565b6103ff6106643660046128d6565b611a87565b610318610677366004612860565b600a60209081525f928352604080842090915290825290205481565b6001546103819073ffffffffffffffffffffffffffffffffffffffff1681565b61031861271081565b6103186106ca366004612ab9565b60076020525f908152604090205481565b6103186106e93660046128d6565b60046020525f908152604090205481565b61031862093a8081565b610318611a96565b61033961071a366004612c1a565b611ac2565b606082158061072c575081155b15610763576040517f7c946ed700000000000000000000000000000000000000000000000000000000815260040160405180910390fd5b5f61076e8385612c70565b600254909150808211156107bd576040517f7ae5968500000000000000000000000000000000000000000000000000000000815260048101839052602481018290526044015b60405180910390fd5b8367ffffffffffffffff8111156107d6576107d66128ed565b60405190808252806020026020018201604052801561081a57816020015b604080518082019091525f80825260208201528152602001906001900390816107f45790505b5092505f5b84811015610897575f6108328783612c70565b90506002818154811061084757610847612c83565b905f5260205f2090600202016040518060400160405290815f820154815260200160018201548152505085838151811061088357610883612c83565b60209081029190910101525060010161081f565b50505092915050565b816108d7576040517fd92e233d00000000000000000000000000000000000000000000000000000000815260040160405180910390fd5b8060246108ed600267ffffffffffffffff612cdd565b6108f79190612d03565b67ffffffffffffffff16106109765780602461091c600267ffffffffffffffff612cdd565b6109269190612d03565b61093b9067ffffffffffffffff166001612c70565b6040517fc076384b000000000000000000000000000000000000000000000000000000008152600481019290925260248201526044016107b4565b604080518082019091528281526020810182905261099381612225565b505050565b815183511415806109ab57508051835114155b156109ef57825181516040517f8151c110000000000000000000000000000000000000000000000000000000008152600481019290925260248201526044016107b4565b5f5b8351811015610a5857610a50848281518110610a0f57610a0f612c83565b6020026020010151848381518110610a2957610a29612c83565b6020026020010151848481518110610a4357610a43612c83565b6020026020010151611ac2565b6001016109f1565b50505050565b604080518082019091525f80825260208201526002545f90610a8290600190612d2b565b9050825f03610abd576040517f7c946ed700000000000000000000000000000000000000000000000000000000815260040160405180910390fd5b80831115610b01576040517f7ae5968500000000000000000000000000000000000000000000000000000000815260048101849052602481018290526044016107b4565b60028381548110610b1457610b14612c83565b905f5260205f2090600202016040518060400160405290815f8201548152602001600182015481525050915050919050565b5f5473ffffffffffffffffffffffffffffffffffffffff163314610bb7575f546040517fa43d6ada00000000000000000000000000000000000000000000000000000000815233600482015273ffffffffffffffffffffffffffffffffffffffff90911660248201526044016107b4565b600180547fffffffffffffffffffffffff00000000000000000000000000000000000000001673ffffffffffffffffffffffffffffffffffffffff83169081179091556040517fe4915bbde794cce5e56670cce1c0048ef68276040acd048bdb7157ded9232b48905f90a250565b60028181548110610c34575f80fd5b5f9182526020909120600290910201805460019091015490915082565b604080518082018252838152602080820184905291515f928391610c7791849101612a7a565b604080517fffffffffffffffffffffffffffffffffffffffffffffffffffffffffffffffe081840301815291815281516020928301205f90815260098352818120600b8452828220548252909252902054925050505b92915050565b604080518082018252838152602080820184905291515f928391610cf991849101612a7a565b604080518083037fffffffffffffffffffffffffffffffffffffffffffffffffffffffffffffffe001815291815281516020928301205f908152600490925290205495945050505050565b60606003805480602002602001604051908101604052809291908181526020015f905b82821015610daa578382905f5260205f2090600202016040518060400160405290815f820154815260200160018201548152505081526020019060010190610d67565b50505050905090565b5f60405180604001604052808481526020018381525090505f81604051602001610ddd9190612a7a565b604080517fffffffffffffffffffffffffffffffffffffffffffffffffffffffffffffffe081840301815291815281516020928301205f818152600590935291205490915060ff16610e65576040517fa43ec26f00000000000000000000000000000000000000000000000000000000815260048101859052602481018490526044016107b4565b335f90815260066020908152604080832084845282528083208151606081018352815481526001820154938101849052600290910154918101919091529103610eda576040517f7c946ed700000000000000000000000000000000000000000000000000000000815260040160405180910390fd5b4281604001511115610f425780515f838152600a6020908152604080832081860151845290915281208054909190610f13908490612d2b565b909155505080516040808301515f908152600d6020529081208054909190610f3c908490612d2b565b90915550505b335f9081526007602090815260409091205490820151610f629082612d2b565b335f908152600760209081526040808320939093556006815282822095825294909452832083815560018101849055600201929092555050505050565b73ffffffffffffffffffffffffffffffffffffffff8216610fec576040517fd92e233d00000000000000000000000000000000000000000000000000000000815260040160405180910390fd5b805f03611025576040517f7c946ed700000000000000000000000000000000000000000000000000000000815260040160405180910390fd5b602461103a600267ffffffffffffffff612cdd565b6110449190612d03565b67ffffffffffffffff168111156110ba5780602461106b600267ffffffffffffffff612cdd565b6110759190612d03565b6040517f7ae59685000000000000000000000000000000000000000000000000000000008152600481019290925267ffffffffffffffff1660248201526044016107b4565b6040805180820190915273ffffffffffffffffffffffffffffffffffffffff831681526020810182905261099381612225565b60608251845114158061110257508151845114155b1561114657835183516040517f8151c110000000000000000000000000000000000000000000000000000000008152600481019290925260248201526044016107b4565b835167ffffffffffffffff811115611160576111606128ed565b604051908082528060200260200182016040528015611189578160200160208202803683370190505b5090505f5b845181101561132f575f60405180604001604052808784815181106111b5576111b5612c83565b602002602001015181526020018684815181106111d4576111d4612c83565b602002602001015181525090505f816040516020016111f39190612a7a565b60405160208183030381529060405280519060200120905060045f8281526020019081526020015f20545f036112945786838151811061123557611235612c83565b602002602001015186848151811061124f5761124f612c83565b60200260200101516040517f31b05a800000000000000000000000000000000000000000000000000000000081526004016107b4929190918252602082015260400190565b620d2f0060085f8786815181106112ad576112ad612c83565b602002602001015173ffffffffffffffffffffffffffffffffffffffff1673ffffffffffffffffffffffffffffffffffffffff1681526020019081526020015f205f8381526020019081526020015f20546113089190612c70565b84848151811061131a5761131a612c83565b6020908102919091010152505060010161118e565b509392505050565b5f805f61134486866124a8565b905061134e612692565b5061135a86868661278b565b6040805188815260208101859052908101829052606081018390529194509250869033907fd5c6370d65eabf98bee6ac71ce6270200ecc37dc6ba99a7856f1232081b312b39060800160405180910390a350935093915050565b6002545f906113c590600190612d2b565b905090565b60606002805480602002602001604051908101604052809291908181526020015f9082821015610daa578382905f5260205f2090600202016040518060400160405290815f820154815260200160018201548152505081526020019060010190610d67565b5f5473ffffffffffffffffffffffffffffffffffffffff1633146114a0575f546040517fa43d6ada00000000000000000000000000000000000000000000000000000000815233600482015273ffffffffffffffffffffffffffffffffffffffff90911660248201526044016107b4565b73ffffffffffffffffffffffffffffffffffffffff81166114ed576040517fd92e233d00000000000000000000000000000000000000000000000000000000815260040160405180910390fd5b5f80547fffffffffffffffffffffffff00000000000000000000000000000000000000001673ffffffffffffffffffffffffffffffffffffffff8316908117825560405190917f4ffd725fc4a22075e9ec71c59edf9c38cdeb588a91b24fc5b61388c5be41282b91a250565b5f61156483836124a8565b90505f61156f612692565b6040805185815260208101859052908101829052909150849033907f383652a8d239c1168f936d2835a90aa915d1d6bf7af7d5144638be714a3193b39060600160405180910390a350505050565b6003545f906113c590600190612d2b565b5f6115d7612692565b60405181815290915033907f39cf56b90e9d763f0c102996f87d848a60d5b19bd9d53e36505c49b64aa89c729060200160405180910390a250565b5f5473ffffffffffffffffffffffffffffffffffffffff163314611683575f546040517fa43d6ada00000000000000000000000000000000000000000000000000000000815273ffffffffffffffffffffffffffffffffffffffff90911660048201523360248201526044016107b4565b5f60405180604001604052808481526020018381525090505f816040516020016116ad9190612a7a565b604080517fffffffffffffffffffffffffffffffffffffffffffffffffffffffffffffffe081840301815291815281516020928301205f81815260049093529082205490925090819003611737576040517f31b05a8000000000000000000000000000000000000000000000000000000000815260048101869052602481018590526044016107b4565b5f61174286866124a8565b90505f61174d612692565b90505f62093a808061175f8142612c70565b6117699190612d3e565b6117739190612d51565b5f8681526009602090815260408083208484528252808320839055888352600b90915281208290559091506117a88484612d2b565b5f838152600c60209081526040808320849055600e8690558983526005825280832080547fffffffffffffffffffffffffffffffffffffffffffffffffffffffffffffff001660019081179091556003805480830182559085528c5160029182027fc2575a0e9e593c00f959f8c92f12db2869c3395a3b0502d05e2516446f71f85b8101919091558d8501517fc2575a0e9e593c00f959f8c92f12db2869c3395a3b0502d05e2516446f71f85c909101558b85526004909352908320929092558054929350916118789190612d2b565b8154811061188857611888612c83565b5f91825260208083206040805180820182526002909402909101805484526001015483830152519199506118be918a9101612a7a565b604080517fffffffffffffffffffffffffffffffffffffffffffffffffffffffffffffffe081840301815291815281516020928301205f818152600490935291208790556002805491925089918890811061191b5761191b612c83565b905f5260205f2090600202015f820151815f015560208201518160010155905050600280548061194d5761194d612d68565b5f8281526020812060027fffffffffffffffffffffffffffffffffffffffffffffffffffffffffffffffff9093019283020181815560019081019190915591555473ffffffffffffffffffffffffffffffffffffffff168015611a26576040517f63c4d28e0000000000000000000000000000000000000000000000000000000081526004810189905273ffffffffffffffffffffffffffffffffffffffff8216906363c4d28e906024015f604051808303815f87803b158015611a0f575f80fd5b505af1158015611a21573d5f803e3d5ffd5b505050505b604080518b8152602081018590528c917f30b83ce9dbee69f017e7059540e314cdce9e25b2288840cfe65ca96c2d7bab06910160405180910390a25050505050505050505050565b5f80611a7b85858561278b565b90969095509350505050565b60038181548110610c34575f80fd5b6024611aab600267ffffffffffffffff612cdd565b611ab59190612d03565b67ffffffffffffffff1681565b5f604051806040016040528085815260200184815250604051602001611ae89190612a7a565b604080517fffffffffffffffffffffffffffffffffffffffffffffffffffffffffffffffe081840301815291815281516020928301205f818152600590935291205490915060ff1615611b71576040517ffcd19b5d00000000000000000000000000000000000000000000000000000000815260048101859052602481018490526044016107b4565b6040517fc4698ee50000000000000000000000000000000000000000000000000000000081523360048201525f907f000000000000000000000000000000000000000000000000000000000000000073ffffffffffffffffffffffffffffffffffffffff169063c4698ee59060240160a060405180830381865afa158015611bfb573d5f803e3d5ffd5b505050506040513d601f19601f82011682018060405250810190611c1f9190612dbd565b6020015190505f81600f0b1215611c6e576040517fdd1de43a000000000000000000000000000000000000000000000000000000008152336004820152600f82900b60248201526044016107b4565b6040517f4deafcae0000000000000000000000000000000000000000000000000000000081523360048201525f907f000000000000000000000000000000000000000000000000000000000000000073ffffffffffffffffffffffffffffffffffffffff1690634deafcae90602401602060405180830381865afa158015611cf8573d5f803e3d5ffd5b505050506040513d601f19601f82011682018060405250810190611d1c9190612e5f565b90505f62093a8080611d2e8142612c70565b611d389190612d3e565b611d429190612d51565b9050818110611d8d576040517fd78507e100000000000000000000000000000000000000000000000000000000815233600482015260248101839052604481018290526064016107b4565b612710851115611dd4576040517f7ae596850000000000000000000000000000000000000000000000000000000081526004810186905261271060248201526044016107b4565b335f908152600860209081526040808320878452909152812054611dfc90620d2f0090612c70565b905042811115611e47576040517f17601765000000000000000000000000000000000000000000000000000000008152336004820152426024820152604481018290526064016107b4565b335f908152600660209081526040808320888452825280832081516060810183528154815260018201549381019390935260020154908201819052909190841015611eab57838260400151611e9c9190612d2b565b8251611ea89190612d51565b90505b5f60405180606001604052806127108b8a6fffffffffffffffffffffffffffffffff16611ed89190612d51565b611ee29190612d3e565b8152602081018b905260400187905290505f611efe8688612d2b565b8251611f0a9190612d51565b335f90815260076020908152604090912054868201519185015192935091611f329083612c70565b611f3c9190612d2b565b335f9081526007602052604090208190559050612710811115611f96576040517f7ae596850000000000000000000000000000000000000000000000000000000081526004810182905261271060248201526044016107b4565b611fb482611fa48f8f6124a8565b611fae9190612c70565b85612841565b5f8b81526009602090815260408083208b8452909152902055611fd982611fa4612692565b5f888152600c6020526040908190209190915585015187101561207a5782515f8b81526009602090815260408083208b84529091529020600101546120289161202191612c70565b8651612841565b5f8b81526009602090815260408083208b845282528083206001908101949094558651600c909252909120909101546120649161202191612c70565b5f888152600c60205260409020600101556120d4565b82515f8b81526009602090815260408083208b8452909152812060010180549091906120a7908490612c70565b909155505082515f888152600c6020526040812060010180549091906120ce908490612c70565b90915550505b428560400151111561213c5784515f8b8152600a60209081526040808320818a015184529091528120805490919061210d908490612d2b565b909155505084516040808701515f908152600d6020529081208054909190612136908490612d2b565b90915550505b82515f8b8152600a6020908152604080832081880151845290915281208054909190612169908490612c70565b909155505082516040808501515f908152600d6020529081208054909190612192908490612c70565b9091555050335f8181526006602090815260408083208e845282528083208751815582880151600182015581880151600290910155838352600882528083208e845282529182902042905581518f81529081018e90528f92917f4e44aa6a7d9639e4546a021e5baf51f7aae3bcd1f96e0f5f26880d6834b737ee910160405180910390a350505050505050505050505050565b5f816040516020016122379190612a7a565b604080517fffffffffffffffffffffffffffffffffffffffffffffffffffffffffffffffe081840301815291815281516020928301205f8181526004909352912054909150156122c357815160208301516040517f5855e248000000000000000000000000000000000000000000000000000000008152600481019290925260248201526044016107b4565b5f8181526005602052604090205460ff161561231b57815160208301516040517ffcd19b5d000000000000000000000000000000000000000000000000000000008152600481019290925260248201526044016107b4565b600280545f838152600460209081526040822083905560018301845583825285517f405787fa12a823e0f2b7631cc41b3ba8828b3321ca811111fa75cd3aa3bb5ace948402948501558501517f405787fa12a823e0f2b7631cc41b3ba8828b3321ca811111fa75cd3aa3bb5acf909301929092559062093a808061239f8142612c70565b6123a99190612d3e565b6123b39190612d51565b5f848152600b6020526040902081905560015490915073ffffffffffffffffffffffffffffffffffffffff168015612461576040517fa5edd4fc0000000000000000000000000000000000000000000000000000000081526004810185905273ffffffffffffffffffffffffffffffffffffffff82169063a5edd4fc906024015f604051808303815f87803b15801561244a575f80fd5b505af115801561245c573d5f803e3d5ffd5b505050505b8451602080870151604080519182529181018690527fe990f780082e9ce1c98e6c3b814d9885dd1772962a49213d96b58a946819a565910160405180910390a25050505050565b604080518082018252838152602080820184905291515f9283916124ce91849101612a7a565b604080517fffffffffffffffffffffffffffffffffffffffffffffffffffffffffffffffe081840301815291815281516020928301205f818152600590935291205490915060ff1615801561252e57505f81815260046020526040902054155b1561256f576040517f31b05a8000000000000000000000000000000000000000000000000000000000815260048101869052602481018590526044016107b4565b5f818152600b6020908152604080832054600983528184208185528352818420825180840190935280548352600101549282019290925290915b6101f481101561268657428311612686576125c762093a8084612c70565b92505f62093a8083602001516125dd9190612d51565b905080835f015111156126345780835f018181516125fb9190612d2b565b9052505f858152600a60209081526040808320878452825290912054908401805182919061262a908390612d2b565b90525061263e9050565b5f80845260208401525b5f858152600960209081526040808320878452825290912084518155908401516001909101554284111561267d575f858152600b602052604090208490555b506001016125a9565b50519695505050505050565b600e545f818152600c602090815260408083208151808301909252805482526001015491810191909152909190825b6101f481101561278357428311612783576126df62093a8084612c70565b92505f62093a8083602001516126f59190612d51565b905080835f015111156127445780835f018181516127139190612d2b565b9052505f848152600d6020908152604090912054908401805182919061273a908390612d2b565b90525061274e9050565b5f80845260208401525b5f848152600c6020908152604090912084518155908401516001909101554284111561277a57600e8490555b506001016126c1565b505192915050565b5f808062093a8061279c8186612d3e565b6127a69190612d51565b5f818152600c6020908152604080832054815180830183528b81528084018b90529151909650939450926127dc91849101612a7a565b6040516020818303038152906040528051906020012090505f841115612836575f8181526009602090815260408083208684529091529020548461282882670de0b6b3a7640000612d51565b6128329190612d3e565b9550505b505050935093915050565b5f81831161284f575f612859565b6128598284612d2b565b9392505050565b5f8060408385031215612871575f80fd5b50508035926020909101359150565b602080825282518282018190525f919060409081850190868401855b828110156128c9576128b984835180518252602090810151910152565b928401929085019060010161289c565b5091979650505050505050565b5f602082840312156128e6575f80fd5b5035919050565b7f4e487b71000000000000000000000000000000000000000000000000000000005f52604160045260245ffd5b604051601f82017fffffffffffffffffffffffffffffffffffffffffffffffffffffffffffffffe016810167ffffffffffffffff81118282101715612961576129616128ed565b604052919050565b5f67ffffffffffffffff821115612982576129826128ed565b5060051b60200190565b5f82601f83011261299b575f80fd5b813560206129b06129ab83612969565b61291a565b8083825260208201915060208460051b8701019350868411156129d1575f80fd5b602086015b848110156129ed57803583529183019183016129d6565b509695505050505050565b5f805f60608486031215612a0a575f80fd5b833567ffffffffffffffff80821115612a21575f80fd5b612a2d8783880161298c565b94506020860135915080821115612a42575f80fd5b612a4e8783880161298c565b93506040860135915080821115612a63575f80fd5b50612a708682870161298c565b9150509250925092565b815181526020808301519082015260408101610ccd565b803573ffffffffffffffffffffffffffffffffffffffff81168114612ab4575f80fd5b919050565b5f60208284031215612ac9575f80fd5b61285982612a91565b5f8060408385031215612ae3575f80fd5b612aec83612a91565b946020939093013593505050565b5f805f60608486031215612b0c575f80fd5b833567ffffffffffffffff80821115612b23575f80fd5b612b2f8783880161298c565b9450602091508186013581811115612b45575f80fd5b612b518882890161298c565b945050604086013581811115612b65575f80fd5b86019050601f81018713612b77575f80fd5b8035612b856129ab82612969565b81815260059190911b82018301908381019089831115612ba3575f80fd5b928401925b82841015612bc857612bb984612a91565b82529284019290840190612ba8565b80955050505050509250925092565b602080825282518282018190525f9190848201906040850190845b81811015612c0e57835183529284019291840191600101612bf2565b50909695505050505050565b5f805f60608486031215612c2c575f80fd5b505081359360208301359350604090920135919050565b7f4e487b71000000000000000000000000000000000000000000000000000000005f52601160045260245ffd5b80820180821115610ccd57610ccd612c43565b7f4e487b71000000000000000000000000000000000000000000000000000000005f52603260045260245ffd5b7f4e487b71000000000000000000000000000000000000000000000000000000005f52601260045260245ffd5b5f67ffffffffffffffff80841680612cf757612cf7612cb0565b92169190910492915050565b67ffffffffffffffff828116828216039080821115612d2457612d24612c43565b5092915050565b81810381811115610ccd57610ccd612c43565b5f82612d4c57612d4c612cb0565b500490565b8082028115828204841417610ccd57610ccd612c43565b7f4e487b71000000000000000000000000000000000000000000000000000000005f52603160045260245ffd5b8051600f81900b8114612ab4575f80fd5b805167ffffffffffffffff81168114612ab4575f80fd5b5f60a08284031215612dcd575f80fd5b60405160a0810181811067ffffffffffffffff82111715612df057612df06128ed565b604052612dfc83612d95565b8152612e0a60208401612d95565b6020820152612e1b60408401612da6565b6040820152612e2c60608401612da6565b606082015260808301516fffffffffffffffffffffffffffffffff81168114612e53575f80fd5b60808201529392505050565b5f60208284031215612e6f575f80fd5b505191905056fea264697066735822122085123a2e88df54ba63c4c7369b1a1e7bce6e97df850e5002ed413caa42394d4f64736f6c63430008190033",
  "linkReferences": {},
  "deployedLinkReferences": {}
}