{
  "_format": "hh-sol-artifact-1",
  "contractName": "Burner",
  "sourceName": "contracts/Burner.sol",
  "abi": [
    {
      "inputs": [
        {
          "internalType": "address",
          "name": "_olas",
          "type": "address"
        }
      ],
      "stateMutability": "nonpayable",
      "type": "constructor"
    },
    {
      "inputs": [],
      "name": "ReentrancyGuard",
      "type": "error"
    },
    {
      "inputs": [],
      "name": "ZeroAddress",
      "type": "error"
    },
    {
      "inputs": [],
      "name": "ZeroValue",
      "type": "error"
    },
    {
      "anonymous": false,
      "inputs": [
        {
          "indexed": false,
          "internalType": "uint256",
          "name": "amount",
          "type": "uint256"
        }
      ],
      "name": "Burned",
      "type": "event"
    },
    {
      "inputs": [],
      "name": "burn",
      "outputs": [],
      "stateMutability": "nonpayable",
      "type": "function"
    },
    {
      "inputs": [],
      "name": "olas",
      "outputs": [
        {
          "internalType": "address",
          "name": "",
          "type": "address"
        }
      ],
      "stateMutability": "view",
      "type": "function"
    }
  ],
  "bytecode": "0x60a060405260015f55348015610013575f5ffd5b5060405161039e38038061039e8339810160408190526100329161006a565b6001600160a01b0381166100595760405163d92e233d60e01b815260040160405180910390fd5b6001600160a01b0316608052610097565b5f6020828403121561007a575f5ffd5b81516001600160a01b0381168114610090575f5ffd5b9392505050565b6080516102e26100bc5f395f8181603c0152818161010101526101e901526102e25ff3fe608060405234801561000f575f5ffd5b5060043610610033575f3560e01c806231d1151461003757806344df8e7014610087575b5f5ffd5b61005e7f000000000000000000000000000000000000000000000000000000000000000081565b60405173ffffffffffffffffffffffffffffffffffffffff909116815260200160405180910390f35b61008f610091565b005b60015f5411156100cd576040517f8beb9d1600000000000000000000000000000000000000000000000000000000815260040160405180910390fd5b60025f9081556040517f70a082310000000000000000000000000000000000000000000000000000000081523060048201527f000000000000000000000000000000000000000000000000000000000000000073ffffffffffffffffffffffffffffffffffffffff16906370a0823190602401602060405180830381865afa15801561015b573d5f5f3e3d5ffd5b505050506040513d601f19601f8201168201806040525081019061017f9190610295565b9050805f036101ba576040517f7c946ed700000000000000000000000000000000000000000000000000000000815260040160405180910390fd5b6040517f42966c68000000000000000000000000000000000000000000000000000000008152600481018290527f000000000000000000000000000000000000000000000000000000000000000073ffffffffffffffffffffffffffffffffffffffff16906342966c68906024015f604051808303815f87803b15801561023f575f5ffd5b505af1158015610251573d5f5f3e3d5ffd5b505050507fd83c63197e8e676d80ab0122beba9a9d20f3828839e9a1d6fe81d242e9cd7e6e8160405161028691815260200190565b60405180910390a15060015f55565b5f602082840312156102a5575f5ffd5b505191905056fea264697066735822122081e9dea49c6f1f8ecd56cd03169c0ccbd30c2383dc8d4434d17aa7b5b3b6f1e264736f6c634300081c0033",
  "linkReferences": {},
  "deployedLinkReferences": {}
}