{
  "_format": "hh-sol-artifact-1",
  "contractName": "GuardCM",
  "sourceName": "contracts/multisigs/GuardCM.sol",
  "abi": [
    {
      "inputs": [
        {
          "internalType": "address",
          "name": "_timelock",
          "type": "address"
        },
        {
          "internalType": "address",
          "name": "_multisig",
          "type": "address"
        },
        {
          "internalType": "address",
          "name": "_governor",
          "type": "address"
        }
      ],
      "stateMutability": "nonpayable",
      "type": "constructor"
    },
    {
      "inputs": [
        {
          "internalType": "address",
          "name": "account",
          "type": "address"
        }
      ],
      "name": "ContractOnly",
      "type": "error"
    },
    {
      "inputs": [],
      "name": "DelegateCallFailed",
      "type": "error"
    },
    {
      "inputs": [
        {
          "internalType": "uint256",
          "name": "expected",
          "type": "uint256"
        },
        {
          "internalType": "uint256",
          "name": "provided",
          "type": "uint256"
        }
      ],
      "name": "IncorrectDataLength",
      "type": "error"
    },
    {
      "inputs": [
        {
          "internalType": "uint256",
          "name": "chainId",
          "type": "uint256"
        }
      ],
      "name": "L2ChainIdNotSupported",
      "type": "error"
    },
    {
      "inputs": [
        {
          "internalType": "address",
          "name": "sender",
          "type": "address"
        },
        {
          "internalType": "address",
          "name": "manager",
          "type": "address"
        }
      ],
      "name": "ManagerOnly",
      "type": "error"
    },
    {
      "inputs": [],
      "name": "NoDelegateCall",
      "type": "error"
    },
    {
      "inputs": [],
      "name": "NoSelfCall",
      "type": "error"
    },
    {
      "inputs": [
        {
          "internalType": "address",
          "name": "target",
          "type": "address"
        },
        {
          "internalType": "bytes4",
          "name": "selector",
          "type": "bytes4"
        },
        {
          "internalType": "uint256",
          "name": "chainId",
          "type": "uint256"
        }
      ],
      "name": "NotAuthorized",
      "type": "error"
    },
    {
      "inputs": [
        {
          "internalType": "uint256",
          "name": "proposalId",
          "type": "uint256"
        },
        {
          "internalType": "enum ProposalState",
          "name": "state",
          "type": "uint8"
        }
      ],
      "name": "NotDefeated",
      "type": "error"
    },
    {
      "inputs": [
        {
          "internalType": "address",
          "name": "sender",
          "type": "address"
        },
        {
          "internalType": "address",
          "name": "owner",
          "type": "address"
        }
      ],
      "name": "OwnerOnly",
      "type": "error"
    },
    {
      "inputs": [
        {
          "internalType": "uint256",
          "name": "numValues1",
          "type": "uint256"
        },
        {
          "internalType": "uint256",
          "name": "numValues2",
          "type": "uint256"
        },
        {
          "internalType": "uint256",
          "name": "numValues3",
          "type": "uint256"
        },
        {
          "internalType": "uint256",
          "name": "numValues4",
          "type": "uint256"
        }
      ],
      "name": "WrongArrayLength",
      "type": "error"
    },
    {
      "inputs": [],
      "name": "ZeroAddress",
      "type": "error"
    },
    {
      "inputs": [],
      "name": "ZeroValue",
      "type": "error"
    },
    {
      "anonymous": false,
      "inputs": [
        {
          "indexed": true,
          "internalType": "uint256",
          "name": "proposalId",
          "type": "uint256"
        }
      ],
      "name": "GovernorCheckProposalIdChanged",
      "type": "event"
    },
    {
      "anonymous": false,
      "inputs": [
        {
          "indexed": true,
          "internalType": "address",
          "name": "governor",
          "type": "address"
        }
      ],
      "name": "GovernorUpdated",
      "type": "event"
    },
    {
      "anonymous": false,
      "inputs": [
        {
          "indexed": true,
          "internalType": "address",
          "name": "account",
          "type": "address"
        }
      ],
      "name": "GuardPaused",
      "type": "event"
    },
    {
      "anonymous": false,
      "inputs": [],
      "name": "GuardUnpaused",
      "type": "event"
    },
    {
      "anonymous": false,
      "inputs": [
        {
          "indexed": true,
          "internalType": "address[]",
          "name": "bridgeMediatorL1s",
          "type": "address[]"
        },
        {
          "indexed": true,
          "internalType": "address[]",
          "name": "verifierL2s",
          "type": "address[]"
        },
        {
          "indexed": true,
          "internalType": "address[]",
          "name": "bridgeMediatorL2s",
          "type": "address[]"
        },
        {
          "indexed": false,
          "internalType": "uint256[]",
          "name": "chainIds",
          "type": "uint256[]"
        }
      ],
      "name": "SetBridgeMediators",
      "type": "event"
    },
    {
      "anonymous": false,
      "inputs": [
        {
          "indexed": true,
          "internalType": "address[]",
          "name": "targets",
          "type": "address[]"
        },
        {
          "indexed": true,
          "internalType": "bytes4[]",
          "name": "selectors",
          "type": "bytes4[]"
        },
        {
          "indexed": false,
          "internalType": "uint256[]",
          "name": "chainIds",
          "type": "uint256[]"
        },
        {
          "indexed": false,
          "internalType": "bool[]",
          "name": "statuses",
          "type": "bool[]"
        }
      ],
      "name": "SetTargetSelectors",
      "type": "event"
    },
    {
      "inputs": [],
      "name": "MAX_CHAIN_ID",
      "outputs": [
        {
          "internalType": "uint256",
          "name": "",
          "type": "uint256"
        }
      ],
      "stateMutability": "view",
      "type": "function"
    },
    {
      "inputs": [],
      "name": "MIN_SCHEDULE_DATA_LENGTH",
      "outputs": [
        {
          "internalType": "uint256",
          "name": "",
          "type": "uint256"
        }
      ],
      "stateMutability": "view",
      "type": "function"
    },
    {
      "inputs": [],
      "name": "SCHEDULE",
      "outputs": [
        {
          "internalType": "bytes4",
          "name": "",
          "type": "bytes4"
        }
      ],
      "stateMutability": "view",
      "type": "function"
    },
    {
      "inputs": [],
      "name": "SCHEDULE_BATCH",
      "outputs": [
        {
          "internalType": "bytes4",
          "name": "",
          "type": "bytes4"
        }
      ],
      "stateMutability": "view",
      "type": "function"
    },
    {
      "inputs": [],
      "name": "SELECTOR_DATA_LENGTH",
      "outputs": [
        {
          "internalType": "uint256",
          "name": "",
          "type": "uint256"
        }
      ],
      "stateMutability": "view",
      "type": "function"
    },
    {
      "inputs": [
        {
          "internalType": "address",
          "name": "newGovernor",
          "type": "address"
        }
      ],
      "name": "changeGovernor",
      "outputs": [],
      "stateMutability": "nonpayable",
      "type": "function"
    },
    {
      "inputs": [
        {
          "internalType": "uint256",
          "name": "proposalId",
          "type": "uint256"
        }
      ],
      "name": "changeGovernorCheckProposalId",
      "outputs": [],
      "stateMutability": "nonpayable",
      "type": "function"
    },
    {
      "inputs": [
        {
          "internalType": "bytes32",
          "name": "",
          "type": "bytes32"
        },
        {
          "internalType": "bool",
          "name": "",
          "type": "bool"
        }
      ],
      "name": "checkAfterExecution",
      "outputs": [],
      "stateMutability": "nonpayable",
      "type": "function"
    },
    {
      "inputs": [
        {
          "internalType": "address",
          "name": "to",
          "type": "address"
        },
        {
          "internalType": "uint256",
          "name": "",
          "type": "uint256"
        },
        {
          "internalType": "bytes",
          "name": "data",
          "type": "bytes"
        },
        {
          "internalType": "enum Enum.Operation",
          "name": "operation",
          "type": "uint8"
        },
        {
          "internalType": "uint256",
          "name": "",
          "type": "uint256"
        },
        {
          "internalType": "uint256",
          "name": "",
          "type": "uint256"
        },
        {
          "internalType": "uint256",
          "name": "",
          "type": "uint256"
        },
        {
          "internalType": "address",
          "name": "",
          "type": "address"
        },
        {
          "internalType": "address payable",
          "name": "",
          "type": "address"
        },
        {
          "internalType": "bytes",
          "name": "",
          "type": "bytes"
        },
        {
          "internalType": "address",
          "name": "",
          "type": "address"
        }
      ],
      "name": "checkTransaction",
      "outputs": [],
      "stateMutability": "nonpayable",
      "type": "function"
    },
    {
      "inputs": [
        {
          "internalType": "address",
          "name": "target",
          "type": "address"
        },
        {
          "internalType": "bytes4",
          "name": "selector",
          "type": "bytes4"
        },
        {
          "internalType": "uint256",
          "name": "chainId",
          "type": "uint256"
        }
      ],
      "name": "getTargetSelectorChainId",
      "outputs": [
        {
          "internalType": "bool",
          "name": "status",
          "type": "bool"
        }
      ],
      "stateMutability": "view",
      "type": "function"
    },
    {
      "inputs": [],
      "name": "governor",
      "outputs": [
        {
          "internalType": "address",
          "name": "",
          "type": "address"
        }
      ],
      "stateMutability": "view",
      "type": "function"
    },
    {
      "inputs": [],
      "name": "governorCheckProposalId",
      "outputs": [
        {
          "internalType": "uint256",
          "name": "",
          "type": "uint256"
        }
      ],
      "stateMutability": "view",
      "type": "function"
    },
    {
      "inputs": [
        {
          "internalType": "uint256",
          "name": "",
          "type": "uint256"
        }
      ],
      "name": "mapAllowedTargetSelectorChainIds",
      "outputs": [
        {
          "internalType": "bool",
          "name": "",
          "type": "bool"
        }
      ],
      "stateMutability": "view",
      "type": "function"
    },
    {
      "inputs": [
        {
          "internalType": "address",
          "name": "",
          "type": "address"
        }
      ],
      "name": "mapBridgeMediatorL1BridgeParams",
      "outputs": [
        {
          "internalType": "address",
          "name": "verifierL2",
          "type": "address"
        },
        {
          "internalType": "address",
          "name": "bridgeMediatorL2",
          "type": "address"
        },
        {
          "internalType": "uint64",
          "name": "chainId",
          "type": "uint64"
        }
      ],
      "stateMutability": "view",
      "type": "function"
    },
    {
      "inputs": [],
      "name": "multisig",
      "outputs": [
        {
          "internalType": "address",
          "name": "",
          "type": "address"
        }
      ],
      "stateMutability": "view",
      "type": "function"
    },
    {
      "inputs": [],
      "name": "owner",
      "outputs": [
        {
          "internalType": "address",
          "name": "",
          "type": "address"
        }
      ],
      "stateMutability": "view",
      "type": "function"
    },
    {
      "inputs": [],
      "name": "pause",
      "outputs": [],
      "stateMutability": "nonpayable",
      "type": "function"
    },
    {
      "inputs": [],
      "name": "paused",
      "outputs": [
        {
          "internalType": "uint8",
          "name": "",
          "type": "uint8"
        }
      ],
      "stateMutability": "view",
      "type": "function"
    },
    {
      "inputs": [
        {
          "internalType": "address[]",
          "name": "bridgeMediatorL1s",
          "type": "address[]"
        },
        {
          "internalType": "address[]",
          "name": "verifierL2s",
          "type": "address[]"
        },
        {
          "internalType": "uint256[]",
          "name": "chainIds",
          "type": "uint256[]"
        },
        {
          "internalType": "address[]",
          "name": "bridgeMediatorL2s",
          "type": "address[]"
        }
      ],
      "name": "setBridgeMediatorL1BridgeParams",
      "outputs": [],
      "stateMutability": "nonpayable",
      "type": "function"
    },
    {
      "inputs": [
        {
          "internalType": "address[]",
          "name": "targets",
          "type": "address[]"
        },
        {
          "internalType": "bytes4[]",
          "name": "selectors",
          "type": "bytes4[]"
        },
        {
          "internalType": "uint256[]",
          "name": "chainIds",
          "type": "uint256[]"
        },
        {
          "internalType": "bool[]",
          "name": "statuses",
          "type": "bool[]"
        }
      ],
      "name": "setTargetSelectorChainIds",
      "outputs": [],
      "stateMutability": "nonpayable",
      "type": "function"
    },
    {
      "inputs": [],
      "name": "unpause",
      "outputs": [],
      "stateMutability": "nonpayable",
      "type": "function"
    }
  ],
  "bytecode": "0x60c06040527fc31bbc1e3236488ae8f22fbf502bfdf157c6632d6e26bf7aecc7efa40d960d296001556002805460ff60a01b1916600160a01b179055348015610046575f5ffd5b50604051612aeb380380612aeb833981016040819052610065916100fb565b6001600160a01b038316158061008257506001600160a01b038216155b8061009457506001600160a01b038116155b156100b25760405163d92e233d60e01b815260040160405180910390fd5b6001600160a01b0392831660805290821660a052600280546001600160a01b0319169190921617905561013b565b80516001600160a01b03811681146100f6575f5ffd5b919050565b5f5f5f6060848603121561010d575f5ffd5b610116846100e0565b9250610124602085016100e0565b9150610132604085016100e0565b90509250925092565b60805160a0516129266101c55f395f8181610300015281816110dd0152818161120501526113a101525f818161041101528181610481015281816104e9015281816109b301528181610a1b01528181610af501528181610b5d01528181610f0c01528181611184015281816114120152818161147a0152818161152a015261159201526129265ff3fe608060405234801561000f575f5ffd5b506004361061016e575f3560e01c80635d78d469116100d257806387b68df111610088578063e4c0aaf411610063578063e4c0aaf414610445578063ed7a975414610458578063f7cde1cc14610460575f5ffd5b806387b68df1146103f95780638da5cb5b1461040c5780639327136814610433575f5ffd5b80637c257f9d116100b85780637c257f9d1461038757806381792616146103e85780638456cb59146103f1575f5ffd5b80635d78d4691461036157806375f0bb5214610374575f5ffd5b80633ce3778c116101275780634783c35b1161010d5780634783c35b146102fb5780635bc105c0146103225780635c975abb1461032a575f5ffd5b80633ce3778c146102dd5780633f4ba83a146102f3575f5ffd5b806316979a181161015757806316979a18146101d157806336b057601461020a57806337a36b1f1461023c575f5ffd5b80630c340a24146101725780631602c55c146101bc575b5f5ffd5b6002546101929073ffffffffffffffffffffffffffffffffffffffff1681565b60405173ffffffffffffffffffffffffffffffffffffffff90911681526020015b60405180910390f35b6101cf6101ca366004611da5565b610469565b005b6101d9610978565b6040517fffffffff0000000000000000000000000000000000000000000000000000000090911681526020016101b3565b61022c610218366004611e5e565b5f6020819052908152604090205460ff1681565b60405190151581526020016101b3565b6102a061024a366004611e75565b60036020525f90815260409020805460019091015473ffffffffffffffffffffffffffffffffffffffff9182169181169074010000000000000000000000000000000000000000900467ffffffffffffffff1683565b6040805173ffffffffffffffffffffffffffffffffffffffff948516815293909216602084015267ffffffffffffffff16908201526060016101b3565b6102e5600481565b6040519081526020016101b3565b6101cf61099b565b6101927f000000000000000000000000000000000000000000000000000000000000000081565b6102e5610ab1565b60025461034f9074010000000000000000000000000000000000000000900460ff1681565b60405160ff90911681526020016101b3565b6101cf61036f366004611f37565b610add565b6101cf6103823660046120e2565b610e9a565b61022c6103953660046121bf565b60c01b77ffffffff0000000000000000000000000000000000000000604092831c1673ffffffffffffffffffffffffffffffffffffffff90931692909217919091175f9081526020819052205460ff1690565b6102e561010481565b6101cf61116d565b6101cf610407366004611e5e565b6113fa565b6101927f000000000000000000000000000000000000000000000000000000000000000081565b6101cf6104413660046121fb565b5050565b6101cf610453366004611e75565b611512565b6101d961167a565b6102e560015481565b3373ffffffffffffffffffffffffffffffffffffffff7f0000000000000000000000000000000000000000000000000000000000000000161461051b576040517fa43d6ada00000000000000000000000000000000000000000000000000000000815233600482015273ffffffffffffffffffffffffffffffffffffffff7f00000000000000000000000000000000000000000000000000000000000000001660248201526044015b60405180910390fd5b8251845114158061052e57508151845114155b8061053b57508051845114155b156105905783518351835183516040517f1d0d38490000000000000000000000000000000000000000000000000000000081526004810194909452602484019290925260448301526064820152608401610512565b5f5b82518110156108f8575f73ffffffffffffffffffffffffffffffffffffffff168582815181106105c4576105c4612225565b602002602001015173ffffffffffffffffffffffffffffffffffffffff16148061063257505f73ffffffffffffffffffffffffffffffffffffffff1684828151811061061257610612612225565b602002602001015173ffffffffffffffffffffffffffffffffffffffff16145b15610669576040517fd92e233d00000000000000000000000000000000000000000000000000000000815260040160405180910390fd5b83818151811061067b5761067b612225565b602002602001015173ffffffffffffffffffffffffffffffffffffffff163b5f03610709578381815181106106b2576106b2612225565b60200260200101516040517f601c0c21000000000000000000000000000000000000000000000000000000008152600401610512919073ffffffffffffffffffffffffffffffffffffffff91909116815260200190565b5f83828151811061071c5761071c612225565b60200260200101519050805f148061075b57506024610744600267ffffffffffffffff61227f565b61074e91906122d3565b67ffffffffffffffff1681115b15610795576040517f05877c3500000000000000000000000000000000000000000000000000000000815260048101829052602401610512565b5f60035f8885815181106107ab576107ab612225565b602002602001015173ffffffffffffffffffffffffffffffffffffffff1673ffffffffffffffffffffffffffffffffffffffff1681526020019081526020015f20905085838151811061080057610800612225565b602090810291909101015181547fffffffffffffffffffffffff00000000000000000000000000000000000000001673ffffffffffffffffffffffffffffffffffffffff909116178155835184908490811061085e5761085e612225565b6020026020010151816001015f6101000a81548173ffffffffffffffffffffffffffffffffffffffff021916908373ffffffffffffffffffffffffffffffffffffffff1602179055508483815181106108b9576108b9612225565b60200260200101518160010160146101000a81548167ffffffffffffffff021916908367ffffffffffffffff1602179055505050806001019050610592565b508060405161090791906122f9565b60405180910390208360405161091d91906122f9565b60405180910390208560405161093391906122f9565b60405180910390207fccffb126c66cf191a234c0410e40143d5af455b72fbc66713d2d5a8c32105d438560405161096a919061237e565b60405180910390a450505050565b604051806060016040528060378152602001612878603791398051906020012081565b3373ffffffffffffffffffffffffffffffffffffffff7f00000000000000000000000000000000000000000000000000000000000000001614610a48576040517fa43d6ada00000000000000000000000000000000000000000000000000000000815233600482015273ffffffffffffffffffffffffffffffffffffffff7f0000000000000000000000000000000000000000000000000000000000000000166024820152604401610512565b600280547fffffffffffffffffffffff00ffffffffffffffffffffffffffffffffffffffff16740100000000000000000000000000000000000000001790556040517fb7494247183e272909cbb2787cfe307a720be20191d035876006b8903349b361905f90a1565b6024610ac6600267ffffffffffffffff61227f565b610ad091906122d3565b67ffffffffffffffff1681565b3373ffffffffffffffffffffffffffffffffffffffff7f00000000000000000000000000000000000000000000000000000000000000001614610b8a576040517fa43d6ada00000000000000000000000000000000000000000000000000000000815233600482015273ffffffffffffffffffffffffffffffffffffffff7f0000000000000000000000000000000000000000000000000000000000000000166024820152604401610512565b82518451141580610b9d57508051845114155b80610baa57508151845114155b15610bff5783518351825184516040517f1d0d38490000000000000000000000000000000000000000000000000000000081526004810194909452602484019290925260448301526064820152608401610512565b5f5b8451811015610e2e575f73ffffffffffffffffffffffffffffffffffffffff16858281518110610c3357610c33612225565b602002602001015173ffffffffffffffffffffffffffffffffffffffff1603610c88576040517fd92e233d00000000000000000000000000000000000000000000000000000000815260040160405180910390fd5b83515f90859083908110610c9e57610c9e612225565b60200260200101517bffffffffffffffffffffffffffffffffffffffffffffffffffffffff191603610cfc576040517f7c946ed700000000000000000000000000000000000000000000000000000000815260040160405180910390fd5b828181518110610d0e57610d0e612225565b60200260200101515f03610d4e576040517f7c946ed700000000000000000000000000000000000000000000000000000000815260040160405180910390fd5b5f858281518110610d6157610d61612225565b602002602001015173ffffffffffffffffffffffffffffffffffffffff16905060a0858381518110610d9557610d95612225565b602002602001015160e01c63ffffffff16901b8117905060c0848381518110610dc057610dc0612225565b6020026020010151901b81179050828281518110610de057610de0612225565b6020908102919091018101515f92835290829052604090912080547fffffffffffffffffffffffffffffffffffffffffffffffffffffffffffffff0016911515919091179055600101610c01565b5082604051610e3d9190612390565b604051809103902084604051610e5391906122f9565b60405180910390207f820c9405a0f2bb85b6d3faa5e7cc32aab79e983e6b14fc2f47c34855003cd8b48484604051610e8c9291906123dc565b60405180910390a350505050565b60025474010000000000000000000000000000000000000000900460ff16600103611160576001886001811115610ed357610ed3612436565b03610f0a576040517f034aef8500000000000000000000000000000000000000000000000000000000815260040160405180910390fd5b7f000000000000000000000000000000000000000000000000000000000000000073ffffffffffffffffffffffffffffffffffffffff168b73ffffffffffffffffffffffffffffffffffffffff16036110db57600489511015610fa857885160046040517f34c9027a000000000000000000000000000000000000000000000000000000008152600401610512929190918252602082015260400190565b5f610fb28a612463565b905060405180606001604052806037815260200161287860379139805190602001207bffffffffffffffffffffffffffffffffffffffffffffffffffffffff1916817bffffffffffffffffffffffffffffffffffffffffffffffffffffffff1916148061107b57506040518060800160405280604281526020016128af60429139805190602001207bffffffffffffffffffffffffffffffffffffffffffffffffffffffff1916817bffffffffffffffffffffffffffffffffffffffffffffffffffffffff1916145b156110d5576101048a5110156110cb5789516040517f34c9027a00000000000000000000000000000000000000000000000000000000815260048101919091526101046024820152604401610512565b6110d58a8261169d565b50611160565b7f000000000000000000000000000000000000000000000000000000000000000073ffffffffffffffffffffffffffffffffffffffff168b73ffffffffffffffffffffffffffffffffffffffff1603611160576040517f73dc029f00000000000000000000000000000000000000000000000000000000815260040160405180910390fd5b5050505050505050505050565b73ffffffffffffffffffffffffffffffffffffffff7f00000000000000000000000000000000000000000000000000000000000000001633036111ee57600280547fffffffffffffffffffffff00ffffffffffffffffffffffffffffffffffffffff16740200000000000000000000000000000000000000001790556113ce565b73ffffffffffffffffffffffffffffffffffffffff7f000000000000000000000000000000000000000000000000000000000000000016330361135e576002546001546040517f3e4f49e600000000000000000000000000000000000000000000000000000000815260048101919091525f9173ffffffffffffffffffffffffffffffffffffffff1690633e4f49e6906024016020604051808303815f875af115801561129d573d5f5f3e3d5ffd5b505050506040513d601f19601f820116820180604052508101906112c191906124cf565b905060038160078111156112d7576112d7612436565b0361132057600280547fffffffffffffffffffffff00ffffffffffffffffffffffffffffffffffffffff1674020000000000000000000000000000000000000000179055611358565b600154816040517fe83cca170000000000000000000000000000000000000000000000000000000081526004016105129291906124ed565b506113ce565b6040517f625a43fe00000000000000000000000000000000000000000000000000000000815233600482015273ffffffffffffffffffffffffffffffffffffffff7f0000000000000000000000000000000000000000000000000000000000000000166024820152604401610512565b60405133907fe09b21d6dd32859666ae309428ea624d48855f4762e0c91f342016e4947d793b905f90a2565b3373ffffffffffffffffffffffffffffffffffffffff7f000000000000000000000000000000000000000000000000000000000000000016146114a7576040517fa43d6ada00000000000000000000000000000000000000000000000000000000815233600482015273ffffffffffffffffffffffffffffffffffffffff7f0000000000000000000000000000000000000000000000000000000000000000166024820152604401610512565b805f036114e0576040517f7c946ed700000000000000000000000000000000000000000000000000000000815260040160405180910390fd5b600181905560405181907f63a01eaabe199ab888e562c930e21f3436583ea5acd4ca5c4ceffac3a523e039905f90a250565b3373ffffffffffffffffffffffffffffffffffffffff7f000000000000000000000000000000000000000000000000000000000000000016146115bf576040517fa43d6ada00000000000000000000000000000000000000000000000000000000815233600482015273ffffffffffffffffffffffffffffffffffffffff7f0000000000000000000000000000000000000000000000000000000000000000166024820152604401610512565b73ffffffffffffffffffffffffffffffffffffffff811661160c576040517fd92e233d00000000000000000000000000000000000000000000000000000000815260040160405180910390fd5b600280547fffffffffffffffffffffffff00000000000000000000000000000000000000001673ffffffffffffffffffffffffffffffffffffffff83169081179091556040517f386c8d5fb4be6c928b7de4c7ae0a4b2ad0d2b2a7edad65d9f0af9ba255e51219905f90a250565b6040518060800160405280604281526020016128af604291398051906020012081565b5f600483516116ac9190612536565b67ffffffffffffffff8111156116c4576116c4611c04565b6040519080825280601f01601f1916602001820160405280156116ee576020820181803683370190505b5090505f5b815181101561176b5783611708826004612549565b8151811061171857611718612225565b602001015160f81c60f81b82828151811061173557611735612225565b60200101907effffffffffffffffffffffffffffffffffffffffffffffffffffffffffffff191690815f1a9053506001016116f3565b5060608060405180606001604052806037815260200161287860379139805190602001207bffffffffffffffffffffffffffffffffffffffffffffffffffffffff1916847bffffffffffffffffffffffffffffffffffffffffffffffffffffffff1916036118a557604080516001808252818301909252906020808301908036833701905050604080516001808252818301909252919350816020015b60608152602001906001900390816118085790505090508280602001905181019061183391906125a9565b5050855191925085915f915061184b5761184b612225565b60200260200101835f8151811061186457611864612225565b602002602001018290528273ffffffffffffffffffffffffffffffffffffffff1673ffffffffffffffffffffffffffffffffffffffff1681525050506118c4565b828060200190518101906118b991906126f7565b509395509093505050505b5f5b8251811015611b1a575f60035f8584815181106118e5576118e5612225565b60209081029190910181015173ffffffffffffffffffffffffffffffffffffffff90811683528282019390935260409182015f20825160608101845281548516808252600190920154948516928101929092527401000000000000000000000000000000000000000090930467ffffffffffffffff1691810191909152915015611ad4575f83838151811061197c5761197c612225565b6020026020010151826020015183604001516040516024016119a0939291906127e0565b604080517fffffffffffffffffffffffffffffffffffffffffffffffffffffffffffffffe08184030181529181526020820180517bffffffffffffffffffffffffffffffffffffffffffffffffffffffff167f224b0de700000000000000000000000000000000000000000000000000000000179052835190519192505f91829173ffffffffffffffffffffffffffffffffffffffff1690611a43908590612861565b5f60405180830381855af49150503d805f8114611a7b576040519150601f19603f3d011682016040523d82523d5f602084013e611a80565b606091505b509150915081611acc57805115611a9a5780518082602001fd5b6040517f18cecad500000000000000000000000000000000000000000000000000000000815260040160405180910390fd5b505050611b11565b611b11848381518110611ae957611ae9612225565b6020026020010151848481518110611b0357611b03612225565b602002602001015146611b22565b506001016118c6565b505050505050565b73ffffffffffffffffffffffffffffffffffffffff83165f611b4384612463565b604081811c77ffffffff0000000000000000000000000000000000000000169390931760c085901b175f8181526020819052939093205490915060ff16611bfd576040517f43abfb6c00000000000000000000000000000000000000000000000000000000815273ffffffffffffffffffffffffffffffffffffffff861660048201527fffffffff000000000000000000000000000000000000000000000000000000008216602482015260448101849052606401610512565b5050505050565b7f4e487b71000000000000000000000000000000000000000000000000000000005f52604160045260245ffd5b604051601f82017fffffffffffffffffffffffffffffffffffffffffffffffffffffffffffffffe016810167ffffffffffffffff81118282101715611c7857611c78611c04565b604052919050565b5f67ffffffffffffffff821115611c9957611c99611c04565b5060051b60200190565b73ffffffffffffffffffffffffffffffffffffffff81168114611cc4575f5ffd5b50565b8035611cd281611ca3565b919050565b5f82601f830112611ce6575f5ffd5b8135611cf9611cf482611c80565b611c31565b8082825260208201915060208360051b860101925085831115611d1a575f5ffd5b602085015b83811015611d40578035611d3281611ca3565b835260209283019201611d1f565b5095945050505050565b5f82601f830112611d59575f5ffd5b8135611d67611cf482611c80565b8082825260208201915060208360051b860101925085831115611d88575f5ffd5b602085015b83811015611d40578035835260209283019201611d8d565b5f5f5f5f60808587031215611db8575f5ffd5b843567ffffffffffffffff811115611dce575f5ffd5b611dda87828801611cd7565b945050602085013567ffffffffffffffff811115611df6575f5ffd5b611e0287828801611cd7565b935050604085013567ffffffffffffffff811115611e1e575f5ffd5b611e2a87828801611d4a565b925050606085013567ffffffffffffffff811115611e46575f5ffd5b611e5287828801611cd7565b91505092959194509250565b5f60208284031215611e6e575f5ffd5b5035919050565b5f60208284031215611e85575f5ffd5b8135611e9081611ca3565b9392505050565b80357fffffffff0000000000000000000000000000000000000000000000000000000081168114611cd2575f5ffd5b80358015158114611cd2575f5ffd5b5f82601f830112611ee4575f5ffd5b8135611ef2611cf482611c80565b8082825260208201915060208360051b860101925085831115611f13575f5ffd5b602085015b83811015611d4057611f2981611ec6565b835260209283019201611f18565b5f5f5f5f60808587031215611f4a575f5ffd5b843567ffffffffffffffff811115611f60575f5ffd5b611f6c87828801611cd7565b945050602085013567ffffffffffffffff811115611f88575f5ffd5b8501601f81018713611f98575f5ffd5b8035611fa6611cf482611c80565b8082825260208201915060208360051b850101925089831115611fc7575f5ffd5b6020840193505b82841015611ff057611fdf84611e97565b825260209384019390910190611fce565b9550505050604085013567ffffffffffffffff81111561200e575f5ffd5b61201a87828801611d4a565b925050606085013567ffffffffffffffff811115612036575f5ffd5b611e5287828801611ed5565b5f67ffffffffffffffff82111561205b5761205b611c04565b50601f017fffffffffffffffffffffffffffffffffffffffffffffffffffffffffffffffe01660200190565b5f82601f830112612096575f5ffd5b81356120a4611cf482612042565b8181528460208386010111156120b8575f5ffd5b816020850160208301375f918101602001919091529392505050565b803560028110611cd2575f5ffd5b5f5f5f5f5f5f5f5f5f5f5f6101608c8e0312156120fd575f5ffd5b6121068c611cc7565b9a5060208c0135995060408c013567ffffffffffffffff811115612128575f5ffd5b6121348e828f01612087565b99505061214360608d016120d4565b975060808c0135965060a08c0135955060c08c0135945061216660e08d01611cc7565b93506121756101008d01611cc7565b92506101208c013567ffffffffffffffff811115612191575f5ffd5b61219d8e828f01612087565b9250506121ad6101408d01611cc7565b90509295989b509295989b9093969950565b5f5f5f606084860312156121d1575f5ffd5b83356121dc81611ca3565b92506121ea60208501611e97565b929592945050506040919091013590565b5f5f6040838503121561220c575f5ffd5b8235915061221c60208401611ec6565b90509250929050565b7f4e487b71000000000000000000000000000000000000000000000000000000005f52603260045260245ffd5b7f4e487b71000000000000000000000000000000000000000000000000000000005f52601160045260245ffd5b5f67ffffffffffffffff8316806122bd577f4e487b71000000000000000000000000000000000000000000000000000000005f52601260045260245ffd5b8067ffffffffffffffff84160491505092915050565b67ffffffffffffffff82811682821603908111156122f3576122f3612252565b92915050565b81515f90829060208501835b8281101561233957815173ffffffffffffffffffffffffffffffffffffffff16845260209384019390910190600101612305565b509195945050505050565b5f8151808452602084019350602083015f5b82811015612374578151865260209586019590910190600101612356565b5093949350505050565b602081525f611e906020830184612344565b81515f90829060208501835b828110156123395781517fffffffff000000000000000000000000000000000000000000000000000000001684526020938401939091019060010161239c565b604081525f6123ee6040830185612344565b82810360208401528084518083526020830191506020860192505f5b8181101561242a578351151583526020938401939092019160010161240a565b50909695505050505050565b7f4e487b71000000000000000000000000000000000000000000000000000000005f52602160045260245ffd5b805160208201517fffffffff000000000000000000000000000000000000000000000000000000008116919060048210156124c8577fffffffff00000000000000000000000000000000000000000000000000000000808360040360031b1b82161692505b5050919050565b5f602082840312156124df575f5ffd5b815160088110611e90575f5ffd5b8281526040810160088310612529577f4e487b71000000000000000000000000000000000000000000000000000000005f52602160045260245ffd5b8260208301529392505050565b818103818111156122f3576122f3612252565b808201808211156122f3576122f3612252565b5f82601f83011261256b575f5ffd5b8151612579611cf482612042565b81815284602083860101111561258d575f5ffd5b8160208501602083015e5f918101602001919091529392505050565b5f5f5f5f5f5f60c087890312156125be575f5ffd5b86516125c981611ca3565b60208801516040890151919750955067ffffffffffffffff8111156125ec575f5ffd5b6125f889828a0161255c565b606089015160808a015160a0909a0151989b979a509098909790969095509350505050565b5f82601f83011261262c575f5ffd5b815161263a611cf482611c80565b8082825260208201915060208360051b86010192508583111561265b575f5ffd5b602085015b83811015611d40578051835260209283019201612660565b5f82601f830112612687575f5ffd5b8151612695611cf482611c80565b8082825260208201915060208360051b8601019250858311156126b6575f5ffd5b602085015b83811015611d4057805167ffffffffffffffff8111156126d9575f5ffd5b6126e8886020838a010161255c565b845250602092830192016126bb565b5f5f5f5f5f5f60c0878903121561270c575f5ffd5b865167ffffffffffffffff811115612722575f5ffd5b8701601f81018913612732575f5ffd5b8051612740611cf482611c80565b8082825260208201915060208360051b85010192508b831115612761575f5ffd5b6020840193505b8284101561278c57835161277b81611ca3565b825260209384019390910190612768565b80995050505050602087015167ffffffffffffffff8111156127ac575f5ffd5b6127b889828a0161261d565b955050604087015167ffffffffffffffff8111156127d4575f5ffd5b6125f889828a01612678565b606081525f84518060608401528060208701608085015e5f6080828501015260807fffffffffffffffffffffffffffffffffffffffffffffffffffffffffffffffe0601f83011684010191505073ffffffffffffffffffffffffffffffffffffffff8416602083015267ffffffffffffffff83166040830152949350505050565b5f82518060208501845e5f92019182525091905056fe7363686564756c6528616464726573732c75696e743235362c62797465732c627974657333322c627974657333322c75696e74323536297363686564756c65426174636828616464726573735b5d2c75696e743235365b5d2c62797465735b5d2c627974657333322c627974657333322c75696e7432353629a26469706673582212207aaab2bbe6b325f725d46cd17506906ec38014562805f150bcf8353bb87c8b6d64736f6c634300081e0033",
  "linkReferences": {},
  "deployedLinkReferences": {}
}