{
  "_format": "hh-sol-artifact-1",
  "contractName": "WormholeRelayerTimelock",
  "sourceName": "contracts/bridges/WormholeRelayerTimelock.sol",
  "abi": [
    {
      "inputs": [
        {
          "internalType": "address",
          "name": "_timelock",
          "type": "address"
        },
        {
          "internalType": "address",
          "name": "_wormholeRelayer",
          "type": "address"
        }
      ],
      "stateMutability": "nonpayable",
      "type": "constructor"
    },
    {
      "inputs": [
        {
          "internalType": "uint256",
          "name": "provided",
          "type": "uint256"
        },
        {
          "internalType": "uint256",
          "name": "expected",
          "type": "uint256"
        }
      ],
      "name": "LowerThan",
      "type": "error"
    },
    {
      "inputs": [],
      "name": "ReentrancyGuard",
      "type": "error"
    },
    {
      "inputs": [
        {
          "internalType": "address",
          "name": "to",
          "type": "address"
        },
        {
          "internalType": "uint256",
          "name": "amount",
          "type": "uint256"
        }
      ],
      "name": "TransferFailed",
      "type": "error"
    },
    {
      "inputs": [
        {
          "internalType": "address",
          "name": "account",
          "type": "address"
        }
      ],
      "name": "UnauthorizedAccount",
      "type": "error"
    },
    {
      "inputs": [],
      "name": "ZeroAddress",
      "type": "error"
    },
    {
      "inputs": [],
      "name": "ZeroValue",
      "type": "error"
    },
    {
      "anonymous": false,
      "inputs": [
        {
          "indexed": true,
          "internalType": "address",
          "name": "sender",
          "type": "address"
        },
        {
          "indexed": false,
          "internalType": "uint256",
          "name": "leftovers",
          "type": "uint256"
        }
      ],
      "name": "LeftoversRefunded",
      "type": "event"
    },
    {
      "inputs": [
        {
          "internalType": "uint16",
          "name": "targetChain",
          "type": "uint16"
        },
        {
          "internalType": "address",
          "name": "targetAddress",
          "type": "address"
        },
        {
          "internalType": "bytes",
          "name": "payload",
          "type": "bytes"
        },
        {
          "internalType": "uint256",
          "name": "receiverValue",
          "type": "uint256"
        },
        {
          "internalType": "uint256",
          "name": "gasLimit",
          "type": "uint256"
        },
        {
          "internalType": "uint16",
          "name": "refundChain",
          "type": "uint16"
        },
        {
          "internalType": "address",
          "name": "refundChainAddress",
          "type": "address"
        },
        {
          "internalType": "address",
          "name": "refundValueAddress",
          "type": "address"
        }
      ],
      "name": "sendPayloadToEvm",
      "outputs": [
        {
          "internalType": "uint64",
          "name": "sequence",
          "type": "uint64"
        }
      ],
      "stateMutability": "payable",
      "type": "function"
    },
    {
      "inputs": [],
      "name": "timelock",
      "outputs": [
        {
          "internalType": "address",
          "name": "",
          "type": "address"
        }
      ],
      "stateMutability": "view",
      "type": "function"
    },
    {
      "inputs": [],
      "name": "wormholeRelayer",
      "outputs": [
        {
          "internalType": "address",
          "name": "",
          "type": "address"
        }
      ],
      "stateMutability": "view",
      "type": "function"
    }
  ],
  "bytecode": "0x60c060405260015f55348015610013575f5ffd5b506040516109c33803806109c38339810160408190526100329161009f565b6001600160a01b038216158061004f57506001600160a01b038116155b1561006d5760405163d92e233d60e01b815260040160405180910390fd5b6001600160a01b039182166080521660a0526100d0565b80516001600160a01b038116811461009a575f5ffd5b919050565b5f5f604083850312156100b0575f5ffd5b6100b983610084565b91506100c760208401610084565b90509250929050565b60805160a0516108bf6101045f395f818160d1015281816102b701526104f001525f81816079015261014c01526108bf5ff3fe608060405260043610610033575f3560e01c80638f3851dc14610037578063d33219b414610068578063da25b725146100c0575b5f5ffd5b61004a6100453660046105ed565b6100f3565b60405167ffffffffffffffff90911681526020015b60405180910390f35b348015610073575f5ffd5b5061009b7f000000000000000000000000000000000000000000000000000000000000000081565b60405173ffffffffffffffffffffffffffffffffffffffff909116815260200161005f565b3480156100cb575f5ffd5b5061009b7f000000000000000000000000000000000000000000000000000000000000000081565b5f60015f541115610130576040517f8beb9d1600000000000000000000000000000000000000000000000000000000815260040160405180910390fd5b60025f553373ffffffffffffffffffffffffffffffffffffffff7f000000000000000000000000000000000000000000000000000000000000000016146101aa576040517f32b2baa30000000000000000000000000000000000000000000000000000000081523360048201526024015b60405180910390fd5b73ffffffffffffffffffffffffffffffffffffffff881615806101e1575073ffffffffffffffffffffffffffffffffffffffff8316155b15610218576040517fd92e233d00000000000000000000000000000000000000000000000000000000815260040160405180910390fd5b61ffff8916158061022857508651155b80610231575084155b8061023e575061ffff8416155b15610275576040517f7c946ed700000000000000000000000000000000000000000000000000000000815260040160405180910390fd5b6040517fc23ee3c300000000000000000000000000000000000000000000000000000000815261ffff8a16600482015260248101879052604481018690525f907f000000000000000000000000000000000000000000000000000000000000000073ffffffffffffffffffffffffffffffffffffffff169063c23ee3c3906064016040805180830381865afa158015610310573d5f5f3e3d5ffd5b505050506040513d601f19601f820116820180604052508101906103349190610741565b5090503481111561037a576040517f491a2bb1000000000000000000000000000000000000000000000000000000008152346004820152602481018290526044016101a1565b5f6103858234610763565b905080156104b35773ffffffffffffffffffffffffffffffffffffffff84166103ac573293505b5f8473ffffffffffffffffffffffffffffffffffffffff16826040515f6040518083038185875af1925050503d805f8114610402576040519150601f19603f3d011682016040523d82523d5f602084013e610407565b606091505b5050905080610461576040517f1c43b97600000000000000000000000000000000000000000000000000000000815273ffffffffffffffffffffffffffffffffffffffff86166004820152602481018390526044016101a1565b8473ffffffffffffffffffffffffffffffffffffffff167f8e49ed3e274fbea1556bdfaa9a37a0c28445bfe26d57beaf9f04fd517aa41741836040516104a991815260200190565b60405180910390a2505b6040517f4b5ca6f400000000000000000000000000000000000000000000000000000000815273ffffffffffffffffffffffffffffffffffffffff7f00000000000000000000000000000000000000000000000000000000000000001690634b5ca6f4908490610533908f908f908f908f908f908f908f906004016107a1565b60206040518083038185885af115801561054f573d5f5f3e3d5ffd5b50505050506040513d601f19601f82011682018060405250810190610574919061085b565b60015f559b9a5050505050505050505050565b803561ffff81168114610598575f5ffd5b919050565b803573ffffffffffffffffffffffffffffffffffffffff81168114610598575f5ffd5b7f4e487b71000000000000000000000000000000000000000000000000000000005f52604160045260245ffd5b5f5f5f5f5f5f5f5f610100898b031215610605575f5ffd5b61060e89610587565b975061061c60208a0161059d565b9650604089013567ffffffffffffffff811115610637575f5ffd5b8901601f81018b13610647575f5ffd5b803567ffffffffffffffff811115610661576106616105c0565b6040517fffffffffffffffffffffffffffffffffffffffffffffffffffffffffffffffe0603f7fffffffffffffffffffffffffffffffffffffffffffffffffffffffffffffffe0601f8501160116810181811067ffffffffffffffff821117156106cd576106cd6105c0565b6040528181528282016020018d10156106e4575f5ffd5b816020840160208301375f91810160200191909152965050606089013594506080890135935061071660a08a01610587565b925061072460c08a0161059d565b915061073260e08a0161059d565b90509295985092959890939650565b5f5f60408385031215610752575f5ffd5b505080516020909101519092909150565b8181038181111561079b577f4e487b71000000000000000000000000000000000000000000000000000000005f52601160045260245ffd5b92915050565b61ffff8816815273ffffffffffffffffffffffffffffffffffffffff8716602082015260e060408201525f86518060e0840152806020890161010085015e5f61010082850101526101007fffffffffffffffffffffffffffffffffffffffffffffffffffffffffffffffe0601f83011684010191505085606083015284608083015261ffff841660a083015261084f60c083018473ffffffffffffffffffffffffffffffffffffffff169052565b98975050505050505050565b5f6020828403121561086b575f5ffd5b815167ffffffffffffffff81168114610882575f5ffd5b939250505056fea264697066735822122063fdcc2db1c15c7f7cce75a59ca13533c2f4be9631e136b5821883d902614be964736f6c634300081e0033",
  "linkReferences": {},
  "deployedLinkReferences": {}
}