{
  "_format": "hh-sol-artifact-1",
  "contractName": "WormholeRelayerTimelock",
  "sourceName": "contracts/bridges/WormholeRelayerTimelock.sol",
  "abi": [
    {
      "inputs": [
        {
          "internalType": "address",
          "name": "_timelock",
          "type": "address"
        },
        {
          "internalType": "address",
          "name": "_wormholeRelayer",
          "type": "address"
        },
        {
          "internalType": "uint16",
          "name": "_refundChainId",
          "type": "uint16"
        }
      ],
      "stateMutability": "nonpayable",
      "type": "constructor"
    },
    {
      "inputs": [
        {
          "internalType": "uint256",
          "name": "provided",
          "type": "uint256"
        },
        {
          "internalType": "uint256",
          "name": "expected",
          "type": "uint256"
        }
      ],
      "name": "LowerThan",
      "type": "error"
    },
    {
      "inputs": [],
      "name": "ReentrancyGuard",
      "type": "error"
    },
    {
      "inputs": [
        {
          "internalType": "address",
          "name": "to",
          "type": "address"
        },
        {
          "internalType": "uint256",
          "name": "amount",
          "type": "uint256"
        }
      ],
      "name": "TransferFailed",
      "type": "error"
    },
    {
      "inputs": [
        {
          "internalType": "address",
          "name": "account",
          "type": "address"
        }
      ],
      "name": "UnauthorizedAccount",
      "type": "error"
    },
    {
      "inputs": [],
      "name": "ZeroAddress",
      "type": "error"
    },
    {
      "inputs": [],
      "name": "ZeroValue",
      "type": "error"
    },
    {
      "anonymous": false,
      "inputs": [
        {
          "indexed": true,
          "internalType": "address",
          "name": "sender",
          "type": "address"
        },
        {
          "indexed": false,
          "internalType": "uint256",
          "name": "leftovers",
          "type": "uint256"
        }
      ],
      "name": "LeftoversRefunded",
      "type": "event"
    },
    {
      "inputs": [],
      "name": "refundChainId",
      "outputs": [
        {
          "internalType": "uint16",
          "name": "",
          "type": "uint16"
        }
      ],
      "stateMutability": "view",
      "type": "function"
    },
    {
      "inputs": [
        {
          "internalType": "uint16",
          "name": "targetChain",
          "type": "uint16"
        },
        {
          "internalType": "address",
          "name": "targetAddress",
          "type": "address"
        },
        {
          "internalType": "bytes",
          "name": "payload",
          "type": "bytes"
        },
        {
          "internalType": "uint256",
          "name": "receiverValue",
          "type": "uint256"
        },
        {
          "internalType": "uint256",
          "name": "gasLimit",
          "type": "uint256"
        },
        {
          "internalType": "address",
          "name": "refundAddress",
          "type": "address"
        }
      ],
      "name": "sendPayloadToEvm",
      "outputs": [
        {
          "internalType": "uint64",
          "name": "sequence",
          "type": "uint64"
        }
      ],
      "stateMutability": "payable",
      "type": "function"
    },
    {
      "inputs": [],
      "name": "timelock",
      "outputs": [
        {
          "internalType": "address",
          "name": "",
          "type": "address"
        }
      ],
      "stateMutability": "view",
      "type": "function"
    },
    {
      "inputs": [],
      "name": "wormholeRelayer",
      "outputs": [
        {
          "internalType": "address",
          "name": "",
          "type": "address"
        }
      ],
      "stateMutability": "view",
      "type": "function"
    }
  ],
  "bytecode": "0x60e060405260015f55348015610013575f5ffd5b50604051610a2e380380610a2e833981016040819052610032916100cb565b6001600160a01b038316158061004f57506001600160a01b038216155b1561006d5760405163d92e233d60e01b815260040160405180910390fd5b8061ffff165f0361009157604051637c946ed760e01b815260040160405180910390fd5b6001600160a01b03928316608052911660a05261ffff1660c052610115565b80516001600160a01b03811681146100c6575f5ffd5b919050565b5f5f5f606084860312156100dd575f5ffd5b6100e6846100b0565b92506100f4602085016100b0565b9150604084015161ffff8116811461010a575f5ffd5b809150509250925092565b60805160a05160c0516108d56101595f395f81816053015261054c01525f8181610122015281816102f9015261051301525f818160ca015261019d01526108d55ff3fe60806040526004361061003e575f3560e01c80630eed6e6f14610042578063701f15771461008d578063d33219b4146100b9578063da25b72514610111575b5f5ffd5b34801561004d575f5ffd5b506100757f000000000000000000000000000000000000000000000000000000000000000081565b60405161ffff90911681526020015b60405180910390f35b6100a061009b36600461061d565b610144565b60405167ffffffffffffffff9091168152602001610084565b3480156100c4575f5ffd5b506100ec7f000000000000000000000000000000000000000000000000000000000000000081565b60405173ffffffffffffffffffffffffffffffffffffffff9091168152602001610084565b34801561011c575f5ffd5b506100ec7f000000000000000000000000000000000000000000000000000000000000000081565b5f60015f541115610181576040517f8beb9d1600000000000000000000000000000000000000000000000000000000815260040160405180910390fd5b60025f553373ffffffffffffffffffffffffffffffffffffffff7f000000000000000000000000000000000000000000000000000000000000000016146101fb576040517f32b2baa30000000000000000000000000000000000000000000000000000000081523360048201526024015b60405180910390fd5b73ffffffffffffffffffffffffffffffffffffffff8616610248576040517fd92e233d00000000000000000000000000000000000000000000000000000000815260040160405180910390fd5b61ffff8716158061025857508451155b80610261575082155b15610298576040517f7c946ed700000000000000000000000000000000000000000000000000000000815260040160405180910390fd5b73ffffffffffffffffffffffffffffffffffffffff82166102b7573291505b6040517fc23ee3c300000000000000000000000000000000000000000000000000000000815261ffff8816600482015260248101859052604481018490525f907f000000000000000000000000000000000000000000000000000000000000000073ffffffffffffffffffffffffffffffffffffffff169063c23ee3c3906064016040805180830381865afa158015610352573d5f5f3e3d5ffd5b505050506040513d601f19601f820116820180604052508101906103769190610757565b509050348111156103bc576040517f491a2bb1000000000000000000000000000000000000000000000000000000008152346004820152602481018290526044016101f2565b5f6103c78234610779565b905080156104d6575f8473ffffffffffffffffffffffffffffffffffffffff16826040515f6040518083038185875af1925050503d805f8114610425576040519150601f19603f3d011682016040523d82523d5f602084013e61042a565b606091505b5050905080610484576040517f1c43b97600000000000000000000000000000000000000000000000000000000815273ffffffffffffffffffffffffffffffffffffffff86166004820152602481018390526044016101f2565b8473ffffffffffffffffffffffffffffffffffffffff167f8e49ed3e274fbea1556bdfaa9a37a0c28445bfe26d57beaf9f04fd517aa41741836040516104cc91815260200190565b60405180910390a2505b6040517f4b5ca6f400000000000000000000000000000000000000000000000000000000815273ffffffffffffffffffffffffffffffffffffffff7f00000000000000000000000000000000000000000000000000000000000000001690634b5ca6f4908490610576908d908d908d908d908d907f0000000000000000000000000000000000000000000000000000000000000000908e906004016107b7565b60206040518083038185885af1158015610592573d5f5f3e3d5ffd5b50505050506040513d601f19601f820116820180604052508101906105b79190610871565b60015f559998505050505050505050565b803573ffffffffffffffffffffffffffffffffffffffff811681146105eb575f5ffd5b919050565b7f4e487b71000000000000000000000000000000000000000000000000000000005f52604160045260245ffd5b5f5f5f5f5f5f60c08789031215610632575f5ffd5b863561ffff81168114610643575f5ffd5b9550610651602088016105c8565b9450604087013567ffffffffffffffff81111561066c575f5ffd5b8701601f8101891361067c575f5ffd5b803567ffffffffffffffff811115610696576106966105f0565b6040517fffffffffffffffffffffffffffffffffffffffffffffffffffffffffffffffe0603f7fffffffffffffffffffffffffffffffffffffffffffffffffffffffffffffffe0601f8501160116810181811067ffffffffffffffff82111715610702576107026105f0565b6040528181528282016020018b1015610719575f5ffd5b816020840160208301375f91810160200191909152945050606087013592506080870135915061074b60a088016105c8565b90509295509295509295565b5f5f60408385031215610768575f5ffd5b505080516020909101519092909150565b818103818111156107b1577f4e487b71000000000000000000000000000000000000000000000000000000005f52601160045260245ffd5b92915050565b61ffff8816815273ffffffffffffffffffffffffffffffffffffffff8716602082015260e060408201525f86518060e0840152806020890161010085015e5f61010082850101526101007fffffffffffffffffffffffffffffffffffffffffffffffffffffffffffffffe0601f83011684010191505085606083015284608083015261ffff841660a083015261086560c083018473ffffffffffffffffffffffffffffffffffffffff169052565b98975050505050505050565b5f60208284031215610881575f5ffd5b815167ffffffffffffffff81168114610898575f5ffd5b939250505056fea26469706673582212208fdbf86c98e3f405ce1902463f91f69e5181cb96853da313d72c01a5999f356c64736f6c634300081e0033",
  "linkReferences": {},
  "deployedLinkReferences": {}
}