{
  "_format": "hh-sol-artifact-1",
  "contractName": "WormholeRelayerAnyValue",
  "sourceName": "contracts/bridges/WormholeRelayerAnyValue.sol",
  "abi": [
    {
      "inputs": [
        {
          "internalType": "address",
          "name": "_wormholeRelayer",
          "type": "address"
        }
      ],
      "stateMutability": "nonpayable",
      "type": "constructor"
    },
    {
      "inputs": [
        {
          "internalType": "uint256",
          "name": "provided",
          "type": "uint256"
        },
        {
          "internalType": "uint256",
          "name": "expected",
          "type": "uint256"
        }
      ],
      "name": "LowerThan",
      "type": "error"
    },
    {
      "inputs": [],
      "name": "ReentrancyGuard",
      "type": "error"
    },
    {
      "inputs": [
        {
          "internalType": "address",
          "name": "to",
          "type": "address"
        },
        {
          "internalType": "uint256",
          "name": "amount",
          "type": "uint256"
        }
      ],
      "name": "TransferFailed",
      "type": "error"
    },
    {
      "inputs": [],
      "name": "ZeroAddress",
      "type": "error"
    },
    {
      "inputs": [],
      "name": "ZeroValue",
      "type": "error"
    },
    {
      "anonymous": false,
      "inputs": [
        {
          "indexed": true,
          "internalType": "address",
          "name": "sender",
          "type": "address"
        },
        {
          "indexed": false,
          "internalType": "uint256",
          "name": "leftovers",
          "type": "uint256"
        }
      ],
      "name": "LeftoversRefunded",
      "type": "event"
    },
    {
      "inputs": [
        {
          "internalType": "uint16",
          "name": "targetChain",
          "type": "uint16"
        },
        {
          "internalType": "address",
          "name": "targetAddress",
          "type": "address"
        },
        {
          "internalType": "bytes",
          "name": "payload",
          "type": "bytes"
        },
        {
          "internalType": "uint256",
          "name": "receiverValue",
          "type": "uint256"
        },
        {
          "internalType": "uint256",
          "name": "gasLimit",
          "type": "uint256"
        },
        {
          "internalType": "uint16",
          "name": "refundChain",
          "type": "uint16"
        },
        {
          "internalType": "address",
          "name": "refundChainAddress",
          "type": "address"
        },
        {
          "internalType": "address",
          "name": "refundValueAddress",
          "type": "address"
        }
      ],
      "name": "sendPayloadToEvm",
      "outputs": [
        {
          "internalType": "uint64",
          "name": "sequence",
          "type": "uint64"
        }
      ],
      "stateMutability": "payable",
      "type": "function"
    },
    {
      "inputs": [],
      "name": "wormholeRelayer",
      "outputs": [
        {
          "internalType": "address",
          "name": "",
          "type": "address"
        }
      ],
      "stateMutability": "view",
      "type": "function"
    }
  ],
  "bytecode": "0x60a060405260015f553480156012575f5ffd5b5060405161089f38038061089f833981016040819052602f91603f565b6001600160a01b0316608052606a565b5f60208284031215604e575f5ffd5b81516001600160a01b03811681146063575f5ffd5b9392505050565b60805161081061008f5f395f8181606e01528181610203015261044101526108105ff3fe608060405260043610610028575f3560e01c80638f3851dc1461002c578063da25b7251461005d575b5f5ffd5b61003f61003a36600461053e565b6100b5565b60405167ffffffffffffffff90911681526020015b60405180910390f35b348015610068575f5ffd5b506100907f000000000000000000000000000000000000000000000000000000000000000081565b60405173ffffffffffffffffffffffffffffffffffffffff9091168152602001610054565b5f60015f5411156100f2576040517f8beb9d1600000000000000000000000000000000000000000000000000000000815260040160405180910390fd5b60025f5573ffffffffffffffffffffffffffffffffffffffff8816158061012d575073ffffffffffffffffffffffffffffffffffffffff8316155b15610164576040517fd92e233d00000000000000000000000000000000000000000000000000000000815260040160405180910390fd5b61ffff8916158061017457508651155b8061017d575084155b8061018a575061ffff8416155b156101c1576040517f7c946ed700000000000000000000000000000000000000000000000000000000815260040160405180910390fd5b6040517fc23ee3c300000000000000000000000000000000000000000000000000000000815261ffff8a16600482015260248101879052604481018690525f907f000000000000000000000000000000000000000000000000000000000000000073ffffffffffffffffffffffffffffffffffffffff169063c23ee3c3906064016040805180830381865afa15801561025c573d5f5f3e3d5ffd5b505050506040513d601f19601f820116820180604052508101906102809190610692565b509050348111156102cb576040517f491a2bb1000000000000000000000000000000000000000000000000000000008152346004820152602481018290526044015b60405180910390fd5b5f6102d682346106b4565b905080156104045773ffffffffffffffffffffffffffffffffffffffff84166102fd573293505b5f8473ffffffffffffffffffffffffffffffffffffffff16826040515f6040518083038185875af1925050503d805f8114610353576040519150601f19603f3d011682016040523d82523d5f602084013e610358565b606091505b50509050806103b2576040517f1c43b97600000000000000000000000000000000000000000000000000000000815273ffffffffffffffffffffffffffffffffffffffff86166004820152602481018390526044016102c2565b8473ffffffffffffffffffffffffffffffffffffffff167f8e49ed3e274fbea1556bdfaa9a37a0c28445bfe26d57beaf9f04fd517aa41741836040516103fa91815260200190565b60405180910390a2505b6040517f4b5ca6f400000000000000000000000000000000000000000000000000000000815273ffffffffffffffffffffffffffffffffffffffff7f00000000000000000000000000000000000000000000000000000000000000001690634b5ca6f4908490610484908f908f908f908f908f908f908f906004016106f2565b60206040518083038185885af11580156104a0573d5f5f3e3d5ffd5b50505050506040513d601f19601f820116820180604052508101906104c591906107ac565b60015f559b9a5050505050505050505050565b803561ffff811681146104e9575f5ffd5b919050565b803573ffffffffffffffffffffffffffffffffffffffff811681146104e9575f5ffd5b7f4e487b71000000000000000000000000000000000000000000000000000000005f52604160045260245ffd5b5f5f5f5f5f5f5f5f610100898b031215610556575f5ffd5b61055f896104d8565b975061056d60208a016104ee565b9650604089013567ffffffffffffffff811115610588575f5ffd5b8901601f81018b13610598575f5ffd5b803567ffffffffffffffff8111156105b2576105b2610511565b6040517fffffffffffffffffffffffffffffffffffffffffffffffffffffffffffffffe0603f7fffffffffffffffffffffffffffffffffffffffffffffffffffffffffffffffe0601f8501160116810181811067ffffffffffffffff8211171561061e5761061e610511565b6040528181528282016020018d1015610635575f5ffd5b816020840160208301375f91810160200191909152965050606089013594506080890135935061066760a08a016104d8565b925061067560c08a016104ee565b915061068360e08a016104ee565b90509295985092959890939650565b5f5f604083850312156106a3575f5ffd5b505080516020909101519092909150565b818103818111156106ec577f4e487b71000000000000000000000000000000000000000000000000000000005f52601160045260245ffd5b92915050565b61ffff8816815273ffffffffffffffffffffffffffffffffffffffff8716602082015260e060408201525f86518060e0840152806020890161010085015e5f61010082850101526101007fffffffffffffffffffffffffffffffffffffffffffffffffffffffffffffffe0601f83011684010191505085606083015284608083015261ffff841660a08301526107a060c083018473ffffffffffffffffffffffffffffffffffffffff169052565b98975050505050505050565b5f602082840312156107bc575f5ffd5b815167ffffffffffffffff811681146107d3575f5ffd5b939250505056fea26469706673582212207ec8391d42f3fe60d84a961777a127f9645b64fa028db1ae5a43c9a12ef688ac64736f6c634300081e0033",
  "linkReferences": {},
  "deployedLinkReferences": {}
}