{
  "_format": "hh-sol-artifact-1",
  "contractName": "WormholeRelayerTimelock",
  "sourceName": "contracts/bridges/WormholeRelayerTimelock.sol",
  "abi": [
    {
      "inputs": [
        {
          "internalType": "address",
          "name": "_timelock",
          "type": "address"
        },
        {
          "internalType": "address",
          "name": "_wormholeRelayer",
          "type": "address"
        },
        {
          "internalType": "uint16",
          "name": "_refundChainId",
          "type": "uint16"
        }
      ],
      "stateMutability": "nonpayable",
      "type": "constructor"
    },
    {
      "inputs": [
        {
          "internalType": "uint256",
          "name": "provided",
          "type": "uint256"
        },
        {
          "internalType": "uint256",
          "name": "expected",
          "type": "uint256"
        }
      ],
      "name": "LowerThan",
      "type": "error"
    },
    {
      "inputs": [],
      "name": "ReentrancyGuard",
      "type": "error"
    },
    {
      "inputs": [
        {
          "internalType": "address",
          "name": "to",
          "type": "address"
        },
        {
          "internalType": "uint256",
          "name": "amount",
          "type": "uint256"
        }
      ],
      "name": "TransferFailed",
      "type": "error"
    },
    {
      "inputs": [
        {
          "internalType": "address",
          "name": "account",
          "type": "address"
        }
      ],
      "name": "UnauthorizedAccount",
      "type": "error"
    },
    {
      "inputs": [],
      "name": "ZeroAddress",
      "type": "error"
    },
    {
      "inputs": [],
      "name": "ZeroValue",
      "type": "error"
    },
    {
      "anonymous": false,
      "inputs": [
        {
          "indexed": true,
          "internalType": "address",
          "name": "sender",
          "type": "address"
        },
        {
          "indexed": false,
          "internalType": "uint256",
          "name": "leftovers",
          "type": "uint256"
        }
      ],
      "name": "LeftoversRefunded",
      "type": "event"
    },
    {
      "inputs": [],
      "name": "MIN_GAS_LIMIT",
      "outputs": [
        {
          "internalType": "uint256",
          "name": "",
          "type": "uint256"
        }
      ],
      "stateMutability": "view",
      "type": "function"
    },
    {
      "inputs": [],
      "name": "refundChainId",
      "outputs": [
        {
          "internalType": "uint16",
          "name": "",
          "type": "uint16"
        }
      ],
      "stateMutability": "view",
      "type": "function"
    },
    {
      "inputs": [
        {
          "internalType": "uint16",
          "name": "targetChain",
          "type": "uint16"
        },
        {
          "internalType": "address",
          "name": "targetAddress",
          "type": "address"
        },
        {
          "internalType": "bytes",
          "name": "payload",
          "type": "bytes"
        },
        {
          "internalType": "uint256",
          "name": "receiverValue",
          "type": "uint256"
        },
        {
          "internalType": "uint256",
          "name": "gasLimit",
          "type": "uint256"
        },
        {
          "internalType": "address",
          "name": "refundAddress",
          "type": "address"
        }
      ],
      "name": "sendPayloadToEvm",
      "outputs": [
        {
          "internalType": "uint64",
          "name": "sequence",
          "type": "uint64"
        }
      ],
      "stateMutability": "payable",
      "type": "function"
    },
    {
      "inputs": [],
      "name": "timelock",
      "outputs": [
        {
          "internalType": "address",
          "name": "",
          "type": "address"
        }
      ],
      "stateMutability": "view",
      "type": "function"
    },
    {
      "inputs": [],
      "name": "wormholeRelayer",
      "outputs": [
        {
          "internalType": "address",
          "name": "",
          "type": "address"
        }
      ],
      "stateMutability": "view",
      "type": "function"
    }
  ],
  "bytecode": "0x60e060405260015f55348015610013575f5ffd5b50604051610a76380380610a76833981016040819052610032916100cb565b6001600160a01b038316158061004f57506001600160a01b038216155b1561006d5760405163d92e233d60e01b815260040160405180910390fd5b8061ffff165f0361009157604051637c946ed760e01b815260040160405180910390fd5b6001600160a01b03928316608052911660a05261ffff1660c052610115565b80516001600160a01b03811681146100c6575f5ffd5b919050565b5f5f5f606084860312156100dd575f5ffd5b6100e6846100b0565b92506100f4602085016100b0565b9150604084015161ffff8116811461010a575f5ffd5b809150509250925092565b60805160a05160c05161091c61015a5f395f8181606d015261059301525f818161016001528181610340015261055a01525f818161010801526101db015261091c5ff3fe608060405260043610610058575f3560e01c80637ce1ffeb116100415780637ce1ffeb146100d3578063d33219b4146100f7578063da25b7251461014f575f5ffd5b80630eed6e6f1461005c578063701f1577146100a7575b5f5ffd5b348015610067575f5ffd5b5061008f7f000000000000000000000000000000000000000000000000000000000000000081565b60405161ffff90911681526020015b60405180910390f35b6100ba6100b5366004610664565b610182565b60405167ffffffffffffffff909116815260200161009e565b3480156100de575f5ffd5b506100e9621e848081565b60405190815260200161009e565b348015610102575f5ffd5b5061012a7f000000000000000000000000000000000000000000000000000000000000000081565b60405173ffffffffffffffffffffffffffffffffffffffff909116815260200161009e565b34801561015a575f5ffd5b5061012a7f000000000000000000000000000000000000000000000000000000000000000081565b5f60015f5411156101bf576040517f8beb9d1600000000000000000000000000000000000000000000000000000000815260040160405180910390fd5b60025f553373ffffffffffffffffffffffffffffffffffffffff7f00000000000000000000000000000000000000000000000000000000000000001614610239576040517f32b2baa30000000000000000000000000000000000000000000000000000000081523360048201526024015b60405180910390fd5b73ffffffffffffffffffffffffffffffffffffffff8616610286576040517fd92e233d00000000000000000000000000000000000000000000000000000000815260040160405180910390fd5b61ffff8716158061029657508451155b156102cd576040517f7c946ed700000000000000000000000000000000000000000000000000000000815260040160405180910390fd5b621e84808310156102df57621e848092505b73ffffffffffffffffffffffffffffffffffffffff82166102fe573291505b6040517fc23ee3c300000000000000000000000000000000000000000000000000000000815261ffff8816600482015260248101859052604481018490525f907f000000000000000000000000000000000000000000000000000000000000000073ffffffffffffffffffffffffffffffffffffffff169063c23ee3c3906064016040805180830381865afa158015610399573d5f5f3e3d5ffd5b505050506040513d601f19601f820116820180604052508101906103bd919061079e565b50905034811115610403576040517f491a2bb100000000000000000000000000000000000000000000000000000000815234600482015260248101829052604401610230565b5f61040e82346107c0565b9050801561051d575f8473ffffffffffffffffffffffffffffffffffffffff16826040515f6040518083038185875af1925050503d805f811461046c576040519150601f19603f3d011682016040523d82523d5f602084013e610471565b606091505b50509050806104cb576040517f1c43b97600000000000000000000000000000000000000000000000000000000815273ffffffffffffffffffffffffffffffffffffffff8616600482015260248101839052604401610230565b8473ffffffffffffffffffffffffffffffffffffffff167f8e49ed3e274fbea1556bdfaa9a37a0c28445bfe26d57beaf9f04fd517aa417418360405161051391815260200190565b60405180910390a2505b6040517f4b5ca6f400000000000000000000000000000000000000000000000000000000815273ffffffffffffffffffffffffffffffffffffffff7f00000000000000000000000000000000000000000000000000000000000000001690634b5ca6f49084906105bd908d908d908d908d908d907f0000000000000000000000000000000000000000000000000000000000000000908e906004016107fe565b60206040518083038185885af11580156105d9573d5f5f3e3d5ffd5b50505050506040513d601f19601f820116820180604052508101906105fe91906108b8565b60015f559998505050505050505050565b803573ffffffffffffffffffffffffffffffffffffffff81168114610632575f5ffd5b919050565b7f4e487b71000000000000000000000000000000000000000000000000000000005f52604160045260245ffd5b5f5f5f5f5f5f60c08789031215610679575f5ffd5b863561ffff8116811461068a575f5ffd5b95506106986020880161060f565b9450604087013567ffffffffffffffff8111156106b3575f5ffd5b8701601f810189136106c3575f5ffd5b803567ffffffffffffffff8111156106dd576106dd610637565b6040517fffffffffffffffffffffffffffffffffffffffffffffffffffffffffffffffe0603f7fffffffffffffffffffffffffffffffffffffffffffffffffffffffffffffffe0601f8501160116810181811067ffffffffffffffff8211171561074957610749610637565b6040528181528282016020018b1015610760575f5ffd5b816020840160208301375f91810160200191909152945050606087013592506080870135915061079260a0880161060f565b90509295509295509295565b5f5f604083850312156107af575f5ffd5b505080516020909101519092909150565b818103818111156107f8577f4e487b71000000000000000000000000000000000000000000000000000000005f52601160045260245ffd5b92915050565b61ffff8816815273ffffffffffffffffffffffffffffffffffffffff8716602082015260e060408201525f86518060e0840152806020890161010085015e5f61010082850101526101007fffffffffffffffffffffffffffffffffffffffffffffffffffffffffffffffe0601f83011684010191505085606083015284608083015261ffff841660a08301526108ac60c083018473ffffffffffffffffffffffffffffffffffffffff169052565b98975050505050505050565b5f602082840312156108c8575f5ffd5b815167ffffffffffffffff811681146108df575f5ffd5b939250505056fea2646970667358221220566b5a23d99079d24b4f04aaa8d0e5074ab3ab930051c40b292d7b101829e48764736f6c634300081e0033",
  "linkReferences": {},
  "deployedLinkReferences": {}
}