{
  "_format": "hh-sol-artifact-1",
  "contractName": "GuardCM",
  "sourceName": "contracts/multisigs/GuardCM.sol",
  "abi": [
    {
      "inputs": [
        {
          "internalType": "address",
          "name": "_timelock",
          "type": "address"
        },
        {
          "internalType": "address",
          "name": "_multisig",
          "type": "address"
        },
        {
          "internalType": "address",
          "name": "_governor",
          "type": "address"
        }
      ],
      "stateMutability": "nonpayable",
      "type": "constructor"
    },
    {
      "inputs": [
        {
          "internalType": "uint256",
          "name": "expected",
          "type": "uint256"
        },
        {
          "internalType": "uint256",
          "name": "provided",
          "type": "uint256"
        }
      ],
      "name": "IncorrectDataLength",
      "type": "error"
    },
    {
      "inputs": [
        {
          "internalType": "address",
          "name": "sender",
          "type": "address"
        },
        {
          "internalType": "address",
          "name": "manager",
          "type": "address"
        }
      ],
      "name": "ManagerOnly",
      "type": "error"
    },
    {
      "inputs": [],
      "name": "NoDelegateCall",
      "type": "error"
    },
    {
      "inputs": [],
      "name": "NoSelfCall",
      "type": "error"
    },
    {
      "inputs": [
        {
          "internalType": "address",
          "name": "target",
          "type": "address"
        },
        {
          "internalType": "bytes4",
          "name": "selector",
          "type": "bytes4"
        }
      ],
      "name": "NotAuthorized",
      "type": "error"
    },
    {
      "inputs": [
        {
          "internalType": "uint256",
          "name": "proposalId",
          "type": "uint256"
        },
        {
          "internalType": "enum ProposalState",
          "name": "state",
          "type": "uint8"
        }
      ],
      "name": "NotDefeated",
      "type": "error"
    },
    {
      "inputs": [
        {
          "internalType": "address",
          "name": "sender",
          "type": "address"
        },
        {
          "internalType": "address",
          "name": "owner",
          "type": "address"
        }
      ],
      "name": "OwnerOnly",
      "type": "error"
    },
    {
      "inputs": [
        {
          "internalType": "uint256",
          "name": "numValues1",
          "type": "uint256"
        },
        {
          "internalType": "uint256",
          "name": "numValues2",
          "type": "uint256"
        }
      ],
      "name": "WrongArrayLength",
      "type": "error"
    },
    {
      "inputs": [],
      "name": "ZeroAddress",
      "type": "error"
    },
    {
      "inputs": [],
      "name": "ZeroValue",
      "type": "error"
    },
    {
      "anonymous": false,
      "inputs": [
        {
          "indexed": true,
          "internalType": "uint256",
          "name": "proposalId",
          "type": "uint256"
        }
      ],
      "name": "GovernorCheckProposalIdChanged",
      "type": "event"
    },
    {
      "anonymous": false,
      "inputs": [
        {
          "indexed": true,
          "internalType": "address",
          "name": "governor",
          "type": "address"
        }
      ],
      "name": "GovernorUpdated",
      "type": "event"
    },
    {
      "anonymous": false,
      "inputs": [
        {
          "indexed": true,
          "internalType": "address",
          "name": "account",
          "type": "address"
        }
      ],
      "name": "GuardPaused",
      "type": "event"
    },
    {
      "anonymous": false,
      "inputs": [],
      "name": "GuardUnpaused",
      "type": "event"
    },
    {
      "anonymous": false,
      "inputs": [
        {
          "indexed": true,
          "internalType": "address[]",
          "name": "targets",
          "type": "address[]"
        },
        {
          "indexed": true,
          "internalType": "bytes4[]",
          "name": "selectors",
          "type": "bytes4[]"
        },
        {
          "indexed": false,
          "internalType": "bool[]",
          "name": "statuses",
          "type": "bool[]"
        }
      ],
      "name": "SetTargetSelectors",
      "type": "event"
    },
    {
      "inputs": [],
      "name": "SCHEDULE",
      "outputs": [
        {
          "internalType": "bytes4",
          "name": "",
          "type": "bytes4"
        }
      ],
      "stateMutability": "view",
      "type": "function"
    },
    {
      "inputs": [],
      "name": "SCHEDULE_BATCH",
      "outputs": [
        {
          "internalType": "bytes4",
          "name": "",
          "type": "bytes4"
        }
      ],
      "stateMutability": "view",
      "type": "function"
    },
    {
      "inputs": [
        {
          "internalType": "address",
          "name": "newGovernor",
          "type": "address"
        }
      ],
      "name": "changeGovernor",
      "outputs": [],
      "stateMutability": "nonpayable",
      "type": "function"
    },
    {
      "inputs": [
        {
          "internalType": "uint256",
          "name": "proposalId",
          "type": "uint256"
        }
      ],
      "name": "changeGovernorCheckProposalId",
      "outputs": [],
      "stateMutability": "nonpayable",
      "type": "function"
    },
    {
      "inputs": [
        {
          "internalType": "bytes32",
          "name": "",
          "type": "bytes32"
        },
        {
          "internalType": "bool",
          "name": "",
          "type": "bool"
        }
      ],
      "name": "checkAfterExecution",
      "outputs": [],
      "stateMutability": "nonpayable",
      "type": "function"
    },
    {
      "inputs": [
        {
          "internalType": "address",
          "name": "to",
          "type": "address"
        },
        {
          "internalType": "uint256",
          "name": "",
          "type": "uint256"
        },
        {
          "internalType": "bytes",
          "name": "data",
          "type": "bytes"
        },
        {
          "internalType": "enum Enum.Operation",
          "name": "operation",
          "type": "uint8"
        },
        {
          "internalType": "uint256",
          "name": "",
          "type": "uint256"
        },
        {
          "internalType": "uint256",
          "name": "",
          "type": "uint256"
        },
        {
          "internalType": "uint256",
          "name": "",
          "type": "uint256"
        },
        {
          "internalType": "address",
          "name": "",
          "type": "address"
        },
        {
          "internalType": "address payable",
          "name": "",
          "type": "address"
        },
        {
          "internalType": "bytes",
          "name": "",
          "type": "bytes"
        },
        {
          "internalType": "address",
          "name": "",
          "type": "address"
        }
      ],
      "name": "checkTransaction",
      "outputs": [],
      "stateMutability": "view",
      "type": "function"
    },
    {
      "inputs": [],
      "name": "governor",
      "outputs": [
        {
          "internalType": "address",
          "name": "",
          "type": "address"
        }
      ],
      "stateMutability": "view",
      "type": "function"
    },
    {
      "inputs": [],
      "name": "governorCheckProposalId",
      "outputs": [
        {
          "internalType": "uint256",
          "name": "",
          "type": "uint256"
        }
      ],
      "stateMutability": "view",
      "type": "function"
    },
    {
      "inputs": [
        {
          "internalType": "uint256",
          "name": "",
          "type": "uint256"
        }
      ],
      "name": "mapAllowedTargetSelectors",
      "outputs": [
        {
          "internalType": "bool",
          "name": "",
          "type": "bool"
        }
      ],
      "stateMutability": "view",
      "type": "function"
    },
    {
      "inputs": [],
      "name": "multisig",
      "outputs": [
        {
          "internalType": "address",
          "name": "",
          "type": "address"
        }
      ],
      "stateMutability": "view",
      "type": "function"
    },
    {
      "inputs": [],
      "name": "owner",
      "outputs": [
        {
          "internalType": "address",
          "name": "",
          "type": "address"
        }
      ],
      "stateMutability": "view",
      "type": "function"
    },
    {
      "inputs": [],
      "name": "pause",
      "outputs": [],
      "stateMutability": "nonpayable",
      "type": "function"
    },
    {
      "inputs": [],
      "name": "paused",
      "outputs": [
        {
          "internalType": "uint8",
          "name": "",
          "type": "uint8"
        }
      ],
      "stateMutability": "view",
      "type": "function"
    },
    {
      "inputs": [
        {
          "internalType": "address[]",
          "name": "targets",
          "type": "address[]"
        },
        {
          "internalType": "bytes4[]",
          "name": "selectors",
          "type": "bytes4[]"
        },
        {
          "internalType": "bool[]",
          "name": "statuses",
          "type": "bool[]"
        }
      ],
      "name": "setTargetSelectors",
      "outputs": [],
      "stateMutability": "nonpayable",
      "type": "function"
    },
    {
      "inputs": [],
      "name": "unpause",
      "outputs": [],
      "stateMutability": "nonpayable",
      "type": "function"
    }
  ],
  "bytecode": "0x60c06040525f805460ff60a01b1916600160a01b1790557f89684e30619ebaeae83b1cbcc1bce3d5341c22fc8132a6fd126510c3ea90558760025534801562000046575f80fd5b5060405162001d1638038062001d168339810160408190526200006991620000b3565b6001600160a01b0392831660805290821660a0525f80546001600160a01b03191691909216179055620000fa565b80516001600160a01b0381168114620000ae575f80fd5b919050565b5f805f60608486031215620000c6575f80fd5b620000d18462000097565b9250620000e16020850162000097565b9150620000f16040850162000097565b90509250925092565b60805160a051611b9f620001775f395f81816101980152818161082d015281816109540152610af401525f8181610255015281816102f60152818161035e0152818161053a015281816105a20152818161065c015281816108d401528181610b6501528181610bcd01528181610c7d0152610ce50152611b9f5ff3fe608060405234801561000f575f80fd5b50600436106100f0575f3560e01c806375f0bb521161009357806393271368116100635780639327136814610277578063e4c0aaf414610289578063ed7a97541461029c578063f7cde1cc146102a4575f80fd5b806375f0bb52146102225780638456cb591461023557806387b68df11461023d5780638da5cb5b14610250575f80fd5b80633f4ba83a116100ce5780633f4ba83a1461018b5780634783c35b146101935780635c975abb146101ba57806360c75f9a146101f0575f80fd5b80630c340a24146100f457806316979a181461013d5780631b603b7814610176575b5f80fd5b5f546101139073ffffffffffffffffffffffffffffffffffffffff1681565b60405173ffffffffffffffffffffffffffffffffffffffff90911681526020015b60405180910390f35b6101456102bb565b6040517fffffffff000000000000000000000000000000000000000000000000000000009091168152602001610134565b610189610184366004611339565b6102de565b005b610189610522565b6101137f000000000000000000000000000000000000000000000000000000000000000081565b5f546101de9074010000000000000000000000000000000000000000900460ff1681565b60405160ff9091168152602001610134565b6102126101fe366004611417565b60016020525f908152604090205460ff1681565b6040519015158152602001610134565b6101896102303660046114ce565b610636565b6101896108bd565b61018961024b366004611417565b610b4d565b6101137f000000000000000000000000000000000000000000000000000000000000000081565b6101896102853660046115aa565b5050565b6101896102973660046115d4565b610c65565b610145610dcb565b6102ad60025481565b604051908152602001610134565b604051806060016040528060378152602001611af1603791398051906020012081565b3373ffffffffffffffffffffffffffffffffffffffff7f00000000000000000000000000000000000000000000000000000000000000001614610390576040517fa43d6ada00000000000000000000000000000000000000000000000000000000815233600482015273ffffffffffffffffffffffffffffffffffffffff7f00000000000000000000000000000000000000000000000000000000000000001660248201526044015b60405180910390fd5b815183511415806103a357508051835114155b156103e757825182516040517f8151c11000000000000000000000000000000000000000000000000000000000815260048101929092526024820152604401610387565b5f5b83518110156104b9575f848281518110610405576104056115f6565b602002602001015173ffffffffffffffffffffffffffffffffffffffff16905060a0848381518110610439576104396115f6565b602002602001015160e01c63ffffffff16901b81179050828281518110610462576104626115f6565b6020908102919091018101515f9283526001909152604090912080547fffffffffffffffffffffffffffffffffffffffffffffffffffffffffffffff00169115159190911790556104b281611650565b90506103e9565b50816040516104c89190611687565b6040518091039020836040516104de91906116de565b60405180910390207f3566893a78ae4b9cb943242afd5c2d1555846935f708711661701936da5b973683604051610515919061171d565b60405180910390a3505050565b3373ffffffffffffffffffffffffffffffffffffffff7f000000000000000000000000000000000000000000000000000000000000000016146105cf576040517fa43d6ada00000000000000000000000000000000000000000000000000000000815233600482015273ffffffffffffffffffffffffffffffffffffffff7f0000000000000000000000000000000000000000000000000000000000000000166024820152604401610387565b5f80547fffffffffffffffffffffff00ffffffffffffffffffffffffffffffffffffffff16740100000000000000000000000000000000000000001781556040517fb7494247183e272909cbb2787cfe307a720be20191d035876006b8903349b3619190a1565b5f5474010000000000000000000000000000000000000000900460ff166001036108b0577f000000000000000000000000000000000000000000000000000000000000000073ffffffffffffffffffffffffffffffffffffffff168b73ffffffffffffffffffffffffffffffffffffffff160361082b5760018860018111156106c1576106c1611762565b036106f8576040517f034aef8500000000000000000000000000000000000000000000000000000000815260040160405180910390fd5b60048951101561074357885160046040517f34c9027a000000000000000000000000000000000000000000000000000000008152600401610387929190918252602082015260400190565b5f61074d8a61178f565b9050604051806060016040528060378152602001611af160379139805190602001207bffffffffffffffffffffffffffffffffffffffffffffffffffffffff1916817bffffffffffffffffffffffffffffffffffffffffffffffffffffffff191614806108165750604051806080016040528060428152602001611b2860429139805190602001207bffffffffffffffffffffffffffffffffffffffffffffffffffffffff1916817bffffffffffffffffffffffffffffffffffffffffffffffffffffffff1916145b15610825576108258a82610dee565b506108b0565b7f000000000000000000000000000000000000000000000000000000000000000073ffffffffffffffffffffffffffffffffffffffff168b73ffffffffffffffffffffffffffffffffffffffff16036108b0576040517f73dc029f00000000000000000000000000000000000000000000000000000000815260040160405180910390fd5b5050505050505050505050565b73ffffffffffffffffffffffffffffffffffffffff7f000000000000000000000000000000000000000000000000000000000000000016330361093d575f80547fffffffffffffffffffffff00ffffffffffffffffffffffffffffffffffffffff1674020000000000000000000000000000000000000000179055610b21565b73ffffffffffffffffffffffffffffffffffffffff7f0000000000000000000000000000000000000000000000000000000000000000163303610ab1575f80546002546040517f3e4f49e600000000000000000000000000000000000000000000000000000000815273ffffffffffffffffffffffffffffffffffffffff90921691633e4f49e6916109d59160040190815260200190565b6020604051808303815f875af11580156109f1573d5f803e3d5ffd5b505050506040513d601f19601f82011682018060405250810190610a1591906117de565b90506003816007811115610a2b57610a2b611762565b03610a73575f80547fffffffffffffffffffffff00ffffffffffffffffffffffffffffffffffffffff1674020000000000000000000000000000000000000000179055610aab565b600254816040517fe83cca170000000000000000000000000000000000000000000000000000000081526004016103879291906117fc565b50610b21565b6040517f625a43fe00000000000000000000000000000000000000000000000000000000815233600482015273ffffffffffffffffffffffffffffffffffffffff7f0000000000000000000000000000000000000000000000000000000000000000166024820152604401610387565b60405133907fe09b21d6dd32859666ae309428ea624d48855f4762e0c91f342016e4947d793b905f90a2565b3373ffffffffffffffffffffffffffffffffffffffff7f00000000000000000000000000000000000000000000000000000000000000001614610bfa576040517fa43d6ada00000000000000000000000000000000000000000000000000000000815233600482015273ffffffffffffffffffffffffffffffffffffffff7f0000000000000000000000000000000000000000000000000000000000000000166024820152604401610387565b805f03610c33576040517f7c946ed700000000000000000000000000000000000000000000000000000000815260040160405180910390fd5b600281905560405181907f63a01eaabe199ab888e562c930e21f3436583ea5acd4ca5c4ceffac3a523e039905f90a250565b3373ffffffffffffffffffffffffffffffffffffffff7f00000000000000000000000000000000000000000000000000000000000000001614610d12576040517fa43d6ada00000000000000000000000000000000000000000000000000000000815233600482015273ffffffffffffffffffffffffffffffffffffffff7f0000000000000000000000000000000000000000000000000000000000000000166024820152604401610387565b73ffffffffffffffffffffffffffffffffffffffff8116610d5f576040517fd92e233d00000000000000000000000000000000000000000000000000000000815260040160405180910390fd5b5f80547fffffffffffffffffffffffff00000000000000000000000000000000000000001673ffffffffffffffffffffffffffffffffffffffff8316908117825560405190917f386c8d5fb4be6c928b7de4c7ae0a4b2ad0d2b2a7edad65d9f0af9ba255e5121991a250565b604051806080016040528060428152602001611b28604291398051906020012081565b5f60048351610dfd9190611845565b67ffffffffffffffff811115610e1557610e15611162565b6040519080825280601f01601f191660200182016040528015610e3f576020820181803683370190505b5090505f5b8151811015610ec45783610e5982600461185e565b81518110610e6957610e696115f6565b602001015160f81c60f81b828281518110610e8657610e866115f6565b60200101907effffffffffffffffffffffffffffffffffffffffffffffffffffffffffffff191690815f1a905350610ebd81611650565b9050610e44565b50606080604051806060016040528060378152602001611af160379139805190602001207bffffffffffffffffffffffffffffffffffffffffffffffffffffffff1916847bffffffffffffffffffffffffffffffffffffffffffffffffffffffff191603610ffe57604080516001808252818301909252906020808301908036833701905050604080516001808252818301909252919350816020015b6060815260200190600190039081610f6157905050905082806020019051810190610f8c91906118d1565b5050855191925085915f9150610fa457610fa46115f6565b60200260200101835f81518110610fbd57610fbd6115f6565b602002602001018290528273ffffffffffffffffffffffffffffffffffffffff1673ffffffffffffffffffffffffffffffffffffffff16815250505061101d565b828060200190518101906110129190611a16565b509395509093505050505b5f5b825181101561115a575f83828151811061103b5761103b6115f6565b602002602001015173ffffffffffffffffffffffffffffffffffffffff16905060a083838151811061106f5761106f6115f6565b60200260200101516110809061178f565b60e01c901b175f8181526001602052604090205460ff16611149578382815181106110ad576110ad6115f6565b60200260200101518383815181106110c7576110c76115f6565b60200260200101516110d89061178f565b6040517e95569f00000000000000000000000000000000000000000000000000000000815273ffffffffffffffffffffffffffffffffffffffff90921660048301527fffffffff00000000000000000000000000000000000000000000000000000000166024820152604401610387565b5061115381611650565b905061101f565b505050505050565b7f4e487b71000000000000000000000000000000000000000000000000000000005f52604160045260245ffd5b604051601f82017fffffffffffffffffffffffffffffffffffffffffffffffffffffffffffffffe016810167ffffffffffffffff811182821017156111d6576111d6611162565b604052919050565b5f67ffffffffffffffff8211156111f7576111f7611162565b5060051b60200190565b73ffffffffffffffffffffffffffffffffffffffff81168114611222575f80fd5b50565b803561123081611201565b919050565b5f82601f830112611244575f80fd5b81356020611259611254836111de565b61118f565b82815260059290921b84018101918181019086841115611277575f80fd5b8286015b848110156112c05780357fffffffff00000000000000000000000000000000000000000000000000000000811681146112b3575f8081fd5b835291830191830161127b565b509695505050505050565b80358015158114611230575f80fd5b5f82601f8301126112e9575f80fd5b813560206112f9611254836111de565b82815260059290921b84018101918181019086841115611317575f80fd5b8286015b848110156112c05761132c816112cb565b835291830191830161131b565b5f805f6060848603121561134b575f80fd5b833567ffffffffffffffff80821115611362575f80fd5b818601915086601f830112611375575f80fd5b81356020611385611254836111de565b82815260059290921b8401810191818101908a8411156113a3575f80fd5b948201945b838610156113ca5785356113bb81611201565b825294820194908201906113a8565b975050870135925050808211156113df575f80fd5b6113eb87838801611235565b93506040860135915080821115611400575f80fd5b5061140d868287016112da565b9150509250925092565b5f60208284031215611427575f80fd5b5035919050565b5f67ffffffffffffffff82111561144757611447611162565b50601f017fffffffffffffffffffffffffffffffffffffffffffffffffffffffffffffffe01660200190565b5f82601f830112611482575f80fd5b81356114906112548261142e565b8181528460208386010111156114a4575f80fd5b816020850160208301375f918101602001919091529392505050565b803560028110611230575f80fd5b5f805f805f805f805f805f6101608c8e0312156114e9575f80fd5b6114f28c611225565b9a5060208c0135995067ffffffffffffffff8060408e01351115611514575f80fd5b6115248e60408f01358f01611473565b995061153260608e016114c0565b985060808d0135975060a08d0135965060c08d0135955061155560e08e01611225565b94506115646101008e01611225565b9350806101208e01351115611577575f80fd5b506115898d6101208e01358e01611473565b91506115986101408d01611225565b90509295989b509295989b9093969950565b5f80604083850312156115bb575f80fd5b823591506115cb602084016112cb565b90509250929050565b5f602082840312156115e4575f80fd5b81356115ef81611201565b9392505050565b7f4e487b71000000000000000000000000000000000000000000000000000000005f52603260045260245ffd5b7f4e487b71000000000000000000000000000000000000000000000000000000005f52601160045260245ffd5b5f7fffffffffffffffffffffffffffffffffffffffffffffffffffffffffffffffff820361168057611680611623565b5060010190565b81515f9082906020808601845b838110156116d25781517fffffffff000000000000000000000000000000000000000000000000000000001685529382019390820190600101611694565b50929695505050505050565b81515f9082906020808601845b838110156116d257815173ffffffffffffffffffffffffffffffffffffffff16855293820193908201906001016116eb565b602080825282518282018190525f9190848201906040850190845b81811015611756578351151583529284019291840191600101611738565b50909695505050505050565b7f4e487b71000000000000000000000000000000000000000000000000000000005f52602160045260245ffd5b5f815160208301517fffffffff00000000000000000000000000000000000000000000000000000000808216935060048310156117d65780818460040360031b1b83161693505b505050919050565b5f602082840312156117ee575f80fd5b8151600881106115ef575f80fd5b8281526040810160088310611838577f4e487b71000000000000000000000000000000000000000000000000000000005f52602160045260245ffd5b8260208301529392505050565b8181038181111561185857611858611623565b92915050565b8082018082111561185857611858611623565b5f82601f830112611880575f80fd5b815161188e6112548261142e565b818152602085818487010111156118a3575f80fd5b5f5b838110156118c05785810182015183820183015281016118a5565b505f92820101919091529392505050565b5f805f805f8060c087890312156118e6575f80fd5b86516118f181611201565b60208801516040890151919750955067ffffffffffffffff811115611914575f80fd5b61192089828a01611871565b945050606087015192506080870151915060a087015190509295509295509295565b5f82601f830112611951575f80fd5b81516020611961611254836111de565b82815260059290921b8401810191818101908684111561197f575f80fd5b8286015b848110156112c05780518352918301918301611983565b5f82601f8301126119a9575f80fd5b815160206119b9611254836111de565b82815260059290921b840181019181810190868411156119d7575f80fd5b8286015b848110156112c057805167ffffffffffffffff8111156119fa575f8081fd5b611a088986838b0101611871565b8452509183019183016119db565b5f805f805f8060c08789031215611a2b575f80fd5b865167ffffffffffffffff80821115611a42575f80fd5b818901915089601f830112611a55575f80fd5b81516020611a65611254836111de565b82815260059290921b8401810191818101908d841115611a83575f80fd5b948201945b83861015611aaa578551611a9b81611201565b82529482019490820190611a88565b918c0151919a50909350505080821115611ac2575f80fd5b611ace8a838b01611942565b96506040890151915080821115611ae3575f80fd5b5061192089828a0161199a56fe7363686564756c6528616464726573732c75696e743235362c62797465732c627974657333322c627974657333322c75696e74323536297363686564756c65426174636828616464726573735b5d2c75696e743235365b5d2c62797465735b5d2c627974657333322c627974657333322c75696e7432353629a264697066735822122037f44921bc70e0de5761e0bb853bbd3289227643bec2c51f5705a5b1bcdb0c5864736f6c63430008150033",
  "linkReferences": {},
  "deployedLinkReferences": {}
}