{
  "_format": "hh-sol-artifact-1",
  "contractName": "buOLAS",
  "sourceName": "contracts/buOLAS.sol",
  "abi": [
    {
      "inputs": [
        {
          "internalType": "address",
          "name": "_token",
          "type": "address"
        },
        {
          "internalType": "string",
          "name": "_name",
          "type": "string"
        },
        {
          "internalType": "string",
          "name": "_symbol",
          "type": "string"
        }
      ],
      "stateMutability": "nonpayable",
      "type": "constructor"
    },
    {
      "inputs": [
        {
          "internalType": "uint256",
          "name": "provided",
          "type": "uint256"
        },
        {
          "internalType": "uint256",
          "name": "expected",
          "type": "uint256"
        }
      ],
      "name": "InsufficientAllowance",
      "type": "error"
    },
    {
      "inputs": [
        {
          "internalType": "address",
          "name": "account",
          "type": "address"
        },
        {
          "internalType": "uint256",
          "name": "deadline",
          "type": "uint256"
        },
        {
          "internalType": "uint256",
          "name": "curTime",
          "type": "uint256"
        }
      ],
      "name": "LockExpired",
      "type": "error"
    },
    {
      "inputs": [
        {
          "internalType": "address",
          "name": "account",
          "type": "address"
        },
        {
          "internalType": "uint256",
          "name": "deadline",
          "type": "uint256"
        },
        {
          "internalType": "uint256",
          "name": "curTime",
          "type": "uint256"
        }
      ],
      "name": "LockNotExpired",
      "type": "error"
    },
    {
      "inputs": [
        {
          "internalType": "address",
          "name": "account",
          "type": "address"
        },
        {
          "internalType": "uint256",
          "name": "amount",
          "type": "uint256"
        }
      ],
      "name": "LockedValueNotZero",
      "type": "error"
    },
    {
      "inputs": [
        {
          "internalType": "address",
          "name": "account",
          "type": "address"
        },
        {
          "internalType": "uint256",
          "name": "maxUnlockTime",
          "type": "uint256"
        },
        {
          "internalType": "uint256",
          "name": "providedUnlockTime",
          "type": "uint256"
        }
      ],
      "name": "MaxUnlockTimeReached",
      "type": "error"
    },
    {
      "inputs": [
        {
          "internalType": "address",
          "name": "account",
          "type": "address"
        }
      ],
      "name": "NoValueLocked",
      "type": "error"
    },
    {
      "inputs": [
        {
          "internalType": "address",
          "name": "account",
          "type": "address"
        }
      ],
      "name": "NonDelegatable",
      "type": "error"
    },
    {
      "inputs": [
        {
          "internalType": "address",
          "name": "account",
          "type": "address"
        }
      ],
      "name": "NonTransferable",
      "type": "error"
    },
    {
      "inputs": [],
      "name": "NonZeroValue",
      "type": "error"
    },
    {
      "inputs": [
        {
          "internalType": "uint256",
          "name": "provided",
          "type": "uint256"
        },
        {
          "internalType": "uint256",
          "name": "max",
          "type": "uint256"
        }
      ],
      "name": "Overflow",
      "type": "error"
    },
    {
      "inputs": [
        {
          "internalType": "address",
          "name": "sender",
          "type": "address"
        },
        {
          "internalType": "address",
          "name": "owner",
          "type": "address"
        }
      ],
      "name": "OwnerOnly",
      "type": "error"
    },
    {
      "inputs": [
        {
          "internalType": "address",
          "name": "account",
          "type": "address"
        },
        {
          "internalType": "uint256",
          "name": "minUnlockTime",
          "type": "uint256"
        },
        {
          "internalType": "uint256",
          "name": "providedUnlockTime",
          "type": "uint256"
        }
      ],
      "name": "UnlockTimeIncorrect",
      "type": "error"
    },
    {
      "inputs": [
        {
          "internalType": "uint256",
          "name": "numValues1",
          "type": "uint256"
        },
        {
          "internalType": "uint256",
          "name": "numValues2",
          "type": "uint256"
        }
      ],
      "name": "WrongArrayLength",
      "type": "error"
    },
    {
      "inputs": [
        {
          "internalType": "uint256",
          "name": "providedBlockNumber",
          "type": "uint256"
        },
        {
          "internalType": "uint256",
          "name": "actualBlockNumber",
          "type": "uint256"
        }
      ],
      "name": "WrongBlockNumber",
      "type": "error"
    },
    {
      "inputs": [],
      "name": "ZeroAddress",
      "type": "error"
    },
    {
      "inputs": [],
      "name": "ZeroValue",
      "type": "error"
    },
    {
      "anonymous": false,
      "inputs": [
        {
          "indexed": true,
          "internalType": "address",
          "name": "owner",
          "type": "address"
        },
        {
          "indexed": true,
          "internalType": "address",
          "name": "spender",
          "type": "address"
        },
        {
          "indexed": false,
          "internalType": "uint256",
          "name": "value",
          "type": "uint256"
        }
      ],
      "name": "Approval",
      "type": "event"
    },
    {
      "anonymous": false,
      "inputs": [
        {
          "indexed": true,
          "internalType": "address",
          "name": "account",
          "type": "address"
        },
        {
          "indexed": false,
          "internalType": "uint256",
          "name": "amount",
          "type": "uint256"
        },
        {
          "indexed": false,
          "internalType": "uint256",
          "name": "ts",
          "type": "uint256"
        }
      ],
      "name": "Burn",
      "type": "event"
    },
    {
      "anonymous": false,
      "inputs": [
        {
          "indexed": true,
          "internalType": "address",
          "name": "account",
          "type": "address"
        },
        {
          "indexed": false,
          "internalType": "uint256",
          "name": "amount",
          "type": "uint256"
        },
        {
          "indexed": false,
          "internalType": "uint256",
          "name": "startTime",
          "type": "uint256"
        },
        {
          "indexed": false,
          "internalType": "uint256",
          "name": "endTime",
          "type": "uint256"
        }
      ],
      "name": "Lock",
      "type": "event"
    },
    {
      "anonymous": false,
      "inputs": [
        {
          "indexed": true,
          "internalType": "address",
          "name": "owner",
          "type": "address"
        }
      ],
      "name": "OwnerUpdated",
      "type": "event"
    },
    {
      "anonymous": false,
      "inputs": [
        {
          "indexed": true,
          "internalType": "address",
          "name": "account",
          "type": "address"
        },
        {
          "indexed": false,
          "internalType": "uint256",
          "name": "amount",
          "type": "uint256"
        },
        {
          "indexed": false,
          "internalType": "uint256",
          "name": "ts",
          "type": "uint256"
        }
      ],
      "name": "Revoke",
      "type": "event"
    },
    {
      "anonymous": false,
      "inputs": [
        {
          "indexed": false,
          "internalType": "uint256",
          "name": "previousSupply",
          "type": "uint256"
        },
        {
          "indexed": false,
          "internalType": "uint256",
          "name": "currentSupply",
          "type": "uint256"
        }
      ],
      "name": "Supply",
      "type": "event"
    },
    {
      "anonymous": false,
      "inputs": [
        {
          "indexed": true,
          "internalType": "address",
          "name": "from",
          "type": "address"
        },
        {
          "indexed": true,
          "internalType": "address",
          "name": "to",
          "type": "address"
        },
        {
          "indexed": false,
          "internalType": "uint256",
          "name": "value",
          "type": "uint256"
        }
      ],
      "name": "Transfer",
      "type": "event"
    },
    {
      "anonymous": false,
      "inputs": [
        {
          "indexed": true,
          "internalType": "address",
          "name": "account",
          "type": "address"
        },
        {
          "indexed": false,
          "internalType": "uint256",
          "name": "amount",
          "type": "uint256"
        },
        {
          "indexed": false,
          "internalType": "uint256",
          "name": "ts",
          "type": "uint256"
        }
      ],
      "name": "Withdraw",
      "type": "event"
    },
    {
      "inputs": [
        {
          "internalType": "address",
          "name": "owner",
          "type": "address"
        },
        {
          "internalType": "address",
          "name": "spender",
          "type": "address"
        }
      ],
      "name": "allowance",
      "outputs": [
        {
          "internalType": "uint256",
          "name": "",
          "type": "uint256"
        }
      ],
      "stateMutability": "view",
      "type": "function"
    },
    {
      "inputs": [
        {
          "internalType": "address",
          "name": "spender",
          "type": "address"
        },
        {
          "internalType": "uint256",
          "name": "amount",
          "type": "uint256"
        }
      ],
      "name": "approve",
      "outputs": [
        {
          "internalType": "bool",
          "name": "",
          "type": "bool"
        }
      ],
      "stateMutability": "nonpayable",
      "type": "function"
    },
    {
      "inputs": [
        {
          "internalType": "address",
          "name": "account",
          "type": "address"
        }
      ],
      "name": "balanceOf",
      "outputs": [
        {
          "internalType": "uint256",
          "name": "balance",
          "type": "uint256"
        }
      ],
      "stateMutability": "view",
      "type": "function"
    },
    {
      "inputs": [
        {
          "internalType": "address",
          "name": "newOwner",
          "type": "address"
        }
      ],
      "name": "changeOwner",
      "outputs": [],
      "stateMutability": "nonpayable",
      "type": "function"
    },
    {
      "inputs": [
        {
          "internalType": "address",
          "name": "account",
          "type": "address"
        },
        {
          "internalType": "uint256",
          "name": "amount",
          "type": "uint256"
        },
        {
          "internalType": "uint256",
          "name": "numSteps",
          "type": "uint256"
        }
      ],
      "name": "createLockFor",
      "outputs": [],
      "stateMutability": "nonpayable",
      "type": "function"
    },
    {
      "inputs": [],
      "name": "decimals",
      "outputs": [
        {
          "internalType": "uint8",
          "name": "",
          "type": "uint8"
        }
      ],
      "stateMutability": "view",
      "type": "function"
    },
    {
      "inputs": [
        {
          "internalType": "address",
          "name": "account",
          "type": "address"
        }
      ],
      "name": "lockedEnd",
      "outputs": [
        {
          "internalType": "uint256",
          "name": "unlockTime",
          "type": "uint256"
        }
      ],
      "stateMutability": "view",
      "type": "function"
    },
    {
      "inputs": [
        {
          "internalType": "address",
          "name": "",
          "type": "address"
        }
      ],
      "name": "mapLockedBalances",
      "outputs": [
        {
          "internalType": "uint96",
          "name": "totalAmount",
          "type": "uint96"
        },
        {
          "internalType": "uint96",
          "name": "transferredAmount",
          "type": "uint96"
        },
        {
          "internalType": "uint32",
          "name": "startTime",
          "type": "uint32"
        },
        {
          "internalType": "uint32",
          "name": "endTime",
          "type": "uint32"
        }
      ],
      "stateMutability": "view",
      "type": "function"
    },
    {
      "inputs": [],
      "name": "name",
      "outputs": [
        {
          "internalType": "string",
          "name": "",
          "type": "string"
        }
      ],
      "stateMutability": "view",
      "type": "function"
    },
    {
      "inputs": [],
      "name": "owner",
      "outputs": [
        {
          "internalType": "address",
          "name": "",
          "type": "address"
        }
      ],
      "stateMutability": "view",
      "type": "function"
    },
    {
      "inputs": [
        {
          "internalType": "address",
          "name": "account",
          "type": "address"
        }
      ],
      "name": "releasableAmount",
      "outputs": [
        {
          "internalType": "uint256",
          "name": "amount",
          "type": "uint256"
        }
      ],
      "stateMutability": "view",
      "type": "function"
    },
    {
      "inputs": [
        {
          "internalType": "address[]",
          "name": "accounts",
          "type": "address[]"
        }
      ],
      "name": "revoke",
      "outputs": [],
      "stateMutability": "nonpayable",
      "type": "function"
    },
    {
      "inputs": [],
      "name": "supply",
      "outputs": [
        {
          "internalType": "uint256",
          "name": "",
          "type": "uint256"
        }
      ],
      "stateMutability": "view",
      "type": "function"
    },
    {
      "inputs": [
        {
          "internalType": "bytes4",
          "name": "interfaceId",
          "type": "bytes4"
        }
      ],
      "name": "supportsInterface",
      "outputs": [
        {
          "internalType": "bool",
          "name": "",
          "type": "bool"
        }
      ],
      "stateMutability": "view",
      "type": "function"
    },
    {
      "inputs": [],
      "name": "symbol",
      "outputs": [
        {
          "internalType": "string",
          "name": "",
          "type": "string"
        }
      ],
      "stateMutability": "view",
      "type": "function"
    },
    {
      "inputs": [],
      "name": "token",
      "outputs": [
        {
          "internalType": "address",
          "name": "",
          "type": "address"
        }
      ],
      "stateMutability": "view",
      "type": "function"
    },
    {
      "inputs": [],
      "name": "totalSupply",
      "outputs": [
        {
          "internalType": "uint256",
          "name": "",
          "type": "uint256"
        }
      ],
      "stateMutability": "view",
      "type": "function"
    },
    {
      "inputs": [
        {
          "internalType": "address",
          "name": "to",
          "type": "address"
        },
        {
          "internalType": "uint256",
          "name": "amount",
          "type": "uint256"
        }
      ],
      "name": "transfer",
      "outputs": [
        {
          "internalType": "bool",
          "name": "",
          "type": "bool"
        }
      ],
      "stateMutability": "nonpayable",
      "type": "function"
    },
    {
      "inputs": [
        {
          "internalType": "address",
          "name": "from",
          "type": "address"
        },
        {
          "internalType": "address",
          "name": "to",
          "type": "address"
        },
        {
          "internalType": "uint256",
          "name": "amount",
          "type": "uint256"
        }
      ],
      "name": "transferFrom",
      "outputs": [
        {
          "internalType": "bool",
          "name": "",
          "type": "bool"
        }
      ],
      "stateMutability": "nonpayable",
      "type": "function"
    },
    {
      "inputs": [],
      "name": "withdraw",
      "outputs": [],
      "stateMutability": "nonpayable",
      "type": "function"
    }
  ],
  "bytecode": "0x60a06040523480156200001157600080fd5b50604051620019a6380380620019a6833981016040819052620000349162000148565b6001600160a01b03831660805260036200004f838262000261565b5060046200005e828262000261565b5050600180546001600160a01b03191633179055506200032d9050565b634e487b7160e01b600052604160045260246000fd5b600082601f830112620000a357600080fd5b81516001600160401b0380821115620000c057620000c06200007b565b604051601f8301601f19908116603f01168101908282118183101715620000eb57620000eb6200007b565b816040528381526020925086838588010111156200010857600080fd5b600091505b838210156200012c57858201830151818301840152908201906200010d565b838211156200013e5760008385830101525b9695505050505050565b6000806000606084860312156200015e57600080fd5b83516001600160a01b03811681146200017657600080fd5b60208501519093506001600160401b03808211156200019457600080fd5b620001a28783880162000091565b93506040860151915080821115620001b957600080fd5b50620001c88682870162000091565b9150509250925092565b600181811c90821680620001e757607f821691505b6020821081036200020857634e487b7160e01b600052602260045260246000fd5b50919050565b601f8211156200025c57600081815260208120601f850160051c81016020861015620002375750805b601f850160051c820191505b81811015620002585782815560010162000243565b5050505b505050565b81516001600160401b038111156200027d576200027d6200007b565b62000295816200028e8454620001d2565b846200020e565b602080601f831160018114620002cd5760008415620002b45750858301515b600019600386901b1c1916600185901b17855562000258565b600085815260208120601f198616915b82811015620002fe57888601518255948401946001909101908401620002dd565b50858210156200031d5787850151600019600388901b60f8161c191681555b5050505050600190811b01905550565b6080516116486200035e60003960008181610372015281816109f201528181610d5a0152610f4701526116486000f3fe608060405234801561001057600080fd5b506004361061016c5760003560e01c8063313ce567116100cd57806395d89b4111610081578063a9059cbb11610066578063a9059cbb146101da578063dd62ed3e1461035f578063fc0c546a1461036d57600080fd5b806395d89b4114610344578063a6f9dae11461034c57600080fd5b80634deafcae116100b25780634deafcae146102d057806370a08231146103065780638da5cb5b1461031957600080fd5b8063313ce567146102ae5780633ccfd60b146102c857600080fd5b80631726cbc81161012457806318b213481161010957806318b213481461020857806323b872dd1461028d57806329b55ca71461029b57600080fd5b80631726cbc8146101ed57806318160ddd1461020057600080fd5b806305f203d91161015557806305f203d9146101b057806306fdde03146101c5578063095ea7b3146101da57600080fd5b806301ffc9a714610171578063047fc9aa14610199575b600080fd5b61018461017f366004611243565b610394565b60405190151581526020015b60405180910390f35b6101a260005481565b604051908152602001610190565b6101c36101be3660046112b7565b61042d565b005b6101cd6105fd565b604051610190919061137c565b6101846101e83660046113d1565b61068b565b6101a26101fb3660046113fb565b6106c2565b6000546101a2565b6102566102163660046113fb565b6002602052600090815260409020546001600160601b0380821691600160601b81049091169063ffffffff600160c01b8204811691600160e01b90041684565b604080516001600160601b03958616815294909316602085015263ffffffff91821692840192909252166060820152608001610190565b6101846101e8366004611416565b6101c36102a9366004611452565b610736565b6102b6601281565b60405160ff9091168152602001610190565b6101c3610aed565b6101a26102de3660046113fb565b6001600160a01b0316600090815260026020526040902054600160e01b900463ffffffff1690565b6101a26103143660046113fb565b610fc4565b60015461032c906001600160a01b031681565b6040516001600160a01b039091168152602001610190565b6101cd611068565b6101c361035a3660046113fb565b611075565b6101a26101e8366004611485565b61032c7f000000000000000000000000000000000000000000000000000000000000000081565b60007fffffffff0000000000000000000000000000000000000000000000000000000082167f36372b0700000000000000000000000000000000000000000000000000000000148061042757507fffffffff0000000000000000000000000000000000000000000000000000000082167f01ffc9a700000000000000000000000000000000000000000000000000000000145b92915050565b6001546001600160a01b031633146104725760015460405163521eb56d60e11b81523360048201526001600160a01b0390911660248201526044015b60405180910390fd5b60005b81518110156105f9576000828281518110610492576104926114b8565b6020908102919091018101516001600160a01b0381166000908152600283526040808220815160808101835290546001600160601b038082168352600160601b8204169582019590955263ffffffff600160c01b8604811692820192909252600160e01b90940416606084015290925061050b8261113e565b60208381018051855190840190036001600160601b03908116865283811682526000606087018181526001600160a01b03891680835260028652604092839020895181549651858c015194519187166001600160c01b03199098168817600160601b9190971602959095176001600160c01b0316600160c01b63ffffffff948516026001600160e01b031617600160e01b9390951692909202939093179055805192835242938301939093529293507f437a05d5b9037b4fe16f9564c21528b3f978b6a015269140722644f407e943cd910160405180910390a2505050806105f2906114e4565b9050610475565b5050565b6003805461060a906114fd565b80601f0160208091040260200160405190810160405280929190818152602001828054610636906114fd565b80156106835780601f1061065857610100808354040283529160200191610683565b820191906000526020600020905b81548152906001019060200180831161066657829003601f168201915b505050505081565b6040517f9c21e7b2000000000000000000000000000000000000000000000000000000008152306004820152600090602401610469565b6001600160a01b0381166000908152600260209081526040808320815160808101835290546001600160601b038082168352600160601b8204169382019390935263ffffffff600160c01b8404811692820192909252600160e01b90920416606082015261072f8161113e565b9392505050565b6001600160a01b03831661075d5760405163d92e233d60e01b815260040160405180910390fd5b8160000361077e57604051637c946ed760e01b815260040160405180910390fd5b8060000361079f57604051637c946ed760e01b815260040160405180910390fd5b600a8111156107cb57604051637ae5968560e01b815260048101829052600a6024820152604401610469565b60006107db826301e13380611531565b6107e59042611550565b905063ffffffff81111561081957604051637ae5968560e01b81526004810182905263ffffffff6024820152604401610469565b6001600160601b0383111561085157604051637ae5968560e01b8152600481018490526001600160601b036024820152604401610469565b6001600160a01b038416600090815260026020908152604091829020825160808101845290546001600160601b03808216808452600160601b83049091169383019390935263ffffffff600160c01b8204811694830194909452600160e01b900490921660608301521561090e5780516040517f89bf64dd0000000000000000000000000000000000000000000000000000000081526001600160a01b03871660048201526001600160601b039091166024820152604401610469565b63ffffffff4281166040838101918252848316606085019081526001600160601b0388811686526001600160a01b038a811660009081526002602090815285822089518154928b0151985196518a16600160e01b026001600160e01b0397909a16600160c01b02969096166001600160c01b03988616600160601b026001600160c01b0319909316969095169590951717959095169190911794909417905581548088019283905590517f23b872dd0000000000000000000000000000000000000000000000000000000081523360048201523060248201526044810188905290927f000000000000000000000000000000000000000000000000000000000000000016906323b872dd906064016020604051808303816000875af1158015610a3b573d6000803e3d6000fd5b505050506040513d601f19601f82011682018060405250810190610a5f9190611568565b50604080518781524260208201529081018590526001600160a01b038816907f0e31f07bae79135368ff475cf6c7f6abb31e0fd731e03c18ad425bd9406cf0c09060600160405180910390a260408051838152602081018390527f5e2aa66efd74cce82b21852e317e5490d9ecc9e6bb953ae24d90851258cc2f5c910160405180910390a150505050505050565b33600090815260026020908152604091829020825160808101845290546001600160601b038082168352600160601b8204169282019290925263ffffffff600160c01b83048116938201849052600160e01b90920490911660608201529015610fc1576000610b5b8261113e565b905080600003610bb15760608201516040517fab0246b300000000000000000000000000000000000000000000000000000000815233600482015263ffffffff9091166024820152426044820152606401610469565b6000546060830151819063ffffffff1615610d1a576020840180516001600160601b0390850181169182905285511690610bec90600161158a565b6001600160601b03161115610c9757604080516080810182526000808252602080830182815283850183815260608501848152338552600290935294909220925183549251945191516001600160601b039182166001600160c01b031990941693909317600160601b9190951602939093176001600160c01b0316600160c01b63ffffffff948516026001600160e01b031617600160e01b9390911692909202919091179055610e97565b33600090815260026020908152604091829020865181549288015193880151606089015163ffffffff908116600160e01b026001600160e01b0391909216600160c01b02166001600160c01b036001600160601b03968716600160601b026001600160c01b03199096169690931695909517939093171692909217179055610e97565b83516001600160601b03168015610dfe576040517f42966c68000000000000000000000000000000000000000000000000000000008152600481018290527f00000000000000000000000000000000000000000000000000000000000000006001600160a01b0316906342966c6890602401600060405180830381600087803b158015610da657600080fd5b505af1158015610dba573d6000803e3d6000fd5b50506040805184815242602082015284870395503393507f49995e5dd6158cf69ad3e9777c46755a1a826a446c6416992167462dad033b2a92500160405180910390a25b50604080516080810182526000808252602080830182815283850183815260608501848152338552600290935294909220925183549251945191516001600160601b039182166001600160c01b031990941693909317600160601b9190951602939093176001600160c01b0316600160c01b63ffffffff948516026001600160e01b031617600160e01b93909116929092029190911790555b82900360008190556040805184815242602082015233917ff279e6a1f5e320cca91135676d9cb6e44ca8a08c0b88342bcdb1144f6511b568910160405180910390a260408051838152602081018390527f5e2aa66efd74cce82b21852e317e5490d9ecc9e6bb953ae24d90851258cc2f5c910160405180910390a16040517fa9059cbb000000000000000000000000000000000000000000000000000000008152336004820152602481018490527f00000000000000000000000000000000000000000000000000000000000000006001600160a01b03169063a9059cbb906044016020604051808303816000875af1158015610f98573d6000803e3d6000fd5b505050506040513d601f19601f82011682018060405250810190610fbc9190611568565b505050505b50565b6001600160a01b0381166000908152600260209081526040808320815160808101835290546001600160601b038082168352600160601b8204169382019390935263ffffffff600160c01b8404811692820192909252600160e01b909204166060820181905282036110455780602001516001600160601b03169150611062565b6020810151815161105691906115b5565b6001600160601b031691505b50919050565b6004805461060a906114fd565b6001546001600160a01b031633146110b55760015460405163521eb56d60e11b81523360048201526001600160a01b039091166024820152604401610469565b6001600160a01b0381166110dc5760405163d92e233d60e01b815260040160405180910390fd5b600180547fffffffffffffffffffffffff0000000000000000000000000000000000000000166001600160a01b0383169081179091556040517f4ffd725fc4a22075e9ec71c59edf9c38cdeb588a91b24fc5b61388c5be41282b90600090a250565b6000816060015163ffffffff166000036111635750602001516001600160601b031690565b6000806301e1338063ffffffff16846040015185606001510363ffffffff168161118f5761118f6115dd565b0491506301e1338063ffffffff168460400151420363ffffffff16816111b7576111b76115dd565b04905063ffffffff82166111cc8260016115f3565b63ffffffff1611156111f35783602001518460000151036001600160601b0316925061123c565b8163ffffffff168163ffffffff168560000151026001600160601b03168161121d5761121d6115dd565b046001600160601b0316925083602001516001600160601b0316830392505b5050919050565b60006020828403121561125557600080fd5b81357fffffffff000000000000000000000000000000000000000000000000000000008116811461072f57600080fd5b634e487b7160e01b600052604160045260246000fd5b80356001600160a01b03811681146112b257600080fd5b919050565b600060208083850312156112ca57600080fd5b823567ffffffffffffffff808211156112e257600080fd5b818501915085601f8301126112f657600080fd5b81358181111561130857611308611285565b8060051b604051601f19603f8301168101818110858211171561132d5761132d611285565b60405291825284820192508381018501918883111561134b57600080fd5b938501935b82851015611370576113618561129b565b84529385019392850192611350565b98975050505050505050565b600060208083528351808285015260005b818110156113a95785810183015185820160400152820161138d565b818111156113bb576000604083870101525b50601f01601f1916929092016040019392505050565b600080604083850312156113e457600080fd5b6113ed8361129b565b946020939093013593505050565b60006020828403121561140d57600080fd5b61072f8261129b565b60008060006060848603121561142b57600080fd5b6114348461129b565b92506114426020850161129b565b9150604084013590509250925092565b60008060006060848603121561146757600080fd5b6114708461129b565b95602085013595506040909401359392505050565b6000806040838503121561149857600080fd5b6114a18361129b565b91506114af6020840161129b565b90509250929050565b634e487b7160e01b600052603260045260246000fd5b634e487b7160e01b600052601160045260246000fd5b6000600182016114f6576114f66114ce565b5060010190565b600181811c9082168061151157607f821691505b60208210810361106257634e487b7160e01b600052602260045260246000fd5b600081600019048311821515161561154b5761154b6114ce565b500290565b60008219821115611563576115636114ce565b500190565b60006020828403121561157a57600080fd5b8151801515811461072f57600080fd5b60006001600160601b038083168185168083038211156115ac576115ac6114ce565b01949350505050565b60006001600160601b03838116908316818110156115d5576115d56114ce565b039392505050565b634e487b7160e01b600052601260045260246000fd5b600063ffffffff8083168185168083038211156115ac576115ac6114ce56fea264697066735822122032cc2102a16b5b14b91fd3ea4fc521f709c72838f57f5325b7862c2362734f5964736f6c634300080f0033",
  "linkReferences": {},
  "deployedLinkReferences": {}
}