{
  "_format": "hh-sol-artifact-1",
  "contractName": "DeploymentFactory",
  "sourceName": "contracts/DeploymentFactory.sol",
  "abi": [
    {
      "inputs": [],
      "stateMutability": "nonpayable",
      "type": "constructor"
    },
    {
      "inputs": [
        {
          "internalType": "address",
          "name": "sender",
          "type": "address"
        },
        {
          "internalType": "address",
          "name": "owner",
          "type": "address"
        }
      ],
      "name": "OwnerOnly",
      "type": "error"
    },
    {
      "inputs": [],
      "name": "ZeroAddress",
      "type": "error"
    },
    {
      "anonymous": false,
      "inputs": [
        {
          "indexed": true,
          "internalType": "address",
          "name": "owner",
          "type": "address"
        }
      ],
      "name": "OwnerUpdated",
      "type": "event"
    },
    {
      "inputs": [
        {
          "internalType": "address",
          "name": "newOwner",
          "type": "address"
        }
      ],
      "name": "changeOwner",
      "outputs": [],
      "stateMutability": "nonpayable",
      "type": "function"
    },
    {
      "inputs": [
        {
          "internalType": "bytes32",
          "name": "salt",
          "type": "bytes32"
        }
      ],
      "name": "computeOLASAddress",
      "outputs": [
        {
          "internalType": "address",
          "name": "",
          "type": "address"
        }
      ],
      "stateMutability": "view",
      "type": "function"
    },
    {
      "inputs": [
        {
          "internalType": "bytes32",
          "name": "salt",
          "type": "bytes32"
        },
        {
          "internalType": "address",
          "name": "token",
          "type": "address"
        }
      ],
      "name": "computeVeOLASAddress",
      "outputs": [
        {
          "internalType": "address",
          "name": "",
          "type": "address"
        }
      ],
      "stateMutability": "view",
      "type": "function"
    },
    {
      "inputs": [
        {
          "internalType": "bytes32",
          "name": "salt",
          "type": "bytes32"
        }
      ],
      "name": "deployOLAS",
      "outputs": [],
      "stateMutability": "nonpayable",
      "type": "function"
    },
    {
      "inputs": [
        {
          "internalType": "bytes32",
          "name": "salt",
          "type": "bytes32"
        },
        {
          "internalType": "address",
          "name": "token",
          "type": "address"
        }
      ],
      "name": "deployVeOLAS",
      "outputs": [],
      "stateMutability": "nonpayable",
      "type": "function"
    },
    {
      "inputs": [],
      "name": "olasAddress",
      "outputs": [
        {
          "internalType": "address",
          "name": "",
          "type": "address"
        }
      ],
      "stateMutability": "view",
      "type": "function"
    },
    {
      "inputs": [],
      "name": "owner",
      "outputs": [
        {
          "internalType": "address",
          "name": "",
          "type": "address"
        }
      ],
      "stateMutability": "view",
      "type": "function"
    },
    {
      "inputs": [],
      "name": "veOLASAddress",
      "outputs": [
        {
          "internalType": "address",
          "name": "",
          "type": "address"
        }
      ],
      "stateMutability": "view",
      "type": "function"
    }
  ],
  "bytecode": "0x608060405234801561001057600080fd5b50600280546001600160a01b03191633179055615038806100326000396000f3fe60806040523480156200001157600080fd5b5060043610620000935760003560e01c80638da5cb5b11620000625780638da5cb5b146200010c5780639f1bc7771462000120578063a6f9dae11462000137578063b06aefaa146200014e57600080fd5b80632890bab014620000985780633e2a135814620000cb57806345064dee14620000df5780635cf18f4e14620000f8575b600080fd5b620000af620000a9366004620007e9565b62000165565b6040516001600160a01b03909116815260200160405180910390f35b600154620000af906001600160a01b031681565b620000f6620000f036600462000818565b6200023c565b005b600054620000af906001600160a01b031681565b600254620000af906001600160a01b031681565b620000f662000131366004620007e9565b620003e4565b620000f66200014836600462000832565b6200050b565b620000af6200015f36600462000818565b620005e5565b60006200023583604051806020016200017e90620007b0565b601f1982820381018352601f9091011660408181526001600160a01b03871660208301526060908201819052601260808301527f566f74696e6720457363726f77204f4c4153000000000000000000000000000060a08084019190915290820152600660c08201526576654f4c415360d01b60e08201526101000160408051601f19818403018152908290526200021992916020016200088e565b6040516020818303038152906040528051906020012062000628565b9392505050565b6002546001600160a01b03163314620002825760025460405163521eb56d60e11b81523360048201526001600160a01b0390911660248201526044015b60405180910390fd5b620002d4600082604051806020016200029b90620007be565b601f1982820381018352601f909101166040819052620002bf9190602001620008a7565b6040516020818303038152906040526200069d565b6000805473ffffffffffffffffffffffffffffffffffffffff19166001600160a01b039290921691821790556040517f2c4d4d18000000000000000000000000000000000000000000000000000000008152336004820152632c4d4d1890602401600060405180830381600087803b1580156200035057600080fd5b505af115801562000365573d6000803e3d6000fd5b50506000546040517fa6f9dae10000000000000000000000000000000000000000000000000000000081523360048201526001600160a01b03909116925063a6f9dae19150602401600060405180830381600087803b158015620003c857600080fd5b505af1158015620003dd573d6000803e3d6000fd5b5050505050565b6002546001600160a01b03163314620004265760025460405163521eb56d60e11b81523360048201526001600160a01b03909116602482015260440162000279565b620004da600083604051806020016200043f90620007b0565b601f1982820381018352601f9091011660408181526001600160a01b03871660208301526060908201819052601260808301527f566f74696e6720457363726f77204f4c4153000000000000000000000000000060a08084019190915290820152600660c08201526576654f4c415360d01b60e08201526101000160408051601f1981840301815290829052620002bf92916020016200088e565b6001805473ffffffffffffffffffffffffffffffffffffffff19166001600160a01b03929092169190911790555050565b6002546001600160a01b031633146200054d5760025460405163521eb56d60e11b81523360048201526001600160a01b03909116602482015260440162000279565b6001600160a01b0381166200058e576040517fd92e233d00000000000000000000000000000000000000000000000000000000815260040160405180910390fd5b6002805473ffffffffffffffffffffffffffffffffffffffff19166001600160a01b0383169081179091556040517f4ffd725fc4a22075e9ec71c59edf9c38cdeb588a91b24fc5b61388c5be41282b90600090a250565b6000620006228260405180602001620005fe90620007be565b601f1982820381018352601f909101166040819052620002199190602001620008a7565b92915050565b604080517fff000000000000000000000000000000000000000000000000000000000000006020808301919091526bffffffffffffffffffffffff193060601b166021830152603582018590526055808301859052835180840390910181526075909201909252805191012060009062000235565b60008084471015620006f25760405162461bcd60e51b815260206004820152601d60248201527f437265617465323a20696e73756666696369656e742062616c616e6365000000604482015260640162000279565b8251600003620007455760405162461bcd60e51b815260206004820181905260248201527f437265617465323a2062797465636f6465206c656e677468206973207a65726f604482015260640162000279565b8383516020850187f590506001600160a01b038116620007a85760405162461bcd60e51b815260206004820152601960248201527f437265617465323a204661696c6564206f6e206465706c6f7900000000000000604482015260640162000279565b949350505050565b61320d80620008b683390190565b6115408062003ac383390190565b80356001600160a01b0381168114620007e457600080fd5b919050565b60008060408385031215620007fd57600080fd5b823591506200080f60208401620007cc565b90509250929050565b6000602082840312156200082b57600080fd5b5035919050565b6000602082840312156200084557600080fd5b6200023582620007cc565b6000815160005b8181101562000873576020818501810151868301520162000857565b8181111562000883576000828601525b509290920192915050565b6000620007a8620008a0838662000850565b8462000850565b60006200023582846200085056fe60a06040523480156200001157600080fd5b506040516200320d3803806200320d833981016040819052620000349162000210565b6001600160a01b03831660805260066200004f838262000329565b5060076200005e828262000329565b50506040805160a081018252600080825260208083018281526001600160401b0342811695850195865243811660608601908152608086018581529480526003909352935190516001600160801b03908116600160801b908102928216929092177f3617319a054d772f909f7c479a2cebe5066e836a939412e32403c99029b92eff5594517f3617319a054d772f909f7c479a2cebe5066e836a939412e32403c99029b92f00805493519451871690920293851668010000000000000000026001600160801b0319939093169416939093171790921691909117905550620003f59050565b634e487b7160e01b600052604160045260246000fd5b600082601f8301126200016b57600080fd5b81516001600160401b038082111562000188576200018862000143565b604051601f8301601f19908116603f01168101908282118183101715620001b357620001b362000143565b81604052838152602092508683858801011115620001d057600080fd5b600091505b83821015620001f45785820183015181830184015290820190620001d5565b83821115620002065760008385830101525b9695505050505050565b6000806000606084860312156200022657600080fd5b83516001600160a01b03811681146200023e57600080fd5b60208501519093506001600160401b03808211156200025c57600080fd5b6200026a8783880162000159565b935060408601519150808211156200028157600080fd5b50620002908682870162000159565b9150509250925092565b600181811c90821680620002af57607f821691505b602082108103620002d057634e487b7160e01b600052602260045260246000fd5b50919050565b601f8211156200032457600081815260208120601f850160051c81016020861015620002ff5750805b601f850160051c820191505b8181101562000320578281556001016200030b565b5050505b505050565b81516001600160401b0381111562000345576200034562000143565b6200035d816200035684546200029a565b84620002d6565b602080601f8311600181146200039557600084156200037c5750858301515b600019600386901b1c1916600185901b17855562000320565b600085815260208120601f198616915b82811015620003c657888601518255948401946001909101908401620003a5565b5085821015620003e55787850151600019600388901b60f8161c191681555b5050505050600190811b01905550565b608051612dee6200041f600039600081816106ed01528181610d9301526114480152612dee6000f3fe608060405234801561001057600080fd5b50600436106102925760003560e01c8063587cde1e116101605780639ab24eb0116100d8578063c2c4c5c11161008c578063c4698ee511610071578063c4698ee5146106c7578063dd62ed3e146106da578063fc0c546a146106e857600080fd5b8063c2c4c5c1146106b1578063c3cda520146106b957600080fd5b8063b0a34fdd116100bd578063b0a34fdd14610618578063b18f27021461068b578063b52c05fe1461069e57600080fd5b80639ab24eb014610605578063a9059cbb1461038a57600080fd5b806378888dbf1161012f5780638e539e8c116101145780638e539e8c146105d757806395d89b41146105ea578063981b24d0146105f257600080fd5b806378888dbf1461058e5780637c616fe6146105c457600080fd5b8063587cde1e1461050b5780635c19a95c1461053657806370a082311461054957806370ab0a841461057b57600080fd5b806329b55ca71161020e578063474177ec116101c25780634ee2cd7e116101a75780634ee2cd7e146104c757806353acfabd146104da578063583419221461050357600080fd5b8063474177ec146104855780634deafcae1461048e57600080fd5b8063313ce567116101f3578063313ce567146104505780633a46b1a81461046a5780633ccfd60b1461047d57600080fd5b806329b55ca71461042a5780632f4f21e21461043d57600080fd5b8063095ea7b31161026557806318160ddd1161024a57806318160ddd146103b257806318b21348146103ba57806323b872dd1461041c57600080fd5b8063095ea7b31461038a57806315456eba1461039d57600080fd5b806301ffc9a714610297578063025fc7d8146102bf578063047fc9aa1461035e57806306fdde0314610375575b600080fd5b6102aa6102a5366004612778565b61070f565b60405190151581526020015b60405180910390f35b61031a6102cd3660046127a2565b60036020526000908152604090208054600190910154600f82810b92600160801b9081900490910b916001600160401b0380821692600160401b830490911691046001600160801b031685565b60408051600f96870b81529490950b60208501526001600160401b03928316948401949094521660608201526001600160801b03909116608082015260a0016102b6565b61036760005481565b6040519081526020016102b6565b61037d6107ac565b6040516102b691906127bb565b6102aa61039836600461282c565b61083a565b6103b06103ab3660046127a2565b610876565b005b600054610367565b6103f56103c8366004612856565b6001602052600090815260409020546001600160801b03811690600160801b90046001600160401b031682565b604080516001600160801b0390931683526001600160401b039091166020830152016102b6565b6102aa610398366004612871565b6103b06104383660046128ad565b6109ac565b6103b061044b36600461282c565b6109fc565b610458601281565b60405160ff90911681526020016102b6565b61036761047836600461282c565b610b40565b6103b0610bbb565b61036760025481565b61036761049c366004612856565b6001600160a01b0316600090815260016020526040902054600160801b90046001600160401b031690565b6103676104d536600461282c565b610e0f565b6103676104e8366004612856565b6001600160a01b031660009081526004602052604090205490565b610367610e56565b61051e610519366004612856565b610e66565b6040516001600160a01b0390911681526020016102b6565b6103b0610544366004612856565b610e84565b610367610557366004612856565b6001600160a01b03166000908152600160205260409020546001600160801b031690565b61031a61058936600461282c565b610e9f565b6105b161059c3660046128e0565b600560205260009081526040902054600f0b81565b604051600f9190910b81526020016102b6565b6103b06105d23660046127a2565b610f0b565b6103676105e53660046127a2565b6110ac565b61037d6110d0565b6103676106003660046127a2565b6110dd565b610367610613366004612856565b611124565b61062b61062636600461282c565b611130565b6040516102b69190600060a0820190508251600f0b82526020830151600f0b602083015260408301516001600160401b03808216604085015280606086015116606085015250506001600160801b03608084015116608083015292915050565b6103676106993660046127a2565b6111f8565b6103b06106ac366004612909565b611278565b6103b0611283565b6103b061054436600461292b565b61062b6106d5366004612856565b6112ba565b61036761039836600461298b565b61051e7f000000000000000000000000000000000000000000000000000000000000000081565b60006001600160e01b031982167f36372b0700000000000000000000000000000000000000000000000000000000148061077257506001600160e01b031982167fe90fb3f600000000000000000000000000000000000000000000000000000000145b806107a657506001600160e01b031982167f01ffc9a700000000000000000000000000000000000000000000000000000000145b92915050565b600680546107b9906129be565b80601f01602080910402602001604051908101604052809291908181526020018280546107e5906129be565b80156108325780601f1061080757610100808354040283529160200191610832565b820191906000526020600020905b81548152906001019060200180831161081557829003601f168201915b505050505081565b6040517f9c21e7b20000000000000000000000000000000000000000000000000000000081523060048201526000906024015b60405180910390fd5b3360009081526001602090815260408083208151808301909252546001600160801b0381168252600160801b90046001600160401b031691810191909152908290036108d557604051637c946ed760e01b815260040160405180910390fd5b80516001600160801b031660000361090257604051630ffc23db60e11b815233600482015260240161086d565b61090d426001612a08565b81602001516001600160401b0316101561095757602081015160405163d78507e160e01b81523360048201526001600160401b03909116602482015242604482015260640161086d565b6bffffffffffffffffffffffff82111561099957604051637ae5968560e01b8152600481018390526bffffffffffffffffffffffff602482015260440161086d565b6109a833836000846002611333565b5050565b6001600160a01b0383166109ec576040517fd92e233d00000000000000000000000000000000000000000000000000000000815260040160405180910390fd5b6109f783838361154d565b505050565b6001600160a01b03821660009081526001602090815260408083208151808301909252546001600160801b0381168252600160801b90046001600160401b03169181019190915290829003610a6457604051637c946ed760e01b815260040160405180910390fd5b80516001600160801b0316600003610a9a57604051630ffc23db60e11b81526001600160a01b038416600482015260240161086d565b610aa5426001612a08565b81602001516001600160401b03161015610aef57602081015160405163d78507e160e01b81523360048201526001600160401b03909116602482015242604482015260640161086d565b6bffffffffffffffffffffffff821115610b3157604051637ae5968560e01b8152600481018390526bffffffffffffffffffffffff602482015260440161086d565b6109f783836000846000611333565b600080610b4d83856116db565b5090506000610b5b84611a19565b915050816040015181610b6e9190612a20565b60070b8260200151610b809190612a72565b82518390610b8f908390612b19565b600f90810b90915283516000910b13159050610bb35781516001600160801b031692505b505092915050565b336000908152600160209081526040918290208251808401909352546001600160801b0381168352600160801b90046001600160401b0316908201819052421015610c4f5760208101516040517fab0246b30000000000000000000000000000000000000000000000000000000081523360048201526001600160401b03909116602482015242604482015260640161086d565b80516040805180820182526000808252602080830182815233808452600183528584209451855492516001600160401b0316600160801b027fffffffffffffffff0000000000000000000000000000000000000000000000009093166001600160801b039182161792909217909455825495168086038084558551808701909652838652918501929092529093929091610ceb91869084611bfa565b6040805184815242602082015233917ff279e6a1f5e320cca91135676d9cb6e44ca8a08c0b88342bcdb1144f6511b568910160405180910390a260408051838152602081018390527f5e2aa66efd74cce82b21852e317e5490d9ecc9e6bb953ae24d90851258cc2f5c910160405180910390a16040517fa9059cbb000000000000000000000000000000000000000000000000000000008152336004820152602481018490527f00000000000000000000000000000000000000000000000000000000000000006001600160a01b03169063a9059cbb906044016020604051808303816000875af1158015610de4573d6000803e3d6000fd5b505050506040513d601f19601f82011682018060405250810190610e089190612b71565b5050505050565b600080610e1c83856116db565b509050610e2a836001612a08565b81606001516001600160401b03161015610e4f5780608001516001600160801b031691505b5092915050565b6000610e61426111f8565b905090565b6040516314d76d3b60e21b815230600482015260009060240161086d565b6040516314d76d3b60e21b815230600482015260240161086d565b60046020528160005260406000208181548110610ebb57600080fd5b600091825260209091206002909102018054600190910154600f82810b9450600160801b92839004900b92506001600160401b0380821692600160401b830490911691046001600160801b031685565b336000908152600160209081526040918290208251808401909352546001600160801b0381168352600160801b90046001600160401b03169082015262093a80804284010402915080600001516001600160801b0316600003610f8357604051630ffc23db60e11b815233600482015260240161086d565b610f8e426001612a08565b81602001516001600160401b03161015610fd857602081015160405163d78507e160e01b81523360048201526001600160401b03909116602482015242604482015260640161086d565b6020810151610fe8906001612ba9565b6001600160401b031682101561102f57602081015160405163311d1bf960e01b81523360048201526001600160401b0390911660248201526044810183905260640161086d565b61103d630784ce0042612a08565b82111561109d5733611053630784ce0042612a08565b6040517fc172987b0000000000000000000000000000000000000000000000000000000081526001600160a01b03909216600483015260248201526044810183905260640161086d565b6109a833600084846003611333565b60008060006110ba84611a19565b915091506110c88282612547565b949350505050565b600780546107b9906129be565b6000806110eb8360006116db565b5090506110f9836001612a08565b81606001516001600160401b0316101561111e5780608001516001600160801b031691505b50919050565b60006107a6824261266a565b6040805160a0810182526000808252602080830182905282840182905260608301829052608083018290526001600160a01b0386168252600490529190912080548390811061118157611181612bd4565b60009182526020918290206040805160a0810182526002939093029091018054600f81810b8552600160801b91829004900b94840194909452600101546001600160401b0380821692840192909252600160401b81049091166060830152919091046001600160801b031660808201529392505050565b6002546000908152600360209081526040808320815160a0810183528154600f81810b8352600160801b91829004900b948201949094526001909101546001600160401b0380821693830193909352600160401b810490921660608201529190046001600160801b031660808201526112718184612547565b9392505050565b6109a833838361154d565b604080518082018252600080825260208083018290528351808501909452818452830181905280546112b89391929190611bfa565b565b6040805160a0810182526000808252602080830182905282840182905260608301829052608083018290526001600160a01b0385168252600490529190912054801561111e576001600160a01b0383166000908152600460205260409020611323600183612bea565b8154811061118157611181612bd4565b60008054858101808355604080518082019091528381526020810193909352909184516020808701516001600160401b0316908301526001600160801b039081168252855188011685528515611393576001600160401b03861660208601525b6001600160a01b038816600090815260016020908152604090912086518154928801516001600160401b0316600160801b027fffffffffffffffff0000000000000000000000000000000000000000000000009093166001600160801b039091161791909117905561140788828785611bfa565b86156114bf576040517f23b872dd000000000000000000000000000000000000000000000000000000008152336004820152306024820152604481018890527f00000000000000000000000000000000000000000000000000000000000000006001600160a01b0316906323b872dd906064016020604051808303816000875af1158015611499573d6000803e3d6000fd5b505050506040513d601f19601f820116820180604052508101906114bd9190612b71565b505b876001600160a01b03167fbe9cf0e939c614fad640a623a53ba0a807c8cb503c4c4c8dacabe27b86ff2dd588876020015187426040516115029493929190612c01565b60405180910390a260408051848152602081018490527f5e2aa66efd74cce82b21852e317e5490d9ecc9e6bb953ae24d90851258cc2f5c910160405180910390a15050505050505050565b8160000361156e57604051637c946ed760e01b815260040160405180910390fd5b62093a80804283016001600160a01b0386166000908152600160209081526040918290208251808401909352546001600160801b038116808452600160801b9091046001600160401b031691830191909152929091049290920292501561161e5780516040517f89bf64dd0000000000000000000000000000000000000000000000000000000081526001600160a01b03861660048201526001600160801b03909116602482015260440161086d565b611629426001612a08565b8210156116615760405163311d1bf960e01b81526001600160a01b03851660048201524260248201526044810183905260640161086d565b61166f630784ce0042612a08565b8211156116855783611053630784ce0042612a08565b6bffffffffffffffffffffffff8311156116c757604051637ae5968560e01b8152600481018490526bffffffffffffffffffffffff602482015260440161086d565b6116d5848484846001611333565b50505050565b6040805160a081018252600080825260208201819052918101829052606081018290526080810182905290806001600160a01b03841661171e575060025461174b565b506001600160a01b038316600090815260046020526040812054908190036117465750611a12565b600019015b60005b60808110156118f15781611763846001612a08565b116118f157600060026117768486612a08565b611781906001612a08565b61178b9190612c47565b90506001600160a01b03861661180e57600081815260036020908152604091829020825160a0810184528154600f81810b8352600160801b91829004900b938201939093526001909101546001600160401b0380821694830194909452600160401b8104909316606082015291046001600160801b0316608082015294506118ab565b6001600160a01b038616600090815260046020526040902080548290811061183857611838612bd4565b60009182526020918290206040805160a0810182526002939093029091018054600f81810b8552600160801b91829004900b94840194909452600101546001600160401b0380821692840192909252600160401b81049091166060830152919091046001600160801b0316608082015294505b6118b6876001612a08565b85606001516001600160401b031610156118d2578093506118e0565b6118dd600182612bea565b92505b506118ea81612c5b565b905061174e565b506001600160a01b03841661197357600082815260036020908152604091829020825160a0810184528154600f81810b8352600160801b91829004900b938201939093526001909101546001600160401b0380821694830194909452600160401b8104909316606082015291046001600160801b031660808201529250611a10565b6001600160a01b038416600090815260046020526040902080548390811061199d5761199d612bd4565b60009182526020918290206040805160a0810182526002939093029091018054600f81810b8552600160801b91829004900b94840194909452600101546001600160401b0380821692840192909252600160401b81049091166060830152919091046001600160801b0316608082015292505b505b9250929050565b6040805160a08101825260008082526020820181905291810182905260608101829052608081018290529043831115611a87576040517f8633967e0000000000000000000000000000000000000000000000000000000081526004810184905243602482015260440161086d565b6000611a948460006116db565b60025491945091506000908190831015611b6b576000600381611ab8866001612a08565b81526020808201929092526040908101600020815160a0810183528154600f81810b8352600160801b91829004900b948201949094526001909101546001600160401b0380821693830193909352600160401b81049092166060808301829052939092046001600160801b0316608082015291880151919250611b3b9190612c74565b6001600160401b0316925085604001518160400151611b5a9190612c74565b6001600160401b0316915050611ba1565b6060850151611b83906001600160401b031643612bea565b915084604001516001600160401b031642611b9e9190612bea565b90505b60408501516001600160401b031693508115611bf2578185606001516001600160401b031687611bd19190612bea565b611bdb9083612c9c565b611be59190612c47565b611bef9085612a08565b93505b505050915091565b6040805160a0810182526000808252602082018190529181018290526060810182905260808101919091526040805160a08101825260008082526020820181905291810182905260608101829052608081019190915260025460009081906001600160a01b03891615611dcb574288602001516001600160401b0316118015611c8c575087516001600160801b031615155b15611cda578751611ca290630784ce0090612cbb565b600f0b602080870191909152880151611cbc904290612c74565b6001600160401b03168560200151611cd49190612a72565b600f0b85525b4287602001516001600160401b0316118015611cff575086516001600160801b031615155b15611d4d578651611d1590630784ce0090612cbb565b600f0b602080860191909152870151611d2f904290612c74565b6001600160401b03168460200151611d479190612a72565b600f0b84525b6020808901516001600160401b03908116600090815260058352604090205491890151600f9290920b94501615611dcb5787602001516001600160401b031687602001516001600160401b031603611da757829150611dcb565b6020808801516001600160401b0316600090815260059091526040902054600f0b91505b6040805160a0810182526000808252602082018190529181018290526060810182905260808101919091528115611e6e5750600081815260036020908152604091829020825160a0810184528154600f81810b8352600160801b91829004900b938201939093526001909101546001600160401b0380821694830194909452600160401b8104909316606082015291046001600160801b03166080820152611ebc565b6040518060a001604052806000600f0b81526020016000600f0b8152602001426001600160401b03168152602001436001600160401b0316815260200160006001600160801b031681525090505b60408101518160006001600160401b038316421115611f24576040840151611eed906001600160401b031642612bea565b6060850151611f05906001600160401b031643612bea565b611f1790670de0b6b3a7640000612c9c565b611f219190612c47565b90505b600062093a80611f348186612d02565b611f3e9190612d28565b905060005b60ff8110156121515762093a8082019150600042836001600160401b03161115611f6f57429250611f8d565b506001600160401b038216600090815260056020526040902054600f0b5b611f978684612c74565b60070b8760200151611fa99190612a72565b87518890611fb8908390612b19565b600f0b905250602087018051829190611fd2908390612d57565b600f90810b90915288516000910b12159050611fed57600087525b60008760200151600f0b121561200557600060208801525b6001600160401b0383166040808901919091528501519295508592670de0b6b3a7640000906120349085612c74565b612047906001600160401b031686612c9c565b6120519190612c47565b85606001516120609190612ba9565b6001600160401b0390811660608901526080808701516001600160801b0316908901526001989098019742908416036120b757506001600160401b03431660608701526001600160801b038c166080870152612151565b506000878152600360209081526040918290208851918901516001600160801b03928316600160801b9184168202178255928901516001909101805460608b015160808c01516001600160401b039485166fffffffffffffffffffffffffffffffff1990931692909217600160401b94909116939093029290921783169190921690920291909117905561214a81612c5b565b9050611f43565b505060028590556001600160a01b038d16156121e5578860200151886020015161217b9190612b19565b8460200181815161218c9190612d57565b600f0b905250885188516121a09190612b19565b845185906121af908390612d57565b600f90810b90915260208601516000910b121590506121d057600060208501525b60008460000151600f0b12156121e557600084525b6000858152600360209081526040918290208651918701516001600160801b03928316600160801b91841682021782559287015160019091018054606089015160808a01516001600160401b039485166fffffffffffffffffffffffffffffffff1990931692909217600160401b9490911693909302929092178316919092169092029190911790556001600160a01b038d161561253857428c602001516001600160401b031611156123165760208901516122a19088612d57565b96508b602001516001600160401b03168b602001516001600160401b0316036122d65760208801516122d39088612b19565b96505b60208c8101516001600160401b0316600090815260059091526040902080546fffffffffffffffffffffffffffffffff19166001600160801b0389161790555b428b602001516001600160401b031611801561234b57508b602001516001600160401b03168b602001516001600160401b0316115b156123a157602088015161235f9087612b19565b60208c8101516001600160401b0316600090815260059091526040902080546fffffffffffffffffffffffffffffffff19166001600160801b03831617905595505b4288604001906001600160401b031690816001600160401b0316815250504388606001906001600160401b031690816001600160401b0316815250508a6000015188608001906001600160801b031690816001600160801b031681525050600460008e6001600160a01b03166001600160a01b0316815260200190815260200160002088908060018154018082558091505060019003906000526020600020906002020160009091909190915060008201518160000160006101000a8154816001600160801b030219169083600f0b6001600160801b0316021790555060208201518160000160106101000a8154816001600160801b030219169083600f0b6001600160801b0316021790555060408201518160010160006101000a8154816001600160401b0302191690836001600160401b0316021790555060608201518160010160086101000a8154816001600160401b0302191690836001600160401b0316021790555060808201518160010160106101000a8154816001600160801b0302191690836001600160801b0316021790555050505b50505050505050505050505050565b60008062093a8080856040015161255e9190612d02565b6125689190612d28565b905060005b60ff8110156126475762093a80820191506000846001600160401b0316836001600160401b031611156125a2578492506125c0565b506001600160401b038216600090815260056020526040902054600f0b5b60408601516125cf9084612a20565b60070b86602001516125e19190612a72565b865187906125f0908390612b19565b600f0b9052506001600160401b038086169084160361260f5750612647565b80866020018181516126219190612d57565b600f0b905250506001600160401b038216604086015261264081612c5b565b905061256d565b5060008460000151600f0b1315610e4f57505090516001600160801b0316919050565b6001600160a01b0382166000908152600460205260408120548015610e4f576001600160a01b03841660009081526004602052604081206126ac600184612bea565b815481106126bc576126bc612bd4565b60009182526020918290206040805160a0810182526002939093029091018054600f81810b8552600160801b91829004900b94840194909452600101546001600160401b03808216928401839052600160401b8204166060840152929092046001600160801b0316608082015291506127359085612a20565b60070b81602001516127479190612a72565b81518290612756908390612b19565b600f90810b90915282516000910b13159050610bb35751600f0b949350505050565b60006020828403121561278a57600080fd5b81356001600160e01b03198116811461127157600080fd5b6000602082840312156127b457600080fd5b5035919050565b600060208083528351808285015260005b818110156127e8578581018301518582016040015282016127cc565b818111156127fa576000604083870101525b50601f01601f1916929092016040019392505050565b80356001600160a01b038116811461282757600080fd5b919050565b6000806040838503121561283f57600080fd5b61284883612810565b946020939093013593505050565b60006020828403121561286857600080fd5b61127182612810565b60008060006060848603121561288657600080fd5b61288f84612810565b925061289d60208501612810565b9150604084013590509250925092565b6000806000606084860312156128c257600080fd5b6128cb84612810565b95602085013595506040909401359392505050565b6000602082840312156128f257600080fd5b81356001600160401b038116811461127157600080fd5b6000806040838503121561291c57600080fd5b50508035926020909101359150565b60008060008060008060c0878903121561294457600080fd5b61294d87612810565b95506020870135945060408701359350606087013560ff8116811461297157600080fd5b9598949750929560808101359460a0909101359350915050565b6000806040838503121561299e57600080fd5b6129a783612810565b91506129b560208401612810565b90509250929050565b600181811c908216806129d257607f821691505b60208210810361111e57634e487b7160e01b600052602260045260246000fd5b634e487b7160e01b600052601160045260246000fd5b60008219821115612a1b57612a1b6129f2565b500190565b60008160070b8360070b6000811281677fffffffffffffff1901831281151615612a4c57612a4c6129f2565b81677fffffffffffffff018313811615612a6857612a686129f2565b5090039392505050565b600081600f0b83600f0b6f7fffffffffffffffffffffffffffffff600082136000841383830485118282161615612aab57612aab6129f2565b6f7fffffffffffffffffffffffffffffff196000851286820586128184161615612ad757612ad76129f2565b60008712925085820587128484161615612af357612af36129f2565b85850587128184161615612b0957612b096129f2565b5050509290910295945050505050565b600081600f0b83600f0b60008112816f7fffffffffffffffffffffffffffffff1901831281151615612b4d57612b4d6129f2565b816f7fffffffffffffffffffffffffffffff018313811615612a6857612a686129f2565b600060208284031215612b8357600080fd5b8151801515811461127157600080fd5b634e487b7160e01b600052601260045260246000fd5b60006001600160401b03808316818516808303821115612bcb57612bcb6129f2565b01949350505050565b634e487b7160e01b600052603260045260246000fd5b600082821015612bfc57612bfc6129f2565b500390565b8481526001600160401b03841660208201526080810160048410612c3557634e487b7160e01b600052602160045260246000fd5b60408201939093526060015292915050565b600082612c5657612c56612b93565b500490565b600060018201612c6d57612c6d6129f2565b5060010190565b60006001600160401b0383811690831681811015612c9457612c946129f2565b039392505050565b6000816000190483118215151615612cb657612cb66129f2565b500290565b600081600f0b83600f0b80612cd257612cd2612b93565b6f7fffffffffffffffffffffffffffffff19821460001982141615612cf957612cf96129f2565b90059392505050565b60006001600160401b0380841680612d1c57612d1c612b93565b92169190910492915050565b60006001600160401b0380831681851681830481118215151615612d4e57612d4e6129f2565b02949350505050565b600081600f0b83600f0b60008212826f7fffffffffffffffffffffffffffffff03821381151615612d8a57612d8a6129f2565b826f7fffffffffffffffffffffffffffffff19038212811615612daf57612daf6129f2565b5001939250505056fea264697066735822122015034e0f8ea6ccebc3b2df982cad5062d812bb027e71229ff493140270b8f20b64736f6c634300080f00336101006040523480156200001257600080fd5b50604051806040016040528060098152602001684175746f6e6f6c617360b81b815250604051806040016040528060048152602001634f4c415360e01b81525060128260009081620000659190620001fd565b506001620000748382620001fd565b5060ff81166080524660a0526200008a620000bc565b60c052505060068054336001600160a01b03199182168117909255600780549091169091179055504260e05262000347565b60007f8b73c3c69bb8fe3d512ecc4cf759cc79239f7b179b0ffacaa9a75d522b39400f6000604051620000f09190620002c9565b6040805191829003822060208301939093528101919091527fc89efdaa54c0f20c7adf612882df0950f5a951637e0307cdcb4c672f298b8bc660608201524660808201523060a082015260c00160405160208183030381529060405280519060200120905090565b634e487b7160e01b600052604160045260246000fd5b600181811c908216806200018357607f821691505b602082108103620001a457634e487b7160e01b600052602260045260246000fd5b50919050565b601f821115620001f857600081815260208120601f850160051c81016020861015620001d35750805b601f850160051c820191505b81811015620001f457828155600101620001df565b5050505b505050565b81516001600160401b0381111562000219576200021962000158565b62000231816200022a84546200016e565b84620001aa565b602080601f831160018114620002695760008415620002505750858301515b600019600386901b1c1916600185901b178555620001f4565b600085815260208120601f198616915b828110156200029a5788860151825594840194600190910190840162000279565b5085821015620002b95787850151600019600388901b60f8161c191681555b5050505050600190811b01905550565b6000808354620002d9816200016e565b60018281168015620002f457600181146200030a576200033b565b60ff19841687528215158302870194506200033b565b8760005260208060002060005b85811015620003325781548a82015290840190820162000317565b50505082870194505b50929695505050505050565b60805160a05160c05160e0516111b8620003886000396000818161035e01526109c4015260006106fa015260006106c50152600061027601526111b86000f3fe608060405234801561001057600080fd5b50600436106101ae5760003560e01c80636e79265c116100ee578063a457c2d711610097578063b091dab311610071578063b091dab3146103c1578063d505accf146103c9578063dd62ed3e146103dc578063f27c3bf61461040757600080fd5b8063a457c2d714610388578063a6f9dae11461039b578063a9059cbb146103ae57600080fd5b80638da5cb5b116100c85780638da5cb5b146103465780638e4a83791461035957806395d89b411461038057600080fd5b80636e79265c146102f357806370a08231146103065780637ecebe001461032657600080fd5b80632c4d4d181161015b578063395093511161013557806339509351146102b257806340c10f19146102c557806342966c68146102d85780635ff99e9d146102eb57600080fd5b80632c4d4d181461025c578063313ce567146102715780633644e515146102aa57600080fd5b80630a8ded1d1161018c5780630a8ded1d1461021f57806318160ddd1461024057806323b872dd1461024957600080fd5b806306fdde03146101b357806307546172146101d1578063095ea7b3146101fc575b600080fd5b6101bb610412565b6040516101c89190610e52565b60405180910390f35b6007546101e4906001600160a01b031681565b6040516001600160a01b0390911681526020016101c8565b61020f61020a366004610ec3565b6104a0565b60405190151581526020016101c8565b6102326b033b2e3c9fd0803ce800000081565b6040519081526020016101c8565b61023260025481565b61020f610257366004610eed565b61050c565b61026f61026a366004610f29565b6105fe565b005b6102987f000000000000000000000000000000000000000000000000000000000000000081565b60405160ff90911681526020016101c8565b6102326106c1565b61020f6102c0366004610ec3565b61071c565b61026f6102d3366004610ec3565b6107b1565b61026f6102e6366004610f4b565b61080d565b610232600281565b61020f610301366004610f4b565b61081a565b610232610314366004610f29565b60036020526000908152604090205481565b610232610334366004610f29565b60056020526000908152604090205481565b6006546101e4906001600160a01b031681565b6102327f000000000000000000000000000000000000000000000000000000000000000081565b6101bb61082f565b61020f610396366004610ec3565b61083c565b61026f6103a9366004610f29565b61087d565b61020f6103bc366004610ec3565b61093b565b6102326109b3565b61026f6103d7366004610f64565b610a6a565b6102326103ea366004610fd7565b600460209081526000928352604080842090915290825290205481565b6102326301e1338081565b6000805461041f9061100a565b80601f016020809104026020016040519081016040528092919081815260200182805461044b9061100a565b80156104985780601f1061046d57610100808354040283529160200191610498565b820191906000526020600020905b81548152906001019060200180831161047b57829003601f168201915b505050505081565b3360008181526004602090815260408083206001600160a01b038716808552925280832085905551919290917f8c5be1e5ebec7d5bd14f71427d1e84f3dd0314c0f7b2291e5b200ac8c7c3b925906104fb9086815260200190565b60405180910390a350600192915050565b6001600160a01b0383166000908152600460209081526040808320338452909152812054600019811461056857610543838261105a565b6001600160a01b03861660009081526004602090815260408083203384529091529020555b6001600160a01b0385166000908152600360205260408120805485929061059090849061105a565b90915550506001600160a01b03808516600081815260036020526040908190208054870190555190918716907fddf252ad1be2c89b69c2b068fc378daa952ba7f163c4a11628f55a4df523b3ef906105eb9087815260200190565b60405180910390a3506001949350505050565b6006546001600160a01b031633146106435760065460405163312d21ff60e11b81523360048201526001600160a01b0390911660248201526044015b60405180910390fd5b6001600160a01b03811661066a5760405163d92e233d60e01b815260040160405180910390fd5b6007805473ffffffffffffffffffffffffffffffffffffffff19166001600160a01b0383169081179091556040517fad0f299ec81a386c98df0ac27dae11dd020ed1b56963c53a7292e7a3a314539a90600090a250565b60007f000000000000000000000000000000000000000000000000000000000000000046146106f7576106f2610cd8565b905090565b507f000000000000000000000000000000000000000000000000000000000000000090565b3360009081526004602090815260408083206001600160a01b038616845290915281205461074a8382611071565b3360008181526004602090815260408083206001600160a01b038a16808552908352928190208590555184815293945090927f8c5be1e5ebec7d5bd14f71427d1e84f3dd0314c0f7b2291e5b200ac8c7c3b925910160405180910390a35060019392505050565b6007546001600160a01b031633146107f15760075460405163312d21ff60e11b81523360048201526001600160a01b03909116602482015260440161063a565b6107fa8161081a565b15610809576108098282610d72565b5050565b6108173382610dde565b50565b6000806108256109b3565b9092111592915050565b6001805461041f9061100a565b3360009081526004602090815260408083206001600160a01b038616845290915281205460001981146108735761074a838261105a565b5060019392505050565b6006546001600160a01b031633146108bd5760065460405163312d21ff60e11b81523360048201526001600160a01b03909116602482015260440161063a565b6001600160a01b0381166108e45760405163d92e233d60e01b815260040160405180910390fd5b6006805473ffffffffffffffffffffffffffffffffffffffff19166001600160a01b0383169081179091556040517f4ffd725fc4a22075e9ec71c59edf9c38cdeb588a91b24fc5b61388c5be41282b90600090a250565b3360009081526003602052604081208054839190839061095c90849061105a565b90915550506001600160a01b038316600081815260036020526040908190208054850190555133907fddf252ad1be2c89b69c2b068fc378daa952ba7f163c4a11628f55a4df523b3ef906104fb9086815260200190565b600254600090816301e133806109e97f00000000000000000000000000000000000000000000000000000000000000004261105a565b6109f39190611089565b90506b033b2e3c9fd0803ce80000006009821115610a5857610a1660098361105a565b915060005b82811015610a56576064610a306002846110ab565b610a3a9190611089565b610a449083611071565b9150610a4f816110ca565b9050610a1b565b505b610a62838261105a565b935050505090565b42841015610aba5760405162461bcd60e51b815260206004820152601760248201527f5045524d49545f444541444c494e455f45585049524544000000000000000000604482015260640161063a565b60006001610ac66106c1565b6001600160a01b038a811660008181526005602090815260409182902080546001810190915582517f6e71edae12b1b97f4d1f60370fef10105fa2faae0126114a169c64845d6126c98184015280840194909452938d166060840152608083018c905260a083019390935260c08083018b90528151808403909101815260e0830190915280519201919091207f19010000000000000000000000000000000000000000000000000000000000006101008301526101028201929092526101228101919091526101420160408051601f198184030181528282528051602091820120600084529083018083525260ff871690820152606081018590526080810184905260a0016020604051602081039080840390855afa158015610bed573d6000803e3d6000fd5b5050604051601f1901519150506001600160a01b03811615801590610c235750876001600160a01b0316816001600160a01b0316145b610c6f5760405162461bcd60e51b815260206004820152600e60248201527f494e56414c49445f5349474e4552000000000000000000000000000000000000604482015260640161063a565b6001600160a01b0390811660009081526004602090815260408083208a8516808552908352928190208990555188815291928a16917f8c5be1e5ebec7d5bd14f71427d1e84f3dd0314c0f7b2291e5b200ac8c7c3b925910160405180910390a350505050505050565b60007f8b73c3c69bb8fe3d512ecc4cf759cc79239f7b179b0ffacaa9a75d522b39400f6000604051610d0a91906110e3565b6040805191829003822060208301939093528101919091527fc89efdaa54c0f20c7adf612882df0950f5a951637e0307cdcb4c672f298b8bc660608201524660808201523060a082015260c00160405160208183030381529060405280519060200120905090565b8060026000828254610d849190611071565b90915550506001600160a01b0382166000818152600360209081526040808320805486019055518481527fddf252ad1be2c89b69c2b068fc378daa952ba7f163c4a11628f55a4df523b3ef91015b60405180910390a35050565b6001600160a01b03821660009081526003602052604081208054839290610e0690849061105a565b90915550506002805482900390556040518181526000906001600160a01b038416907fddf252ad1be2c89b69c2b068fc378daa952ba7f163c4a11628f55a4df523b3ef90602001610dd2565b600060208083528351808285015260005b81811015610e7f57858101830151858201604001528201610e63565b81811115610e91576000604083870101525b50601f01601f1916929092016040019392505050565b80356001600160a01b0381168114610ebe57600080fd5b919050565b60008060408385031215610ed657600080fd5b610edf83610ea7565b946020939093013593505050565b600080600060608486031215610f0257600080fd5b610f0b84610ea7565b9250610f1960208501610ea7565b9150604084013590509250925092565b600060208284031215610f3b57600080fd5b610f4482610ea7565b9392505050565b600060208284031215610f5d57600080fd5b5035919050565b600080600080600080600060e0888a031215610f7f57600080fd5b610f8888610ea7565b9650610f9660208901610ea7565b95506040880135945060608801359350608088013560ff81168114610fba57600080fd5b9699959850939692959460a0840135945060c09093013592915050565b60008060408385031215610fea57600080fd5b610ff383610ea7565b915061100160208401610ea7565b90509250929050565b600181811c9082168061101e57607f821691505b60208210810361103e57634e487b7160e01b600052602260045260246000fd5b50919050565b634e487b7160e01b600052601160045260246000fd5b60008282101561106c5761106c611044565b500390565b6000821982111561108457611084611044565b500190565b6000826110a657634e487b7160e01b600052601260045260246000fd5b500490565b60008160001904831182151516156110c5576110c5611044565b500290565b6000600182016110dc576110dc611044565b5060010190565b600080835481600182811c9150808316806110ff57607f831692505b6020808410820361111e57634e487b7160e01b86526022600452602486fd5b818015611132576001811461114757611174565b60ff1986168952841515850289019650611174565b60008a81526020902060005b8681101561116c5781548b820152908501908301611153565b505084890196505b50949897505050505050505056fea26469706673582212207a27e17a14fd85c89bf7fe7a34093c5c318812d5cb4f660bf33c133d212093ba64736f6c634300080f0033a26469706673582212200fa9fb97e696bb193d13eeaf4d4f181c7a24a11624fcc4ffb888efa8e9a28e4464736f6c634300080f0033",
  "linkReferences": {},
  "deployedLinkReferences": {}
}