{
  "_format": "hh-sol-artifact-1",
  "contractName": "FxGovernorTunnel",
  "sourceName": "contracts/bridges/FxGovernorTunnel.sol",
  "abi": [
    {
      "inputs": [
        {
          "internalType": "address",
          "name": "_fxChild",
          "type": "address"
        },
        {
          "internalType": "address",
          "name": "_rootGovernor",
          "type": "address"
        }
      ],
      "stateMutability": "nonpayable",
      "type": "constructor"
    },
    {
      "inputs": [
        {
          "internalType": "address",
          "name": "sender",
          "type": "address"
        },
        {
          "internalType": "address",
          "name": "fxChild",
          "type": "address"
        }
      ],
      "name": "FxChildOnly",
      "type": "error"
    },
    {
      "inputs": [
        {
          "internalType": "uint256",
          "name": "expected",
          "type": "uint256"
        },
        {
          "internalType": "uint256",
          "name": "provided",
          "type": "uint256"
        }
      ],
      "name": "IncorrectDataLength",
      "type": "error"
    },
    {
      "inputs": [
        {
          "internalType": "uint256",
          "name": "value",
          "type": "uint256"
        },
        {
          "internalType": "uint256",
          "name": "balance",
          "type": "uint256"
        }
      ],
      "name": "InsufficientBalance",
      "type": "error"
    },
    {
      "inputs": [
        {
          "internalType": "address",
          "name": "sender",
          "type": "address"
        },
        {
          "internalType": "address",
          "name": "rootGovernor",
          "type": "address"
        }
      ],
      "name": "RootGovernorOnly",
      "type": "error"
    },
    {
      "inputs": [
        {
          "internalType": "address",
          "name": "sender",
          "type": "address"
        },
        {
          "internalType": "address",
          "name": "instance",
          "type": "address"
        }
      ],
      "name": "SelfCallOnly",
      "type": "error"
    },
    {
      "inputs": [
        {
          "internalType": "address",
          "name": "target",
          "type": "address"
        },
        {
          "internalType": "uint256",
          "name": "value",
          "type": "uint256"
        },
        {
          "internalType": "bytes",
          "name": "payload",
          "type": "bytes"
        }
      ],
      "name": "TargetExecFailed",
      "type": "error"
    },
    {
      "inputs": [],
      "name": "ZeroAddress",
      "type": "error"
    },
    {
      "anonymous": false,
      "inputs": [
        {
          "indexed": true,
          "internalType": "address",
          "name": "sender",
          "type": "address"
        },
        {
          "indexed": false,
          "internalType": "uint256",
          "name": "value",
          "type": "uint256"
        }
      ],
      "name": "FundsReceived",
      "type": "event"
    },
    {
      "anonymous": false,
      "inputs": [
        {
          "indexed": true,
          "internalType": "uint256",
          "name": "stateId",
          "type": "uint256"
        },
        {
          "indexed": true,
          "internalType": "address",
          "name": "rootMessageSender",
          "type": "address"
        },
        {
          "indexed": false,
          "internalType": "bytes",
          "name": "data",
          "type": "bytes"
        }
      ],
      "name": "MessageReceived",
      "type": "event"
    },
    {
      "inputs": [],
      "name": "DEFAULT_DATA_LENGTH",
      "outputs": [
        {
          "internalType": "uint256",
          "name": "",
          "type": "uint256"
        }
      ],
      "stateMutability": "view",
      "type": "function"
    },
    {
      "inputs": [
        {
          "internalType": "address",
          "name": "newRootGovernor",
          "type": "address"
        }
      ],
      "name": "changeRootGovernor",
      "outputs": [],
      "stateMutability": "nonpayable",
      "type": "function"
    },
    {
      "inputs": [],
      "name": "fxChild",
      "outputs": [
        {
          "internalType": "address",
          "name": "",
          "type": "address"
        }
      ],
      "stateMutability": "view",
      "type": "function"
    },
    {
      "inputs": [
        {
          "internalType": "uint256",
          "name": "stateId",
          "type": "uint256"
        },
        {
          "internalType": "address",
          "name": "rootMessageSender",
          "type": "address"
        },
        {
          "internalType": "bytes",
          "name": "data",
          "type": "bytes"
        }
      ],
      "name": "processMessageFromRoot",
      "outputs": [],
      "stateMutability": "nonpayable",
      "type": "function"
    },
    {
      "inputs": [],
      "name": "rootGovernor",
      "outputs": [
        {
          "internalType": "address",
          "name": "",
          "type": "address"
        }
      ],
      "stateMutability": "view",
      "type": "function"
    },
    {
      "stateMutability": "payable",
      "type": "receive"
    }
  ],
  "bytecode": "0x60a060405234801561001057600080fd5b50604051610a98380380610a9883398101604081905261002f916100ae565b6001600160a01b038216158061004c57506001600160a01b038116155b1561006a5760405163d92e233d60e01b815260040160405180910390fd5b6001600160a01b03918216608052600080546001600160a01b031916919092161790556100e1565b80516001600160a01b03811681146100a957600080fd5b919050565b600080604083850312156100c157600080fd5b6100ca83610092565b91506100d860208401610092565b90509250929050565b60805161098f6101096000396000818160d30152818161028101526102e9015261098f6000f3fe60806040526004361061005e5760003560e01c806371cc865b1161004357806371cc865b1461011f5780639a7c4b711461014c578063f02fb7741461016c57600080fd5b80630c5043311461009f578063450d11f0146100c157600080fd5b3661009a5760405134815233907f8e47b87b0ef542cdfa1659c551d88bad38aa7f452d2bbb349ab7530dfec8be8f9060200160405180910390a2005b600080fd5b3480156100ab57600080fd5b506100bf6100ba366004610687565b61018f565b005b3480156100cd57600080fd5b506100f57f000000000000000000000000000000000000000000000000000000000000000081565b60405173ffffffffffffffffffffffffffffffffffffffff90911681526020015b60405180910390f35b34801561012b57600080fd5b506000546100f59073ffffffffffffffffffffffffffffffffffffffff1681565b34801561015857600080fd5b506100bf6101673660046106d8565b610269565b34801561017857600080fd5b50610181602481565b604051908152602001610116565b3330146101d5576040517f0dbc9bfc0000000000000000000000000000000000000000000000000000000081523360048201523060248201526044015b60405180910390fd5b73ffffffffffffffffffffffffffffffffffffffff8116610222576040517fd92e233d00000000000000000000000000000000000000000000000000000000815260040160405180910390fd5b600080547fffffffffffffffffffffffff00000000000000000000000000000000000000001673ffffffffffffffffffffffffffffffffffffffff92909216919091179055565b3373ffffffffffffffffffffffffffffffffffffffff7f00000000000000000000000000000000000000000000000000000000000000001614610316576040517f69f4f8b500000000000000000000000000000000000000000000000000000000815233600482015273ffffffffffffffffffffffffffffffffffffffff7f00000000000000000000000000000000000000000000000000000000000000001660248201526044016101cc565b60005473ffffffffffffffffffffffffffffffffffffffff83811691161461038e576000546040517f291b5cd400000000000000000000000000000000000000000000000000000000815273ffffffffffffffffffffffffffffffffffffffff808516600483015290911660248201526044016101cc565b805160248110156103d95781516040517f34c9027a0000000000000000000000000000000000000000000000000000000081526101cc91602491600401918252602082015260400190565b60005b81811015610608578281016014810151602082015160249283015192909301929091476bffffffffffffffffffffffff8316111561045c576040517fcf4791810000000000000000000000000000000000000000000000000000000081526bffffffffffffffffffffffff831660048201524760248201526044016101cc565b60008163ffffffff1667ffffffffffffffff81111561047d5761047d6106a9565b6040519080825280601f01601f1916602001820160405280156104a7576020820181803683370190505b50905060005b8263ffffffff1681101561053257876104c682886107f0565b815181106104d6576104d6610809565b602001015160f81c60f81b8282815181106104f3576104f3610809565b60200101907effffffffffffffffffffffffffffffffffffffffffffffffffffffffffffff1916908160001a90535061052b81610838565b90506104ad565b5061054363ffffffff8316866107f0565b945060008473ffffffffffffffffffffffffffffffffffffffff16846bffffffffffffffffffffffff168360405161057b9190610894565b60006040518083038185875af1925050503d80600081146105b8576040519150601f19603f3d011682016040523d82523d6000602084013e6105bd565b606091505b50509050806105fe578484836040517f6cfc79a50000000000000000000000000000000000000000000000000000000081526004016101cc939291906108fa565b50505050506103dc565b508273ffffffffffffffffffffffffffffffffffffffff16847fdcd84812414f678accd56176fc7ad950ca6853a4064e2397d3b01fdacb4a8bca846040516106509190610946565b60405180910390a350505050565b803573ffffffffffffffffffffffffffffffffffffffff8116811461068257600080fd5b919050565b60006020828403121561069957600080fd5b6106a28261065e565b9392505050565b7f4e487b7100000000000000000000000000000000000000000000000000000000600052604160045260246000fd5b6000806000606084860312156106ed57600080fd5b833592506106fd6020850161065e565b9150604084013567ffffffffffffffff8082111561071a57600080fd5b818601915086601f83011261072e57600080fd5b813581811115610740576107406106a9565b604051601f82017fffffffffffffffffffffffffffffffffffffffffffffffffffffffffffffffe0908116603f01168101908382118183101715610786576107866106a9565b8160405282815289602084870101111561079f57600080fd5b8260208601602083013760006020848301015280955050505050509250925092565b7f4e487b7100000000000000000000000000000000000000000000000000000000600052601160045260246000fd5b80820180821115610803576108036107c1565b92915050565b7f4e487b7100000000000000000000000000000000000000000000000000000000600052603260045260246000fd5b60007fffffffffffffffffffffffffffffffffffffffffffffffffffffffffffffffff8203610869576108696107c1565b5060010190565b60005b8381101561088b578181015183820152602001610873565b50506000910152565b600082516108a6818460208701610870565b9190910192915050565b600081518084526108c8816020860160208601610870565b601f017fffffffffffffffffffffffffffffffffffffffffffffffffffffffffffffffe0169290920160200192915050565b73ffffffffffffffffffffffffffffffffffffffff841681526bffffffffffffffffffffffff8316602082015260606040820152600061093d60608301846108b0565b95945050505050565b6020815260006106a260208301846108b056fea2646970667358221220611850dca10d397a00e382fe24d37c39e312bafeb57c85e6b0e032b8b798c76764736f6c63430008130033",
  "linkReferences": {},
  "deployedLinkReferences": {}
}