{
  "_format": "hh-sol-artifact-1",
  "contractName": "FxGovernorTunnel",
  "sourceName": "contracts/bridges/FxGovernorTunnel.sol",
  "abi": [
    {
      "inputs": [
        {
          "internalType": "address",
          "name": "_fxChild",
          "type": "address"
        },
        {
          "internalType": "address",
          "name": "_rootGovernor",
          "type": "address"
        }
      ],
      "stateMutability": "nonpayable",
      "type": "constructor"
    },
    {
      "inputs": [
        {
          "internalType": "address",
          "name": "sender",
          "type": "address"
        },
        {
          "internalType": "address",
          "name": "fxChild",
          "type": "address"
        }
      ],
      "name": "FxChildOnly",
      "type": "error"
    },
    {
      "inputs": [
        {
          "internalType": "uint256",
          "name": "expected",
          "type": "uint256"
        },
        {
          "internalType": "uint256",
          "name": "provided",
          "type": "uint256"
        }
      ],
      "name": "IncorrectDataLength",
      "type": "error"
    },
    {
      "inputs": [
        {
          "internalType": "address",
          "name": "sender",
          "type": "address"
        },
        {
          "internalType": "address",
          "name": "rootGovernor",
          "type": "address"
        }
      ],
      "name": "RootGovernorOnly",
      "type": "error"
    },
    {
      "inputs": [
        {
          "internalType": "address",
          "name": "sender",
          "type": "address"
        },
        {
          "internalType": "address",
          "name": "instance",
          "type": "address"
        }
      ],
      "name": "SelfCallOnly",
      "type": "error"
    },
    {
      "inputs": [
        {
          "internalType": "address",
          "name": "target",
          "type": "address"
        },
        {
          "internalType": "uint256",
          "name": "value",
          "type": "uint256"
        },
        {
          "internalType": "bytes",
          "name": "payload",
          "type": "bytes"
        }
      ],
      "name": "TargetExecFailed",
      "type": "error"
    },
    {
      "inputs": [],
      "name": "ZeroAddress",
      "type": "error"
    },
    {
      "anonymous": false,
      "inputs": [
        {
          "indexed": true,
          "internalType": "uint256",
          "name": "stateId",
          "type": "uint256"
        },
        {
          "indexed": true,
          "internalType": "address",
          "name": "rootMessageSender",
          "type": "address"
        },
        {
          "indexed": false,
          "internalType": "bytes",
          "name": "data",
          "type": "bytes"
        }
      ],
      "name": "MessageReceived",
      "type": "event"
    },
    {
      "inputs": [],
      "name": "DEFAULT_DATA_LENGTH",
      "outputs": [
        {
          "internalType": "uint256",
          "name": "",
          "type": "uint256"
        }
      ],
      "stateMutability": "view",
      "type": "function"
    },
    {
      "inputs": [
        {
          "internalType": "address",
          "name": "newRootGovernor",
          "type": "address"
        }
      ],
      "name": "changeRootGovernor",
      "outputs": [],
      "stateMutability": "nonpayable",
      "type": "function"
    },
    {
      "inputs": [],
      "name": "fxChild",
      "outputs": [
        {
          "internalType": "address",
          "name": "",
          "type": "address"
        }
      ],
      "stateMutability": "view",
      "type": "function"
    },
    {
      "inputs": [
        {
          "internalType": "uint256",
          "name": "stateId",
          "type": "uint256"
        },
        {
          "internalType": "address",
          "name": "rootMessageSender",
          "type": "address"
        },
        {
          "internalType": "bytes",
          "name": "data",
          "type": "bytes"
        }
      ],
      "name": "processMessageFromRoot",
      "outputs": [],
      "stateMutability": "nonpayable",
      "type": "function"
    },
    {
      "inputs": [],
      "name": "rootGovernor",
      "outputs": [
        {
          "internalType": "address",
          "name": "",
          "type": "address"
        }
      ],
      "stateMutability": "view",
      "type": "function"
    }
  ],
  "bytecode": "0x60a060405234801561001057600080fd5b506040516109c63803806109c683398101604081905261002f916100ae565b6001600160a01b038216158061004c57506001600160a01b038116155b1561006a5760405163d92e233d60e01b815260040160405180910390fd5b6001600160a01b03918216608052600080546001600160a01b031916919092161790556100e1565b80516001600160a01b03811681146100a957600080fd5b919050565b600080604083850312156100c157600080fd5b6100ca83610092565b91506100d860208401610092565b90509250929050565b6080516108bd6101096000396000818160860152818161020d015261027501526108bd6000f3fe608060405234801561001057600080fd5b50600436106100675760003560e01c806371cc865b1161005057806371cc865b146100d25780639a7c4b71146100f2578063f02fb7741461010557600080fd5b80630c5043311461006c578063450d11f014610081575b600080fd5b61007f61007a3660046105b5565b61011b565b005b6100a87f000000000000000000000000000000000000000000000000000000000000000081565b60405173ffffffffffffffffffffffffffffffffffffffff90911681526020015b60405180910390f35b6000546100a89073ffffffffffffffffffffffffffffffffffffffff1681565b61007f610100366004610606565b6101f5565b61010d602481565b6040519081526020016100c9565b333014610161576040517f0dbc9bfc0000000000000000000000000000000000000000000000000000000081523360048201523060248201526044015b60405180910390fd5b73ffffffffffffffffffffffffffffffffffffffff81166101ae576040517fd92e233d00000000000000000000000000000000000000000000000000000000815260040160405180910390fd5b600080547fffffffffffffffffffffffff00000000000000000000000000000000000000001673ffffffffffffffffffffffffffffffffffffffff92909216919091179055565b3373ffffffffffffffffffffffffffffffffffffffff7f000000000000000000000000000000000000000000000000000000000000000016146102a2576040517f69f4f8b500000000000000000000000000000000000000000000000000000000815233600482015273ffffffffffffffffffffffffffffffffffffffff7f0000000000000000000000000000000000000000000000000000000000000000166024820152604401610158565b60005473ffffffffffffffffffffffffffffffffffffffff83811691161461031a576000546040517f291b5cd400000000000000000000000000000000000000000000000000000000815273ffffffffffffffffffffffffffffffffffffffff80851660048301529091166024820152604401610158565b805160248110156103655781516040517f34c9027a00000000000000000000000000000000000000000000000000000000815261015891602491600401918252602082015260400190565b60005b81811015610536578281016014810151602082015160249283015192909301929091600063ffffffff821667ffffffffffffffff8111156103ab576103ab6105d7565b6040519080825280601f01601f1916602001820160405280156103d5576020820181803683370190505b50905060005b8263ffffffff1681101561046057876103f4828861071e565b8151811061040457610404610737565b602001015160f81c60f81b82828151811061042157610421610737565b60200101907effffffffffffffffffffffffffffffffffffffffffffffffffffffffffffff1916908160001a90535061045981610766565b90506103db565b5061047163ffffffff83168661071e565b945060008473ffffffffffffffffffffffffffffffffffffffff16846bffffffffffffffffffffffff16836040516104a991906107c2565b60006040518083038185875af1925050503d80600081146104e6576040519150601f19603f3d011682016040523d82523d6000602084013e6104eb565b606091505b505090508061052c578484836040517f6cfc79a500000000000000000000000000000000000000000000000000000000815260040161015893929190610828565b5050505050610368565b508273ffffffffffffffffffffffffffffffffffffffff16847fdcd84812414f678accd56176fc7ad950ca6853a4064e2397d3b01fdacb4a8bca8460405161057e9190610874565b60405180910390a350505050565b803573ffffffffffffffffffffffffffffffffffffffff811681146105b057600080fd5b919050565b6000602082840312156105c757600080fd5b6105d08261058c565b9392505050565b7f4e487b7100000000000000000000000000000000000000000000000000000000600052604160045260246000fd5b60008060006060848603121561061b57600080fd5b8335925061062b6020850161058c565b9150604084013567ffffffffffffffff8082111561064857600080fd5b818601915086601f83011261065c57600080fd5b81358181111561066e5761066e6105d7565b604051601f82017fffffffffffffffffffffffffffffffffffffffffffffffffffffffffffffffe0908116603f011681019083821181831017156106b4576106b46105d7565b816040528281528960208487010111156106cd57600080fd5b8260208601602083013760006020848301015280955050505050509250925092565b7f4e487b7100000000000000000000000000000000000000000000000000000000600052601160045260246000fd5b80820180821115610731576107316106ef565b92915050565b7f4e487b7100000000000000000000000000000000000000000000000000000000600052603260045260246000fd5b60007fffffffffffffffffffffffffffffffffffffffffffffffffffffffffffffffff8203610797576107976106ef565b5060010190565b60005b838110156107b95781810151838201526020016107a1565b50506000910152565b600082516107d481846020870161079e565b9190910192915050565b600081518084526107f681602086016020860161079e565b601f017fffffffffffffffffffffffffffffffffffffffffffffffffffffffffffffffe0169290920160200192915050565b73ffffffffffffffffffffffffffffffffffffffff841681526bffffffffffffffffffffffff8316602082015260606040820152600061086b60608301846107de565b95945050505050565b6020815260006105d060208301846107de56fea264697066735822122040c73e60f95cfaafbf2054979b450f912f36aafaeeffbca06ad4ee0d479d5ad764736f6c63430008130033",
  "linkReferences": {},
  "deployedLinkReferences": {}
}