{
  "_format": "hh-sol-artifact-1",
  "contractName": "Sale",
  "sourceName": "contracts/Sale.sol",
  "abi": [
    {
      "inputs": [
        {
          "internalType": "address",
          "name": "_olasToken",
          "type": "address"
        },
        {
          "internalType": "address",
          "name": "_veToken",
          "type": "address"
        },
        {
          "internalType": "address",
          "name": "_buToken",
          "type": "address"
        }
      ],
      "stateMutability": "nonpayable",
      "type": "constructor"
    },
    {
      "inputs": [
        {
          "internalType": "uint256",
          "name": "provided",
          "type": "uint256"
        },
        {
          "internalType": "uint256",
          "name": "expected",
          "type": "uint256"
        }
      ],
      "name": "InsufficientAllowance",
      "type": "error"
    },
    {
      "inputs": [
        {
          "internalType": "address",
          "name": "account",
          "type": "address"
        },
        {
          "internalType": "uint256",
          "name": "deadline",
          "type": "uint256"
        },
        {
          "internalType": "uint256",
          "name": "curTime",
          "type": "uint256"
        }
      ],
      "name": "LockExpired",
      "type": "error"
    },
    {
      "inputs": [
        {
          "internalType": "address",
          "name": "account",
          "type": "address"
        },
        {
          "internalType": "uint256",
          "name": "deadline",
          "type": "uint256"
        },
        {
          "internalType": "uint256",
          "name": "curTime",
          "type": "uint256"
        }
      ],
      "name": "LockNotExpired",
      "type": "error"
    },
    {
      "inputs": [
        {
          "internalType": "address",
          "name": "account",
          "type": "address"
        },
        {
          "internalType": "uint256",
          "name": "amount",
          "type": "uint256"
        }
      ],
      "name": "LockedValueNotZero",
      "type": "error"
    },
    {
      "inputs": [
        {
          "internalType": "address",
          "name": "account",
          "type": "address"
        },
        {
          "internalType": "uint256",
          "name": "maxUnlockTime",
          "type": "uint256"
        },
        {
          "internalType": "uint256",
          "name": "providedUnlockTime",
          "type": "uint256"
        }
      ],
      "name": "MaxUnlockTimeReached",
      "type": "error"
    },
    {
      "inputs": [
        {
          "internalType": "address",
          "name": "account",
          "type": "address"
        }
      ],
      "name": "NoValueLocked",
      "type": "error"
    },
    {
      "inputs": [
        {
          "internalType": "address",
          "name": "account",
          "type": "address"
        }
      ],
      "name": "NonDelegatable",
      "type": "error"
    },
    {
      "inputs": [
        {
          "internalType": "address",
          "name": "account",
          "type": "address"
        }
      ],
      "name": "NonTransferable",
      "type": "error"
    },
    {
      "inputs": [],
      "name": "NonZeroValue",
      "type": "error"
    },
    {
      "inputs": [
        {
          "internalType": "uint256",
          "name": "provided",
          "type": "uint256"
        },
        {
          "internalType": "uint256",
          "name": "max",
          "type": "uint256"
        }
      ],
      "name": "Overflow",
      "type": "error"
    },
    {
      "inputs": [
        {
          "internalType": "address",
          "name": "sender",
          "type": "address"
        },
        {
          "internalType": "address",
          "name": "owner",
          "type": "address"
        }
      ],
      "name": "OwnerOnly",
      "type": "error"
    },
    {
      "inputs": [
        {
          "internalType": "address",
          "name": "account",
          "type": "address"
        },
        {
          "internalType": "uint256",
          "name": "minUnlockTime",
          "type": "uint256"
        },
        {
          "internalType": "uint256",
          "name": "providedUnlockTime",
          "type": "uint256"
        }
      ],
      "name": "UnlockTimeIncorrect",
      "type": "error"
    },
    {
      "inputs": [
        {
          "internalType": "uint256",
          "name": "numValues1",
          "type": "uint256"
        },
        {
          "internalType": "uint256",
          "name": "numValues2",
          "type": "uint256"
        }
      ],
      "name": "WrongArrayLength",
      "type": "error"
    },
    {
      "inputs": [
        {
          "internalType": "uint256",
          "name": "providedBlockNumber",
          "type": "uint256"
        },
        {
          "internalType": "uint256",
          "name": "actualBlockNumber",
          "type": "uint256"
        }
      ],
      "name": "WrongBlockNumber",
      "type": "error"
    },
    {
      "inputs": [],
      "name": "ZeroAddress",
      "type": "error"
    },
    {
      "inputs": [],
      "name": "ZeroValue",
      "type": "error"
    },
    {
      "anonymous": false,
      "inputs": [
        {
          "indexed": true,
          "internalType": "address",
          "name": "account",
          "type": "address"
        },
        {
          "indexed": false,
          "internalType": "uint256",
          "name": "amount",
          "type": "uint256"
        },
        {
          "indexed": false,
          "internalType": "uint256",
          "name": "numSteps",
          "type": "uint256"
        }
      ],
      "name": "ClaimBU",
      "type": "event"
    },
    {
      "anonymous": false,
      "inputs": [
        {
          "indexed": true,
          "internalType": "address",
          "name": "account",
          "type": "address"
        },
        {
          "indexed": false,
          "internalType": "uint256",
          "name": "amount",
          "type": "uint256"
        },
        {
          "indexed": false,
          "internalType": "uint256",
          "name": "timePeriod",
          "type": "uint256"
        }
      ],
      "name": "ClaimVE",
      "type": "event"
    },
    {
      "anonymous": false,
      "inputs": [
        {
          "indexed": true,
          "internalType": "address",
          "name": "account",
          "type": "address"
        },
        {
          "indexed": false,
          "internalType": "uint256",
          "name": "amount",
          "type": "uint256"
        },
        {
          "indexed": false,
          "internalType": "uint256",
          "name": "numSteps",
          "type": "uint256"
        }
      ],
      "name": "CreateBU",
      "type": "event"
    },
    {
      "anonymous": false,
      "inputs": [
        {
          "indexed": true,
          "internalType": "address",
          "name": "account",
          "type": "address"
        },
        {
          "indexed": false,
          "internalType": "uint256",
          "name": "amount",
          "type": "uint256"
        },
        {
          "indexed": false,
          "internalType": "uint256",
          "name": "timePeriod",
          "type": "uint256"
        }
      ],
      "name": "CreateVE",
      "type": "event"
    },
    {
      "anonymous": false,
      "inputs": [
        {
          "indexed": true,
          "internalType": "address",
          "name": "owner",
          "type": "address"
        }
      ],
      "name": "OwnerUpdated",
      "type": "event"
    },
    {
      "inputs": [],
      "name": "balance",
      "outputs": [
        {
          "internalType": "uint256",
          "name": "",
          "type": "uint256"
        }
      ],
      "stateMutability": "view",
      "type": "function"
    },
    {
      "inputs": [],
      "name": "buToken",
      "outputs": [
        {
          "internalType": "address",
          "name": "",
          "type": "address"
        }
      ],
      "stateMutability": "view",
      "type": "function"
    },
    {
      "inputs": [
        {
          "internalType": "address",
          "name": "newOwner",
          "type": "address"
        }
      ],
      "name": "changeOwner",
      "outputs": [],
      "stateMutability": "nonpayable",
      "type": "function"
    },
    {
      "inputs": [],
      "name": "claim",
      "outputs": [],
      "stateMutability": "nonpayable",
      "type": "function"
    },
    {
      "inputs": [
        {
          "internalType": "address",
          "name": "account",
          "type": "address"
        }
      ],
      "name": "claimableBalances",
      "outputs": [
        {
          "internalType": "uint256",
          "name": "veBalance",
          "type": "uint256"
        },
        {
          "internalType": "uint256",
          "name": "buBalance",
          "type": "uint256"
        }
      ],
      "stateMutability": "view",
      "type": "function"
    },
    {
      "inputs": [
        {
          "internalType": "address[]",
          "name": "veAccounts",
          "type": "address[]"
        },
        {
          "internalType": "uint256[]",
          "name": "veAmounts",
          "type": "uint256[]"
        },
        {
          "internalType": "uint256[]",
          "name": "veLockTimes",
          "type": "uint256[]"
        },
        {
          "internalType": "address[]",
          "name": "buAccounts",
          "type": "address[]"
        },
        {
          "internalType": "uint256[]",
          "name": "buAmounts",
          "type": "uint256[]"
        },
        {
          "internalType": "uint256[]",
          "name": "buNumSteps",
          "type": "uint256[]"
        }
      ],
      "name": "createBalancesFor",
      "outputs": [],
      "stateMutability": "nonpayable",
      "type": "function"
    },
    {
      "inputs": [
        {
          "internalType": "address",
          "name": "",
          "type": "address"
        }
      ],
      "name": "mapBU",
      "outputs": [
        {
          "internalType": "uint128",
          "name": "amount",
          "type": "uint128"
        },
        {
          "internalType": "uint64",
          "name": "period",
          "type": "uint64"
        }
      ],
      "stateMutability": "view",
      "type": "function"
    },
    {
      "inputs": [
        {
          "internalType": "address",
          "name": "",
          "type": "address"
        }
      ],
      "name": "mapVE",
      "outputs": [
        {
          "internalType": "uint128",
          "name": "amount",
          "type": "uint128"
        },
        {
          "internalType": "uint64",
          "name": "period",
          "type": "uint64"
        }
      ],
      "stateMutability": "view",
      "type": "function"
    },
    {
      "inputs": [],
      "name": "olasToken",
      "outputs": [
        {
          "internalType": "address",
          "name": "",
          "type": "address"
        }
      ],
      "stateMutability": "view",
      "type": "function"
    },
    {
      "inputs": [],
      "name": "owner",
      "outputs": [
        {
          "internalType": "address",
          "name": "",
          "type": "address"
        }
      ],
      "stateMutability": "view",
      "type": "function"
    },
    {
      "inputs": [],
      "name": "veToken",
      "outputs": [
        {
          "internalType": "address",
          "name": "",
          "type": "address"
        }
      ],
      "stateMutability": "view",
      "type": "function"
    }
  ],
  "bytecode": "0x60e06040523480156200001157600080fd5b5060405162001b0538038062001b05833981016040819052620000349162000170565b6001600160a01b03838116608081905283821660a081905291831660c052600180546001600160a01b0319163317905560405163095ea7b360e01b8152600481019290925260001960248301529063095ea7b3906044016020604051808303816000875af1158015620000ab573d6000803e3d6000fd5b505050506040513d601f19601f82011682018060405250810190620000d19190620001ba565b5060405163095ea7b360e01b81526001600160a01b038281166004830152600019602483015284169063095ea7b3906044016020604051808303816000875af115801562000123573d6000803e3d6000fd5b505050506040513d601f19601f82011682018060405250810190620001499190620001ba565b50505050620001e5565b80516001600160a01b03811681146200016b57600080fd5b919050565b6000806000606084860312156200018657600080fd5b620001918462000153565b9250620001a16020850162000153565b9150620001b16040850162000153565b90509250925092565b600060208284031215620001cd57600080fd5b81518015158114620001de57600080fd5b9392505050565b60805160a05160c0516118dc62000229600039600081816102f5015261129601526000818160e8015261106c0152600081816102ce0152610eb901526118dc6000f3fe608060405234801561001057600080fd5b50600436106100c95760003560e01c80639f3aa93c11610081578063b69ef8a81161005b578063b69ef8a8146102b2578063ece4b878146102c9578063efcd60b7146102f057600080fd5b80639f3aa93c146101ca578063a6f9dae11461024d578063b4f395371461026057600080fd5b80634e71d92d116100b25780634e71d92d1461013457806368c8278f1461013c5780638da5cb5b146101aa57600080fd5b80633a1f3faf146100ce5780633b92eb23146100e3575b600080fd5b6100e16100dc3660046116c8565b610317565b005b61010a7f000000000000000000000000000000000000000000000000000000000000000081565b60405173ffffffffffffffffffffffffffffffffffffffff90911681526020015b60405180910390f35b6100e1610fac565b61019561014a3660046117bd565b73ffffffffffffffffffffffffffffffffffffffff166000908152600260209081526040808320546003909252909120546fffffffffffffffffffffffffffffffff91821692911690565b6040805192835260208301919091520161012b565b60015461010a9073ffffffffffffffffffffffffffffffffffffffff1681565b61021c6101d83660046117bd565b6003602052600090815260409020546fffffffffffffffffffffffffffffffff811690700100000000000000000000000000000000900467ffffffffffffffff1682565b604080516fffffffffffffffffffffffffffffffff909316835267ffffffffffffffff90911660208301520161012b565b6100e161025b3660046117bd565b611401565b61021c61026e3660046117bd565b6002602052600090815260409020546fffffffffffffffffffffffffffffffff811690700100000000000000000000000000000000900467ffffffffffffffff1682565b6102bb60005481565b60405190815260200161012b565b61010a7f000000000000000000000000000000000000000000000000000000000000000081565b61010a7f000000000000000000000000000000000000000000000000000000000000000081565b60015473ffffffffffffffffffffffffffffffffffffffff16331461038f576001546040517fa43d6ada00000000000000000000000000000000000000000000000000000000815233600482015273ffffffffffffffffffffffffffffffffffffffff90911660248201526044015b60405180910390fd5b845186511415806103a257508351865114155b156103e657855185516040517f8151c11000000000000000000000000000000000000000000000000000000000815260048101929092526024820152604401610386565b815183511415806103f957508051835114155b1561043d57825182516040517f8151c11000000000000000000000000000000000000000000000000000000000815260048101929092526024820152604401610386565b60008060005b8851811015610a0057600073ffffffffffffffffffffffffffffffffffffffff16898281518110610476576104766117df565b602002602001015173ffffffffffffffffffffffffffffffffffffffff16036104cb576040517fd92e233d00000000000000000000000000000000000000000000000000000000815260040160405180910390fd5b8781815181106104dd576104dd6117df565b602002602001015160000361051e576040517f7c946ed700000000000000000000000000000000000000000000000000000000815260040160405180910390fd5b6fffffffffffffffffffffffffffffffff8016888281518110610543576105436117df565b602002602001015111156105cb57878181518110610563576105636117df565b60200260200101516fffffffffffffffffffffffffffffffff6040517f7ae596850000000000000000000000000000000000000000000000000000000081526004016103869291909182526fffffffffffffffffffffffffffffffff16602082015260400190565b6301e133808782815181106105e2576105e26117df565b6020026020010151101561068457888181518110610602576106026117df565b60200260200101516301e13380888381518110610621576106216117df565b60209081029190910101516040517f311d1bf900000000000000000000000000000000000000000000000000000000815273ffffffffffffffffffffffffffffffffffffffff909316600484015260248301919091526044820152606401610386565b630784ce0087828151811061069b5761069b6117df565b6020026020010151111561073d578881815181106106bb576106bb6117df565b6020026020010151630784ce008883815181106106da576106da6117df565b60209081029190910101516040517fc172987b00000000000000000000000000000000000000000000000000000000815273ffffffffffffffffffffffffffffffffffffffff909316600484015260248301919091526044820152606401610386565b6000600260008b8481518110610755576107556117df565b60209081029190910181015173ffffffffffffffffffffffffffffffffffffffff1682528181019290925260409081016000208151808301909252546fffffffffffffffffffffffffffffffff811680835270010000000000000000000000000000000090910467ffffffffffffffff1692820192909252915015610806576040517fe320176b00000000000000000000000000000000000000000000000000000000815260040160405180910390fd5b888281518110610818576108186117df565b60200260200101518461082b919061183d565b935088828151811061083f5761083f6117df565b60209081029190910101516fffffffffffffffffffffffffffffffff1681528751889083908110610872576108726117df565b6020026020010151816020019067ffffffffffffffff16908167ffffffffffffffff168152505080600260008c85815181106108b0576108b06117df565b60209081029190910181015173ffffffffffffffffffffffffffffffffffffffff1682528181019290925260400160002082518154939092015167ffffffffffffffff16700100000000000000000000000000000000027fffffffffffffffff0000000000000000000000000000000000000000000000009093166fffffffffffffffffffffffffffffffff9092169190911791909117905589518a908390811061095d5761095d6117df565b602002602001015173ffffffffffffffffffffffffffffffffffffffff167fff8aa13114809052599c210acd2b83c07770bd5a7ec4fcf0d61051f7c994fa448a84815181106109ae576109ae6117df565b60200260200101518a85815181106109c8576109c86117df565b60200260200101516040516109e7929190918252602082015260400190565b60405180910390a2506109f981611855565b9050610443565b5060005b8551811015610e8757600073ffffffffffffffffffffffffffffffffffffffff16868281518110610a3757610a376117df565b602002602001015173ffffffffffffffffffffffffffffffffffffffff1603610a8c576040517fd92e233d00000000000000000000000000000000000000000000000000000000815260040160405180910390fd5b848181518110610a9e57610a9e6117df565b602002602001015160001480610acd5750838181518110610ac157610ac16117df565b60200260200101516000145b15610b04576040517f7c946ed700000000000000000000000000000000000000000000000000000000815260040160405180910390fd5b6fffffffffffffffffffffffffffffffff8016858281518110610b2957610b296117df565b60200260200101511115610b4957848181518110610563576105636117df565b600a848281518110610b5d57610b5d6117df565b60200260200101511115610bc457838181518110610b7d57610b7d6117df565b6020026020010151600a6040517f7ae59685000000000000000000000000000000000000000000000000000000008152600401610386929190918252602082015260400190565b600060036000888481518110610bdc57610bdc6117df565b60209081029190910181015173ffffffffffffffffffffffffffffffffffffffff1682528181019290925260409081016000208151808301909252546fffffffffffffffffffffffffffffffff811680835270010000000000000000000000000000000090910467ffffffffffffffff1692820192909252915015610c8d576040517fe320176b00000000000000000000000000000000000000000000000000000000815260040160405180910390fd5b858281518110610c9f57610c9f6117df565b602002602001015183610cb2919061183d565b9250858281518110610cc657610cc66117df565b60209081029190910101516fffffffffffffffffffffffffffffffff1681528451859083908110610cf957610cf96117df565b6020026020010151816020019067ffffffffffffffff16908167ffffffffffffffff16815250508060036000898581518110610d3757610d376117df565b60209081029190910181015173ffffffffffffffffffffffffffffffffffffffff1682528181019290925260400160002082518154939092015167ffffffffffffffff16700100000000000000000000000000000000027fffffffffffffffff0000000000000000000000000000000000000000000000009093166fffffffffffffffffffffffffffffffff909216919091179190911790558651879083908110610de457610de46117df565b602002602001015173ffffffffffffffffffffffffffffffffffffffff167fa8955cece96fc686cc436e787d1a363e3f4199a96ef23c06014589407fbc5a3b878481518110610e3557610e356117df565b6020026020010151878581518110610e4f57610e4f6117df565b6020026020010151604051610e6e929190918252602082015260400190565b60405180910390a250610e8081611855565b9050610a04565b506040517f70a082310000000000000000000000000000000000000000000000000000000081523060048201526000907f000000000000000000000000000000000000000000000000000000000000000073ffffffffffffffffffffffffffffffffffffffff16906370a08231906024016020604051808303816000875af1158015610f17573d6000803e3d6000fd5b505050506040513d601f19601f82011682018060405250810190610f3b919061188d565b905060008383600054610f4e919061183d565b610f58919061183d565b905080821015610f9e576040517f2a1b2dd80000000000000000000000000000000000000000000000000000000081526004810182905260248101839052604401610386565b600055505050505050505050565b3360009081526002602090815260408083208151808301909252546fffffffffffffffffffffffffffffffff811680835270010000000000000000000000000000000090910467ffffffffffffffff169282019290925290156111a557805160208201516040517f29b55ca70000000000000000000000000000000000000000000000000000000081523360048201526fffffffffffffffffffffffffffffffff9092166024830181905267ffffffffffffffff909116604483015292507f000000000000000000000000000000000000000000000000000000000000000073ffffffffffffffffffffffffffffffffffffffff16906329b55ca790606401600060405180830381600087803b1580156110c557600080fd5b505af11580156110d9573d6000803e3d6000fd5b5050604080518082018252600080825260208083018281523380845260028352928590209351845491516fffffffffffffffffffffffffffffffff9182167fffffffffffffffff0000000000000000000000000000000000000000000000009093169290921770010000000000000000000000000000000067ffffffffffffffff9384160217909455875188830151865191909516815293169083015293507f08ab073eec60a41a05a6fd61f76c50a8df6f5910f4580e2aa2db8f25f60862a792500160405180910390a25b50336000908152600360209081526040918290208251808401909352546fffffffffffffffffffffffffffffffff811680845270010000000000000000000000000000000090910467ffffffffffffffff1691830191909152156113ba578051611221906fffffffffffffffffffffffffffffffff168361183d565b815160208301516040517f29b55ca70000000000000000000000000000000000000000000000000000000081523360048201526fffffffffffffffffffffffffffffffff909216602483015267ffffffffffffffff16604482015290925073ffffffffffffffffffffffffffffffffffffffff7f000000000000000000000000000000000000000000000000000000000000000016906329b55ca790606401600060405180830381600087803b1580156112da57600080fd5b505af11580156112ee573d6000803e3d6000fd5b5050604080518082018252600080825260208083018281523380845260038352928590209351845491516fffffffffffffffffffffffffffffffff9182167fffffffffffffffff0000000000000000000000000000000000000000000000009093169290921770010000000000000000000000000000000067ffffffffffffffff9384160217909455875188830151865191909516815293169083015293507f8bbad19e47f5ad79b41ed2b7c4edc7e8dc4b46fd6fec9c551116f9e17a1cd4e392500160405180910390a25b816000036113f4576040517f7c946ed700000000000000000000000000000000000000000000000000000000815260040160405180910390fd5b5060008054919091039055565b73ffffffffffffffffffffffffffffffffffffffff811661144e576040517fd92e233d00000000000000000000000000000000000000000000000000000000815260040160405180910390fd5b60015473ffffffffffffffffffffffffffffffffffffffff1633146114c1576001546040517fa43d6ada00000000000000000000000000000000000000000000000000000000815233600482015273ffffffffffffffffffffffffffffffffffffffff9091166024820152604401610386565b600180547fffffffffffffffffffffffff00000000000000000000000000000000000000001673ffffffffffffffffffffffffffffffffffffffff83169081179091556040517f4ffd725fc4a22075e9ec71c59edf9c38cdeb588a91b24fc5b61388c5be41282b90600090a250565b7f4e487b7100000000000000000000000000000000000000000000000000000000600052604160045260246000fd5b604051601f82017fffffffffffffffffffffffffffffffffffffffffffffffffffffffffffffffe016810167ffffffffffffffff811182821017156115a6576115a6611530565b604052919050565b600067ffffffffffffffff8211156115c8576115c8611530565b5060051b60200190565b803573ffffffffffffffffffffffffffffffffffffffff811681146115f657600080fd5b919050565b600082601f83011261160c57600080fd5b8135602061162161161c836115ae565b61155f565b82815260059290921b8401810191818101908684111561164057600080fd5b8286015b8481101561166257611655816115d2565b8352918301918301611644565b509695505050505050565b600082601f83011261167e57600080fd5b8135602061168e61161c836115ae565b82815260059290921b840181019181810190868411156116ad57600080fd5b8286015b8481101561166257803583529183019183016116b1565b60008060008060008060c087890312156116e157600080fd5b863567ffffffffffffffff808211156116f957600080fd5b6117058a838b016115fb565b9750602089013591508082111561171b57600080fd5b6117278a838b0161166d565b9650604089013591508082111561173d57600080fd5b6117498a838b0161166d565b9550606089013591508082111561175f57600080fd5b61176b8a838b016115fb565b9450608089013591508082111561178157600080fd5b61178d8a838b0161166d565b935060a08901359150808211156117a357600080fd5b506117b089828a0161166d565b9150509295509295509295565b6000602082840312156117cf57600080fd5b6117d8826115d2565b9392505050565b7f4e487b7100000000000000000000000000000000000000000000000000000000600052603260045260246000fd5b7f4e487b7100000000000000000000000000000000000000000000000000000000600052601160045260246000fd5b600082198211156118505761185061180e565b500190565b60007fffffffffffffffffffffffffffffffffffffffffffffffffffffffffffffffff82036118865761188661180e565b5060010190565b60006020828403121561189f57600080fd5b505191905056fea26469706673582212202009dd47569e63cad744a343ae6ede117d1e0202399326dd5554e93b032d5eb164736f6c634300080f0033",
  "linkReferences": {},
  "deployedLinkReferences": {}
}