{
  "_format": "hh-sol-artifact-1",
  "contractName": "wveOLAS",
  "sourceName": "contracts/wveOLAS.sol",
  "abi": [
    {
      "inputs": [
        {
          "internalType": "address",
          "name": "_ve",
          "type": "address"
        }
      ],
      "stateMutability": "nonpayable",
      "type": "constructor"
    },
    {
      "inputs": [
        {
          "internalType": "address",
          "name": "ve",
          "type": "address"
        }
      ],
      "name": "ImplementedIn",
      "type": "error"
    },
    {
      "inputs": [
        {
          "internalType": "uint256",
          "name": "minTimeStamp",
          "type": "uint256"
        },
        {
          "internalType": "uint256",
          "name": "providedTimeStamp",
          "type": "uint256"
        }
      ],
      "name": "WrongTimestamp",
      "type": "error"
    },
    {
      "inputs": [],
      "name": "ZeroVEOLASAddress",
      "type": "error"
    },
    {
      "stateMutability": "nonpayable",
      "type": "fallback"
    },
    {
      "inputs": [
        {
          "internalType": "address",
          "name": "owner",
          "type": "address"
        },
        {
          "internalType": "address",
          "name": "spender",
          "type": "address"
        }
      ],
      "name": "allowance",
      "outputs": [
        {
          "internalType": "uint256",
          "name": "",
          "type": "uint256"
        }
      ],
      "stateMutability": "view",
      "type": "function"
    },
    {
      "inputs": [
        {
          "internalType": "address",
          "name": "account",
          "type": "address"
        }
      ],
      "name": "balanceOf",
      "outputs": [
        {
          "internalType": "uint256",
          "name": "balance",
          "type": "uint256"
        }
      ],
      "stateMutability": "view",
      "type": "function"
    },
    {
      "inputs": [
        {
          "internalType": "address",
          "name": "account",
          "type": "address"
        },
        {
          "internalType": "uint256",
          "name": "blockNumber",
          "type": "uint256"
        }
      ],
      "name": "balanceOfAt",
      "outputs": [
        {
          "internalType": "uint256",
          "name": "balance",
          "type": "uint256"
        }
      ],
      "stateMutability": "view",
      "type": "function"
    },
    {
      "inputs": [
        {
          "internalType": "address",
          "name": "account",
          "type": "address"
        }
      ],
      "name": "delegates",
      "outputs": [
        {
          "internalType": "address",
          "name": "",
          "type": "address"
        }
      ],
      "stateMutability": "view",
      "type": "function"
    },
    {
      "inputs": [
        {
          "internalType": "address",
          "name": "account",
          "type": "address"
        }
      ],
      "name": "getLastUserPoint",
      "outputs": [
        {
          "components": [
            {
              "internalType": "int128",
              "name": "bias",
              "type": "int128"
            },
            {
              "internalType": "int128",
              "name": "slope",
              "type": "int128"
            },
            {
              "internalType": "uint64",
              "name": "ts",
              "type": "uint64"
            },
            {
              "internalType": "uint64",
              "name": "blockNumber",
              "type": "uint64"
            },
            {
              "internalType": "uint128",
              "name": "balance",
              "type": "uint128"
            }
          ],
          "internalType": "struct PointVoting",
          "name": "pv",
          "type": "tuple"
        }
      ],
      "stateMutability": "view",
      "type": "function"
    },
    {
      "inputs": [
        {
          "internalType": "address",
          "name": "account",
          "type": "address"
        }
      ],
      "name": "getNumUserPoints",
      "outputs": [
        {
          "internalType": "uint256",
          "name": "userNumPoints",
          "type": "uint256"
        }
      ],
      "stateMutability": "view",
      "type": "function"
    },
    {
      "inputs": [
        {
          "internalType": "uint256",
          "name": "blockNumber",
          "type": "uint256"
        }
      ],
      "name": "getPastTotalSupply",
      "outputs": [
        {
          "internalType": "uint256",
          "name": "vPower",
          "type": "uint256"
        }
      ],
      "stateMutability": "view",
      "type": "function"
    },
    {
      "inputs": [
        {
          "internalType": "address",
          "name": "account",
          "type": "address"
        },
        {
          "internalType": "uint256",
          "name": "blockNumber",
          "type": "uint256"
        }
      ],
      "name": "getPastVotes",
      "outputs": [
        {
          "internalType": "uint256",
          "name": "balance",
          "type": "uint256"
        }
      ],
      "stateMutability": "view",
      "type": "function"
    },
    {
      "inputs": [
        {
          "internalType": "address",
          "name": "account",
          "type": "address"
        },
        {
          "internalType": "uint256",
          "name": "idx",
          "type": "uint256"
        }
      ],
      "name": "getUserPoint",
      "outputs": [
        {
          "components": [
            {
              "internalType": "int128",
              "name": "bias",
              "type": "int128"
            },
            {
              "internalType": "int128",
              "name": "slope",
              "type": "int128"
            },
            {
              "internalType": "uint64",
              "name": "ts",
              "type": "uint64"
            },
            {
              "internalType": "uint64",
              "name": "blockNumber",
              "type": "uint64"
            },
            {
              "internalType": "uint128",
              "name": "balance",
              "type": "uint128"
            }
          ],
          "internalType": "struct PointVoting",
          "name": "uPoint",
          "type": "tuple"
        }
      ],
      "stateMutability": "view",
      "type": "function"
    },
    {
      "inputs": [
        {
          "internalType": "address",
          "name": "account",
          "type": "address"
        }
      ],
      "name": "getVotes",
      "outputs": [
        {
          "internalType": "uint256",
          "name": "balance",
          "type": "uint256"
        }
      ],
      "stateMutability": "view",
      "type": "function"
    },
    {
      "inputs": [
        {
          "internalType": "address",
          "name": "account",
          "type": "address"
        }
      ],
      "name": "lockedEnd",
      "outputs": [
        {
          "internalType": "uint256",
          "name": "unlockTime",
          "type": "uint256"
        }
      ],
      "stateMutability": "view",
      "type": "function"
    },
    {
      "inputs": [
        {
          "internalType": "bytes4",
          "name": "interfaceId",
          "type": "bytes4"
        }
      ],
      "name": "supportsInterface",
      "outputs": [
        {
          "internalType": "bool",
          "name": "",
          "type": "bool"
        }
      ],
      "stateMutability": "view",
      "type": "function"
    },
    {
      "inputs": [],
      "name": "totalSupply",
      "outputs": [
        {
          "internalType": "uint256",
          "name": "supply",
          "type": "uint256"
        }
      ],
      "stateMutability": "view",
      "type": "function"
    },
    {
      "inputs": [
        {
          "internalType": "uint256",
          "name": "blockNumber",
          "type": "uint256"
        }
      ],
      "name": "totalSupplyAt",
      "outputs": [
        {
          "internalType": "uint256",
          "name": "supplyAt",
          "type": "uint256"
        }
      ],
      "stateMutability": "view",
      "type": "function"
    },
    {
      "inputs": [],
      "name": "totalSupplyLocked",
      "outputs": [
        {
          "internalType": "uint256",
          "name": "vPower",
          "type": "uint256"
        }
      ],
      "stateMutability": "view",
      "type": "function"
    },
    {
      "inputs": [
        {
          "internalType": "uint256",
          "name": "ts",
          "type": "uint256"
        }
      ],
      "name": "totalSupplyLockedAtT",
      "outputs": [
        {
          "internalType": "uint256",
          "name": "vPower",
          "type": "uint256"
        }
      ],
      "stateMutability": "view",
      "type": "function"
    },
    {
      "inputs": [],
      "name": "ve",
      "outputs": [
        {
          "internalType": "address",
          "name": "",
          "type": "address"
        }
      ],
      "stateMutability": "view",
      "type": "function"
    }
  ],
  "bytecode": "0x60a060405234801561001057600080fd5b5060405161153738038061153783398101604081905261002f91610067565b6001600160a01b03811661005657604051633eaaeb6f60e01b815260040160405180910390fd5b6001600160a01b0316608052610097565b60006020828403121561007957600080fd5b81516001600160a01b038116811461009057600080fd5b9392505050565b6080516113f261014560003960008181610158015281816101cd015281816103d00152818161045a0152818161057901528181610637015281816107160152818161078d015281816107c20152818161087301528181610928015281816109a201528181610a5301528181610b0e01528181610b9a01528181610c3c01528181610cfb01528181610d6b01528181610e4201528181610ef30152818161103801526110f301526113f26000f3fe608060405234801561001057600080fd5b506004361061011b5760003560e01c8063587cde1e116100b25780639ab24eb011610081578063b18f270211610066578063b18f270214610344578063c4698ee514610357578063dd62ed3e1461036a5761011b565b80639ab24eb0146102b4578063b0a34fdd146102c75761011b565b8063587cde1e1461026857806370a082311461027b5780638e539e8c1461028e578063981b24d0146102a15761011b565b80634deafcae116100ee5780634deafcae146102275780634ee2cd7e1461023a57806353acfabd1461024d57806358341922146102605761011b565b806301ffc9a71461018a57806318160ddd146101b25780631f850716146101c85780633a46b1a814610214575b6040517f89c0039600000000000000000000000000000000000000000000000000000000815273ffffffffffffffffffffffffffffffffffffffff7f00000000000000000000000000000000000000000000000000000000000000001660048201526024015b60405180910390fd5b61019d610198366004611167565b61037d565b60405190151581526020015b60405180910390f35b6101ba610456565b6040519081526020016101a9565b6101ef7f000000000000000000000000000000000000000000000000000000000000000081565b60405173ffffffffffffffffffffffffffffffffffffffff90911681526020016101a9565b6101ba6102223660046111ce565b6104ec565b6101ba6102353660046111fa565b6105ef565b6101ba6102483660046111ce565b6106a5565b6101ba61025b3660046111fa565b610745565b6101ba6107be565b6101ef6102763660046111fa565b61082b565b6101ba6102893660046111fa565b6108e0565b6101ba61029c366004611217565b610959565b6101ba6102af366004611217565b610adc565b6101ba6102c23660046111fa565b610b52565b6102da6102d53660046111ce565b610bcb565b6040516101a99190600060a0820190508251600f0b82526020830151600f0b6020830152604083015167ffffffffffffffff808216604085015280606086015116606085015250506fffffffffffffffffffffffffffffffff608084015116608083015292915050565b6101ba610352366004611217565b610d66565b6102da6103653660046111fa565b610fcc565b6101ba610378366004611230565b6110a3565b6040517f01ffc9a70000000000000000000000000000000000000000000000000000000081527fffffffff00000000000000000000000000000000000000000000000000000000821660048201526000907f000000000000000000000000000000000000000000000000000000000000000073ffffffffffffffffffffffffffffffffffffffff16906301ffc9a790602401602060405180830381865afa15801561042c573d6000803e3d6000fd5b505050506040513d601f19601f820116820180604052508101906104509190611269565b92915050565b60007f000000000000000000000000000000000000000000000000000000000000000073ffffffffffffffffffffffffffffffffffffffff166318160ddd6040518163ffffffff1660e01b8152600401602060405180830381865afa1580156104c3573d6000803e3d6000fd5b505050506040513d601f19601f820116820180604052508101906104e7919061128b565b905090565b6000806104fa846000610bcb565b90506000816060015167ffffffffffffffff161180156105285750806060015167ffffffffffffffff168310155b156105e8576040517f3a46b1a800000000000000000000000000000000000000000000000000000000815273ffffffffffffffffffffffffffffffffffffffff8581166004830152602482018590527f00000000000000000000000000000000000000000000000000000000000000001690633a46b1a8906044015b602060405180830381865afa1580156105c1573d6000803e3d6000fd5b505050506040513d601f19601f820116820180604052508101906105e5919061128b565b91505b5092915050565b6040517f4deafcae00000000000000000000000000000000000000000000000000000000815273ffffffffffffffffffffffffffffffffffffffff82811660048301526000917f000000000000000000000000000000000000000000000000000000000000000090911690634deafcae906024015b602060405180830381865afa158015610681573d6000803e3d6000fd5b505050506040513d601f19601f82011682018060405250810190610450919061128b565b6000806106b3846000610bcb565b9050806060015167ffffffffffffffff1683106105e8576040517f4ee2cd7e00000000000000000000000000000000000000000000000000000000815273ffffffffffffffffffffffffffffffffffffffff8581166004830152602482018590527f00000000000000000000000000000000000000000000000000000000000000001690634ee2cd7e906044016105a4565b6040517f53acfabd00000000000000000000000000000000000000000000000000000000815273ffffffffffffffffffffffffffffffffffffffff82811660048301526000917f0000000000000000000000000000000000000000000000000000000000000000909116906353acfabd90602401610664565b60007f000000000000000000000000000000000000000000000000000000000000000073ffffffffffffffffffffffffffffffffffffffff1663583419226040518163ffffffff1660e01b8152600401602060405180830381865afa1580156104c3573d6000803e3d6000fd5b6040517f587cde1e00000000000000000000000000000000000000000000000000000000815273ffffffffffffffffffffffffffffffffffffffff82811660048301526000917f00000000000000000000000000000000000000000000000000000000000000009091169063587cde1e90602401602060405180830381865afa1580156108bc573d6000803e3d6000fd5b505050506040513d601f19601f8201168201806040525081019061045091906112a4565b6040517f70a0823100000000000000000000000000000000000000000000000000000000815273ffffffffffffffffffffffffffffffffffffffff82811660048301526000917f0000000000000000000000000000000000000000000000000000000000000000909116906370a0823190602401610664565b6040517f025fc7d800000000000000000000000000000000000000000000000000000000815260006004820181905290819073ffffffffffffffffffffffffffffffffffffffff7f0000000000000000000000000000000000000000000000000000000000000000169063025fc7d89060240160a060405180830381865afa1580156109e9573d6000803e3d6000fd5b505050506040513d601f19601f82011682018060405250810190610a0d91906112f0565b9050806060015167ffffffffffffffff168310610ad6576040517f8e539e8c000000000000000000000000000000000000000000000000000000008152600481018490527f000000000000000000000000000000000000000000000000000000000000000073ffffffffffffffffffffffffffffffffffffffff1690638e539e8c90602401602060405180830381865afa158015610aaf573d6000803e3d6000fd5b505050506040513d601f19601f82011682018060405250810190610ad3919061128b565b91505b50919050565b6040517f981b24d0000000000000000000000000000000000000000000000000000000008152600481018290526000907f000000000000000000000000000000000000000000000000000000000000000073ffffffffffffffffffffffffffffffffffffffff169063981b24d090602401610664565b6040517f9ab24eb000000000000000000000000000000000000000000000000000000000815273ffffffffffffffffffffffffffffffffffffffff82811660048301526000917f000000000000000000000000000000000000000000000000000000000000000090911690639ab24eb090602401610664565b6040805160a081018252600080825260208201819052818301819052606082018190526080820181905291517f53acfabd00000000000000000000000000000000000000000000000000000000815273ffffffffffffffffffffffffffffffffffffffff85811660048301529192917f000000000000000000000000000000000000000000000000000000000000000016906353acfabd90602401602060405180830381865afa158015610c83573d6000803e3d6000fd5b505050506040513d601f19601f82011682018060405250810190610ca7919061128b565b905080156105e8576040517fb0a34fdd00000000000000000000000000000000000000000000000000000000815273ffffffffffffffffffffffffffffffffffffffff8581166004830152602482018590527f0000000000000000000000000000000000000000000000000000000000000000169063b0a34fdd9060440160a060405180830381865afa158015610d42573d6000803e3d6000fd5b505050506040513d601f19601f820116820180604052508101906105e591906112f0565b6000807f000000000000000000000000000000000000000000000000000000000000000073ffffffffffffffffffffffffffffffffffffffff1663474177ec6040518163ffffffff1660e01b8152600401602060405180830381865afa158015610dd4573d6000803e3d6000fd5b505050506040513d601f19601f82011682018060405250810190610df8919061128b565b6040517f025fc7d80000000000000000000000000000000000000000000000000000000081526004810182905290915060009073ffffffffffffffffffffffffffffffffffffffff7f0000000000000000000000000000000000000000000000000000000000000000169063025fc7d89060240160a060405180830381865afa158015610e89573d6000803e3d6000fd5b505050506040513d601f19601f82011682018060405250810190610ead91906112f0565b9050806040015167ffffffffffffffff168410610f7a576040517fb18f2702000000000000000000000000000000000000000000000000000000008152600481018590527f000000000000000000000000000000000000000000000000000000000000000073ffffffffffffffffffffffffffffffffffffffff169063b18f270290602401602060405180830381865afa158015610f4f573d6000803e3d6000fd5b505050506040513d601f19601f82011682018060405250810190610f73919061128b565b9250610fc5565b60408082015190517f1ecf6bc300000000000000000000000000000000000000000000000000000000815267ffffffffffffffff909116600482015260248101859052604401610181565b5050919050565b6040805160a08101825260008082526020820181905281830181905260608201819052608082015290517fc4698ee500000000000000000000000000000000000000000000000000000000815273ffffffffffffffffffffffffffffffffffffffff83811660048301527f0000000000000000000000000000000000000000000000000000000000000000169063c4698ee59060240160a060405180830381865afa15801561107f573d6000803e3d6000fd5b505050506040513d601f19601f8201168201806040525081019061045091906112f0565b6040517fdd62ed3e00000000000000000000000000000000000000000000000000000000815273ffffffffffffffffffffffffffffffffffffffff838116600483015282811660248301526000917f00000000000000000000000000000000000000000000000000000000000000009091169063dd62ed3e90604401602060405180830381865afa15801561113c573d6000803e3d6000fd5b505050506040513d601f19601f82011682018060405250810190611160919061128b565b9392505050565b60006020828403121561117957600080fd5b81357fffffffff000000000000000000000000000000000000000000000000000000008116811461116057600080fd5b73ffffffffffffffffffffffffffffffffffffffff811681146111cb57600080fd5b50565b600080604083850312156111e157600080fd5b82356111ec816111a9565b946020939093013593505050565b60006020828403121561120c57600080fd5b8135611160816111a9565b60006020828403121561122957600080fd5b5035919050565b6000806040838503121561124357600080fd5b823561124e816111a9565b9150602083013561125e816111a9565b809150509250929050565b60006020828403121561127b57600080fd5b8151801515811461116057600080fd5b60006020828403121561129d57600080fd5b5051919050565b6000602082840312156112b657600080fd5b8151611160816111a9565b8051600f81900b81146112d357600080fd5b919050565b805167ffffffffffffffff811681146112d357600080fd5b600060a0828403121561130257600080fd5b60405160a0810181811067ffffffffffffffff8211171561134c577f4e487b7100000000000000000000000000000000000000000000000000000000600052604160045260246000fd5b604052611358836112c1565b8152611366602084016112c1565b6020820152611377604084016112d8565b6040820152611388606084016112d8565b606082015260808301516fffffffffffffffffffffffffffffffff811681146113b057600080fd5b6080820152939250505056fea2646970667358221220b16ef142a2e9df7b9fc2f7ef5d3ce4a5483ecce8eb9cf6f08873b7edde1f6db864736f6c634300080f0033",
  "linkReferences": {},
  "deployedLinkReferences": {}
}