{
  "_format": "hh-sol-artifact-1",
  "contractName": "wveOLAS",
  "sourceName": "contracts/wveOLAS.sol",
  "abi": [
    {
      "inputs": [
        {
          "internalType": "address",
          "name": "_ve",
          "type": "address"
        },
        {
          "internalType": "address",
          "name": "_token",
          "type": "address"
        }
      ],
      "stateMutability": "nonpayable",
      "type": "constructor"
    },
    {
      "inputs": [
        {
          "internalType": "address",
          "name": "ve",
          "type": "address"
        }
      ],
      "name": "ImplementedIn",
      "type": "error"
    },
    {
      "inputs": [
        {
          "internalType": "address",
          "name": "ve",
          "type": "address"
        }
      ],
      "name": "NonDelegatable",
      "type": "error"
    },
    {
      "inputs": [
        {
          "internalType": "address",
          "name": "ve",
          "type": "address"
        }
      ],
      "name": "NonTransferable",
      "type": "error"
    },
    {
      "inputs": [
        {
          "internalType": "uint256",
          "name": "minTimeStamp",
          "type": "uint256"
        },
        {
          "internalType": "uint256",
          "name": "providedTimeStamp",
          "type": "uint256"
        }
      ],
      "name": "WrongTimestamp",
      "type": "error"
    },
    {
      "inputs": [],
      "name": "ZeroAddress",
      "type": "error"
    },
    {
      "stateMutability": "nonpayable",
      "type": "fallback"
    },
    {
      "inputs": [
        {
          "internalType": "address",
          "name": "",
          "type": "address"
        },
        {
          "internalType": "address",
          "name": "",
          "type": "address"
        }
      ],
      "name": "allowance",
      "outputs": [
        {
          "internalType": "uint256",
          "name": "",
          "type": "uint256"
        }
      ],
      "stateMutability": "view",
      "type": "function"
    },
    {
      "inputs": [
        {
          "internalType": "address",
          "name": "",
          "type": "address"
        },
        {
          "internalType": "uint256",
          "name": "",
          "type": "uint256"
        }
      ],
      "name": "approve",
      "outputs": [
        {
          "internalType": "bool",
          "name": "",
          "type": "bool"
        }
      ],
      "stateMutability": "nonpayable",
      "type": "function"
    },
    {
      "inputs": [
        {
          "internalType": "address",
          "name": "account",
          "type": "address"
        }
      ],
      "name": "balanceOf",
      "outputs": [
        {
          "internalType": "uint256",
          "name": "balance",
          "type": "uint256"
        }
      ],
      "stateMutability": "view",
      "type": "function"
    },
    {
      "inputs": [
        {
          "internalType": "address",
          "name": "account",
          "type": "address"
        },
        {
          "internalType": "uint256",
          "name": "blockNumber",
          "type": "uint256"
        }
      ],
      "name": "balanceOfAt",
      "outputs": [
        {
          "internalType": "uint256",
          "name": "balance",
          "type": "uint256"
        }
      ],
      "stateMutability": "view",
      "type": "function"
    },
    {
      "inputs": [],
      "name": "decimals",
      "outputs": [
        {
          "internalType": "uint8",
          "name": "",
          "type": "uint8"
        }
      ],
      "stateMutability": "view",
      "type": "function"
    },
    {
      "inputs": [
        {
          "internalType": "address",
          "name": "",
          "type": "address"
        }
      ],
      "name": "delegate",
      "outputs": [],
      "stateMutability": "nonpayable",
      "type": "function"
    },
    {
      "inputs": [
        {
          "internalType": "address",
          "name": "",
          "type": "address"
        },
        {
          "internalType": "uint256",
          "name": "",
          "type": "uint256"
        },
        {
          "internalType": "uint256",
          "name": "",
          "type": "uint256"
        },
        {
          "internalType": "uint8",
          "name": "",
          "type": "uint8"
        },
        {
          "internalType": "bytes32",
          "name": "",
          "type": "bytes32"
        },
        {
          "internalType": "bytes32",
          "name": "",
          "type": "bytes32"
        }
      ],
      "name": "delegateBySig",
      "outputs": [],
      "stateMutability": "nonpayable",
      "type": "function"
    },
    {
      "inputs": [
        {
          "internalType": "address",
          "name": "",
          "type": "address"
        }
      ],
      "name": "delegates",
      "outputs": [
        {
          "internalType": "address",
          "name": "",
          "type": "address"
        }
      ],
      "stateMutability": "view",
      "type": "function"
    },
    {
      "inputs": [
        {
          "internalType": "address",
          "name": "account",
          "type": "address"
        }
      ],
      "name": "getLastUserPoint",
      "outputs": [
        {
          "components": [
            {
              "internalType": "int128",
              "name": "bias",
              "type": "int128"
            },
            {
              "internalType": "int128",
              "name": "slope",
              "type": "int128"
            },
            {
              "internalType": "uint64",
              "name": "ts",
              "type": "uint64"
            },
            {
              "internalType": "uint64",
              "name": "blockNumber",
              "type": "uint64"
            },
            {
              "internalType": "uint128",
              "name": "balance",
              "type": "uint128"
            }
          ],
          "internalType": "struct PointVoting",
          "name": "pv",
          "type": "tuple"
        }
      ],
      "stateMutability": "view",
      "type": "function"
    },
    {
      "inputs": [
        {
          "internalType": "address",
          "name": "account",
          "type": "address"
        }
      ],
      "name": "getNumUserPoints",
      "outputs": [
        {
          "internalType": "uint256",
          "name": "userNumPoints",
          "type": "uint256"
        }
      ],
      "stateMutability": "view",
      "type": "function"
    },
    {
      "inputs": [
        {
          "internalType": "uint256",
          "name": "blockNumber",
          "type": "uint256"
        }
      ],
      "name": "getPastTotalSupply",
      "outputs": [
        {
          "internalType": "uint256",
          "name": "vPower",
          "type": "uint256"
        }
      ],
      "stateMutability": "view",
      "type": "function"
    },
    {
      "inputs": [
        {
          "internalType": "address",
          "name": "account",
          "type": "address"
        },
        {
          "internalType": "uint256",
          "name": "blockNumber",
          "type": "uint256"
        }
      ],
      "name": "getPastVotes",
      "outputs": [
        {
          "internalType": "uint256",
          "name": "balance",
          "type": "uint256"
        }
      ],
      "stateMutability": "view",
      "type": "function"
    },
    {
      "inputs": [
        {
          "internalType": "address",
          "name": "account",
          "type": "address"
        },
        {
          "internalType": "uint256",
          "name": "idx",
          "type": "uint256"
        }
      ],
      "name": "getUserPoint",
      "outputs": [
        {
          "components": [
            {
              "internalType": "int128",
              "name": "bias",
              "type": "int128"
            },
            {
              "internalType": "int128",
              "name": "slope",
              "type": "int128"
            },
            {
              "internalType": "uint64",
              "name": "ts",
              "type": "uint64"
            },
            {
              "internalType": "uint64",
              "name": "blockNumber",
              "type": "uint64"
            },
            {
              "internalType": "uint128",
              "name": "balance",
              "type": "uint128"
            }
          ],
          "internalType": "struct PointVoting",
          "name": "uPoint",
          "type": "tuple"
        }
      ],
      "stateMutability": "view",
      "type": "function"
    },
    {
      "inputs": [
        {
          "internalType": "address",
          "name": "account",
          "type": "address"
        }
      ],
      "name": "getVotes",
      "outputs": [
        {
          "internalType": "uint256",
          "name": "balance",
          "type": "uint256"
        }
      ],
      "stateMutability": "view",
      "type": "function"
    },
    {
      "inputs": [
        {
          "internalType": "address",
          "name": "account",
          "type": "address"
        }
      ],
      "name": "lockedEnd",
      "outputs": [
        {
          "internalType": "uint256",
          "name": "unlockTime",
          "type": "uint256"
        }
      ],
      "stateMutability": "view",
      "type": "function"
    },
    {
      "inputs": [],
      "name": "name",
      "outputs": [
        {
          "internalType": "string",
          "name": "",
          "type": "string"
        }
      ],
      "stateMutability": "view",
      "type": "function"
    },
    {
      "inputs": [
        {
          "internalType": "bytes4",
          "name": "interfaceId",
          "type": "bytes4"
        }
      ],
      "name": "supportsInterface",
      "outputs": [
        {
          "internalType": "bool",
          "name": "",
          "type": "bool"
        }
      ],
      "stateMutability": "view",
      "type": "function"
    },
    {
      "inputs": [],
      "name": "symbol",
      "outputs": [
        {
          "internalType": "string",
          "name": "",
          "type": "string"
        }
      ],
      "stateMutability": "view",
      "type": "function"
    },
    {
      "inputs": [],
      "name": "token",
      "outputs": [
        {
          "internalType": "address",
          "name": "",
          "type": "address"
        }
      ],
      "stateMutability": "view",
      "type": "function"
    },
    {
      "inputs": [],
      "name": "totalNumPoints",
      "outputs": [
        {
          "internalType": "uint256",
          "name": "numPoints",
          "type": "uint256"
        }
      ],
      "stateMutability": "view",
      "type": "function"
    },
    {
      "inputs": [],
      "name": "totalSupply",
      "outputs": [
        {
          "internalType": "uint256",
          "name": "supply",
          "type": "uint256"
        }
      ],
      "stateMutability": "view",
      "type": "function"
    },
    {
      "inputs": [
        {
          "internalType": "uint256",
          "name": "blockNumber",
          "type": "uint256"
        }
      ],
      "name": "totalSupplyAt",
      "outputs": [
        {
          "internalType": "uint256",
          "name": "supplyAt",
          "type": "uint256"
        }
      ],
      "stateMutability": "view",
      "type": "function"
    },
    {
      "inputs": [],
      "name": "totalSupplyLocked",
      "outputs": [
        {
          "internalType": "uint256",
          "name": "vPower",
          "type": "uint256"
        }
      ],
      "stateMutability": "view",
      "type": "function"
    },
    {
      "inputs": [
        {
          "internalType": "uint256",
          "name": "ts",
          "type": "uint256"
        }
      ],
      "name": "totalSupplyLockedAtT",
      "outputs": [
        {
          "internalType": "uint256",
          "name": "vPower",
          "type": "uint256"
        }
      ],
      "stateMutability": "view",
      "type": "function"
    },
    {
      "inputs": [
        {
          "internalType": "address",
          "name": "",
          "type": "address"
        },
        {
          "internalType": "uint256",
          "name": "",
          "type": "uint256"
        }
      ],
      "name": "transfer",
      "outputs": [
        {
          "internalType": "bool",
          "name": "",
          "type": "bool"
        }
      ],
      "stateMutability": "nonpayable",
      "type": "function"
    },
    {
      "inputs": [
        {
          "internalType": "address",
          "name": "",
          "type": "address"
        },
        {
          "internalType": "address",
          "name": "",
          "type": "address"
        },
        {
          "internalType": "uint256",
          "name": "",
          "type": "uint256"
        }
      ],
      "name": "transferFrom",
      "outputs": [
        {
          "internalType": "bool",
          "name": "",
          "type": "bool"
        }
      ],
      "stateMutability": "nonpayable",
      "type": "function"
    },
    {
      "inputs": [],
      "name": "ve",
      "outputs": [
        {
          "internalType": "address",
          "name": "",
          "type": "address"
        }
      ],
      "stateMutability": "view",
      "type": "function"
    }
  ],
  "bytecode": "0x60c06040523480156200001157600080fd5b5060405162001769380380620017698339810160408190526200003491620000a6565b6001600160a01b03821615806200005257506001600160a01b038116155b15620000715760405163d92e233d60e01b815260040160405180910390fd5b6001600160a01b039182166080521660a052620000de565b80516001600160a01b0381168114620000a157600080fd5b919050565b60008060408385031215620000ba57600080fd5b620000c58362000089565b9150620000d56020840162000089565b90509250929050565b60805160a0516115cb6200019e60003960006105060152600081816101f6015281816102c70152818161057b0152818161063e01528181610672015281816107910152818161080b015281816108bc015281816109b701528181610a2e01528181610a6301528181610b0901528181610b7601528181610beb01528181610c4e01528181610cc401528181610d5001528181610df201528181610eb101528181610f2101528181610ff8015281816110a901526111ee01526115cb6000f3fe608060405234801561001057600080fd5b50600436106101b95760003560e01c8063587cde1e116100f9578063a9059cbb11610097578063c3cda52011610071578063c3cda520146104d2578063c4698ee5146104e0578063dd62ed3e146104f3578063fc0c546a14610501576101b9565b8063a9059cbb14610299578063b0a34fdd14610442578063b18f2702146104bf576101b9565b80638e539e8c116100d35780638e539e8c146103cd57806395d89b41146103e0578063981b24d01461041c5780639ab24eb01461042f576101b9565b8063587cde1e146103925780635c19a95c146103a557806370a08231146103ba576101b9565b8063313ce567116101665780634deafcae116101405780634deafcae146103515780634ee2cd7e1461036457806353acfabd14610377578063583419221461038a576101b9565b8063313ce5671461031c5780633a46b1a814610336578063474177ec14610349576101b9565b806318160ddd1161019757806318160ddd146102ac5780631f850716146102c257806323b872dd1461030e576101b9565b806301ffc9a71461022857806306fdde0314610250578063095ea7b314610299575b6040517f89c0039600000000000000000000000000000000000000000000000000000000815273ffffffffffffffffffffffffffffffffffffffff7f00000000000000000000000000000000000000000000000000000000000000001660048201526024015b60405180910390fd5b61023b610236366004611259565b610528565b60405190151581526020015b60405180910390f35b61028c6040518060400160405280600681526020017f76654f4c4153000000000000000000000000000000000000000000000000000081525081565b60405161024791906112a2565b61023b6102a7366004611337565b610601565b6102b461066e565b604051908152602001610247565b6102e97f000000000000000000000000000000000000000000000000000000000000000081565b60405173ffffffffffffffffffffffffffffffffffffffff9091168152602001610247565b61023b6102a7366004611361565b610324601281565b60405160ff9091168152602001610247565b6102b4610344366004611337565b610704565b6102b4610807565b6102b461035f36600461139d565b610874565b6102b4610372366004611337565b61092a565b6102b461038536600461139d565b6109e6565b6102b4610a5f565b6102e96103a036600461139d565b610acc565b6103b86103b336600461139d565b610b39565b005b6102b46103c836600461139d565b610ba3565b6102b46103db3660046113b8565b610c1c565b61028c6040518060400160405280601281526020017f566f74696e6720457363726f77204f4c4153000000000000000000000000000081525081565b6102b461042a3660046113b8565b610c92565b6102b461043d36600461139d565b610d08565b610455610450366004611337565b610d81565b6040516102479190600060a0820190508251600f0b82526020830151600f0b6020830152604083015167ffffffffffffffff808216604085015280606086015116606085015250506fffffffffffffffffffffffffffffffff608084015116608083015292915050565b6102b46104cd3660046113b8565b610f1c565b6103b86103b33660046113d1565b6104556104ee36600461139d565b611182565b6102b46102a7366004611431565b6102e97f000000000000000000000000000000000000000000000000000000000000000081565b6040517f01ffc9a70000000000000000000000000000000000000000000000000000000081527fffffffff00000000000000000000000000000000000000000000000000000000821660048201526000907f000000000000000000000000000000000000000000000000000000000000000073ffffffffffffffffffffffffffffffffffffffff16906301ffc9a790602401602060405180830381865afa1580156105d7573d6000803e3d6000fd5b505050506040513d601f19601f820116820180604052508101906105fb9190611464565b92915050565b6040517f9c21e7b200000000000000000000000000000000000000000000000000000000815273ffffffffffffffffffffffffffffffffffffffff7f000000000000000000000000000000000000000000000000000000000000000016600482015260009060240161021f565b60007f000000000000000000000000000000000000000000000000000000000000000073ffffffffffffffffffffffffffffffffffffffff166318160ddd6040518163ffffffff1660e01b8152600401602060405180830381865afa1580156106db573d6000803e3d6000fd5b505050506040513d601f19601f820116820180604052508101906106ff9190611486565b905090565b600080610712846000610d81565b90506000816060015167ffffffffffffffff161180156107405750806060015167ffffffffffffffff168310155b15610800576040517f3a46b1a800000000000000000000000000000000000000000000000000000000815273ffffffffffffffffffffffffffffffffffffffff8581166004830152602482018590527f00000000000000000000000000000000000000000000000000000000000000001690633a46b1a8906044015b602060405180830381865afa1580156107d9573d6000803e3d6000fd5b505050506040513d601f19601f820116820180604052508101906107fd9190611486565b91505b5092915050565b60007f000000000000000000000000000000000000000000000000000000000000000073ffffffffffffffffffffffffffffffffffffffff1663474177ec6040518163ffffffff1660e01b8152600401602060405180830381865afa1580156106db573d6000803e3d6000fd5b6040517f4deafcae00000000000000000000000000000000000000000000000000000000815273ffffffffffffffffffffffffffffffffffffffff82811660048301526000917f000000000000000000000000000000000000000000000000000000000000000090911690634deafcae906024015b602060405180830381865afa158015610906573d6000803e3d6000fd5b505050506040513d601f19601f820116820180604052508101906105fb9190611486565b600080610938846000610d81565b90506000816060015167ffffffffffffffff161180156109665750806060015167ffffffffffffffff168310155b15610800576040517f4ee2cd7e00000000000000000000000000000000000000000000000000000000815273ffffffffffffffffffffffffffffffffffffffff8581166004830152602482018590527f00000000000000000000000000000000000000000000000000000000000000001690634ee2cd7e906044016107bc565b6040517f53acfabd00000000000000000000000000000000000000000000000000000000815273ffffffffffffffffffffffffffffffffffffffff82811660048301526000917f0000000000000000000000000000000000000000000000000000000000000000909116906353acfabd906024016108e9565b60007f000000000000000000000000000000000000000000000000000000000000000073ffffffffffffffffffffffffffffffffffffffff1663583419226040518163ffffffff1660e01b8152600401602060405180830381865afa1580156106db573d6000803e3d6000fd5b6040517f535db4ec00000000000000000000000000000000000000000000000000000000815273ffffffffffffffffffffffffffffffffffffffff7f000000000000000000000000000000000000000000000000000000000000000016600482015260009060240161021f565b6040517f535db4ec00000000000000000000000000000000000000000000000000000000815273ffffffffffffffffffffffffffffffffffffffff7f000000000000000000000000000000000000000000000000000000000000000016600482015260240161021f565b6040517f70a0823100000000000000000000000000000000000000000000000000000000815273ffffffffffffffffffffffffffffffffffffffff82811660048301526000917f0000000000000000000000000000000000000000000000000000000000000000909116906370a08231906024016108e9565b6040517f8e539e8c000000000000000000000000000000000000000000000000000000008152600481018290526000907f000000000000000000000000000000000000000000000000000000000000000073ffffffffffffffffffffffffffffffffffffffff1690638e539e8c906024016108e9565b6040517f981b24d0000000000000000000000000000000000000000000000000000000008152600481018290526000907f000000000000000000000000000000000000000000000000000000000000000073ffffffffffffffffffffffffffffffffffffffff169063981b24d0906024016108e9565b6040517f9ab24eb000000000000000000000000000000000000000000000000000000000815273ffffffffffffffffffffffffffffffffffffffff82811660048301526000917f000000000000000000000000000000000000000000000000000000000000000090911690639ab24eb0906024016108e9565b6040805160a081018252600080825260208201819052818301819052606082018190526080820181905291517f53acfabd00000000000000000000000000000000000000000000000000000000815273ffffffffffffffffffffffffffffffffffffffff85811660048301529192917f000000000000000000000000000000000000000000000000000000000000000016906353acfabd90602401602060405180830381865afa158015610e39573d6000803e3d6000fd5b505050506040513d601f19601f82011682018060405250810190610e5d9190611486565b90508015610800576040517fb0a34fdd00000000000000000000000000000000000000000000000000000000815273ffffffffffffffffffffffffffffffffffffffff8581166004830152602482018590527f0000000000000000000000000000000000000000000000000000000000000000169063b0a34fdd9060440160a060405180830381865afa158015610ef8573d6000803e3d6000fd5b505050506040513d601f19601f820116820180604052508101906107fd91906114c9565b6000807f000000000000000000000000000000000000000000000000000000000000000073ffffffffffffffffffffffffffffffffffffffff1663474177ec6040518163ffffffff1660e01b8152600401602060405180830381865afa158015610f8a573d6000803e3d6000fd5b505050506040513d601f19601f82011682018060405250810190610fae9190611486565b6040517f025fc7d80000000000000000000000000000000000000000000000000000000081526004810182905290915060009073ffffffffffffffffffffffffffffffffffffffff7f0000000000000000000000000000000000000000000000000000000000000000169063025fc7d89060240160a060405180830381865afa15801561103f573d6000803e3d6000fd5b505050506040513d601f19601f8201168201806040525081019061106391906114c9565b9050806040015167ffffffffffffffff168410611130576040517fb18f2702000000000000000000000000000000000000000000000000000000008152600481018590527f000000000000000000000000000000000000000000000000000000000000000073ffffffffffffffffffffffffffffffffffffffff169063b18f270290602401602060405180830381865afa158015611105573d6000803e3d6000fd5b505050506040513d601f19601f820116820180604052508101906111299190611486565b925061117b565b60408082015190517f1ecf6bc300000000000000000000000000000000000000000000000000000000815267ffffffffffffffff90911660048201526024810185905260440161021f565b5050919050565b6040805160a08101825260008082526020820181905281830181905260608201819052608082015290517fc4698ee500000000000000000000000000000000000000000000000000000000815273ffffffffffffffffffffffffffffffffffffffff83811660048301527f0000000000000000000000000000000000000000000000000000000000000000169063c4698ee59060240160a060405180830381865afa158015611235573d6000803e3d6000fd5b505050506040513d601f19601f820116820180604052508101906105fb91906114c9565b60006020828403121561126b57600080fd5b81357fffffffff000000000000000000000000000000000000000000000000000000008116811461129b57600080fd5b9392505050565b600060208083528351808285015260005b818110156112cf578581018301518582016040015282016112b3565b5060006040828601015260407fffffffffffffffffffffffffffffffffffffffffffffffffffffffffffffffe0601f8301168501019250505092915050565b803573ffffffffffffffffffffffffffffffffffffffff8116811461133257600080fd5b919050565b6000806040838503121561134a57600080fd5b6113538361130e565b946020939093013593505050565b60008060006060848603121561137657600080fd5b61137f8461130e565b925061138d6020850161130e565b9150604084013590509250925092565b6000602082840312156113af57600080fd5b61129b8261130e565b6000602082840312156113ca57600080fd5b5035919050565b60008060008060008060c087890312156113ea57600080fd5b6113f38761130e565b95506020870135945060408701359350606087013560ff8116811461141757600080fd5b9598949750929560808101359460a0909101359350915050565b6000806040838503121561144457600080fd5b61144d8361130e565b915061145b6020840161130e565b90509250929050565b60006020828403121561147657600080fd5b8151801515811461129b57600080fd5b60006020828403121561149857600080fd5b5051919050565b8051600f81900b811461133257600080fd5b805167ffffffffffffffff8116811461133257600080fd5b600060a082840312156114db57600080fd5b60405160a0810181811067ffffffffffffffff82111715611525577f4e487b7100000000000000000000000000000000000000000000000000000000600052604160045260246000fd5b6040526115318361149f565b815261153f6020840161149f565b6020820152611550604084016114b1565b6040820152611561606084016114b1565b606082015260808301516fffffffffffffffffffffffffffffffff8116811461158957600080fd5b6080820152939250505056fea2646970667358221220a968b2c74f73944f8faf2176d80c40a0077b86f0326b5e97d63a19923ebaf61964736f6c63430008130033",
  "linkReferences": {},
  "deployedLinkReferences": {}
}