{
  "_format": "hh-sol-artifact-1",
  "contractName": "wveOLAS",
  "sourceName": "contracts/wveOLAS.sol",
  "abi": [
    {
      "inputs": [
        {
          "internalType": "address",
          "name": "_ve",
          "type": "address"
        },
        {
          "internalType": "address",
          "name": "_token",
          "type": "address"
        }
      ],
      "stateMutability": "nonpayable",
      "type": "constructor"
    },
    {
      "inputs": [
        {
          "internalType": "address",
          "name": "veToken",
          "type": "address"
        }
      ],
      "name": "ImplementedIn",
      "type": "error"
    },
    {
      "inputs": [
        {
          "internalType": "address",
          "name": "veToken",
          "type": "address"
        }
      ],
      "name": "NonDelegatable",
      "type": "error"
    },
    {
      "inputs": [
        {
          "internalType": "address",
          "name": "veToken",
          "type": "address"
        }
      ],
      "name": "NonTransferable",
      "type": "error"
    },
    {
      "inputs": [
        {
          "internalType": "uint256",
          "name": "minTimeStamp",
          "type": "uint256"
        },
        {
          "internalType": "uint256",
          "name": "providedTimeStamp",
          "type": "uint256"
        }
      ],
      "name": "WrongTimestamp",
      "type": "error"
    },
    {
      "inputs": [],
      "name": "ZeroAddress",
      "type": "error"
    },
    {
      "stateMutability": "nonpayable",
      "type": "fallback"
    },
    {
      "inputs": [
        {
          "internalType": "address",
          "name": "",
          "type": "address"
        },
        {
          "internalType": "address",
          "name": "",
          "type": "address"
        }
      ],
      "name": "allowance",
      "outputs": [
        {
          "internalType": "uint256",
          "name": "",
          "type": "uint256"
        }
      ],
      "stateMutability": "view",
      "type": "function"
    },
    {
      "inputs": [
        {
          "internalType": "address",
          "name": "",
          "type": "address"
        },
        {
          "internalType": "uint256",
          "name": "",
          "type": "uint256"
        }
      ],
      "name": "approve",
      "outputs": [
        {
          "internalType": "bool",
          "name": "",
          "type": "bool"
        }
      ],
      "stateMutability": "nonpayable",
      "type": "function"
    },
    {
      "inputs": [
        {
          "internalType": "address",
          "name": "account",
          "type": "address"
        }
      ],
      "name": "balanceOf",
      "outputs": [
        {
          "internalType": "uint256",
          "name": "balance",
          "type": "uint256"
        }
      ],
      "stateMutability": "view",
      "type": "function"
    },
    {
      "inputs": [
        {
          "internalType": "address",
          "name": "account",
          "type": "address"
        },
        {
          "internalType": "uint256",
          "name": "blockNumber",
          "type": "uint256"
        }
      ],
      "name": "balanceOfAt",
      "outputs": [
        {
          "internalType": "uint256",
          "name": "balance",
          "type": "uint256"
        }
      ],
      "stateMutability": "view",
      "type": "function"
    },
    {
      "inputs": [],
      "name": "decimals",
      "outputs": [
        {
          "internalType": "uint8",
          "name": "",
          "type": "uint8"
        }
      ],
      "stateMutability": "view",
      "type": "function"
    },
    {
      "inputs": [
        {
          "internalType": "address",
          "name": "",
          "type": "address"
        }
      ],
      "name": "delegate",
      "outputs": [],
      "stateMutability": "nonpayable",
      "type": "function"
    },
    {
      "inputs": [
        {
          "internalType": "address",
          "name": "",
          "type": "address"
        },
        {
          "internalType": "uint256",
          "name": "",
          "type": "uint256"
        },
        {
          "internalType": "uint256",
          "name": "",
          "type": "uint256"
        },
        {
          "internalType": "uint8",
          "name": "",
          "type": "uint8"
        },
        {
          "internalType": "bytes32",
          "name": "",
          "type": "bytes32"
        },
        {
          "internalType": "bytes32",
          "name": "",
          "type": "bytes32"
        }
      ],
      "name": "delegateBySig",
      "outputs": [],
      "stateMutability": "nonpayable",
      "type": "function"
    },
    {
      "inputs": [
        {
          "internalType": "address",
          "name": "",
          "type": "address"
        }
      ],
      "name": "delegates",
      "outputs": [
        {
          "internalType": "address",
          "name": "",
          "type": "address"
        }
      ],
      "stateMutability": "view",
      "type": "function"
    },
    {
      "inputs": [
        {
          "internalType": "address",
          "name": "account",
          "type": "address"
        }
      ],
      "name": "getLastUserPoint",
      "outputs": [
        {
          "components": [
            {
              "internalType": "int128",
              "name": "bias",
              "type": "int128"
            },
            {
              "internalType": "int128",
              "name": "slope",
              "type": "int128"
            },
            {
              "internalType": "uint64",
              "name": "ts",
              "type": "uint64"
            },
            {
              "internalType": "uint64",
              "name": "blockNumber",
              "type": "uint64"
            },
            {
              "internalType": "uint128",
              "name": "balance",
              "type": "uint128"
            }
          ],
          "internalType": "struct PointVoting",
          "name": "pv",
          "type": "tuple"
        }
      ],
      "stateMutability": "view",
      "type": "function"
    },
    {
      "inputs": [
        {
          "internalType": "address",
          "name": "account",
          "type": "address"
        }
      ],
      "name": "getNumUserPoints",
      "outputs": [
        {
          "internalType": "uint256",
          "name": "userNumPoints",
          "type": "uint256"
        }
      ],
      "stateMutability": "view",
      "type": "function"
    },
    {
      "inputs": [
        {
          "internalType": "uint256",
          "name": "blockNumber",
          "type": "uint256"
        }
      ],
      "name": "getPastTotalSupply",
      "outputs": [
        {
          "internalType": "uint256",
          "name": "vPower",
          "type": "uint256"
        }
      ],
      "stateMutability": "view",
      "type": "function"
    },
    {
      "inputs": [
        {
          "internalType": "address",
          "name": "account",
          "type": "address"
        },
        {
          "internalType": "uint256",
          "name": "blockNumber",
          "type": "uint256"
        }
      ],
      "name": "getPastVotes",
      "outputs": [
        {
          "internalType": "uint256",
          "name": "balance",
          "type": "uint256"
        }
      ],
      "stateMutability": "view",
      "type": "function"
    },
    {
      "inputs": [
        {
          "internalType": "address",
          "name": "account",
          "type": "address"
        },
        {
          "internalType": "uint256",
          "name": "idx",
          "type": "uint256"
        }
      ],
      "name": "getUserPoint",
      "outputs": [
        {
          "components": [
            {
              "internalType": "int128",
              "name": "bias",
              "type": "int128"
            },
            {
              "internalType": "int128",
              "name": "slope",
              "type": "int128"
            },
            {
              "internalType": "uint64",
              "name": "ts",
              "type": "uint64"
            },
            {
              "internalType": "uint64",
              "name": "blockNumber",
              "type": "uint64"
            },
            {
              "internalType": "uint128",
              "name": "balance",
              "type": "uint128"
            }
          ],
          "internalType": "struct PointVoting",
          "name": "uPoint",
          "type": "tuple"
        }
      ],
      "stateMutability": "view",
      "type": "function"
    },
    {
      "inputs": [
        {
          "internalType": "address",
          "name": "account",
          "type": "address"
        }
      ],
      "name": "getVotes",
      "outputs": [
        {
          "internalType": "uint256",
          "name": "balance",
          "type": "uint256"
        }
      ],
      "stateMutability": "view",
      "type": "function"
    },
    {
      "inputs": [
        {
          "internalType": "address",
          "name": "account",
          "type": "address"
        }
      ],
      "name": "lockedEnd",
      "outputs": [
        {
          "internalType": "uint256",
          "name": "unlockTime",
          "type": "uint256"
        }
      ],
      "stateMutability": "view",
      "type": "function"
    },
    {
      "inputs": [
        {
          "internalType": "uint64",
          "name": "ts",
          "type": "uint64"
        }
      ],
      "name": "mapSlopeChanges",
      "outputs": [
        {
          "internalType": "int128",
          "name": "slopeChange",
          "type": "int128"
        }
      ],
      "stateMutability": "view",
      "type": "function"
    },
    {
      "inputs": [
        {
          "internalType": "uint256",
          "name": "idx",
          "type": "uint256"
        }
      ],
      "name": "mapSupplyPoints",
      "outputs": [
        {
          "components": [
            {
              "internalType": "int128",
              "name": "bias",
              "type": "int128"
            },
            {
              "internalType": "int128",
              "name": "slope",
              "type": "int128"
            },
            {
              "internalType": "uint64",
              "name": "ts",
              "type": "uint64"
            },
            {
              "internalType": "uint64",
              "name": "blockNumber",
              "type": "uint64"
            },
            {
              "internalType": "uint128",
              "name": "balance",
              "type": "uint128"
            }
          ],
          "internalType": "struct PointVoting",
          "name": "sPoint",
          "type": "tuple"
        }
      ],
      "stateMutability": "view",
      "type": "function"
    },
    {
      "inputs": [],
      "name": "name",
      "outputs": [
        {
          "internalType": "string",
          "name": "",
          "type": "string"
        }
      ],
      "stateMutability": "view",
      "type": "function"
    },
    {
      "inputs": [
        {
          "internalType": "bytes4",
          "name": "interfaceId",
          "type": "bytes4"
        }
      ],
      "name": "supportsInterface",
      "outputs": [
        {
          "internalType": "bool",
          "name": "",
          "type": "bool"
        }
      ],
      "stateMutability": "view",
      "type": "function"
    },
    {
      "inputs": [],
      "name": "symbol",
      "outputs": [
        {
          "internalType": "string",
          "name": "",
          "type": "string"
        }
      ],
      "stateMutability": "view",
      "type": "function"
    },
    {
      "inputs": [],
      "name": "token",
      "outputs": [
        {
          "internalType": "address",
          "name": "",
          "type": "address"
        }
      ],
      "stateMutability": "view",
      "type": "function"
    },
    {
      "inputs": [],
      "name": "totalNumPoints",
      "outputs": [
        {
          "internalType": "uint256",
          "name": "numPoints",
          "type": "uint256"
        }
      ],
      "stateMutability": "view",
      "type": "function"
    },
    {
      "inputs": [],
      "name": "totalSupply",
      "outputs": [
        {
          "internalType": "uint256",
          "name": "supply",
          "type": "uint256"
        }
      ],
      "stateMutability": "view",
      "type": "function"
    },
    {
      "inputs": [
        {
          "internalType": "uint256",
          "name": "blockNumber",
          "type": "uint256"
        }
      ],
      "name": "totalSupplyAt",
      "outputs": [
        {
          "internalType": "uint256",
          "name": "supplyAt",
          "type": "uint256"
        }
      ],
      "stateMutability": "view",
      "type": "function"
    },
    {
      "inputs": [],
      "name": "totalSupplyLocked",
      "outputs": [
        {
          "internalType": "uint256",
          "name": "vPower",
          "type": "uint256"
        }
      ],
      "stateMutability": "view",
      "type": "function"
    },
    {
      "inputs": [
        {
          "internalType": "uint256",
          "name": "ts",
          "type": "uint256"
        }
      ],
      "name": "totalSupplyLockedAtT",
      "outputs": [
        {
          "internalType": "uint256",
          "name": "vPower",
          "type": "uint256"
        }
      ],
      "stateMutability": "view",
      "type": "function"
    },
    {
      "inputs": [
        {
          "internalType": "address",
          "name": "",
          "type": "address"
        },
        {
          "internalType": "uint256",
          "name": "",
          "type": "uint256"
        }
      ],
      "name": "transfer",
      "outputs": [
        {
          "internalType": "bool",
          "name": "",
          "type": "bool"
        }
      ],
      "stateMutability": "nonpayable",
      "type": "function"
    },
    {
      "inputs": [
        {
          "internalType": "address",
          "name": "",
          "type": "address"
        },
        {
          "internalType": "address",
          "name": "",
          "type": "address"
        },
        {
          "internalType": "uint256",
          "name": "",
          "type": "uint256"
        }
      ],
      "name": "transferFrom",
      "outputs": [
        {
          "internalType": "bool",
          "name": "",
          "type": "bool"
        }
      ],
      "stateMutability": "nonpayable",
      "type": "function"
    },
    {
      "inputs": [],
      "name": "ve",
      "outputs": [
        {
          "internalType": "address",
          "name": "",
          "type": "address"
        }
      ],
      "stateMutability": "view",
      "type": "function"
    }
  ],
  "bytecode": "0x60c06040523480156200001157600080fd5b5060405162001962380380620019628339810160408190526200003491620000a6565b6001600160a01b03821615806200005257506001600160a01b038116155b15620000715760405163d92e233d60e01b815260040160405180910390fd5b6001600160a01b039182166080521660a052620000de565b80516001600160a01b0381168114620000a157600080fd5b919050565b60008060408385031215620000ba57600080fd5b620000c58362000089565b9150620000d56020840162000089565b90509250929050565b60805160a0516117b6620001ac600039600061055501526000818161020c0152818161035a015281816105ca015281816106bb0152818161076401528181610798015281816108b701528181610931015281816109e201528181610add01528181610b5401528181610b8901528181610c2f01528181610c9c01528181610d1101528181610d7d01528181610e2f01528181610ea501528181610f3101528181610fd30152818161109201528181611102015281816111d90152818161128a01526113cf01526117b66000f3fe608060405234801561001057600080fd5b50600436106101cf5760003560e01c8063587cde1e116101045780639ab24eb0116100a2578063c3cda52011610071578063c3cda52014610521578063c4698ee51461052f578063dd62ed3e14610542578063fc0c546a14610550576101cf565b80639ab24eb0146104e8578063a9059cbb1461032c578063b0a34fdd146104fb578063b18f27021461050e576101cf565b806378888dbf116100de57806378888dbf146104605780638e539e8c1461048657806395d89b4114610499578063981b24d0146104d5576101cf565b8063587cde1e146104255780635c19a95c1461043857806370a082311461044d576101cf565b8063313ce567116101715780634deafcae1161014b5780634deafcae146103e45780634ee2cd7e146103f757806353acfabd1461040a578063583419221461041d576101cf565b8063313ce567146103af5780633a46b1a8146103c9578063474177ec146103dc576101cf565b8063095ea7b3116101ad578063095ea7b31461032c57806318160ddd1461033f5780631f8507161461035557806323b872dd146103a1576101cf565b806301ffc9a71461023e578063025fc7d81461026657806306fdde03146102e3575b6040517f89c0039600000000000000000000000000000000000000000000000000000000815273ffffffffffffffffffffffffffffffffffffffff7f00000000000000000000000000000000000000000000000000000000000000001660048201526024015b60405180910390fd5b61025161024c3660046113fe565b610577565b60405190151581526020015b60405180910390f35b610279610274366004611447565b610650565b60405161025d9190600060a0820190508251600f0b82526020830151600f0b6020830152604083015167ffffffffffffffff808216604085015280606086015116606085015250506fffffffffffffffffffffffffffffffff608084015116608083015292915050565b61031f6040518060400160405280601281526020017f566f74696e6720457363726f77204f4c4153000000000000000000000000000081525081565b60405161025d9190611460565b61025161033a3660046114f5565b610727565b610347610794565b60405190815260200161025d565b61037c7f000000000000000000000000000000000000000000000000000000000000000081565b60405173ffffffffffffffffffffffffffffffffffffffff909116815260200161025d565b61025161033a36600461151f565b6103b7601281565b60405160ff909116815260200161025d565b6103476103d73660046114f5565b61082a565b61034761092d565b6103476103f236600461155b565b61099a565b6103476104053660046114f5565b610a50565b61034761041836600461155b565b610b0c565b610347610b85565b61037c61043336600461155b565b610bf2565b61044b61044636600461155b565b610c5f565b005b61034761045b36600461155b565b610cc9565b61047361046e36600461158f565b610d42565b604051600f9190910b815260200161025d565b610347610494366004611447565b610dfd565b61031f6040518060400160405280600681526020017f76654f4c4153000000000000000000000000000000000000000000000000000081525081565b6103476104e3366004611447565b610e73565b6103476104f636600461155b565b610ee9565b6102796105093660046114f5565b610f62565b61034761051c366004611447565b6110fd565b61044b6104463660046115ac565b61027961053d36600461155b565b611363565b61034761033a36600461160c565b61037c7f000000000000000000000000000000000000000000000000000000000000000081565b6040517f01ffc9a70000000000000000000000000000000000000000000000000000000081527fffffffff00000000000000000000000000000000000000000000000000000000821660048201526000907f000000000000000000000000000000000000000000000000000000000000000073ffffffffffffffffffffffffffffffffffffffff16906301ffc9a790602401602060405180830381865afa158015610626573d6000803e3d6000fd5b505050506040513d601f19601f8201168201806040525081019061064a919061163f565b92915050565b6040805160a08101825260008082526020820181905281830181905260608201819052608082015290517f025fc7d80000000000000000000000000000000000000000000000000000000081526004810183905273ffffffffffffffffffffffffffffffffffffffff7f0000000000000000000000000000000000000000000000000000000000000000169063025fc7d8906024015b60a060405180830381865afa158015610703573d6000803e3d6000fd5b505050506040513d601f19601f8201168201806040525081019061064a9190611693565b6040517f9c21e7b200000000000000000000000000000000000000000000000000000000815273ffffffffffffffffffffffffffffffffffffffff7f0000000000000000000000000000000000000000000000000000000000000000166004820152600090602401610235565b60007f000000000000000000000000000000000000000000000000000000000000000073ffffffffffffffffffffffffffffffffffffffff166318160ddd6040518163ffffffff1660e01b8152600401602060405180830381865afa158015610801573d6000803e3d6000fd5b505050506040513d601f19601f82011682018060405250810190610825919061174c565b905090565b600080610838846000610f62565b90506000816060015167ffffffffffffffff161180156108665750806060015167ffffffffffffffff168310155b15610926576040517f3a46b1a800000000000000000000000000000000000000000000000000000000815273ffffffffffffffffffffffffffffffffffffffff8581166004830152602482018590527f00000000000000000000000000000000000000000000000000000000000000001690633a46b1a8906044015b602060405180830381865afa1580156108ff573d6000803e3d6000fd5b505050506040513d601f19601f82011682018060405250810190610923919061174c565b91505b5092915050565b60007f000000000000000000000000000000000000000000000000000000000000000073ffffffffffffffffffffffffffffffffffffffff1663474177ec6040518163ffffffff1660e01b8152600401602060405180830381865afa158015610801573d6000803e3d6000fd5b6040517f4deafcae00000000000000000000000000000000000000000000000000000000815273ffffffffffffffffffffffffffffffffffffffff82811660048301526000917f000000000000000000000000000000000000000000000000000000000000000090911690634deafcae906024015b602060405180830381865afa158015610a2c573d6000803e3d6000fd5b505050506040513d601f19601f8201168201806040525081019061064a919061174c565b600080610a5e846000610f62565b90506000816060015167ffffffffffffffff16118015610a8c5750806060015167ffffffffffffffff168310155b15610926576040517f4ee2cd7e00000000000000000000000000000000000000000000000000000000815273ffffffffffffffffffffffffffffffffffffffff8581166004830152602482018590527f00000000000000000000000000000000000000000000000000000000000000001690634ee2cd7e906044016108e2565b6040517f53acfabd00000000000000000000000000000000000000000000000000000000815273ffffffffffffffffffffffffffffffffffffffff82811660048301526000917f0000000000000000000000000000000000000000000000000000000000000000909116906353acfabd90602401610a0f565b60007f000000000000000000000000000000000000000000000000000000000000000073ffffffffffffffffffffffffffffffffffffffff1663583419226040518163ffffffff1660e01b8152600401602060405180830381865afa158015610801573d6000803e3d6000fd5b6040517f535db4ec00000000000000000000000000000000000000000000000000000000815273ffffffffffffffffffffffffffffffffffffffff7f0000000000000000000000000000000000000000000000000000000000000000166004820152600090602401610235565b6040517f535db4ec00000000000000000000000000000000000000000000000000000000815273ffffffffffffffffffffffffffffffffffffffff7f0000000000000000000000000000000000000000000000000000000000000000166004820152602401610235565b6040517f70a0823100000000000000000000000000000000000000000000000000000000815273ffffffffffffffffffffffffffffffffffffffff82811660048301526000917f0000000000000000000000000000000000000000000000000000000000000000909116906370a0823190602401610a0f565b6040517f78888dbf00000000000000000000000000000000000000000000000000000000815267ffffffffffffffff821660048201526000907f000000000000000000000000000000000000000000000000000000000000000073ffffffffffffffffffffffffffffffffffffffff16906378888dbf90602401602060405180830381865afa158015610dd9573d6000803e3d6000fd5b505050506040513d601f19601f8201168201806040525081019061064a9190611765565b6040517f8e539e8c000000000000000000000000000000000000000000000000000000008152600481018290526000907f000000000000000000000000000000000000000000000000000000000000000073ffffffffffffffffffffffffffffffffffffffff1690638e539e8c90602401610a0f565b6040517f981b24d0000000000000000000000000000000000000000000000000000000008152600481018290526000907f000000000000000000000000000000000000000000000000000000000000000073ffffffffffffffffffffffffffffffffffffffff169063981b24d090602401610a0f565b6040517f9ab24eb000000000000000000000000000000000000000000000000000000000815273ffffffffffffffffffffffffffffffffffffffff82811660048301526000917f000000000000000000000000000000000000000000000000000000000000000090911690639ab24eb090602401610a0f565b6040805160a081018252600080825260208201819052818301819052606082018190526080820181905291517f53acfabd00000000000000000000000000000000000000000000000000000000815273ffffffffffffffffffffffffffffffffffffffff85811660048301529192917f000000000000000000000000000000000000000000000000000000000000000016906353acfabd90602401602060405180830381865afa15801561101a573d6000803e3d6000fd5b505050506040513d601f19601f8201168201806040525081019061103e919061174c565b90508015610926576040517fb0a34fdd00000000000000000000000000000000000000000000000000000000815273ffffffffffffffffffffffffffffffffffffffff8581166004830152602482018590527f0000000000000000000000000000000000000000000000000000000000000000169063b0a34fdd9060440160a060405180830381865afa1580156110d9573d6000803e3d6000fd5b505050506040513d601f19601f820116820180604052508101906109239190611693565b6000807f000000000000000000000000000000000000000000000000000000000000000073ffffffffffffffffffffffffffffffffffffffff1663474177ec6040518163ffffffff1660e01b8152600401602060405180830381865afa15801561116b573d6000803e3d6000fd5b505050506040513d601f19601f8201168201806040525081019061118f919061174c565b6040517f025fc7d80000000000000000000000000000000000000000000000000000000081526004810182905290915060009073ffffffffffffffffffffffffffffffffffffffff7f0000000000000000000000000000000000000000000000000000000000000000169063025fc7d89060240160a060405180830381865afa158015611220573d6000803e3d6000fd5b505050506040513d601f19601f820116820180604052508101906112449190611693565b9050806040015167ffffffffffffffff168410611311576040517fb18f2702000000000000000000000000000000000000000000000000000000008152600481018590527f000000000000000000000000000000000000000000000000000000000000000073ffffffffffffffffffffffffffffffffffffffff169063b18f270290602401602060405180830381865afa1580156112e6573d6000803e3d6000fd5b505050506040513d601f19601f8201168201806040525081019061130a919061174c565b925061135c565b60408082015190517f1ecf6bc300000000000000000000000000000000000000000000000000000000815267ffffffffffffffff909116600482015260248101859052604401610235565b5050919050565b6040805160a08101825260008082526020820181905281830181905260608201819052608082015290517fc4698ee500000000000000000000000000000000000000000000000000000000815273ffffffffffffffffffffffffffffffffffffffff83811660048301527f0000000000000000000000000000000000000000000000000000000000000000169063c4698ee5906024016106e6565b60006020828403121561141057600080fd5b81357fffffffff000000000000000000000000000000000000000000000000000000008116811461144057600080fd5b9392505050565b60006020828403121561145957600080fd5b5035919050565b600060208083528351808285015260005b8181101561148d57858101830151858201604001528201611471565b5060006040828601015260407fffffffffffffffffffffffffffffffffffffffffffffffffffffffffffffffe0601f8301168501019250505092915050565b803573ffffffffffffffffffffffffffffffffffffffff811681146114f057600080fd5b919050565b6000806040838503121561150857600080fd5b611511836114cc565b946020939093013593505050565b60008060006060848603121561153457600080fd5b61153d846114cc565b925061154b602085016114cc565b9150604084013590509250925092565b60006020828403121561156d57600080fd5b611440826114cc565b67ffffffffffffffff8116811461158c57600080fd5b50565b6000602082840312156115a157600080fd5b813561144081611576565b60008060008060008060c087890312156115c557600080fd5b6115ce876114cc565b95506020870135945060408701359350606087013560ff811681146115f257600080fd5b9598949750929560808101359460a0909101359350915050565b6000806040838503121561161f57600080fd5b611628836114cc565b9150611636602084016114cc565b90509250929050565b60006020828403121561165157600080fd5b8151801515811461144057600080fd5b8051600f81900b81146114f057600080fd5b80516fffffffffffffffffffffffffffffffff811681146114f057600080fd5b600060a082840312156116a557600080fd5b60405160a0810181811067ffffffffffffffff821117156116ef577f4e487b7100000000000000000000000000000000000000000000000000000000600052604160045260246000fd5b6040526116fb83611661565b815261170960208401611661565b6020820152604083015161171c81611576565b6040820152606083015161172f81611576565b606082015261174060808401611673565b60808201529392505050565b60006020828403121561175e57600080fd5b5051919050565b60006020828403121561177757600080fd5b6114408261166156fea26469706673582212209558eb327833dffab1b25c8bf23ee9cf0de0c348bc9cd41ef2da381cdafe470164736f6c63430008130033",
  "linkReferences": {},
  "deployedLinkReferences": {}
}