{
  "_format": "hh-sol-artifact-1",
  "contractName": "wveOLAS",
  "sourceName": "contracts/wveOLAS.sol",
  "abi": [
    {
      "inputs": [
        {
          "internalType": "address",
          "name": "_ve",
          "type": "address"
        }
      ],
      "stateMutability": "nonpayable",
      "type": "constructor"
    },
    {
      "inputs": [
        {
          "internalType": "address",
          "name": "ve",
          "type": "address"
        }
      ],
      "name": "ImplementedIn",
      "type": "error"
    },
    {
      "inputs": [
        {
          "internalType": "uint256",
          "name": "minTimeStamp",
          "type": "uint256"
        },
        {
          "internalType": "uint256",
          "name": "providedTimeStamp",
          "type": "uint256"
        }
      ],
      "name": "WrongTimestamp",
      "type": "error"
    },
    {
      "inputs": [],
      "name": "ZeroVEOLASAddress",
      "type": "error"
    },
    {
      "stateMutability": "nonpayable",
      "type": "fallback"
    },
    {
      "inputs": [
        {
          "internalType": "address",
          "name": "owner",
          "type": "address"
        },
        {
          "internalType": "address",
          "name": "spender",
          "type": "address"
        }
      ],
      "name": "allowance",
      "outputs": [
        {
          "internalType": "uint256",
          "name": "",
          "type": "uint256"
        }
      ],
      "stateMutability": "view",
      "type": "function"
    },
    {
      "inputs": [
        {
          "internalType": "address",
          "name": "account",
          "type": "address"
        }
      ],
      "name": "balanceOf",
      "outputs": [
        {
          "internalType": "uint256",
          "name": "balance",
          "type": "uint256"
        }
      ],
      "stateMutability": "view",
      "type": "function"
    },
    {
      "inputs": [
        {
          "internalType": "address",
          "name": "account",
          "type": "address"
        },
        {
          "internalType": "uint256",
          "name": "blockNumber",
          "type": "uint256"
        }
      ],
      "name": "balanceOfAt",
      "outputs": [
        {
          "internalType": "uint256",
          "name": "balance",
          "type": "uint256"
        }
      ],
      "stateMutability": "view",
      "type": "function"
    },
    {
      "inputs": [
        {
          "internalType": "address",
          "name": "account",
          "type": "address"
        }
      ],
      "name": "delegates",
      "outputs": [
        {
          "internalType": "address",
          "name": "",
          "type": "address"
        }
      ],
      "stateMutability": "view",
      "type": "function"
    },
    {
      "inputs": [
        {
          "internalType": "address",
          "name": "account",
          "type": "address"
        }
      ],
      "name": "getLastUserPoint",
      "outputs": [
        {
          "components": [
            {
              "internalType": "int128",
              "name": "bias",
              "type": "int128"
            },
            {
              "internalType": "int128",
              "name": "slope",
              "type": "int128"
            },
            {
              "internalType": "uint64",
              "name": "ts",
              "type": "uint64"
            },
            {
              "internalType": "uint64",
              "name": "blockNumber",
              "type": "uint64"
            },
            {
              "internalType": "uint128",
              "name": "balance",
              "type": "uint128"
            }
          ],
          "internalType": "struct PointVoting",
          "name": "pv",
          "type": "tuple"
        }
      ],
      "stateMutability": "view",
      "type": "function"
    },
    {
      "inputs": [
        {
          "internalType": "address",
          "name": "account",
          "type": "address"
        }
      ],
      "name": "getNumUserPoints",
      "outputs": [
        {
          "internalType": "uint256",
          "name": "userNumPoints",
          "type": "uint256"
        }
      ],
      "stateMutability": "view",
      "type": "function"
    },
    {
      "inputs": [
        {
          "internalType": "uint256",
          "name": "blockNumber",
          "type": "uint256"
        }
      ],
      "name": "getPastTotalSupply",
      "outputs": [
        {
          "internalType": "uint256",
          "name": "vPower",
          "type": "uint256"
        }
      ],
      "stateMutability": "view",
      "type": "function"
    },
    {
      "inputs": [
        {
          "internalType": "address",
          "name": "account",
          "type": "address"
        },
        {
          "internalType": "uint256",
          "name": "blockNumber",
          "type": "uint256"
        }
      ],
      "name": "getPastVotes",
      "outputs": [
        {
          "internalType": "uint256",
          "name": "balance",
          "type": "uint256"
        }
      ],
      "stateMutability": "view",
      "type": "function"
    },
    {
      "inputs": [
        {
          "internalType": "address",
          "name": "account",
          "type": "address"
        },
        {
          "internalType": "uint256",
          "name": "idx",
          "type": "uint256"
        }
      ],
      "name": "getUserPoint",
      "outputs": [
        {
          "components": [
            {
              "internalType": "int128",
              "name": "bias",
              "type": "int128"
            },
            {
              "internalType": "int128",
              "name": "slope",
              "type": "int128"
            },
            {
              "internalType": "uint64",
              "name": "ts",
              "type": "uint64"
            },
            {
              "internalType": "uint64",
              "name": "blockNumber",
              "type": "uint64"
            },
            {
              "internalType": "uint128",
              "name": "balance",
              "type": "uint128"
            }
          ],
          "internalType": "struct PointVoting",
          "name": "uPoint",
          "type": "tuple"
        }
      ],
      "stateMutability": "view",
      "type": "function"
    },
    {
      "inputs": [
        {
          "internalType": "address",
          "name": "account",
          "type": "address"
        }
      ],
      "name": "getVotes",
      "outputs": [
        {
          "internalType": "uint256",
          "name": "balance",
          "type": "uint256"
        }
      ],
      "stateMutability": "view",
      "type": "function"
    },
    {
      "inputs": [
        {
          "internalType": "address",
          "name": "account",
          "type": "address"
        }
      ],
      "name": "lockedEnd",
      "outputs": [
        {
          "internalType": "uint256",
          "name": "unlockTime",
          "type": "uint256"
        }
      ],
      "stateMutability": "view",
      "type": "function"
    },
    {
      "inputs": [
        {
          "internalType": "bytes4",
          "name": "interfaceId",
          "type": "bytes4"
        }
      ],
      "name": "supportsInterface",
      "outputs": [
        {
          "internalType": "bool",
          "name": "",
          "type": "bool"
        }
      ],
      "stateMutability": "view",
      "type": "function"
    },
    {
      "inputs": [],
      "name": "totalSupply",
      "outputs": [
        {
          "internalType": "uint256",
          "name": "supply",
          "type": "uint256"
        }
      ],
      "stateMutability": "view",
      "type": "function"
    },
    {
      "inputs": [
        {
          "internalType": "uint256",
          "name": "blockNumber",
          "type": "uint256"
        }
      ],
      "name": "totalSupplyAt",
      "outputs": [
        {
          "internalType": "uint256",
          "name": "supplyAt",
          "type": "uint256"
        }
      ],
      "stateMutability": "view",
      "type": "function"
    },
    {
      "inputs": [],
      "name": "totalSupplyLocked",
      "outputs": [
        {
          "internalType": "uint256",
          "name": "vPower",
          "type": "uint256"
        }
      ],
      "stateMutability": "view",
      "type": "function"
    },
    {
      "inputs": [
        {
          "internalType": "uint256",
          "name": "ts",
          "type": "uint256"
        }
      ],
      "name": "totalSupplyLockedAtT",
      "outputs": [
        {
          "internalType": "uint256",
          "name": "vPower",
          "type": "uint256"
        }
      ],
      "stateMutability": "view",
      "type": "function"
    },
    {
      "inputs": [],
      "name": "ve",
      "outputs": [
        {
          "internalType": "address",
          "name": "",
          "type": "address"
        }
      ],
      "stateMutability": "view",
      "type": "function"
    }
  ],
  "bytecode": "0x60a060405234801561001057600080fd5b5060405161142338038061142383398101604081905261002f91610067565b6001600160a01b03811661005657604051633eaaeb6f60e01b815260040160405180910390fd5b6001600160a01b0316608052610097565b60006020828403121561007957600080fd5b81516001600160a01b038116811461009057600080fd5b9392505050565b6080516112e561013e60003960008181610158015281816101cd015281816103d00152818161045a0152818161057901528181610637015281816107160152818161078d015281816107c201528181610873015281816109280152818161098b01528181610a0101528181610a8d01528181610b2f01528181610bee01528181610c5e01528181610d3501528181610de601528181610f2b0152610fe601526112e56000f3fe608060405234801561001057600080fd5b506004361061011b5760003560e01c8063587cde1e116100b25780639ab24eb011610081578063b18f270211610066578063b18f270214610344578063c4698ee514610357578063dd62ed3e1461036a5761011b565b80639ab24eb0146102b4578063b0a34fdd146102c75761011b565b8063587cde1e1461026857806370a082311461027b5780638e539e8c1461028e578063981b24d0146102a15761011b565b80634deafcae116100ee5780634deafcae146102275780634ee2cd7e1461023a57806353acfabd1461024d57806358341922146102605761011b565b806301ffc9a71461018a57806318160ddd146101b25780631f850716146101c85780633a46b1a814610214575b6040517f89c0039600000000000000000000000000000000000000000000000000000000815273ffffffffffffffffffffffffffffffffffffffff7f00000000000000000000000000000000000000000000000000000000000000001660048201526024015b60405180910390fd5b61019d61019836600461105a565b61037d565b60405190151581526020015b60405180910390f35b6101ba610456565b6040519081526020016101a9565b6101ef7f000000000000000000000000000000000000000000000000000000000000000081565b60405173ffffffffffffffffffffffffffffffffffffffff90911681526020016101a9565b6101ba6102223660046110c1565b6104ec565b6101ba6102353660046110ed565b6105ef565b6101ba6102483660046110c1565b6106a5565b6101ba61025b3660046110ed565b610745565b6101ba6107be565b6101ef6102763660046110ed565b61082b565b6101ba6102893660046110ed565b6108e0565b6101ba61029c36600461110a565b610959565b6101ba6102af36600461110a565b6109cf565b6101ba6102c23660046110ed565b610a45565b6102da6102d53660046110c1565b610abe565b6040516101a99190600060a0820190508251600f0b82526020830151600f0b6020830152604083015167ffffffffffffffff808216604085015280606086015116606085015250506fffffffffffffffffffffffffffffffff608084015116608083015292915050565b6101ba61035236600461110a565b610c59565b6102da6103653660046110ed565b610ebf565b6101ba610378366004611123565b610f96565b6040517f01ffc9a70000000000000000000000000000000000000000000000000000000081527fffffffff00000000000000000000000000000000000000000000000000000000821660048201526000907f000000000000000000000000000000000000000000000000000000000000000073ffffffffffffffffffffffffffffffffffffffff16906301ffc9a790602401602060405180830381865afa15801561042c573d6000803e3d6000fd5b505050506040513d601f19601f82011682018060405250810190610450919061115c565b92915050565b60007f000000000000000000000000000000000000000000000000000000000000000073ffffffffffffffffffffffffffffffffffffffff166318160ddd6040518163ffffffff1660e01b8152600401602060405180830381865afa1580156104c3573d6000803e3d6000fd5b505050506040513d601f19601f820116820180604052508101906104e7919061117e565b905090565b6000806104fa846000610abe565b90506000816060015167ffffffffffffffff161180156105285750806060015167ffffffffffffffff168310155b156105e8576040517f3a46b1a800000000000000000000000000000000000000000000000000000000815273ffffffffffffffffffffffffffffffffffffffff8581166004830152602482018590527f00000000000000000000000000000000000000000000000000000000000000001690633a46b1a8906044015b602060405180830381865afa1580156105c1573d6000803e3d6000fd5b505050506040513d601f19601f820116820180604052508101906105e5919061117e565b91505b5092915050565b6040517f4deafcae00000000000000000000000000000000000000000000000000000000815273ffffffffffffffffffffffffffffffffffffffff82811660048301526000917f000000000000000000000000000000000000000000000000000000000000000090911690634deafcae906024015b602060405180830381865afa158015610681573d6000803e3d6000fd5b505050506040513d601f19601f82011682018060405250810190610450919061117e565b6000806106b3846000610abe565b9050806060015167ffffffffffffffff1683106105e8576040517f4ee2cd7e00000000000000000000000000000000000000000000000000000000815273ffffffffffffffffffffffffffffffffffffffff8581166004830152602482018590527f00000000000000000000000000000000000000000000000000000000000000001690634ee2cd7e906044016105a4565b6040517f53acfabd00000000000000000000000000000000000000000000000000000000815273ffffffffffffffffffffffffffffffffffffffff82811660048301526000917f0000000000000000000000000000000000000000000000000000000000000000909116906353acfabd90602401610664565b60007f000000000000000000000000000000000000000000000000000000000000000073ffffffffffffffffffffffffffffffffffffffff1663583419226040518163ffffffff1660e01b8152600401602060405180830381865afa1580156104c3573d6000803e3d6000fd5b6040517f587cde1e00000000000000000000000000000000000000000000000000000000815273ffffffffffffffffffffffffffffffffffffffff82811660048301526000917f00000000000000000000000000000000000000000000000000000000000000009091169063587cde1e90602401602060405180830381865afa1580156108bc573d6000803e3d6000fd5b505050506040513d601f19601f820116820180604052508101906104509190611197565b6040517f70a0823100000000000000000000000000000000000000000000000000000000815273ffffffffffffffffffffffffffffffffffffffff82811660048301526000917f0000000000000000000000000000000000000000000000000000000000000000909116906370a0823190602401610664565b6040517f8e539e8c000000000000000000000000000000000000000000000000000000008152600481018290526000907f000000000000000000000000000000000000000000000000000000000000000073ffffffffffffffffffffffffffffffffffffffff1690638e539e8c90602401610664565b6040517f981b24d0000000000000000000000000000000000000000000000000000000008152600481018290526000907f000000000000000000000000000000000000000000000000000000000000000073ffffffffffffffffffffffffffffffffffffffff169063981b24d090602401610664565b6040517f9ab24eb000000000000000000000000000000000000000000000000000000000815273ffffffffffffffffffffffffffffffffffffffff82811660048301526000917f000000000000000000000000000000000000000000000000000000000000000090911690639ab24eb090602401610664565b6040805160a081018252600080825260208201819052818301819052606082018190526080820181905291517f53acfabd00000000000000000000000000000000000000000000000000000000815273ffffffffffffffffffffffffffffffffffffffff85811660048301529192917f000000000000000000000000000000000000000000000000000000000000000016906353acfabd90602401602060405180830381865afa158015610b76573d6000803e3d6000fd5b505050506040513d601f19601f82011682018060405250810190610b9a919061117e565b905080156105e8576040517fb0a34fdd00000000000000000000000000000000000000000000000000000000815273ffffffffffffffffffffffffffffffffffffffff8581166004830152602482018590527f0000000000000000000000000000000000000000000000000000000000000000169063b0a34fdd9060440160a060405180830381865afa158015610c35573d6000803e3d6000fd5b505050506040513d601f19601f820116820180604052508101906105e591906111e3565b6000807f000000000000000000000000000000000000000000000000000000000000000073ffffffffffffffffffffffffffffffffffffffff1663474177ec6040518163ffffffff1660e01b8152600401602060405180830381865afa158015610cc7573d6000803e3d6000fd5b505050506040513d601f19601f82011682018060405250810190610ceb919061117e565b6040517f025fc7d80000000000000000000000000000000000000000000000000000000081526004810182905290915060009073ffffffffffffffffffffffffffffffffffffffff7f0000000000000000000000000000000000000000000000000000000000000000169063025fc7d89060240160a060405180830381865afa158015610d7c573d6000803e3d6000fd5b505050506040513d601f19601f82011682018060405250810190610da091906111e3565b9050806040015167ffffffffffffffff168410610e6d576040517fb18f2702000000000000000000000000000000000000000000000000000000008152600481018590527f000000000000000000000000000000000000000000000000000000000000000073ffffffffffffffffffffffffffffffffffffffff169063b18f270290602401602060405180830381865afa158015610e42573d6000803e3d6000fd5b505050506040513d601f19601f82011682018060405250810190610e66919061117e565b9250610eb8565b60408082015190517f1ecf6bc300000000000000000000000000000000000000000000000000000000815267ffffffffffffffff909116600482015260248101859052604401610181565b5050919050565b6040805160a08101825260008082526020820181905281830181905260608201819052608082015290517fc4698ee500000000000000000000000000000000000000000000000000000000815273ffffffffffffffffffffffffffffffffffffffff83811660048301527f0000000000000000000000000000000000000000000000000000000000000000169063c4698ee59060240160a060405180830381865afa158015610f72573d6000803e3d6000fd5b505050506040513d601f19601f8201168201806040525081019061045091906111e3565b6040517fdd62ed3e00000000000000000000000000000000000000000000000000000000815273ffffffffffffffffffffffffffffffffffffffff838116600483015282811660248301526000917f00000000000000000000000000000000000000000000000000000000000000009091169063dd62ed3e90604401602060405180830381865afa15801561102f573d6000803e3d6000fd5b505050506040513d601f19601f82011682018060405250810190611053919061117e565b9392505050565b60006020828403121561106c57600080fd5b81357fffffffff000000000000000000000000000000000000000000000000000000008116811461105357600080fd5b73ffffffffffffffffffffffffffffffffffffffff811681146110be57600080fd5b50565b600080604083850312156110d457600080fd5b82356110df8161109c565b946020939093013593505050565b6000602082840312156110ff57600080fd5b81356110538161109c565b60006020828403121561111c57600080fd5b5035919050565b6000806040838503121561113657600080fd5b82356111418161109c565b915060208301356111518161109c565b809150509250929050565b60006020828403121561116e57600080fd5b8151801515811461105357600080fd5b60006020828403121561119057600080fd5b5051919050565b6000602082840312156111a957600080fd5b81516110538161109c565b8051600f81900b81146111c657600080fd5b919050565b805167ffffffffffffffff811681146111c657600080fd5b600060a082840312156111f557600080fd5b60405160a0810181811067ffffffffffffffff8211171561123f577f4e487b7100000000000000000000000000000000000000000000000000000000600052604160045260246000fd5b60405261124b836111b4565b8152611259602084016111b4565b602082015261126a604084016111cb565b604082015261127b606084016111cb565b606082015260808301516fffffffffffffffffffffffffffffffff811681146112a357600080fd5b6080820152939250505056fea2646970667358221220ce7ab5970a7c0adee29aa4782d5bd36c78626dd0003d4824db0f01369c2641e564736f6c634300080f0033",
  "linkReferences": {},
  "deployedLinkReferences": {}
}