{
  "_format": "hh-sol-artifact-1",
  "contractName": "GovernorOLAS",
  "sourceName": "contracts/GovernorOLAS.sol",
  "abi": [
    {
      "inputs": [
        {
          "internalType": "contract IVotes",
          "name": "governanceToken",
          "type": "address"
        },
        {
          "internalType": "contract TimelockController",
          "name": "timelock",
          "type": "address"
        },
        {
          "internalType": "uint256",
          "name": "initialVotingDelay",
          "type": "uint256"
        },
        {
          "internalType": "uint256",
          "name": "initialVotingPeriod",
          "type": "uint256"
        },
        {
          "internalType": "uint256",
          "name": "initialProposalThreshold",
          "type": "uint256"
        },
        {
          "internalType": "uint256",
          "name": "quorumFraction",
          "type": "uint256"
        }
      ],
      "stateMutability": "nonpayable",
      "type": "constructor"
    },
    {
      "inputs": [],
      "name": "Empty",
      "type": "error"
    },
    {
      "inputs": [],
      "name": "InvalidShortString",
      "type": "error"
    },
    {
      "inputs": [
        {
          "internalType": "string",
          "name": "str",
          "type": "string"
        }
      ],
      "name": "StringTooLong",
      "type": "error"
    },
    {
      "anonymous": false,
      "inputs": [],
      "name": "EIP712DomainChanged",
      "type": "event"
    },
    {
      "anonymous": false,
      "inputs": [
        {
          "indexed": false,
          "internalType": "uint256",
          "name": "proposalId",
          "type": "uint256"
        }
      ],
      "name": "ProposalCanceled",
      "type": "event"
    },
    {
      "anonymous": false,
      "inputs": [
        {
          "indexed": false,
          "internalType": "uint256",
          "name": "proposalId",
          "type": "uint256"
        },
        {
          "indexed": false,
          "internalType": "address",
          "name": "proposer",
          "type": "address"
        },
        {
          "indexed": false,
          "internalType": "address[]",
          "name": "targets",
          "type": "address[]"
        },
        {
          "indexed": false,
          "internalType": "uint256[]",
          "name": "values",
          "type": "uint256[]"
        },
        {
          "indexed": false,
          "internalType": "string[]",
          "name": "signatures",
          "type": "string[]"
        },
        {
          "indexed": false,
          "internalType": "bytes[]",
          "name": "calldatas",
          "type": "bytes[]"
        },
        {
          "indexed": false,
          "internalType": "uint256",
          "name": "voteStart",
          "type": "uint256"
        },
        {
          "indexed": false,
          "internalType": "uint256",
          "name": "voteEnd",
          "type": "uint256"
        },
        {
          "indexed": false,
          "internalType": "string",
          "name": "description",
          "type": "string"
        }
      ],
      "name": "ProposalCreated",
      "type": "event"
    },
    {
      "anonymous": false,
      "inputs": [
        {
          "indexed": false,
          "internalType": "uint256",
          "name": "proposalId",
          "type": "uint256"
        }
      ],
      "name": "ProposalExecuted",
      "type": "event"
    },
    {
      "anonymous": false,
      "inputs": [
        {
          "indexed": false,
          "internalType": "uint256",
          "name": "proposalId",
          "type": "uint256"
        },
        {
          "indexed": false,
          "internalType": "uint256",
          "name": "eta",
          "type": "uint256"
        }
      ],
      "name": "ProposalQueued",
      "type": "event"
    },
    {
      "anonymous": false,
      "inputs": [
        {
          "indexed": false,
          "internalType": "uint256",
          "name": "oldProposalThreshold",
          "type": "uint256"
        },
        {
          "indexed": false,
          "internalType": "uint256",
          "name": "newProposalThreshold",
          "type": "uint256"
        }
      ],
      "name": "ProposalThresholdSet",
      "type": "event"
    },
    {
      "anonymous": false,
      "inputs": [
        {
          "indexed": false,
          "internalType": "uint256",
          "name": "oldQuorumNumerator",
          "type": "uint256"
        },
        {
          "indexed": false,
          "internalType": "uint256",
          "name": "newQuorumNumerator",
          "type": "uint256"
        }
      ],
      "name": "QuorumNumeratorUpdated",
      "type": "event"
    },
    {
      "anonymous": false,
      "inputs": [
        {
          "indexed": false,
          "internalType": "address",
          "name": "oldTimelock",
          "type": "address"
        },
        {
          "indexed": false,
          "internalType": "address",
          "name": "newTimelock",
          "type": "address"
        }
      ],
      "name": "TimelockChange",
      "type": "event"
    },
    {
      "anonymous": false,
      "inputs": [
        {
          "indexed": true,
          "internalType": "address",
          "name": "voter",
          "type": "address"
        },
        {
          "indexed": false,
          "internalType": "uint256",
          "name": "proposalId",
          "type": "uint256"
        },
        {
          "indexed": false,
          "internalType": "uint8",
          "name": "support",
          "type": "uint8"
        },
        {
          "indexed": false,
          "internalType": "uint256",
          "name": "weight",
          "type": "uint256"
        },
        {
          "indexed": false,
          "internalType": "string",
          "name": "reason",
          "type": "string"
        }
      ],
      "name": "VoteCast",
      "type": "event"
    },
    {
      "anonymous": false,
      "inputs": [
        {
          "indexed": true,
          "internalType": "address",
          "name": "voter",
          "type": "address"
        },
        {
          "indexed": false,
          "internalType": "uint256",
          "name": "proposalId",
          "type": "uint256"
        },
        {
          "indexed": false,
          "internalType": "uint8",
          "name": "support",
          "type": "uint8"
        },
        {
          "indexed": false,
          "internalType": "uint256",
          "name": "weight",
          "type": "uint256"
        },
        {
          "indexed": false,
          "internalType": "string",
          "name": "reason",
          "type": "string"
        },
        {
          "indexed": false,
          "internalType": "bytes",
          "name": "params",
          "type": "bytes"
        }
      ],
      "name": "VoteCastWithParams",
      "type": "event"
    },
    {
      "anonymous": false,
      "inputs": [
        {
          "indexed": false,
          "internalType": "uint256",
          "name": "oldVotingDelay",
          "type": "uint256"
        },
        {
          "indexed": false,
          "internalType": "uint256",
          "name": "newVotingDelay",
          "type": "uint256"
        }
      ],
      "name": "VotingDelaySet",
      "type": "event"
    },
    {
      "anonymous": false,
      "inputs": [
        {
          "indexed": false,
          "internalType": "uint256",
          "name": "oldVotingPeriod",
          "type": "uint256"
        },
        {
          "indexed": false,
          "internalType": "uint256",
          "name": "newVotingPeriod",
          "type": "uint256"
        }
      ],
      "name": "VotingPeriodSet",
      "type": "event"
    },
    {
      "inputs": [],
      "name": "BALLOT_TYPEHASH",
      "outputs": [
        {
          "internalType": "bytes32",
          "name": "",
          "type": "bytes32"
        }
      ],
      "stateMutability": "view",
      "type": "function"
    },
    {
      "inputs": [],
      "name": "CLOCK_MODE",
      "outputs": [
        {
          "internalType": "string",
          "name": "",
          "type": "string"
        }
      ],
      "stateMutability": "view",
      "type": "function"
    },
    {
      "inputs": [],
      "name": "COUNTING_MODE",
      "outputs": [
        {
          "internalType": "string",
          "name": "",
          "type": "string"
        }
      ],
      "stateMutability": "pure",
      "type": "function"
    },
    {
      "inputs": [],
      "name": "EXTENDED_BALLOT_TYPEHASH",
      "outputs": [
        {
          "internalType": "bytes32",
          "name": "",
          "type": "bytes32"
        }
      ],
      "stateMutability": "view",
      "type": "function"
    },
    {
      "inputs": [
        {
          "internalType": "uint256",
          "name": "proposalId",
          "type": "uint256"
        }
      ],
      "name": "cancel",
      "outputs": [],
      "stateMutability": "nonpayable",
      "type": "function"
    },
    {
      "inputs": [
        {
          "internalType": "address[]",
          "name": "targets",
          "type": "address[]"
        },
        {
          "internalType": "uint256[]",
          "name": "values",
          "type": "uint256[]"
        },
        {
          "internalType": "bytes[]",
          "name": "calldatas",
          "type": "bytes[]"
        },
        {
          "internalType": "bytes32",
          "name": "descriptionHash",
          "type": "bytes32"
        }
      ],
      "name": "cancel",
      "outputs": [
        {
          "internalType": "uint256",
          "name": "",
          "type": "uint256"
        }
      ],
      "stateMutability": "nonpayable",
      "type": "function"
    },
    {
      "inputs": [
        {
          "internalType": "uint256",
          "name": "proposalId",
          "type": "uint256"
        },
        {
          "internalType": "uint8",
          "name": "support",
          "type": "uint8"
        }
      ],
      "name": "castVote",
      "outputs": [
        {
          "internalType": "uint256",
          "name": "",
          "type": "uint256"
        }
      ],
      "stateMutability": "nonpayable",
      "type": "function"
    },
    {
      "inputs": [
        {
          "internalType": "uint256",
          "name": "proposalId",
          "type": "uint256"
        },
        {
          "internalType": "uint8",
          "name": "support",
          "type": "uint8"
        },
        {
          "internalType": "uint8",
          "name": "v",
          "type": "uint8"
        },
        {
          "internalType": "bytes32",
          "name": "r",
          "type": "bytes32"
        },
        {
          "internalType": "bytes32",
          "name": "s",
          "type": "bytes32"
        }
      ],
      "name": "castVoteBySig",
      "outputs": [
        {
          "internalType": "uint256",
          "name": "",
          "type": "uint256"
        }
      ],
      "stateMutability": "nonpayable",
      "type": "function"
    },
    {
      "inputs": [
        {
          "internalType": "uint256",
          "name": "proposalId",
          "type": "uint256"
        },
        {
          "internalType": "uint8",
          "name": "support",
          "type": "uint8"
        },
        {
          "internalType": "string",
          "name": "reason",
          "type": "string"
        }
      ],
      "name": "castVoteWithReason",
      "outputs": [
        {
          "internalType": "uint256",
          "name": "",
          "type": "uint256"
        }
      ],
      "stateMutability": "nonpayable",
      "type": "function"
    },
    {
      "inputs": [
        {
          "internalType": "uint256",
          "name": "proposalId",
          "type": "uint256"
        },
        {
          "internalType": "uint8",
          "name": "support",
          "type": "uint8"
        },
        {
          "internalType": "string",
          "name": "reason",
          "type": "string"
        },
        {
          "internalType": "bytes",
          "name": "params",
          "type": "bytes"
        }
      ],
      "name": "castVoteWithReasonAndParams",
      "outputs": [
        {
          "internalType": "uint256",
          "name": "",
          "type": "uint256"
        }
      ],
      "stateMutability": "nonpayable",
      "type": "function"
    },
    {
      "inputs": [
        {
          "internalType": "uint256",
          "name": "proposalId",
          "type": "uint256"
        },
        {
          "internalType": "uint8",
          "name": "support",
          "type": "uint8"
        },
        {
          "internalType": "string",
          "name": "reason",
          "type": "string"
        },
        {
          "internalType": "bytes",
          "name": "params",
          "type": "bytes"
        },
        {
          "internalType": "uint8",
          "name": "v",
          "type": "uint8"
        },
        {
          "internalType": "bytes32",
          "name": "r",
          "type": "bytes32"
        },
        {
          "internalType": "bytes32",
          "name": "s",
          "type": "bytes32"
        }
      ],
      "name": "castVoteWithReasonAndParamsBySig",
      "outputs": [
        {
          "internalType": "uint256",
          "name": "",
          "type": "uint256"
        }
      ],
      "stateMutability": "nonpayable",
      "type": "function"
    },
    {
      "inputs": [],
      "name": "clock",
      "outputs": [
        {
          "internalType": "uint48",
          "name": "",
          "type": "uint48"
        }
      ],
      "stateMutability": "view",
      "type": "function"
    },
    {
      "inputs": [],
      "name": "eip712Domain",
      "outputs": [
        {
          "internalType": "bytes1",
          "name": "fields",
          "type": "bytes1"
        },
        {
          "internalType": "string",
          "name": "name",
          "type": "string"
        },
        {
          "internalType": "string",
          "name": "version",
          "type": "string"
        },
        {
          "internalType": "uint256",
          "name": "chainId",
          "type": "uint256"
        },
        {
          "internalType": "address",
          "name": "verifyingContract",
          "type": "address"
        },
        {
          "internalType": "bytes32",
          "name": "salt",
          "type": "bytes32"
        },
        {
          "internalType": "uint256[]",
          "name": "extensions",
          "type": "uint256[]"
        }
      ],
      "stateMutability": "view",
      "type": "function"
    },
    {
      "inputs": [
        {
          "internalType": "address[]",
          "name": "targets",
          "type": "address[]"
        },
        {
          "internalType": "uint256[]",
          "name": "values",
          "type": "uint256[]"
        },
        {
          "internalType": "bytes[]",
          "name": "calldatas",
          "type": "bytes[]"
        },
        {
          "internalType": "bytes32",
          "name": "descriptionHash",
          "type": "bytes32"
        }
      ],
      "name": "execute",
      "outputs": [
        {
          "internalType": "uint256",
          "name": "",
          "type": "uint256"
        }
      ],
      "stateMutability": "payable",
      "type": "function"
    },
    {
      "inputs": [
        {
          "internalType": "uint256",
          "name": "proposalId",
          "type": "uint256"
        }
      ],
      "name": "execute",
      "outputs": [],
      "stateMutability": "payable",
      "type": "function"
    },
    {
      "inputs": [
        {
          "internalType": "uint256",
          "name": "proposalId",
          "type": "uint256"
        }
      ],
      "name": "getActions",
      "outputs": [
        {
          "internalType": "address[]",
          "name": "targets",
          "type": "address[]"
        },
        {
          "internalType": "uint256[]",
          "name": "values",
          "type": "uint256[]"
        },
        {
          "internalType": "string[]",
          "name": "signatures",
          "type": "string[]"
        },
        {
          "internalType": "bytes[]",
          "name": "calldatas",
          "type": "bytes[]"
        }
      ],
      "stateMutability": "view",
      "type": "function"
    },
    {
      "inputs": [
        {
          "internalType": "uint256",
          "name": "proposalId",
          "type": "uint256"
        },
        {
          "internalType": "address",
          "name": "voter",
          "type": "address"
        }
      ],
      "name": "getReceipt",
      "outputs": [
        {
          "components": [
            {
              "internalType": "bool",
              "name": "hasVoted",
              "type": "bool"
            },
            {
              "internalType": "uint8",
              "name": "support",
              "type": "uint8"
            },
            {
              "internalType": "uint96",
              "name": "votes",
              "type": "uint96"
            }
          ],
          "internalType": "struct IGovernorCompatibilityBravo.Receipt",
          "name": "",
          "type": "tuple"
        }
      ],
      "stateMutability": "view",
      "type": "function"
    },
    {
      "inputs": [
        {
          "internalType": "address",
          "name": "account",
          "type": "address"
        },
        {
          "internalType": "uint256",
          "name": "timepoint",
          "type": "uint256"
        }
      ],
      "name": "getVotes",
      "outputs": [
        {
          "internalType": "uint256",
          "name": "",
          "type": "uint256"
        }
      ],
      "stateMutability": "view",
      "type": "function"
    },
    {
      "inputs": [
        {
          "internalType": "address",
          "name": "account",
          "type": "address"
        },
        {
          "internalType": "uint256",
          "name": "timepoint",
          "type": "uint256"
        },
        {
          "internalType": "bytes",
          "name": "params",
          "type": "bytes"
        }
      ],
      "name": "getVotesWithParams",
      "outputs": [
        {
          "internalType": "uint256",
          "name": "",
          "type": "uint256"
        }
      ],
      "stateMutability": "view",
      "type": "function"
    },
    {
      "inputs": [
        {
          "internalType": "uint256",
          "name": "proposalId",
          "type": "uint256"
        },
        {
          "internalType": "address",
          "name": "account",
          "type": "address"
        }
      ],
      "name": "hasVoted",
      "outputs": [
        {
          "internalType": "bool",
          "name": "",
          "type": "bool"
        }
      ],
      "stateMutability": "view",
      "type": "function"
    },
    {
      "inputs": [
        {
          "internalType": "address[]",
          "name": "targets",
          "type": "address[]"
        },
        {
          "internalType": "uint256[]",
          "name": "values",
          "type": "uint256[]"
        },
        {
          "internalType": "bytes[]",
          "name": "calldatas",
          "type": "bytes[]"
        },
        {
          "internalType": "bytes32",
          "name": "descriptionHash",
          "type": "bytes32"
        }
      ],
      "name": "hashProposal",
      "outputs": [
        {
          "internalType": "uint256",
          "name": "",
          "type": "uint256"
        }
      ],
      "stateMutability": "pure",
      "type": "function"
    },
    {
      "inputs": [],
      "name": "name",
      "outputs": [
        {
          "internalType": "string",
          "name": "",
          "type": "string"
        }
      ],
      "stateMutability": "view",
      "type": "function"
    },
    {
      "inputs": [
        {
          "internalType": "address",
          "name": "",
          "type": "address"
        },
        {
          "internalType": "address",
          "name": "",
          "type": "address"
        },
        {
          "internalType": "uint256[]",
          "name": "",
          "type": "uint256[]"
        },
        {
          "internalType": "uint256[]",
          "name": "",
          "type": "uint256[]"
        },
        {
          "internalType": "bytes",
          "name": "",
          "type": "bytes"
        }
      ],
      "name": "onERC1155BatchReceived",
      "outputs": [
        {
          "internalType": "bytes4",
          "name": "",
          "type": "bytes4"
        }
      ],
      "stateMutability": "nonpayable",
      "type": "function"
    },
    {
      "inputs": [
        {
          "internalType": "address",
          "name": "",
          "type": "address"
        },
        {
          "internalType": "address",
          "name": "",
          "type": "address"
        },
        {
          "internalType": "uint256",
          "name": "",
          "type": "uint256"
        },
        {
          "internalType": "uint256",
          "name": "",
          "type": "uint256"
        },
        {
          "internalType": "bytes",
          "name": "",
          "type": "bytes"
        }
      ],
      "name": "onERC1155Received",
      "outputs": [
        {
          "internalType": "bytes4",
          "name": "",
          "type": "bytes4"
        }
      ],
      "stateMutability": "nonpayable",
      "type": "function"
    },
    {
      "inputs": [
        {
          "internalType": "address",
          "name": "",
          "type": "address"
        },
        {
          "internalType": "address",
          "name": "",
          "type": "address"
        },
        {
          "internalType": "uint256",
          "name": "",
          "type": "uint256"
        },
        {
          "internalType": "bytes",
          "name": "",
          "type": "bytes"
        }
      ],
      "name": "onERC721Received",
      "outputs": [
        {
          "internalType": "bytes4",
          "name": "",
          "type": "bytes4"
        }
      ],
      "stateMutability": "nonpayable",
      "type": "function"
    },
    {
      "inputs": [
        {
          "internalType": "uint256",
          "name": "proposalId",
          "type": "uint256"
        }
      ],
      "name": "proposalDeadline",
      "outputs": [
        {
          "internalType": "uint256",
          "name": "",
          "type": "uint256"
        }
      ],
      "stateMutability": "view",
      "type": "function"
    },
    {
      "inputs": [
        {
          "internalType": "uint256",
          "name": "proposalId",
          "type": "uint256"
        }
      ],
      "name": "proposalEta",
      "outputs": [
        {
          "internalType": "uint256",
          "name": "",
          "type": "uint256"
        }
      ],
      "stateMutability": "view",
      "type": "function"
    },
    {
      "inputs": [
        {
          "internalType": "uint256",
          "name": "proposalId",
          "type": "uint256"
        }
      ],
      "name": "proposalProposer",
      "outputs": [
        {
          "internalType": "address",
          "name": "",
          "type": "address"
        }
      ],
      "stateMutability": "view",
      "type": "function"
    },
    {
      "inputs": [
        {
          "internalType": "uint256",
          "name": "proposalId",
          "type": "uint256"
        }
      ],
      "name": "proposalSnapshot",
      "outputs": [
        {
          "internalType": "uint256",
          "name": "",
          "type": "uint256"
        }
      ],
      "stateMutability": "view",
      "type": "function"
    },
    {
      "inputs": [],
      "name": "proposalThreshold",
      "outputs": [
        {
          "internalType": "uint256",
          "name": "",
          "type": "uint256"
        }
      ],
      "stateMutability": "view",
      "type": "function"
    },
    {
      "inputs": [
        {
          "internalType": "uint256",
          "name": "proposalId",
          "type": "uint256"
        }
      ],
      "name": "proposals",
      "outputs": [
        {
          "internalType": "uint256",
          "name": "id",
          "type": "uint256"
        },
        {
          "internalType": "address",
          "name": "proposer",
          "type": "address"
        },
        {
          "internalType": "uint256",
          "name": "eta",
          "type": "uint256"
        },
        {
          "internalType": "uint256",
          "name": "startBlock",
          "type": "uint256"
        },
        {
          "internalType": "uint256",
          "name": "endBlock",
          "type": "uint256"
        },
        {
          "internalType": "uint256",
          "name": "forVotes",
          "type": "uint256"
        },
        {
          "internalType": "uint256",
          "name": "againstVotes",
          "type": "uint256"
        },
        {
          "internalType": "uint256",
          "name": "abstainVotes",
          "type": "uint256"
        },
        {
          "internalType": "bool",
          "name": "canceled",
          "type": "bool"
        },
        {
          "internalType": "bool",
          "name": "executed",
          "type": "bool"
        }
      ],
      "stateMutability": "view",
      "type": "function"
    },
    {
      "inputs": [
        {
          "internalType": "address[]",
          "name": "targets",
          "type": "address[]"
        },
        {
          "internalType": "uint256[]",
          "name": "values",
          "type": "uint256[]"
        },
        {
          "internalType": "bytes[]",
          "name": "calldatas",
          "type": "bytes[]"
        },
        {
          "internalType": "string",
          "name": "description",
          "type": "string"
        }
      ],
      "name": "propose",
      "outputs": [
        {
          "internalType": "uint256",
          "name": "",
          "type": "uint256"
        }
      ],
      "stateMutability": "nonpayable",
      "type": "function"
    },
    {
      "inputs": [
        {
          "internalType": "address[]",
          "name": "targets",
          "type": "address[]"
        },
        {
          "internalType": "uint256[]",
          "name": "values",
          "type": "uint256[]"
        },
        {
          "internalType": "string[]",
          "name": "signatures",
          "type": "string[]"
        },
        {
          "internalType": "bytes[]",
          "name": "calldatas",
          "type": "bytes[]"
        },
        {
          "internalType": "string",
          "name": "description",
          "type": "string"
        }
      ],
      "name": "propose",
      "outputs": [
        {
          "internalType": "uint256",
          "name": "",
          "type": "uint256"
        }
      ],
      "stateMutability": "nonpayable",
      "type": "function"
    },
    {
      "inputs": [
        {
          "internalType": "address[]",
          "name": "targets",
          "type": "address[]"
        },
        {
          "internalType": "uint256[]",
          "name": "values",
          "type": "uint256[]"
        },
        {
          "internalType": "bytes[]",
          "name": "calldatas",
          "type": "bytes[]"
        },
        {
          "internalType": "bytes32",
          "name": "descriptionHash",
          "type": "bytes32"
        }
      ],
      "name": "queue",
      "outputs": [
        {
          "internalType": "uint256",
          "name": "",
          "type": "uint256"
        }
      ],
      "stateMutability": "nonpayable",
      "type": "function"
    },
    {
      "inputs": [
        {
          "internalType": "uint256",
          "name": "proposalId",
          "type": "uint256"
        }
      ],
      "name": "queue",
      "outputs": [],
      "stateMutability": "nonpayable",
      "type": "function"
    },
    {
      "inputs": [
        {
          "internalType": "uint256",
          "name": "timepoint",
          "type": "uint256"
        }
      ],
      "name": "quorum",
      "outputs": [
        {
          "internalType": "uint256",
          "name": "",
          "type": "uint256"
        }
      ],
      "stateMutability": "view",
      "type": "function"
    },
    {
      "inputs": [],
      "name": "quorumDenominator",
      "outputs": [
        {
          "internalType": "uint256",
          "name": "",
          "type": "uint256"
        }
      ],
      "stateMutability": "view",
      "type": "function"
    },
    {
      "inputs": [
        {
          "internalType": "uint256",
          "name": "timepoint",
          "type": "uint256"
        }
      ],
      "name": "quorumNumerator",
      "outputs": [
        {
          "internalType": "uint256",
          "name": "",
          "type": "uint256"
        }
      ],
      "stateMutability": "view",
      "type": "function"
    },
    {
      "inputs": [],
      "name": "quorumNumerator",
      "outputs": [
        {
          "internalType": "uint256",
          "name": "",
          "type": "uint256"
        }
      ],
      "stateMutability": "view",
      "type": "function"
    },
    {
      "inputs": [],
      "name": "quorumVotes",
      "outputs": [
        {
          "internalType": "uint256",
          "name": "",
          "type": "uint256"
        }
      ],
      "stateMutability": "view",
      "type": "function"
    },
    {
      "inputs": [
        {
          "internalType": "address",
          "name": "target",
          "type": "address"
        },
        {
          "internalType": "uint256",
          "name": "value",
          "type": "uint256"
        },
        {
          "internalType": "bytes",
          "name": "data",
          "type": "bytes"
        }
      ],
      "name": "relay",
      "outputs": [],
      "stateMutability": "payable",
      "type": "function"
    },
    {
      "inputs": [
        {
          "internalType": "uint256",
          "name": "newProposalThreshold",
          "type": "uint256"
        }
      ],
      "name": "setProposalThreshold",
      "outputs": [],
      "stateMutability": "nonpayable",
      "type": "function"
    },
    {
      "inputs": [
        {
          "internalType": "uint256",
          "name": "newVotingDelay",
          "type": "uint256"
        }
      ],
      "name": "setVotingDelay",
      "outputs": [],
      "stateMutability": "nonpayable",
      "type": "function"
    },
    {
      "inputs": [
        {
          "internalType": "uint256",
          "name": "newVotingPeriod",
          "type": "uint256"
        }
      ],
      "name": "setVotingPeriod",
      "outputs": [],
      "stateMutability": "nonpayable",
      "type": "function"
    },
    {
      "inputs": [
        {
          "internalType": "uint256",
          "name": "proposalId",
          "type": "uint256"
        }
      ],
      "name": "state",
      "outputs": [
        {
          "internalType": "enum IGovernor.ProposalState",
          "name": "",
          "type": "uint8"
        }
      ],
      "stateMutability": "view",
      "type": "function"
    },
    {
      "inputs": [
        {
          "internalType": "bytes4",
          "name": "interfaceId",
          "type": "bytes4"
        }
      ],
      "name": "supportsInterface",
      "outputs": [
        {
          "internalType": "bool",
          "name": "",
          "type": "bool"
        }
      ],
      "stateMutability": "view",
      "type": "function"
    },
    {
      "inputs": [],
      "name": "timelock",
      "outputs": [
        {
          "internalType": "address",
          "name": "",
          "type": "address"
        }
      ],
      "stateMutability": "view",
      "type": "function"
    },
    {
      "inputs": [],
      "name": "token",
      "outputs": [
        {
          "internalType": "contract IERC5805",
          "name": "",
          "type": "address"
        }
      ],
      "stateMutability": "view",
      "type": "function"
    },
    {
      "inputs": [
        {
          "internalType": "uint256",
          "name": "newQuorumNumerator",
          "type": "uint256"
        }
      ],
      "name": "updateQuorumNumerator",
      "outputs": [],
      "stateMutability": "nonpayable",
      "type": "function"
    },
    {
      "inputs": [
        {
          "internalType": "contract TimelockController",
          "name": "newTimelock",
          "type": "address"
        }
      ],
      "name": "updateTimelock",
      "outputs": [],
      "stateMutability": "nonpayable",
      "type": "function"
    },
    {
      "inputs": [],
      "name": "version",
      "outputs": [
        {
          "internalType": "string",
          "name": "",
          "type": "string"
        }
      ],
      "stateMutability": "view",
      "type": "function"
    },
    {
      "inputs": [],
      "name": "votingDelay",
      "outputs": [
        {
          "internalType": "uint256",
          "name": "",
          "type": "uint256"
        }
      ],
      "stateMutability": "view",
      "type": "function"
    },
    {
      "inputs": [],
      "name": "votingPeriod",
      "outputs": [
        {
          "internalType": "uint256",
          "name": "",
          "type": "uint256"
        }
      ],
      "stateMutability": "view",
      "type": "function"
    },
    {
      "stateMutability": "payable",
      "type": "receive"
    }
  ],
  "bytecode": "0x61018060405234801562000011575f80fd5b506040516200640d3803806200640d833981016040819052620000349162000937565b8481878686866040518060400160405280600d81526020016c476f7665726e6f72204f4c415360981b81525080620000716200018a60201b60201c565b6200007d825f620001a5565b610120526200008e816001620001a5565b61014052815160208084019190912060e052815190820120610100524660a0526200011b60e05161010051604080517f8b73c3c69bb8fe3d512ecc4cf759cc79239f7b179b0ffacaa9a75d522b39400f60208201529081019290925260608201524660808201523060a08201525f9060c00160405160208183030381529060405280519060200120905090565b60805250503060c052600262000132828262000a36565b5062000140905083620001dd565b6200014b826200021e565b6200015681620002c4565b5050506001600160a01b031661016052620001718162000305565b506200017d8162000481565b5050505050505062000bb6565b6040805180820190915260018152603160f81b602082015290565b5f602083511015620001c457620001bc83620004ea565b9050620001d7565b81620001d1848262000a36565b5060ff90505b92915050565b60065460408051918252602082018390527fc565b045403dc03c2eea82b81a0465edad9e2e7fc4d97e11421c209da93d7a93910160405180910390a1600655565b5f8111620002835760405162461bcd60e51b815260206004820152602760248201527f476f7665726e6f7253657474696e67733a20766f74696e6720706572696f6420604482015266746f6f206c6f7760c81b60648201526084015b60405180910390fd5b60075460408051918252602082018390527f7e3f7f0708a84de9203036abaa450dccc85ad5ff52f78c170f3edb55cf5e8828910160405180910390a1600755565b60085460408051918252602082018390527fccb45da8d5717e6c4544694297c4ba5cf151d455c9bb0ed4fc7a38411bc05461910160405180910390a1600855565b60648111156200038a5760405162461bcd60e51b815260206004820152604360248201527f476f7665726e6f72566f74657351756f72756d4672616374696f6e3a2071756f60448201527f72756d4e756d657261746f72206f7665722071756f72756d44656e6f6d696e616064820152623a37b960e91b608482015260a4016200027a565b5f620003956200052c565b90508015801590620003a75750600b54155b156200040d57604080518082019091525f8152600b9060208101620003cc846200055a565b6001600160e01b0390811690915282546001810184555f938452602093849020835194909301519091166401000000000263ffffffff909316929092179101555b620004426200042d6200041f620005c8565b65ffffffffffff166200063e565b62000438846200055a565b600b9190620006a4565b505060408051828152602081018490527f0553476bf02ef2726e8ce5ced78d63e26e602e4a2257b1f559418e24b4633997910160405180910390a15050565b600c54604080516001600160a01b03928316815291831660208301527f08f74ea46ef7894f65eabfb5e6e695de773a000b47c529ab559178069b226401910160405180910390a1600c80546001600160a01b0319166001600160a01b0392909216919091179055565b5f80829050601f8151111562000517578260405163305a27a960e01b81526004016200027a919062000afe565b8051620005248262000b4b565b179392505050565b600b545f9015620005515762000543600b620006c0565b6001600160e01b0316905090565b600a545b905090565b5f6001600160e01b03821115620005c45760405162461bcd60e51b815260206004820152602760248201527f53616665436173743a2076616c756520646f65736e27742066697420696e20326044820152663234206269747360c81b60648201526084016200027a565b5090565b5f610160516001600160a01b03166391ddadf46040518163ffffffff1660e01b8152600401602060405180830381865afa92505050801562000629575060408051601f3d908101601f19168201909252620006269181019062000b6f565b60015b620006395762000555436200070b565b919050565b5f63ffffffff821115620005c45760405162461bcd60e51b815260206004820152602660248201527f53616665436173743a2076616c756520646f65736e27742066697420696e203360448201526532206269747360d01b60648201526084016200027a565b5f80620006b385858562000773565b915091505b935093915050565b80545f9080156200070257620006ea83620006dd60018462000b96565b5f91825260209091200190565b5464010000000090046001600160e01b031662000704565b5f5b9392505050565b5f65ffffffffffff821115620005c45760405162461bcd60e51b815260206004820152602660248201527f53616665436173743a2076616c756520646f65736e27742066697420696e203460448201526538206269747360d01b60648201526084016200027a565b82545f9081908015620008c5575f6200079387620006dd60018562000b96565b60408051808201909152905463ffffffff8082168084526401000000009092046001600160e01b031660208401529192509087161015620008175760405162461bcd60e51b815260206004820152601b60248201527f436865636b706f696e743a2064656372656173696e67206b657973000000000060448201526064016200027a565b805163ffffffff8088169116036200086557846200083c88620006dd60018662000b96565b80546001600160e01b03929092166401000000000263ffffffff909216919091179055620008b4565b6040805180820190915263ffffffff80881682526001600160e01b0380881660208085019182528b54600181018d555f8d81529190912094519151909216640100000000029216919091179101555b602001519250839150620006b89050565b50506040805180820190915263ffffffff80851682526001600160e01b0380851660208085019182528854600181018a555f8a815291822095519251909316640100000000029190931617920191909155905081620006b8565b6001600160a01b038116811462000934575f80fd5b50565b5f805f805f8060c087890312156200094d575f80fd5b86516200095a816200091f565b60208801519096506200096d816200091f565b6040880151606089015160808a015160a0909a0151989b929a5090989097909650945092505050565b634e487b7160e01b5f52604160045260245ffd5b600181811c90821680620009bf57607f821691505b602082108103620009de57634e487b7160e01b5f52602260045260245ffd5b50919050565b601f82111562000a31575f81815260208120601f850160051c8101602086101562000a0c5750805b601f850160051c820191505b8181101562000a2d5782815560010162000a18565b5050505b505050565b81516001600160401b0381111562000a525762000a5262000996565b62000a6a8162000a638454620009aa565b84620009e4565b602080601f83116001811462000aa0575f841562000a885750858301515b5f19600386901b1c1916600185901b17855562000a2d565b5f85815260208120601f198616915b8281101562000ad05788860151825594840194600190910190840162000aaf565b508582101562000aee57878501515f19600388901b60f8161c191681555b5050505050600190811b01905550565b5f6020808352835180828501525f5b8181101562000b2b5785810183015185820160400152820162000b0d565b505f604082860101526040601f19601f8301168501019250505092915050565b80516020808301519190811015620009de575f1960209190910360031b1b16919050565b5f6020828403121562000b80575f80fd5b815165ffffffffffff8116811462000704575f80fd5b81810381811115620001d757634e487b7160e01b5f52601160045260245ffd5b60805160a05160c05160e051610100516101205161014051610160516157df62000c2e5f395f8181610c010152818161161f0152818161199001528181611f720152612c6501525f61193e01525f61191401525f6131da01525f6131b201525f61310d01525f61313701525f61316101526157df5ff3fe60806040526004361061033d575f3560e01c80637b3c71d3116101b2578063c59057e4116100f2578063ea0217cf11610092578063f23a6e611161006d578063f23a6e6114610ba6578063f8ce560a14610bd1578063fc0c546a14610bf0578063fe0d94c114610c23575f80fd5b8063ea0217cf14610b49578063eb9019d414610b68578063ece40cc114610b87575f80fd5b8063dd4e2ba5116100cd578063dd4e2ba5146109e1578063ddf0b00914610a26578063deaaa7cc14610a45578063e23a9a5214610a78575f80fd5b8063c59057e414610986578063d33219b4146109a5578063da95691a146109c2575f80fd5b8063a7713a701161015d578063b58131b011610138578063b58131b0146108fc578063bc197c8114610910578063c01f9e371461093b578063c28bc2fa14610973575f80fd5b8063a7713a70146108aa578063a890c910146108be578063ab58fb8e146108dd575f80fd5b806391ddadf41161018d57806391ddadf41461084d57806397c3d334146108785780639a802a6d1461088b575f80fd5b80637b3c71d3146107e85780637d5e81e21461080757806384b0196e14610826575f80fd5b8063328dd9821161027d578063452115d6116102285780635678138811610203578063567813881461076c5780635f398a141461078b57806360c4247f146107aa57806370b0f660146107c9575f80fd5b8063452115d6146107105780634bf5d7e91461072f57806354fd4d5014610743575f80fd5b80633e4f49e6116102585780633e4f49e61461067d57806340e58ee5146106a957806343859632146106c8575f80fd5b8063328dd9821461061b5780633932abb11461064a5780633bccf4fd1461065e575f80fd5b8063143489d0116102e857806324bc1a64116102c357806324bc1a641461058c5780632656227d146105a05780632d63f693146105b35780632fe3e261146105e8575f80fd5b8063143489d0146104d2578063150b7a021461052a578063160cbed71461056d575f80fd5b80630342018111610318578063034201811461047357806306f3f9e61461049257806306fdde03146104b1575f80fd5b8063013cf08b146103ac57806301ffc9a71461042657806302a251a314610455575f80fd5b366103a8573061034b610c36565b6001600160a01b0316146103a65760405162461bcd60e51b815260206004820152601f60248201527f476f7665726e6f723a206d7573742073656e6420746f206578656375746f720060448201526064015b60405180910390fd5b005b5f80fd5b3480156103b7575f80fd5b506103cb6103c6366004614729565b610c4e565b604080519a8b526001600160a01b0390991660208b0152978901969096526060880194909452608087019290925260a086015260c085015260e084015215156101008301521515610120820152610140015b60405180910390f35b348015610431575f80fd5b50610445610440366004614740565b610d18565b604051901515815260200161041d565b348015610460575f80fd5b506007545b60405190815260200161041d565b34801561047e575f80fd5b5061046561048d36600461487a565b610d28565b34801561049d575f80fd5b506103a66104ac366004614729565b610e1e565b3480156104bc575f80fd5b506104c5610ed2565b60405161041d9190614967565b3480156104dd575f80fd5b506105126104ec366004614729565b5f908152600360205260409020546801000000000000000090046001600160a01b031690565b6040516001600160a01b03909116815260200161041d565b348015610535575f80fd5b5061055461054436600461498d565b630a85bd0160e11b949350505050565b6040516001600160e01b0319909116815260200161041d565b348015610578575f80fd5b50610465610587366004614b58565b610f62565b348015610597575f80fd5b50610465611190565b6104656105ae366004614b58565b6111b5565b3480156105be575f80fd5b506104656105cd366004614729565b5f9081526003602052604090205467ffffffffffffffff1690565b3480156105f3575f80fd5b506104657fb3b3f3b703cd84ce352197dcff232b1b5d3cfb2025ce47cf04742d0651f1af8881565b348015610626575f80fd5b5061063a610635366004614729565b6112de565b60405161041d9493929190614ca5565b348015610655575f80fd5b50600654610465565b348015610669575f80fd5b50610465610678366004614cf1565b61155e565b348015610688575f80fd5b5061069c610697366004614729565b6115d2565b60405161041d9190614d4f565b3480156106b4575f80fd5b506103a66106c3366004614729565b6115dc565b3480156106d3575f80fd5b506104456106e2366004614d75565b5f8281526009602090815260408083206001600160a01b038516845260080190915290205460ff1692915050565b34801561071b575f80fd5b5061046561072a366004614b58565b611605565b34801561073a575f80fd5b506104c561161b565b34801561074e575f80fd5b506040805180820190915260018152603160f81b60208201526104c5565b348015610777575f80fd5b50610465610786366004614da3565b6116db565b348015610796575f80fd5b506104656107a5366004614dcd565b611702565b3480156107b5575f80fd5b506104656107c4366004614729565b61174a565b3480156107d4575f80fd5b506103a66107e3366004614729565b6117f9565b3480156107f3575f80fd5b50610465610802366004614e4b565b6118aa565b348015610812575f80fd5b50610465610821366004614ea1565b6118fa565b348015610831575f80fd5b5061083a611907565b60405161041d9796959493929190614f3b565b348015610858575f80fd5b5061086161198d565b60405165ffffffffffff909116815260200161041d565b348015610883575f80fd5b506064610465565b348015610896575f80fd5b506104656108a5366004614f9a565b611a15565b3480156108b5575f80fd5b50610465611a2b565b3480156108c9575f80fd5b506103a66108d8366004614fef565b611a54565b3480156108e8575f80fd5b506104656108f7366004614729565b611b05565b348015610907575f80fd5b50610465611b9b565b34801561091b575f80fd5b5061055461092a36600461500a565b63bc197c8160e01b95945050505050565b348015610946575f80fd5b50610465610955366004614729565b5f9081526003602052604090206001015467ffffffffffffffff1690565b6103a6610981366004615097565b611ba5565b348015610991575f80fd5b506104656109a0366004614b58565b611cda565b3480156109b0575f80fd5b50600c546001600160a01b0316610512565b3480156109cd575f80fd5b506104656109dc366004615153565b611d13565b3480156109ec575f80fd5b5060408051808201909152601a81527f737570706f72743d627261766f2671756f72756d3d627261766f00000000000060208201526104c5565b348015610a31575f80fd5b506103a6610a40366004614729565b611dae565b348015610a50575f80fd5b506104657f150214d74d59b7d1e90c73fc22ef3d991dd0a76b046543d4d80ab92d2a50328f81565b348015610a83575f80fd5b50610b14610a92366004614d75565b604080516060810182525f8082526020820181905291810191909152505f9182526009602090815260408084206001600160a01b0393909316845260089092018152918190208151606081018352905460ff8082161515835261010082041693820193909352620100009092046bffffffffffffffffffffffff169082015290565b6040805182511515815260208084015160ff1690820152918101516bffffffffffffffffffffffff169082015260600161041d565b348015610b54575f80fd5b506103a6610b63366004614729565b611dcf565b348015610b73575f80fd5b50610465610b823660046151ed565b611e80565b348015610b92575f80fd5b506103a6610ba1366004614729565b611e9f565b348015610bb1575f80fd5b50610554610bc0366004615217565b63f23a6e6160e01b95945050505050565b348015610bdc575f80fd5b50610465610beb366004614729565b611f50565b348015610bfb575f80fd5b506105127f000000000000000000000000000000000000000000000000000000000000000081565b6103a6610c31366004614729565b611ff7565b5f610c49600c546001600160a01b031690565b905090565b805f8080808080808080610c618a611b05565b5f8c81526003602052604090205490985067ffffffffffffffff165f8c81526003602052604090206001015490975067ffffffffffffffff165f8c815260096020526040812080546005820154600683015460078401546001600160a01b039093169e50949a509850929650919450610cd98d6115d2565b90506002816007811115610cef57610cef614d3b565b1493506007816007811115610d0657610d06614d3b565b14925050509193959799509193959799565b5f610d2282612018565b92915050565b5f80610dcb610dc37fb3b3f3b703cd84ce352197dcff232b1b5d3cfb2025ce47cf04742d0651f1af888c8c8c8c604051610d6392919061527b565b60405180910390208b80519060200120604051602001610da8959493929190948552602085019390935260ff9190911660408401526060830152608082015260a00190565b6040516020818303038152906040528051906020012061203c565b868686612068565b9050610e108a828b8b8b8080601f0160208091040260200160405190810160405280939291908181526020018383808284375f920191909152508d9250612084915050565b9a9950505050505050505050565b610e26610c36565b6001600160a01b0316336001600160a01b031614610e815760405162461bcd60e51b8152602060048201526018602482015277476f7665726e6f723a206f6e6c79476f7665726e616e636560401b604482015260640161039d565b30610e8a610c36565b6001600160a01b031614610ec6575f8036604051610ea992919061527b565b604051809103902090505b80610ebf60046121d7565b03610eb457505b610ecf8161225d565b50565b606060028054610ee19061528a565b80601f0160208091040260200160405190810160405280929190818152602001828054610f0d9061528a565b8015610f585780601f10610f2f57610100808354040283529160200191610f58565b820191905f5260205f20905b815481529060010190602001808311610f3b57829003601f168201915b5050505050905090565b5f80610f7086868686611cda565b90506004610f7d826115d2565b6007811115610f8e57610f8e614d3b565b14610fe55760405162461bcd60e51b815260206004820152602160248201527f476f7665726e6f723a2070726f706f73616c206e6f74207375636365737366756044820152601b60fa1b606482015260840161039d565b600c546040805163793d064960e11b815290515f926001600160a01b03169163f27a0c929160048083019260209291908290030181865afa15801561102c573d5f803e3d5ffd5b505050506040513d601f19601f8201168201806040525081019061105091906152c2565b600c5460405163b1c5f42760e01b81529192506001600160a01b03169063b1c5f42790611089908a908a908a905f908b906004016152d9565b602060405180830381865afa1580156110a4573d5f803e3d5ffd5b505050506040513d601f19601f820116820180604052508101906110c891906152c2565b5f838152600d602052604080822092909255600c5491516308f2a0bb60e41b81526001600160a01b0390921691638f2a0bb091611112918b918b918b91908b908990600401615326565b5f604051808303815f87803b158015611129575f80fd5b505af115801561113b573d5f803e3d5ffd5b505050507f9a2e42fd6722813d69113e7d0079d3d940171428df7373df9c7f7617cfda289282824261116d9190615391565b604080519283526020830191909152015b60405180910390a15095945050505050565b5f610c49600161119e61198d565b6111a891906153a4565b65ffffffffffff16611f50565b5f806111c386868686611cda565b90505f6111cf826115d2565b905060048160078111156111e5576111e5614d3b565b14806112025750600581600781111561120057611200614d3b565b145b6112585760405162461bcd60e51b815260206004820152602160248201527f476f7665726e6f723a2070726f706f73616c206e6f74207375636365737366756044820152601b60fa1b606482015260840161039d565b5f8281526003602052604090819020600201805460ff19166001179055517f712ae1383f79ac853f8d882153778e0260ef8f03b504e2866e0593e04d2b291f906112a59084815260200190565b60405180910390a16112ba82888888886123c9565b6112c78288888888612468565b6112d48288888888612475565b5095945050505050565b6060806060805f60095f8781526020019081526020015f209050806001018160020182600301836004018380548060200260200160405190810160405280929190818152602001828054801561135b57602002820191905f5260205f20905b81546001600160a01b0316815260019091019060200180831161133d575b50505050509350828054806020026020016040519081016040528092919081815260200182805480156113ab57602002820191905f5260205f20905b815481526020019060010190808311611397575b5050505050925081805480602002602001604051908101604052809291908181526020015f905b8282101561147a578382905f5260205f200180546113ef9061528a565b80601f016020809104026020016040519081016040528092919081815260200182805461141b9061528a565b80156114665780601f1061143d57610100808354040283529160200191611466565b820191905f5260205f20905b81548152906001019060200180831161144957829003601f168201915b5050505050815260200190600101906113d2565b50505050915080805480602002602001604051908101604052809291908181526020015f905b82821015611548578382905f5260205f200180546114bd9061528a565b80601f01602080910402602001604051908101604052809291908181526020018280546114e99061528a565b80156115345780601f1061150b57610100808354040283529160200191611534565b820191905f5260205f20905b81548152906001019060200180831161151757829003601f168201915b5050505050815260200190600101906114a0565b5050505090509450945094509450509193509193565b604080517f150214d74d59b7d1e90c73fc22ef3d991dd0a76b046543d4d80ab92d2a50328f602082015290810186905260ff851660608201525f9081906115ab90610dc390608001610da8565b90506115c787828860405180602001604052805f8152506124ad565b979650505050505050565b5f610d22826124ce565b5f805f806115e985612612565b93509350935093506115fd84848484611605565b505050505050565b5f61161285858585612891565b95945050505050565b60607f00000000000000000000000000000000000000000000000000000000000000006001600160a01b0316634bf5d7e96040518163ffffffff1660e01b81526004015f60405180830381865afa92505050801561169a57506040513d5f823e601f3d908101601f1916820160405261169791908101906153ca565b60015b6116d6575060408051808201909152601d81527f6d6f64653d626c6f636b6e756d6265722666726f6d3d64656661756c74000000602082015290565b919050565b5f803390506116fa84828560405180602001604052805f8152506124ad565b949350505050565b5f803390506115c787828888888080601f0160208091040260200160405190810160405280939291908181526020018383808284375f920191909152508a9250612084915050565b600b545f90808203611760575050600a54919050565b5f600b61176e600184615433565b8154811061177e5761177e615446565b5f9182526020918290206040805180820190915291015463ffffffff81168083526401000000009091046001600160e01b031692820192909252915084106117d457602001516001600160e01b03169392505050565b6117e86117e08561296f565b600b906129d7565b6001600160e01b0316949350505050565b611801610c36565b6001600160a01b0316336001600160a01b03161461185c5760405162461bcd60e51b8152602060048201526018602482015277476f7665726e6f723a206f6e6c79476f7665726e616e636560401b604482015260640161039d565b30611865610c36565b6001600160a01b0316146118a1575f803660405161188492919061527b565b604051809103902090505b8061189a60046121d7565b0361188f57505b610ecf81612a85565b5f803390506118f086828787878080601f0160208091040260200160405190810160405280939291908181526020018383808284375f920191909152506124ad92505050565b9695505050505050565b5f61161285858585612ac6565b5f606080828080836119397f000000000000000000000000000000000000000000000000000000000000000083612b2e565b6119647f00000000000000000000000000000000000000000000000000000000000000006001612b2e565b604080515f80825260208201909252600f60f81b9b939a50919850469750309650945092509050565b5f7f00000000000000000000000000000000000000000000000000000000000000006001600160a01b03166391ddadf46040518163ffffffff1660e01b8152600401602060405180830381865afa925050508015611a08575060408051601f3d908101601f19168201909252611a059181019061545a565b60015b6116d657610c4943612bd7565b5f611a21848484612c3d565b90505b9392505050565b600b545f9015611a4d57611a3f600b612cd0565b6001600160e01b0316905090565b50600a5490565b611a5c610c36565b6001600160a01b0316336001600160a01b031614611ab75760405162461bcd60e51b8152602060048201526018602482015277476f7665726e6f723a206f6e6c79476f7665726e616e636560401b604482015260640161039d565b30611ac0610c36565b6001600160a01b031614611afc575f8036604051611adf92919061527b565b604051809103902090505b80611af560046121d7565b03611aea57505b610ecf81612d00565b600c545f828152600d602052604080822054905163d45c443560e01b81526004810191909152909182916001600160a01b039091169063d45c443590602401602060405180830381865afa158015611b5f573d5f803e3d5ffd5b505050506040513d601f19601f82011682018060405250810190611b8391906152c2565b905080600114611b935780611a24565b5f9392505050565b5f610c4960085490565b611bad610c36565b6001600160a01b0316336001600160a01b031614611c085760405162461bcd60e51b8152602060048201526018602482015277476f7665726e6f723a206f6e6c79476f7665726e616e636560401b604482015260640161039d565b30611c11610c36565b6001600160a01b031614611c4d575f8036604051611c3092919061527b565b604051809103902090505b80611c4660046121d7565b03611c3b57505b5f80856001600160a01b0316858585604051611c6a92919061527b565b5f6040518083038185875af1925050503d805f8114611ca4576040519150601f19603f3d011682016040523d82523d5f602084013e611ca9565b606091505b5091509150611cd1828260405180606001604052806028815260200161578260289139612d69565b50505050505050565b5f84848484604051602001611cf2949392919061547f565b60408051601f19818403018152919052805160209091012095945050505050565b5f8251845114611d8b5760405162461bcd60e51b815260206004820152602860248201527f476f7665726e6f72427261766f3a20696e76616c6964207369676e617475726560448201527f73206c656e677468000000000000000000000000000000000000000000000000606482015260840161039d565b611d99338787878787612d82565b6118f08686611da88787612e3f565b856118fa565b5f805f80611dbb85612612565b93509350935093506115fd84848484610f62565b611dd7610c36565b6001600160a01b0316336001600160a01b031614611e325760405162461bcd60e51b8152602060048201526018602482015277476f7665726e6f723a206f6e6c79476f7665726e616e636560401b604482015260640161039d565b30611e3b610c36565b6001600160a01b031614611e77575f8036604051611e5a92919061527b565b604051809103902090505b80611e7060046121d7565b03611e6557505b610ecf81612f6f565b5f611a248383611e9a60408051602081019091525f815290565b612c3d565b611ea7610c36565b6001600160a01b0316336001600160a01b031614611f025760405162461bcd60e51b8152602060048201526018602482015277476f7665726e6f723a206f6e6c79476f7665726e616e636560401b604482015260640161039d565b30611f0b610c36565b6001600160a01b031614611f47575f8036604051611f2a92919061527b565b604051809103902090505b80611f4060046121d7565b03611f3557505b610ecf81613025565b5f6064611f5c8361174a565b604051632394e7a360e21b8152600481018590527f00000000000000000000000000000000000000000000000000000000000000006001600160a01b031690638e539e8c90602401602060405180830381865afa158015611fbf573d5f803e3d5ffd5b505050506040513d601f19601f82011682018060405250810190611fe391906152c2565b611fed91906154c9565b610d2291906154f4565b5f805f8061200485612612565b93509350935093506115fd848484846111b5565b5f6001600160e01b03198216636e665ced60e01b1480610d225750610d2282613066565b5f610d22612048613101565b8360405161190160f01b8152600281019290925260228201526042902090565b5f805f6120778787878761322a565b915091506112d4816132e7565b5f858152600360205260408120600161209c886115d2565b60078111156120ad576120ad614d3b565b146121065760405162461bcd60e51b815260206004820152602360248201527f476f7665726e6f723a20766f7465206e6f742063757272656e746c792061637460448201526269766560e81b606482015260840161039d565b80545f9061212090889067ffffffffffffffff1686612c3d565b905061212f8888888488613430565b83515f0361218357866001600160a01b03167fb8e138887d0aa13bab447e82de9d5c1777041ecd21ca36ba824ff1e6c07ddda4898884896040516121769493929190615513565b60405180910390a26115c7565b866001600160a01b03167fe2babfbac5889a709b63bb7f598b324e08bc5a4fb9ec647fb3cbc9ec07eb871289888489896040516121c495949392919061553a565b60405180910390a2979650505050505050565b5f6121f18254600f81810b600160801b909204900b131590565b1561220f57604051631ed9509560e11b815260040160405180910390fd5b508054600f0b5f818152600180840160205260408220805492905583546fffffffffffffffffffffffffffffffff191692016fffffffffffffffffffffffffffffffff169190911790915590565b60648111156122e05760405162461bcd60e51b815260206004820152604360248201527f476f7665726e6f72566f74657351756f72756d4672616374696f6e3a2071756f60448201527f72756d4e756d657261746f72206f7665722071756f72756d44656e6f6d696e616064820152623a37b960e91b608482015260a40161039d565b5f6122e9611a2b565b905080158015906122fa5750600b54155b1561235d57604080518082019091525f8152600b906020810161231c846135ed565b6001600160e01b0390811690915282546001810184555f938452602093849020835194909301519091166401000000000263ffffffff909316929092179101555b61238a61237861236b61198d565b65ffffffffffff1661296f565b612381846135ed565b600b919061366b565b505060408051828152602081018490527f0553476bf02ef2726e8ce5ced78d63e26e602e4a2257b1f559418e24b4633997910160405180910390a15050565b306123d2610c36565b6001600160a01b031614612461575f5b84518110156115fd57306001600160a01b031685828151811061240757612407615446565b60200260200101516001600160a01b0316036124515761245183828151811061243257612432615446565b602002602001015180519060200120600461368590919063ffffffff16565b61245a8161557f565b90506123e2565b5050505050565b61246185858585856136c9565b3061247e610c36565b6001600160a01b03161461246157600454600f81810b600160801b909204900b1315612461575f600455612461565b5f611612858585856124c960408051602081019091525f815290565b612084565b5f806124d983613738565b905060048160078111156124ef576124ef614d3b565b146124fa5792915050565b5f838152600d602052604090205480612514575092915050565b600c54604051632ab0f52960e01b8152600481018390526001600160a01b0390911690632ab0f52990602401602060405180830381865afa15801561255b573d5f803e3d5ffd5b505050506040513d601f19601f8201168201806040525081019061257f9190615597565b1561258e575060079392505050565b600c54604051632c258a9f60e11b8152600481018390526001600160a01b039091169063584b153e90602401602060405180830381865afa1580156125d5573d5f803e3d5ffd5b505050506040513d601f19601f820116820180604052508101906125f99190615597565b15612608575060059392505050565b5060029392505050565b60608060605f8060095f8781526020019081526020015f20905080600101816002016127d683600301805480602002602001604051908101604052809291908181526020015f905b82821015612702578382905f5260205f200180546126779061528a565b80601f01602080910402602001604051908101604052809291908181526020018280546126a39061528a565b80156126ee5780601f106126c5576101008083540402835291602001916126ee565b820191905f5260205f20905b8154815290600101906020018083116126d157829003601f168201915b50505050508152602001906001019061265a565b5050506004860180546040805160208084028201810190925282815293505f9084015b828210156127cd578382905f5260205f200180546127429061528a565b80601f016020809104026020016040519081016040528092919081815260200182805461276e9061528a565b80156127b95780601f10612790576101008083540402835291602001916127b9565b820191905f5260205f20905b81548152906001019060200180831161279c57829003601f168201915b505050505081526020019060010190612725565b50505050612e3f565b600984015483546040805160208084028201810190925282815291869183018282801561282a57602002820191905f5260205f20905b81546001600160a01b0316815260019091019060200180831161280c575b505050505093508280548060200260200160405190810160405280929190818152602001828054801561287a57602002820191905f5260205f20905b815481526020019060010190808311612866575b505050505092509450945094509450509193509193565b5f8061289f86868686611cda565b5f818152600960205260409020549091506001600160a01b0316338114806128f157506128ca611b9b565b6128ef8260016128d861198d565b6128e291906153a4565b65ffffffffffff16611e80565b105b6129635760405162461bcd60e51b815260206004820152602760248201527f476f7665726e6f72427261766f3a2070726f706f7365722061626f766520746860448201527f726573686f6c6400000000000000000000000000000000000000000000000000606482015260840161039d565b6115c787878787613877565b5f63ffffffff8211156129d35760405162461bcd60e51b815260206004820152602660248201527f53616665436173743a2076616c756520646f65736e27742066697420696e203360448201526532206269747360d01b606482015260840161039d565b5090565b81545f9081816005811115612a31575f6129f084613884565b6129fa9085615433565b5f8881526020902090915081015463ffffffff9081169087161015612a2157809150612a2f565b612a2c816001615391565b92505b505b5f612a3e87878585613968565b90508015612a7957612a6287612a55600184615433565b5f91825260209091200190565b5464010000000090046001600160e01b03166115c7565b5f979650505050505050565b60065460408051918252602082018390527fc565b045403dc03c2eea82b81a0465edad9e2e7fc4d97e11421c209da93d7a93910160405180910390a1600655565b5f612b22338686865167ffffffffffffffff811115612ae757612ae76147bc565b604051908082528060200260200182016040528015612b1a57816020015b6060815260200190600190039081612b055790505b508787612d82565b611612858585856139bb565b606060ff8314612b4857612b4183613e15565b9050610d22565b818054612b549061528a565b80601f0160208091040260200160405190810160405280929190818152602001828054612b809061528a565b8015612bcb5780601f10612ba257610100808354040283529160200191612bcb565b820191905f5260205f20905b815481529060010190602001808311612bae57829003601f168201915b50505050509050610d22565b5f65ffffffffffff8211156129d35760405162461bcd60e51b815260206004820152602660248201527f53616665436173743a2076616c756520646f65736e27742066697420696e203460448201526538206269747360d01b606482015260840161039d565b604051630748d63560e31b81526001600160a01b038481166004830152602482018490525f917f000000000000000000000000000000000000000000000000000000000000000090911690633a46b1a890604401602060405180830381865afa158015612cac573d5f803e3d5ffd5b505050506040513d601f19601f82011682018060405250810190611a2191906152c2565b80545f908015611b9357612ce983612a55600184615433565b5464010000000090046001600160e01b0316611a24565b600c54604080516001600160a01b03928316815291831660208301527f08f74ea46ef7894f65eabfb5e6e695de773a000b47c529ab559178069b226401910160405180910390a1600c80546001600160a01b0319166001600160a01b0392909216919091179055565b60608315612d78575081611a24565b611a248383613e52565b805160208201205f612d9f8787612d998888612e3f565b85611cda565b5f8181526009602081905260409091209081015491925090612e345780546001600160a01b0319166001600160a01b038a161781558751612de990600183019060208b019061456e565b508651612dff90600283019060208a01906145cd565b508551612e159060038301906020890190614606565b508451612e2b9060048301906020880190614656565b50600981018390555b505050505050505050565b60605f825167ffffffffffffffff811115612e5c57612e5c6147bc565b604051908082528060200260200182016040528015612e8f57816020015b6060815260200190600190039081612e7a5790505b5090505f5b8151811015612f6757848181518110612eaf57612eaf615446565b6020026020010151515f14612f1e57848181518110612ed057612ed0615446565b602002602001015180519060200120848281518110612ef157612ef1615446565b6020026020010151604051602001612f0a9291906155b6565b604051602081830303815290604052612f39565b838181518110612f3057612f30615446565b60200260200101515b828281518110612f4b57612f4b615446565b602002602001018190525080612f609061557f565b9050612e94565b509392505050565b5f8111612fe45760405162461bcd60e51b815260206004820152602760248201527f476f7665726e6f7253657474696e67733a20766f74696e6720706572696f642060448201527f746f6f206c6f7700000000000000000000000000000000000000000000000000606482015260840161039d565b60075460408051918252602082018390527f7e3f7f0708a84de9203036abaa450dccc85ad5ff52f78c170f3edb55cf5e8828910160405180910390a1600755565b60085460408051918252602082018390527fccb45da8d5717e6c4544694297c4ba5cf151d455c9bb0ed4fc7a38411bc05461910160405180910390a1600855565b5f63288ace0360e11b6318df743f60e31b63bf26d89760e01b6379dd796f60e01b6001600160e01b031986168214806130ab57506001600160e01b0319868116908216145b806130c257506001600160e01b0319868116908516145b806130dd57506001600160e01b03198616630271189760e51b145b806118f057506301ffc9a760e01b6001600160e01b03198716149695505050505050565b5f306001600160a01b037f00000000000000000000000000000000000000000000000000000000000000001614801561315957507f000000000000000000000000000000000000000000000000000000000000000046145b1561318357507f000000000000000000000000000000000000000000000000000000000000000090565b610c49604080517f8b73c3c69bb8fe3d512ecc4cf759cc79239f7b179b0ffacaa9a75d522b39400f60208201527f0000000000000000000000000000000000000000000000000000000000000000918101919091527f000000000000000000000000000000000000000000000000000000000000000060608201524660808201523060a08201525f9060c00160405160208183030381529060405280519060200120905090565b5f807f7fffffffffffffffffffffffffffffff5d576e7357a4501ddfe92f46681b20a083111561325f57505f905060036132de565b604080515f8082526020820180845289905260ff881692820192909252606081018690526080810185905260019060a0016020604051602081039080840390855afa1580156132b0573d5f803e3d5ffd5b5050604051601f1901519150506001600160a01b0381166132d8575f600192509250506132de565b91505f90505b94509492505050565b5f8160048111156132fa576132fa614d3b565b036133025750565b600181600481111561331657613316614d3b565b036133635760405162461bcd60e51b815260206004820152601860248201527f45434453413a20696e76616c6964207369676e61747572650000000000000000604482015260640161039d565b600281600481111561337757613377614d3b565b036133c45760405162461bcd60e51b815260206004820152601f60248201527f45434453413a20696e76616c6964207369676e6174757265206c656e67746800604482015260640161039d565b60038160048111156133d8576133d8614d3b565b03610ecf5760405162461bcd60e51b815260206004820152602260248201527f45434453413a20696e76616c6964207369676e6174757265202773272076616c604482015261756560f01b606482015260840161039d565b5f8581526009602090815260408083206001600160a01b038816845260088101909252909120805460ff16156134ce5760405162461bcd60e51b815260206004820152602d60248201527f476f7665726e6f72436f6d7061746962696c697479427261766f3a20766f746560448201527f20616c7265616479206361737400000000000000000000000000000000000000606482015260840161039d565b805460ff86166101000261ffff199091161760011781556134ee84613e7c565b81546bffffffffffffffffffffffff9190911662010000026dffffffffffffffffffffffff00001990911617815560ff85166135425783826006015f8282546135379190615391565b90915550611cd19050565b5f1960ff8616016135605783826005015f8282546135379190615391565b60011960ff86160161357f5783826007015f8282546135379190615391565b60405162461bcd60e51b815260206004820152602d60248201527f476f7665726e6f72436f6d7061746962696c697479427261766f3a20696e766160448201527f6c696420766f7465207479706500000000000000000000000000000000000000606482015260840161039d565b5f6001600160e01b038211156129d35760405162461bcd60e51b815260206004820152602760248201527f53616665436173743a2076616c756520646f65736e27742066697420696e203260448201527f3234206269747300000000000000000000000000000000000000000000000000606482015260840161039d565b5f80613678858585613ee8565b915091505b935093915050565b8154600160801b90819004600f0b5f818152600180860160205260409091209390935583546fffffffffffffffffffffffffffffffff908116939091011602179055565b600c5460405163e38335e560e01b81526001600160a01b039091169063e38335e5903490613703908890889088905f9089906004016152d9565b5f604051808303818588803b15801561371a575f80fd5b505af115801561372c573d5f803e3d5ffd5b50505050505050505050565b5f818152600360205260408120600281015460ff161561375b5750600792915050565b6002810154610100900460ff16156137765750600292915050565b5f8381526003602052604081205467ffffffffffffffff16908190036137de5760405162461bcd60e51b815260206004820152601d60248201527f476f7665726e6f723a20756e6b6e6f776e2070726f706f73616c206964000000604482015260640161039d565b5f6137e761198d565b65ffffffffffff16905080821061380257505f949350505050565b5f8581526003602052604090206001015467ffffffffffffffff168181106138305750600195945050505050565b61383986614087565b801561385a57505f8681526009602052604090206006810154600590910154115b1561386b5750600495945050505050565b50600395945050505050565b5f611612858585856140c4565b5f815f0361389357505f919050565b5f600161389f8461416d565b901c6001901b905060018184816138b8576138b86154e0565b048201901c905060018184816138d0576138d06154e0565b048201901c905060018184816138e8576138e86154e0565b048201901c90506001818481613900576139006154e0565b048201901c90506001818481613918576139186154e0565b048201901c90506001818481613930576139306154e0565b048201901c90506001818481613948576139486154e0565b048201901c9050611a2481828581613962576139626154e0565b04614200565b5f5b81831015612f67575f61397d8484614215565b5f8781526020902090915063ffffffff86169082015463ffffffff1611156139a7578092506139b5565b6139b2816001615391565b93505b5061396a565b5f336139c7818461422f565b613a135760405162461bcd60e51b815260206004820152601d60248201527f476f7665726e6f723a2070726f706f7365722072657374726963746564000000604482015260640161039d565b5f613a1c61198d565b65ffffffffffff169050613a2e611b9b565b613a3d83610b82600185615433565b1015613ab15760405162461bcd60e51b815260206004820152603160248201527f476f7665726e6f723a2070726f706f73657220766f7465732062656c6f77207060448201527f726f706f73616c207468726573686f6c64000000000000000000000000000000606482015260840161039d565b5f613ac58888888880519060200120611cda565b90508651885114613b225760405162461bcd60e51b815260206004820152602160248201527f476f7665726e6f723a20696e76616c69642070726f706f73616c206c656e67746044820152600d60fb1b606482015260840161039d565b8551885114613b7d5760405162461bcd60e51b815260206004820152602160248201527f476f7665726e6f723a20696e76616c69642070726f706f73616c206c656e67746044820152600d60fb1b606482015260840161039d565b5f885111613bcd5760405162461bcd60e51b815260206004820152601860248201527f476f7665726e6f723a20656d7074792070726f706f73616c0000000000000000604482015260640161039d565b5f8181526003602052604090205467ffffffffffffffff1615613c3c5760405162461bcd60e51b815260206004820152602160248201527f476f7665726e6f723a2070726f706f73616c20616c72656164792065786973746044820152607360f81b606482015260840161039d565b5f613c4660065490565b613c509084615391565b90505f613c5c60075490565b613c669083615391565b90506040518060e00160405280613c7c84614346565b67ffffffffffffffff1681526001600160a01b03871660208201525f6040820152606001613ca983614346565b67ffffffffffffffff90811682525f60208084018290526040808501839052606094850183905288835260038252918290208551815492870151878501519186166001600160e01b031990941693909317680100000000000000006001600160a01b039094168402176001600160e01b0316600160e01b60e09290921c91909102178155938501516080860151908416921c0217600183015560a08301516002909201805460c09094015161ffff1990941692151561ff00191692909217610100931515939093029290921790558a517f7d84a6263ae0d98d3329bd7b46bb4e8d6f98cd35a7adb45c274c8b7fd5ebd5e091859188918e918e91811115613db257613db26147bc565b604051908082528060200260200182016040528015613de557816020015b6060815260200190600190039081613dd05790505b508d88888f604051613dff999897969594939291906155e6565b60405180910390a1509098975050505050505050565b60605f613e21836143ae565b6040805160208082528183019092529192505f91906020820181803683375050509182525060208101929092525090565b815115613e625781518083602001fd5b8060405162461bcd60e51b815260040161039d9190614967565b5f6bffffffffffffffffffffffff8211156129d35760405162461bcd60e51b815260206004820152602660248201527f53616665436173743a2076616c756520646f65736e27742066697420696e203960448201526536206269747360d01b606482015260840161039d565b82545f908190801561402e575f613f0487612a55600185615433565b60408051808201909152905463ffffffff8082168084526401000000009092046001600160e01b031660208401529192509087161015613f865760405162461bcd60e51b815260206004820152601b60248201527f436865636b706f696e743a2064656372656173696e67206b6579730000000000604482015260640161039d565b805163ffffffff808816911603613fcf5784613fa788612a55600186615433565b80546001600160e01b03929092166401000000000263ffffffff90921691909117905561401e565b6040805180820190915263ffffffff80881682526001600160e01b0380881660208085019182528b54600181018d555f8d81529190912094519151909216640100000000029216919091179101555b60200151925083915061367d9050565b50506040805180820190915263ffffffff80851682526001600160e01b0380851660208085019182528854600181018a555f8a81529182209551925190931664010000000002919093161792019190915590508161367d565b5f81815260096020526040812060058101546140bb610beb855f9081526003602052604090205467ffffffffffffffff1690565b11159392505050565b5f806140d2868686866143d5565b5f818152600d60205260409020549091501561161257600c545f828152600d60205260409081902054905163c4d252f560e01b81526001600160a01b039092169163c4d252f5916141299160040190815260200190565b5f604051808303815f87803b158015614140575f80fd5b505af1158015614152573d5f803e3d5ffd5b5050505f828152600d60205260408120555095945050505050565b5f80608083901c1561418157608092831c92015b604083901c1561419357604092831c92015b602083901c156141a557602092831c92015b601083901c156141b757601092831c92015b600883901c156141c957600892831c92015b600483901c156141db57600492831c92015b600283901c156141ed57600292831c92015b600183901c15610d225760010192915050565b5f81831061420e5781611a24565b5090919050565b5f61422360028484186154f4565b611a2490848416615391565b80515f906034811015614246576001915050610d22565b82810160131901516001600160a01b031981167f2370726f706f7365723d307800000000000000000000000000000000000000001461428a57600192505050610d22565b5f80614297602885615433565b90505b83811015614325575f806142e58884815181106142b9576142b9615446565b01602001517fff00000000000000000000000000000000000000000000000000000000000000166144de565b91509150816142fd5760019650505050505050610d22565b8060ff166004856001600160a01b0316901b17935050508061431e9061557f565b905061429a565b50856001600160a01b0316816001600160a01b031614935050505092915050565b5f67ffffffffffffffff8211156129d35760405162461bcd60e51b815260206004820152602660248201527f53616665436173743a2076616c756520646f65736e27742066697420696e203660448201526534206269747360d01b606482015260840161039d565b5f60ff8216601f811115610d2257604051632cd44ac360e21b815260040160405180910390fd5b5f806143e386868686611cda565b90505f6143ef826115d2565b9050600281600781111561440557614405614d3b565b141580156144255750600681600781111561442257614422614d3b565b14155b80156144435750600781600781111561444057614440614d3b565b14155b61448f5760405162461bcd60e51b815260206004820152601d60248201527f476f7665726e6f723a2070726f706f73616c206e6f7420616374697665000000604482015260640161039d565b5f8281526003602052604090819020600201805461ff001916610100179055517f789cf55be980739dad1d0699b93b58e806b51c9d96619bfa8fe0a28abaa7b30c9061117e9084815260200190565b5f8060f883901c602f811180156144f85750603a8160ff16105b1561450d57600194602f199091019350915050565b8060ff166040108015614523575060478160ff16105b15614538576001946036199091019350915050565b8060ff16606010801561454e575060678160ff16105b15614563576001946056199091019350915050565b505f93849350915050565b828054828255905f5260205f209081019282156145c1579160200282015b828111156145c157825182546001600160a01b0319166001600160a01b0390911617825560209092019160019091019061458c565b506129d39291506146a6565b828054828255905f5260205f209081019282156145c1579160200282015b828111156145c15782518255916020019190600101906145eb565b828054828255905f5260205f2090810192821561464a579160200282015b8281111561464a578251829061463a90826156c5565b5091602001919060010190614624565b506129d39291506146ba565b828054828255905f5260205f2090810192821561469a579160200282015b8281111561469a578251829061468a90826156c5565b5091602001919060010190614674565b506129d39291506146d6565b5b808211156129d3575f81556001016146a7565b808211156129d3575f6146cd82826146f2565b506001016146ba565b808211156129d3575f6146e982826146f2565b506001016146d6565b5080546146fe9061528a565b5f825580601f1061470d575050565b601f0160209004905f5260205f2090810190610ecf91906146a6565b5f60208284031215614739575f80fd5b5035919050565b5f60208284031215614750575f80fd5b81356001600160e01b031981168114611a24575f80fd5b803560ff811681146116d6575f80fd5b5f8083601f840112614787575f80fd5b50813567ffffffffffffffff81111561479e575f80fd5b6020830191508360208285010111156147b5575f80fd5b9250929050565b634e487b7160e01b5f52604160045260245ffd5b604051601f8201601f1916810167ffffffffffffffff811182821017156147f9576147f96147bc565b604052919050565b5f67ffffffffffffffff82111561481a5761481a6147bc565b50601f01601f191660200190565b5f82601f830112614837575f80fd5b813561484a61484582614801565b6147d0565b81815284602083860101111561485e575f80fd5b816020850160208301375f918101602001919091529392505050565b5f805f805f805f8060e0898b031215614891575f80fd5b883597506148a160208a01614767565b9650604089013567ffffffffffffffff808211156148bd575f80fd5b6148c98c838d01614777565b909850965060608b01359150808211156148e1575f80fd5b506148ee8b828c01614828565b9450506148fd60808a01614767565b925060a0890135915060c089013590509295985092959890939650565b5f5b8381101561493457818101518382015260200161491c565b50505f910152565b5f815180845261495381602086016020860161491a565b601f01601f19169290920160200192915050565b602081525f611a24602083018461493c565b6001600160a01b0381168114610ecf575f80fd5b5f805f80608085870312156149a0575f80fd5b84356149ab81614979565b935060208501356149bb81614979565b925060408501359150606085013567ffffffffffffffff8111156149dd575f80fd5b6149e987828801614828565b91505092959194509250565b5f67ffffffffffffffff821115614a0e57614a0e6147bc565b5060051b60200190565b5f82601f830112614a27575f80fd5b81356020614a37614845836149f5565b82815260059290921b84018101918181019086841115614a55575f80fd5b8286015b84811015614a79578035614a6c81614979565b8352918301918301614a59565b509695505050505050565b5f82601f830112614a93575f80fd5b81356020614aa3614845836149f5565b82815260059290921b84018101918181019086841115614ac1575f80fd5b8286015b84811015614a795780358352918301918301614ac5565b5f82601f830112614aeb575f80fd5b81356020614afb614845836149f5565b82815260059290921b84018101918181019086841115614b19575f80fd5b8286015b84811015614a7957803567ffffffffffffffff811115614b3c575f8081fd5b614b4a8986838b0101614828565b845250918301918301614b1d565b5f805f8060808587031215614b6b575f80fd5b843567ffffffffffffffff80821115614b82575f80fd5b614b8e88838901614a18565b95506020870135915080821115614ba3575f80fd5b614baf88838901614a84565b94506040870135915080821115614bc4575f80fd5b50614bd187828801614adc565b949793965093946060013593505050565b5f8151808452602080850194508084015f5b83811015614c195781516001600160a01b031687529582019590820190600101614bf4565b509495945050505050565b5f8151808452602080850194508084015f5b83811015614c1957815187529582019590820190600101614c36565b5f81518084526020808501808196508360051b810191508286015f5b85811015614c98578284038952614c8684835161493c565b98850198935090840190600101614c6e565b5091979650505050505050565b608081525f614cb76080830187614be2565b8281036020840152614cc98187614c24565b90508281036040840152614cdd8186614c52565b905082810360608401526115c78185614c52565b5f805f805f60a08688031215614d05575f80fd5b85359450614d1560208701614767565b9350614d2360408701614767565b94979396509394606081013594506080013592915050565b634e487b7160e01b5f52602160045260245ffd5b6020810160088310614d6f57634e487b7160e01b5f52602160045260245ffd5b91905290565b5f8060408385031215614d86575f80fd5b823591506020830135614d9881614979565b809150509250929050565b5f8060408385031215614db4575f80fd5b82359150614dc460208401614767565b90509250929050565b5f805f805f60808688031215614de1575f80fd5b85359450614df160208701614767565b9350604086013567ffffffffffffffff80821115614e0d575f80fd5b614e1989838a01614777565b90955093506060880135915080821115614e31575f80fd5b50614e3e88828901614828565b9150509295509295909350565b5f805f8060608587031215614e5e575f80fd5b84359350614e6e60208601614767565b9250604085013567ffffffffffffffff811115614e89575f80fd5b614e9587828801614777565b95989497509550505050565b5f805f8060808587031215614eb4575f80fd5b843567ffffffffffffffff80821115614ecb575f80fd5b614ed788838901614a18565b95506020870135915080821115614eec575f80fd5b614ef888838901614a84565b94506040870135915080821115614f0d575f80fd5b614f1988838901614adc565b93506060870135915080821115614f2e575f80fd5b506149e987828801614828565b60ff60f81b8816815260e060208201525f614f5960e083018961493c565b8281036040840152614f6b818961493c565b90508660608401526001600160a01b03861660808401528460a084015282810360c0840152610e108185614c24565b5f805f60608486031215614fac575f80fd5b8335614fb781614979565b925060208401359150604084013567ffffffffffffffff811115614fd9575f80fd5b614fe586828701614828565b9150509250925092565b5f60208284031215614fff575f80fd5b8135611a2481614979565b5f805f805f60a0868803121561501e575f80fd5b853561502981614979565b9450602086013561503981614979565b9350604086013567ffffffffffffffff80821115615055575f80fd5b61506189838a01614a84565b94506060880135915080821115615076575f80fd5b61508289838a01614a84565b93506080880135915080821115614e31575f80fd5b5f805f80606085870312156150aa575f80fd5b84356150b581614979565b935060208501359250604085013567ffffffffffffffff811115614e89575f80fd5b5f82601f8301126150e6575f80fd5b813560206150f6614845836149f5565b82815260059290921b84018101918181019086841115615114575f80fd5b8286015b84811015614a7957803567ffffffffffffffff811115615137575f8081fd5b6151458986838b0101614828565b845250918301918301615118565b5f805f805f60a08688031215615167575f80fd5b853567ffffffffffffffff8082111561517e575f80fd5b61518a89838a01614a18565b9650602088013591508082111561519f575f80fd5b6151ab89838a01614a84565b955060408801359150808211156151c0575f80fd5b6151cc89838a016150d7565b945060608801359150808211156151e1575f80fd5b61508289838a01614adc565b5f80604083850312156151fe575f80fd5b823561520981614979565b946020939093013593505050565b5f805f805f60a0868803121561522b575f80fd5b853561523681614979565b9450602086013561524681614979565b93506040860135925060608601359150608086013567ffffffffffffffff81111561526f575f80fd5b614e3e88828901614828565b818382375f9101908152919050565b600181811c9082168061529e57607f821691505b6020821081036152bc57634e487b7160e01b5f52602260045260245ffd5b50919050565b5f602082840312156152d2575f80fd5b5051919050565b60a081525f6152eb60a0830188614be2565b82810360208401526152fd8188614c24565b905082810360408401526153118187614c52565b60608401959095525050608001529392505050565b60c081525f61533860c0830189614be2565b828103602084015261534a8189614c24565b9050828103604084015261535e8188614c52565b60608401969096525050608081019290925260a0909101529392505050565b634e487b7160e01b5f52601160045260245ffd5b80820180821115610d2257610d2261537d565b65ffffffffffff8281168282160390808211156153c3576153c361537d565b5092915050565b5f602082840312156153da575f80fd5b815167ffffffffffffffff8111156153f0575f80fd5b8201601f81018413615400575f80fd5b805161540e61484582614801565b818152856020838501011115615422575f80fd5b61161282602083016020860161491a565b81810381811115610d2257610d2261537d565b634e487b7160e01b5f52603260045260245ffd5b5f6020828403121561546a575f80fd5b815165ffffffffffff81168114611a24575f80fd5b608081525f6154916080830187614be2565b82810360208401526154a38187614c24565b905082810360408401526154b78186614c52565b91505082606083015295945050505050565b8082028115828204841417610d2257610d2261537d565b634e487b7160e01b5f52601260045260245ffd5b5f8261550e57634e487b7160e01b5f52601260045260245ffd5b500490565b84815260ff84166020820152826040820152608060608201525f6118f0608083018461493c565b85815260ff8516602082015283604082015260a060608201525f61556160a083018561493c565b8281036080840152615573818561493c565b98975050505050505050565b5f600182016155905761559061537d565b5060010190565b5f602082840312156155a7575f80fd5b81518015158114611a24575f80fd5b6001600160e01b03198316815281515f906155d881600485016020870161491a565b919091016004019392505050565b5f6101208b83526001600160a01b038b16602084015280604084015261560e8184018b614be2565b90508281036060840152615622818a614c24565b905082810360808401526156368189614c52565b905082810360a084015261564a8188614c52565b90508560c08401528460e084015282810361010084015261566b818561493c565b9c9b505050505050505050505050565b601f8211156156c0575f81815260208120601f850160051c810160208610156156a15750805b601f850160051c820191505b818110156115fd578281556001016156ad565b505050565b815167ffffffffffffffff8111156156df576156df6147bc565b6156f3816156ed845461528a565b8461567b565b602080601f831160018114615726575f841561570f5750858301515b5f19600386901b1c1916600185901b1785556115fd565b5f85815260208120601f198616915b8281101561575457888601518255948401946001909101908401615735565b508582101561577157878501515f19600388901b60f8161c191681555b5050505050600190811b0190555056fe476f7665726e6f723a2072656c617920726576657274656420776974686f7574206d657373616765a26469706673582212206e3ef034886fd16ecd065d048e0c5ac21953c185ec0e7cbc01babc505c9a277f64736f6c63430008140033",
  "linkReferences": {},
  "deployedLinkReferences": {}
}