{
  "_format": "hh-sol-artifact-1",
  "contractName": "GovernorOLAS",
  "sourceName": "contracts/GovernorOLAS.sol",
  "abi": [
    {
      "inputs": [
        {
          "internalType": "contract IVotes",
          "name": "governanceToken",
          "type": "address"
        },
        {
          "internalType": "contract TimelockController",
          "name": "timelock",
          "type": "address"
        },
        {
          "internalType": "uint256",
          "name": "initialVotingDelay",
          "type": "uint256"
        },
        {
          "internalType": "uint256",
          "name": "initialVotingPeriod",
          "type": "uint256"
        },
        {
          "internalType": "uint256",
          "name": "initialProposalThreshold",
          "type": "uint256"
        },
        {
          "internalType": "uint256",
          "name": "quorumFraction",
          "type": "uint256"
        }
      ],
      "stateMutability": "nonpayable",
      "type": "constructor"
    },
    {
      "inputs": [],
      "name": "Empty",
      "type": "error"
    },
    {
      "anonymous": false,
      "inputs": [
        {
          "indexed": false,
          "internalType": "uint256",
          "name": "proposalId",
          "type": "uint256"
        }
      ],
      "name": "ProposalCanceled",
      "type": "event"
    },
    {
      "anonymous": false,
      "inputs": [
        {
          "indexed": false,
          "internalType": "uint256",
          "name": "proposalId",
          "type": "uint256"
        },
        {
          "indexed": false,
          "internalType": "address",
          "name": "proposer",
          "type": "address"
        },
        {
          "indexed": false,
          "internalType": "address[]",
          "name": "targets",
          "type": "address[]"
        },
        {
          "indexed": false,
          "internalType": "uint256[]",
          "name": "values",
          "type": "uint256[]"
        },
        {
          "indexed": false,
          "internalType": "string[]",
          "name": "signatures",
          "type": "string[]"
        },
        {
          "indexed": false,
          "internalType": "bytes[]",
          "name": "calldatas",
          "type": "bytes[]"
        },
        {
          "indexed": false,
          "internalType": "uint256",
          "name": "startBlock",
          "type": "uint256"
        },
        {
          "indexed": false,
          "internalType": "uint256",
          "name": "endBlock",
          "type": "uint256"
        },
        {
          "indexed": false,
          "internalType": "string",
          "name": "description",
          "type": "string"
        }
      ],
      "name": "ProposalCreated",
      "type": "event"
    },
    {
      "anonymous": false,
      "inputs": [
        {
          "indexed": false,
          "internalType": "uint256",
          "name": "proposalId",
          "type": "uint256"
        }
      ],
      "name": "ProposalExecuted",
      "type": "event"
    },
    {
      "anonymous": false,
      "inputs": [
        {
          "indexed": false,
          "internalType": "uint256",
          "name": "proposalId",
          "type": "uint256"
        },
        {
          "indexed": false,
          "internalType": "uint256",
          "name": "eta",
          "type": "uint256"
        }
      ],
      "name": "ProposalQueued",
      "type": "event"
    },
    {
      "anonymous": false,
      "inputs": [
        {
          "indexed": false,
          "internalType": "uint256",
          "name": "oldProposalThreshold",
          "type": "uint256"
        },
        {
          "indexed": false,
          "internalType": "uint256",
          "name": "newProposalThreshold",
          "type": "uint256"
        }
      ],
      "name": "ProposalThresholdSet",
      "type": "event"
    },
    {
      "anonymous": false,
      "inputs": [
        {
          "indexed": false,
          "internalType": "uint256",
          "name": "oldQuorumNumerator",
          "type": "uint256"
        },
        {
          "indexed": false,
          "internalType": "uint256",
          "name": "newQuorumNumerator",
          "type": "uint256"
        }
      ],
      "name": "QuorumNumeratorUpdated",
      "type": "event"
    },
    {
      "anonymous": false,
      "inputs": [
        {
          "indexed": false,
          "internalType": "address",
          "name": "oldTimelock",
          "type": "address"
        },
        {
          "indexed": false,
          "internalType": "address",
          "name": "newTimelock",
          "type": "address"
        }
      ],
      "name": "TimelockChange",
      "type": "event"
    },
    {
      "anonymous": false,
      "inputs": [
        {
          "indexed": true,
          "internalType": "address",
          "name": "voter",
          "type": "address"
        },
        {
          "indexed": false,
          "internalType": "uint256",
          "name": "proposalId",
          "type": "uint256"
        },
        {
          "indexed": false,
          "internalType": "uint8",
          "name": "support",
          "type": "uint8"
        },
        {
          "indexed": false,
          "internalType": "uint256",
          "name": "weight",
          "type": "uint256"
        },
        {
          "indexed": false,
          "internalType": "string",
          "name": "reason",
          "type": "string"
        }
      ],
      "name": "VoteCast",
      "type": "event"
    },
    {
      "anonymous": false,
      "inputs": [
        {
          "indexed": true,
          "internalType": "address",
          "name": "voter",
          "type": "address"
        },
        {
          "indexed": false,
          "internalType": "uint256",
          "name": "proposalId",
          "type": "uint256"
        },
        {
          "indexed": false,
          "internalType": "uint8",
          "name": "support",
          "type": "uint8"
        },
        {
          "indexed": false,
          "internalType": "uint256",
          "name": "weight",
          "type": "uint256"
        },
        {
          "indexed": false,
          "internalType": "string",
          "name": "reason",
          "type": "string"
        },
        {
          "indexed": false,
          "internalType": "bytes",
          "name": "params",
          "type": "bytes"
        }
      ],
      "name": "VoteCastWithParams",
      "type": "event"
    },
    {
      "anonymous": false,
      "inputs": [
        {
          "indexed": false,
          "internalType": "uint256",
          "name": "oldVotingDelay",
          "type": "uint256"
        },
        {
          "indexed": false,
          "internalType": "uint256",
          "name": "newVotingDelay",
          "type": "uint256"
        }
      ],
      "name": "VotingDelaySet",
      "type": "event"
    },
    {
      "anonymous": false,
      "inputs": [
        {
          "indexed": false,
          "internalType": "uint256",
          "name": "oldVotingPeriod",
          "type": "uint256"
        },
        {
          "indexed": false,
          "internalType": "uint256",
          "name": "newVotingPeriod",
          "type": "uint256"
        }
      ],
      "name": "VotingPeriodSet",
      "type": "event"
    },
    {
      "inputs": [],
      "name": "BALLOT_TYPEHASH",
      "outputs": [
        {
          "internalType": "bytes32",
          "name": "",
          "type": "bytes32"
        }
      ],
      "stateMutability": "view",
      "type": "function"
    },
    {
      "inputs": [],
      "name": "COUNTING_MODE",
      "outputs": [
        {
          "internalType": "string",
          "name": "",
          "type": "string"
        }
      ],
      "stateMutability": "pure",
      "type": "function"
    },
    {
      "inputs": [],
      "name": "EXTENDED_BALLOT_TYPEHASH",
      "outputs": [
        {
          "internalType": "bytes32",
          "name": "",
          "type": "bytes32"
        }
      ],
      "stateMutability": "view",
      "type": "function"
    },
    {
      "inputs": [
        {
          "internalType": "uint256",
          "name": "proposalId",
          "type": "uint256"
        }
      ],
      "name": "cancel",
      "outputs": [],
      "stateMutability": "nonpayable",
      "type": "function"
    },
    {
      "inputs": [
        {
          "internalType": "uint256",
          "name": "proposalId",
          "type": "uint256"
        },
        {
          "internalType": "uint8",
          "name": "support",
          "type": "uint8"
        }
      ],
      "name": "castVote",
      "outputs": [
        {
          "internalType": "uint256",
          "name": "",
          "type": "uint256"
        }
      ],
      "stateMutability": "nonpayable",
      "type": "function"
    },
    {
      "inputs": [
        {
          "internalType": "uint256",
          "name": "proposalId",
          "type": "uint256"
        },
        {
          "internalType": "uint8",
          "name": "support",
          "type": "uint8"
        },
        {
          "internalType": "uint8",
          "name": "v",
          "type": "uint8"
        },
        {
          "internalType": "bytes32",
          "name": "r",
          "type": "bytes32"
        },
        {
          "internalType": "bytes32",
          "name": "s",
          "type": "bytes32"
        }
      ],
      "name": "castVoteBySig",
      "outputs": [
        {
          "internalType": "uint256",
          "name": "",
          "type": "uint256"
        }
      ],
      "stateMutability": "nonpayable",
      "type": "function"
    },
    {
      "inputs": [
        {
          "internalType": "uint256",
          "name": "proposalId",
          "type": "uint256"
        },
        {
          "internalType": "uint8",
          "name": "support",
          "type": "uint8"
        },
        {
          "internalType": "string",
          "name": "reason",
          "type": "string"
        }
      ],
      "name": "castVoteWithReason",
      "outputs": [
        {
          "internalType": "uint256",
          "name": "",
          "type": "uint256"
        }
      ],
      "stateMutability": "nonpayable",
      "type": "function"
    },
    {
      "inputs": [
        {
          "internalType": "uint256",
          "name": "proposalId",
          "type": "uint256"
        },
        {
          "internalType": "uint8",
          "name": "support",
          "type": "uint8"
        },
        {
          "internalType": "string",
          "name": "reason",
          "type": "string"
        },
        {
          "internalType": "bytes",
          "name": "params",
          "type": "bytes"
        }
      ],
      "name": "castVoteWithReasonAndParams",
      "outputs": [
        {
          "internalType": "uint256",
          "name": "",
          "type": "uint256"
        }
      ],
      "stateMutability": "nonpayable",
      "type": "function"
    },
    {
      "inputs": [
        {
          "internalType": "uint256",
          "name": "proposalId",
          "type": "uint256"
        },
        {
          "internalType": "uint8",
          "name": "support",
          "type": "uint8"
        },
        {
          "internalType": "string",
          "name": "reason",
          "type": "string"
        },
        {
          "internalType": "bytes",
          "name": "params",
          "type": "bytes"
        },
        {
          "internalType": "uint8",
          "name": "v",
          "type": "uint8"
        },
        {
          "internalType": "bytes32",
          "name": "r",
          "type": "bytes32"
        },
        {
          "internalType": "bytes32",
          "name": "s",
          "type": "bytes32"
        }
      ],
      "name": "castVoteWithReasonAndParamsBySig",
      "outputs": [
        {
          "internalType": "uint256",
          "name": "",
          "type": "uint256"
        }
      ],
      "stateMutability": "nonpayable",
      "type": "function"
    },
    {
      "inputs": [
        {
          "internalType": "address[]",
          "name": "targets",
          "type": "address[]"
        },
        {
          "internalType": "uint256[]",
          "name": "values",
          "type": "uint256[]"
        },
        {
          "internalType": "bytes[]",
          "name": "calldatas",
          "type": "bytes[]"
        },
        {
          "internalType": "bytes32",
          "name": "descriptionHash",
          "type": "bytes32"
        }
      ],
      "name": "execute",
      "outputs": [
        {
          "internalType": "uint256",
          "name": "",
          "type": "uint256"
        }
      ],
      "stateMutability": "payable",
      "type": "function"
    },
    {
      "inputs": [
        {
          "internalType": "uint256",
          "name": "proposalId",
          "type": "uint256"
        }
      ],
      "name": "execute",
      "outputs": [],
      "stateMutability": "payable",
      "type": "function"
    },
    {
      "inputs": [
        {
          "internalType": "uint256",
          "name": "proposalId",
          "type": "uint256"
        }
      ],
      "name": "getActions",
      "outputs": [
        {
          "internalType": "address[]",
          "name": "targets",
          "type": "address[]"
        },
        {
          "internalType": "uint256[]",
          "name": "values",
          "type": "uint256[]"
        },
        {
          "internalType": "string[]",
          "name": "signatures",
          "type": "string[]"
        },
        {
          "internalType": "bytes[]",
          "name": "calldatas",
          "type": "bytes[]"
        }
      ],
      "stateMutability": "view",
      "type": "function"
    },
    {
      "inputs": [
        {
          "internalType": "uint256",
          "name": "proposalId",
          "type": "uint256"
        },
        {
          "internalType": "address",
          "name": "voter",
          "type": "address"
        }
      ],
      "name": "getReceipt",
      "outputs": [
        {
          "components": [
            {
              "internalType": "bool",
              "name": "hasVoted",
              "type": "bool"
            },
            {
              "internalType": "uint8",
              "name": "support",
              "type": "uint8"
            },
            {
              "internalType": "uint96",
              "name": "votes",
              "type": "uint96"
            }
          ],
          "internalType": "struct IGovernorCompatibilityBravo.Receipt",
          "name": "",
          "type": "tuple"
        }
      ],
      "stateMutability": "view",
      "type": "function"
    },
    {
      "inputs": [
        {
          "internalType": "address",
          "name": "account",
          "type": "address"
        },
        {
          "internalType": "uint256",
          "name": "blockNumber",
          "type": "uint256"
        }
      ],
      "name": "getVotes",
      "outputs": [
        {
          "internalType": "uint256",
          "name": "",
          "type": "uint256"
        }
      ],
      "stateMutability": "view",
      "type": "function"
    },
    {
      "inputs": [
        {
          "internalType": "address",
          "name": "account",
          "type": "address"
        },
        {
          "internalType": "uint256",
          "name": "blockNumber",
          "type": "uint256"
        },
        {
          "internalType": "bytes",
          "name": "params",
          "type": "bytes"
        }
      ],
      "name": "getVotesWithParams",
      "outputs": [
        {
          "internalType": "uint256",
          "name": "",
          "type": "uint256"
        }
      ],
      "stateMutability": "view",
      "type": "function"
    },
    {
      "inputs": [
        {
          "internalType": "uint256",
          "name": "proposalId",
          "type": "uint256"
        },
        {
          "internalType": "address",
          "name": "account",
          "type": "address"
        }
      ],
      "name": "hasVoted",
      "outputs": [
        {
          "internalType": "bool",
          "name": "",
          "type": "bool"
        }
      ],
      "stateMutability": "view",
      "type": "function"
    },
    {
      "inputs": [
        {
          "internalType": "address[]",
          "name": "targets",
          "type": "address[]"
        },
        {
          "internalType": "uint256[]",
          "name": "values",
          "type": "uint256[]"
        },
        {
          "internalType": "bytes[]",
          "name": "calldatas",
          "type": "bytes[]"
        },
        {
          "internalType": "bytes32",
          "name": "descriptionHash",
          "type": "bytes32"
        }
      ],
      "name": "hashProposal",
      "outputs": [
        {
          "internalType": "uint256",
          "name": "",
          "type": "uint256"
        }
      ],
      "stateMutability": "pure",
      "type": "function"
    },
    {
      "inputs": [],
      "name": "name",
      "outputs": [
        {
          "internalType": "string",
          "name": "",
          "type": "string"
        }
      ],
      "stateMutability": "view",
      "type": "function"
    },
    {
      "inputs": [
        {
          "internalType": "address",
          "name": "",
          "type": "address"
        },
        {
          "internalType": "address",
          "name": "",
          "type": "address"
        },
        {
          "internalType": "uint256[]",
          "name": "",
          "type": "uint256[]"
        },
        {
          "internalType": "uint256[]",
          "name": "",
          "type": "uint256[]"
        },
        {
          "internalType": "bytes",
          "name": "",
          "type": "bytes"
        }
      ],
      "name": "onERC1155BatchReceived",
      "outputs": [
        {
          "internalType": "bytes4",
          "name": "",
          "type": "bytes4"
        }
      ],
      "stateMutability": "nonpayable",
      "type": "function"
    },
    {
      "inputs": [
        {
          "internalType": "address",
          "name": "",
          "type": "address"
        },
        {
          "internalType": "address",
          "name": "",
          "type": "address"
        },
        {
          "internalType": "uint256",
          "name": "",
          "type": "uint256"
        },
        {
          "internalType": "uint256",
          "name": "",
          "type": "uint256"
        },
        {
          "internalType": "bytes",
          "name": "",
          "type": "bytes"
        }
      ],
      "name": "onERC1155Received",
      "outputs": [
        {
          "internalType": "bytes4",
          "name": "",
          "type": "bytes4"
        }
      ],
      "stateMutability": "nonpayable",
      "type": "function"
    },
    {
      "inputs": [
        {
          "internalType": "address",
          "name": "",
          "type": "address"
        },
        {
          "internalType": "address",
          "name": "",
          "type": "address"
        },
        {
          "internalType": "uint256",
          "name": "",
          "type": "uint256"
        },
        {
          "internalType": "bytes",
          "name": "",
          "type": "bytes"
        }
      ],
      "name": "onERC721Received",
      "outputs": [
        {
          "internalType": "bytes4",
          "name": "",
          "type": "bytes4"
        }
      ],
      "stateMutability": "nonpayable",
      "type": "function"
    },
    {
      "inputs": [
        {
          "internalType": "uint256",
          "name": "proposalId",
          "type": "uint256"
        }
      ],
      "name": "proposalDeadline",
      "outputs": [
        {
          "internalType": "uint256",
          "name": "",
          "type": "uint256"
        }
      ],
      "stateMutability": "view",
      "type": "function"
    },
    {
      "inputs": [
        {
          "internalType": "uint256",
          "name": "proposalId",
          "type": "uint256"
        }
      ],
      "name": "proposalEta",
      "outputs": [
        {
          "internalType": "uint256",
          "name": "",
          "type": "uint256"
        }
      ],
      "stateMutability": "view",
      "type": "function"
    },
    {
      "inputs": [
        {
          "internalType": "uint256",
          "name": "proposalId",
          "type": "uint256"
        }
      ],
      "name": "proposalSnapshot",
      "outputs": [
        {
          "internalType": "uint256",
          "name": "",
          "type": "uint256"
        }
      ],
      "stateMutability": "view",
      "type": "function"
    },
    {
      "inputs": [],
      "name": "proposalThreshold",
      "outputs": [
        {
          "internalType": "uint256",
          "name": "",
          "type": "uint256"
        }
      ],
      "stateMutability": "view",
      "type": "function"
    },
    {
      "inputs": [
        {
          "internalType": "uint256",
          "name": "proposalId",
          "type": "uint256"
        }
      ],
      "name": "proposals",
      "outputs": [
        {
          "internalType": "uint256",
          "name": "id",
          "type": "uint256"
        },
        {
          "internalType": "address",
          "name": "proposer",
          "type": "address"
        },
        {
          "internalType": "uint256",
          "name": "eta",
          "type": "uint256"
        },
        {
          "internalType": "uint256",
          "name": "startBlock",
          "type": "uint256"
        },
        {
          "internalType": "uint256",
          "name": "endBlock",
          "type": "uint256"
        },
        {
          "internalType": "uint256",
          "name": "forVotes",
          "type": "uint256"
        },
        {
          "internalType": "uint256",
          "name": "againstVotes",
          "type": "uint256"
        },
        {
          "internalType": "uint256",
          "name": "abstainVotes",
          "type": "uint256"
        },
        {
          "internalType": "bool",
          "name": "canceled",
          "type": "bool"
        },
        {
          "internalType": "bool",
          "name": "executed",
          "type": "bool"
        }
      ],
      "stateMutability": "view",
      "type": "function"
    },
    {
      "inputs": [
        {
          "internalType": "address[]",
          "name": "targets",
          "type": "address[]"
        },
        {
          "internalType": "uint256[]",
          "name": "values",
          "type": "uint256[]"
        },
        {
          "internalType": "bytes[]",
          "name": "calldatas",
          "type": "bytes[]"
        },
        {
          "internalType": "string",
          "name": "description",
          "type": "string"
        }
      ],
      "name": "propose",
      "outputs": [
        {
          "internalType": "uint256",
          "name": "",
          "type": "uint256"
        }
      ],
      "stateMutability": "nonpayable",
      "type": "function"
    },
    {
      "inputs": [
        {
          "internalType": "address[]",
          "name": "targets",
          "type": "address[]"
        },
        {
          "internalType": "uint256[]",
          "name": "values",
          "type": "uint256[]"
        },
        {
          "internalType": "string[]",
          "name": "signatures",
          "type": "string[]"
        },
        {
          "internalType": "bytes[]",
          "name": "calldatas",
          "type": "bytes[]"
        },
        {
          "internalType": "string",
          "name": "description",
          "type": "string"
        }
      ],
      "name": "propose",
      "outputs": [
        {
          "internalType": "uint256",
          "name": "",
          "type": "uint256"
        }
      ],
      "stateMutability": "nonpayable",
      "type": "function"
    },
    {
      "inputs": [
        {
          "internalType": "address[]",
          "name": "targets",
          "type": "address[]"
        },
        {
          "internalType": "uint256[]",
          "name": "values",
          "type": "uint256[]"
        },
        {
          "internalType": "bytes[]",
          "name": "calldatas",
          "type": "bytes[]"
        },
        {
          "internalType": "bytes32",
          "name": "descriptionHash",
          "type": "bytes32"
        }
      ],
      "name": "queue",
      "outputs": [
        {
          "internalType": "uint256",
          "name": "",
          "type": "uint256"
        }
      ],
      "stateMutability": "nonpayable",
      "type": "function"
    },
    {
      "inputs": [
        {
          "internalType": "uint256",
          "name": "proposalId",
          "type": "uint256"
        }
      ],
      "name": "queue",
      "outputs": [],
      "stateMutability": "nonpayable",
      "type": "function"
    },
    {
      "inputs": [
        {
          "internalType": "uint256",
          "name": "blockNumber",
          "type": "uint256"
        }
      ],
      "name": "quorum",
      "outputs": [
        {
          "internalType": "uint256",
          "name": "",
          "type": "uint256"
        }
      ],
      "stateMutability": "view",
      "type": "function"
    },
    {
      "inputs": [],
      "name": "quorumDenominator",
      "outputs": [
        {
          "internalType": "uint256",
          "name": "",
          "type": "uint256"
        }
      ],
      "stateMutability": "view",
      "type": "function"
    },
    {
      "inputs": [
        {
          "internalType": "uint256",
          "name": "blockNumber",
          "type": "uint256"
        }
      ],
      "name": "quorumNumerator",
      "outputs": [
        {
          "internalType": "uint256",
          "name": "",
          "type": "uint256"
        }
      ],
      "stateMutability": "view",
      "type": "function"
    },
    {
      "inputs": [],
      "name": "quorumNumerator",
      "outputs": [
        {
          "internalType": "uint256",
          "name": "",
          "type": "uint256"
        }
      ],
      "stateMutability": "view",
      "type": "function"
    },
    {
      "inputs": [],
      "name": "quorumVotes",
      "outputs": [
        {
          "internalType": "uint256",
          "name": "",
          "type": "uint256"
        }
      ],
      "stateMutability": "view",
      "type": "function"
    },
    {
      "inputs": [
        {
          "internalType": "address",
          "name": "target",
          "type": "address"
        },
        {
          "internalType": "uint256",
          "name": "value",
          "type": "uint256"
        },
        {
          "internalType": "bytes",
          "name": "data",
          "type": "bytes"
        }
      ],
      "name": "relay",
      "outputs": [],
      "stateMutability": "payable",
      "type": "function"
    },
    {
      "inputs": [
        {
          "internalType": "uint256",
          "name": "newProposalThreshold",
          "type": "uint256"
        }
      ],
      "name": "setProposalThreshold",
      "outputs": [],
      "stateMutability": "nonpayable",
      "type": "function"
    },
    {
      "inputs": [
        {
          "internalType": "uint256",
          "name": "newVotingDelay",
          "type": "uint256"
        }
      ],
      "name": "setVotingDelay",
      "outputs": [],
      "stateMutability": "nonpayable",
      "type": "function"
    },
    {
      "inputs": [
        {
          "internalType": "uint256",
          "name": "newVotingPeriod",
          "type": "uint256"
        }
      ],
      "name": "setVotingPeriod",
      "outputs": [],
      "stateMutability": "nonpayable",
      "type": "function"
    },
    {
      "inputs": [
        {
          "internalType": "uint256",
          "name": "proposalId",
          "type": "uint256"
        }
      ],
      "name": "state",
      "outputs": [
        {
          "internalType": "enum IGovernor.ProposalState",
          "name": "",
          "type": "uint8"
        }
      ],
      "stateMutability": "view",
      "type": "function"
    },
    {
      "inputs": [
        {
          "internalType": "bytes4",
          "name": "interfaceId",
          "type": "bytes4"
        }
      ],
      "name": "supportsInterface",
      "outputs": [
        {
          "internalType": "bool",
          "name": "",
          "type": "bool"
        }
      ],
      "stateMutability": "view",
      "type": "function"
    },
    {
      "inputs": [],
      "name": "timelock",
      "outputs": [
        {
          "internalType": "address",
          "name": "",
          "type": "address"
        }
      ],
      "stateMutability": "view",
      "type": "function"
    },
    {
      "inputs": [],
      "name": "token",
      "outputs": [
        {
          "internalType": "contract IVotes",
          "name": "",
          "type": "address"
        }
      ],
      "stateMutability": "view",
      "type": "function"
    },
    {
      "inputs": [
        {
          "internalType": "uint256",
          "name": "newQuorumNumerator",
          "type": "uint256"
        }
      ],
      "name": "updateQuorumNumerator",
      "outputs": [],
      "stateMutability": "nonpayable",
      "type": "function"
    },
    {
      "inputs": [
        {
          "internalType": "contract TimelockController",
          "name": "newTimelock",
          "type": "address"
        }
      ],
      "name": "updateTimelock",
      "outputs": [],
      "stateMutability": "nonpayable",
      "type": "function"
    },
    {
      "inputs": [],
      "name": "version",
      "outputs": [
        {
          "internalType": "string",
          "name": "",
          "type": "string"
        }
      ],
      "stateMutability": "view",
      "type": "function"
    },
    {
      "inputs": [],
      "name": "votingDelay",
      "outputs": [
        {
          "internalType": "uint256",
          "name": "",
          "type": "uint256"
        }
      ],
      "stateMutability": "view",
      "type": "function"
    },
    {
      "inputs": [],
      "name": "votingPeriod",
      "outputs": [
        {
          "internalType": "uint256",
          "name": "",
          "type": "uint256"
        }
      ],
      "stateMutability": "view",
      "type": "function"
    },
    {
      "stateMutability": "payable",
      "type": "receive"
    }
  ],
  "bytecode": "0x61016060405234801562000011575f80fd5b5060405162005bd938038062005bd98339810160408190526200003491620007b0565b8481878686866040518060400160405280600d81526020016c476f7665726e6f72204f4c415360981b81525080620000716200016560201b60201c565b815160209283012081519183019190912060e08290526101008190524660a0818152604080517f8b73c3c69bb8fe3d512ecc4cf759cc79239f7b179b0ffacaa9a75d522b39400f818801819052818301969096526060810194909452608080850193909352308483018190528151808603909301835260c094850190915281519190950120905291909152610120525f6200010d8282620008af565b506200011b90508362000180565b6200012682620001c1565b620001318162000267565b5050506001600160a01b0316610140526200014c81620002a8565b506200015881620003fc565b505050505050506200099d565b6040805180820190915260018152603160f81b602082015290565b60045460408051918252602082018390527fc565b045403dc03c2eea82b81a0465edad9e2e7fc4d97e11421c209da93d7a93910160405180910390a1600455565b5f8111620002265760405162461bcd60e51b815260206004820152602760248201527f476f7665726e6f7253657474696e67733a20766f74696e6720706572696f6420604482015266746f6f206c6f7760c81b60648201526084015b60405180910390fd5b60055460408051918252602082018390527f7e3f7f0708a84de9203036abaa450dccc85ad5ff52f78c170f3edb55cf5e8828910160405180910390a1600555565b60065460408051918252602082018390527fccb45da8d5717e6c4544694297c4ba5cf151d455c9bb0ed4fc7a38411bc05461910160405180910390a1600655565b60648111156200032d5760405162461bcd60e51b815260206004820152604360248201527f476f7665726e6f72566f74657351756f72756d4672616374696f6e3a2071756f60448201527f72756d4e756d657261746f72206f7665722071756f72756d44656e6f6d696e616064820152623a37b960e91b608482015260a4016200021d565b5f6200033862000465565b905080158015906200034a5750600954155b15620003b057604080518082019091525f8152600990602081016200036f8462000491565b6001600160e01b0390811690915282546001810184555f938452602093849020835194909301519091166401000000000263ffffffff909316929092179101555b620003bd600983620004ff565b505060408051828152602081018490527f0553476bf02ef2726e8ce5ced78d63e26e602e4a2257b1f559418e24b4633997910160405180910390a15050565b600a54604080516001600160a01b03928316815291831660208301527f08f74ea46ef7894f65eabfb5e6e695de773a000b47c529ab559178069b226401910160405180910390a1600a80546001600160a01b0319166001600160a01b0392909216919091179055565b6009545f90156200048a576200047c600962000538565b6001600160e01b0316905090565b5060085490565b5f6001600160e01b03821115620004fb5760405162461bcd60e51b815260206004820152602760248201527f53616665436173743a2076616c756520646f65736e27742066697420696e20326044820152663234206269747360c81b60648201526084016200021d565b5090565b5f806200052284620005114362000583565b6200051c8662000491565b620005e9565b6001600160e01b03918216969116945092505050565b80545f9080156200057a5762000562836200055560018462000977565b5f91825260209091200190565b5464010000000090046001600160e01b03166200057c565b5f5b9392505050565b5f63ffffffff821115620004fb5760405162461bcd60e51b815260206004820152602660248201527f53616665436173743a2076616c756520646f65736e27742066697420696e203360448201526532206269747360d01b60648201526084016200021d565b82545f90819080156200073b575f62000609876200055560018562000977565b60408051808201909152905463ffffffff8082168084526401000000009092046001600160e01b0316602084015291925090871610156200068d5760405162461bcd60e51b815260206004820152601760248201527f436865636b706f696e743a20696e76616c6964206b657900000000000000000060448201526064016200021d565b805163ffffffff808816911603620006db5784620006b2886200055560018662000977565b80546001600160e01b03929092166401000000000263ffffffff9092169190911790556200072a565b6040805180820190915263ffffffff80881682526001600160e01b0380881660208085019182528b54600181018d555f8d81529190912094519151909216640100000000029216919091179101555b602001519250839150620007909050565b50506040805180820190915263ffffffff80851682526001600160e01b0380851660208085019182528854600181018a555f8a8152918220955192519093166401000000000291909316179201919091559050815b935093915050565b6001600160a01b0381168114620007ad575f80fd5b50565b5f805f805f8060c08789031215620007c6575f80fd5b8651620007d38162000798565b6020880151909650620007e68162000798565b6040880151606089015160808a015160a0909a0151989b929a5090989097909650945092505050565b634e487b7160e01b5f52604160045260245ffd5b600181811c908216806200083857607f821691505b6020821081036200085757634e487b7160e01b5f52602260045260245ffd5b50919050565b601f821115620008aa575f81815260208120601f850160051c81016020861015620008855750805b601f850160051c820191505b81811015620008a65782815560010162000891565b5050505b505050565b81516001600160401b03811115620008cb57620008cb6200080f565b620008e381620008dc845462000823565b846200085d565b602080601f83116001811462000919575f8415620009015750858301515b5f19600386901b1c1916600185901b178555620008a6565b5f85815260208120601f198616915b82811015620009495788860151825594840194600190910190840162000928565b50858210156200096757878501515f19600388901b60f8161c191681555b5050505050600190811b01905550565b818103818111156200099757634e487b7160e01b5f52601160045260245ffd5b92915050565b60805160a05160c05160e0516101005161012051610140516151dc620009fd5f395f8181610a89015281816121680152612d2001525f6130fc01525f61314b01525f61312601525f61307f01525f6130a901525f6130d301526151dc5ff3fe608060405260043610610306575f3560e01c80637d5e81e211610191578063da95691a116100dc578063eb9019d411610087578063f8ce560a11610062578063f8ce560a14610a59578063fc0c546a14610a78578063fe0d94c114610aab575f80fd5b8063eb9019d4146109f0578063ece40cc114610a0f578063f23a6e6114610a2e575f80fd5b8063deaaa7cc116100b7578063deaaa7cc146108cd578063e23a9a5214610900578063ea0217cf146109d1575f80fd5b8063da95691a1461084a578063dd4e2ba514610869578063ddf0b009146108ae575f80fd5b8063b58131b01161013c578063c28bc2fa11610117578063c28bc2fa146107e7578063c59057e4146107fa578063d33219b414610819575f80fd5b8063b58131b014610789578063bc197c811461079d578063c01f9e37146107c8575f80fd5b8063a7713a701161016c578063a7713a7014610737578063a890c9101461074b578063ab58fb8e1461076a575f80fd5b80637d5e81e2146106e657806397c3d334146107055780639a802a6d14610718575f80fd5b8063328dd9821161025157806354fd4d50116101fc57806360c4247f116101d757806360c4247f1461068957806370b0f660146106a85780637b3c71d3146106c7575f80fd5b806354fd4d5014610622578063567813881461064b5780635f398a141461066a575f80fd5b80633e4f49e61161022c5780633e4f49e61461058f57806340e58ee5146105bb57806343859632146105da575f80fd5b8063328dd9821461052d5780633932abb11461055c5780633bccf4fd14610570575f80fd5b8063150b7a02116102b15780632656227d1161028c5780632656227d146104c85780632d63f693146104db5780632fe3e261146104fa575f80fd5b8063150b7a0214610452578063160cbed71461049557806324bc1a64146104b4575f80fd5b806303420181116102e157806303420181146103f357806306f3f9e61461041257806306fdde0314610431575f80fd5b8063013cf08b1461032c57806301ffc9a7146103a657806302a251a3146103d5575f80fd5b366103285730610314610abe565b6001600160a01b031614610326575f80fd5b005b5f80fd5b348015610337575f80fd5b5061034b610346366004614228565b610ad6565b604080519a8b526001600160a01b0390991660208b0152978901969096526060880194909452608087019290925260a086015260c085015260e084015215156101008301521515610120820152610140015b60405180910390f35b3480156103b1575f80fd5b506103c56103c036600461423f565b610b7f565b604051901515815260200161039d565b3480156103e0575f80fd5b506005545b60405190815260200161039d565b3480156103fe575f80fd5b506103e561040d36600461436a565b610b8f565b34801561041d575f80fd5b5061032661042c366004614228565b610c85565b34801561043c575f80fd5b50610445610d3e565b60405161039d9190614457565b34801561045d575f80fd5b5061047c61046c36600461447d565b630a85bd0160e11b949350505050565b6040516001600160e01b0319909116815260200161039d565b3480156104a0575f80fd5b506103e56104af36600461464d565b610dcd565b3480156104bf575f80fd5b506103e5610ffb565b6103e56104d636600461464d565b61100a565b3480156104e6575f80fd5b506103e56104f5366004614228565b61112e565b348015610505575f80fd5b506103e57fb3b3f3b703cd84ce352197dcff232b1b5d3cfb2025ce47cf04742d0651f1af8881565b348015610538575f80fd5b5061054c610547366004614228565b611166565b60405161039d949392919061479a565b348015610567575f80fd5b506004546103e5565b34801561057b575f80fd5b506103e561058a3660046147e6565b6113e6565b34801561059a575f80fd5b506105ae6105a9366004614228565b61145a565b60405161039d9190614844565b3480156105c6575f80fd5b506103266105d5366004614228565b611464565b3480156105e5575f80fd5b506103c56105f436600461486a565b5f8281526007602090815260408083206001600160a01b038516845260080190915290205460ff1692915050565b34801561062d575f80fd5b506040805180820190915260018152603160f81b6020820152610445565b348015610656575f80fd5b506103e5610665366004614898565b611783565b348015610675575f80fd5b506103e56106843660046148c2565b6117aa565b348015610694575f80fd5b506103e56106a3366004614228565b6117f2565b3480156106b3575f80fd5b506103266106c2366004614228565b611887565b3480156106d2575f80fd5b506103e56106e1366004614940565b611938565b3480156106f1575f80fd5b506103e5610700366004614996565b611988565b348015610710575f80fd5b5060646103e5565b348015610723575f80fd5b506103e5610732366004614a30565b61199e565b348015610742575f80fd5b506103e56119b4565b348015610756575f80fd5b50610326610765366004614a85565b6119dd565b348015610775575f80fd5b506103e5610784366004614228565b611a8e565b348015610794575f80fd5b506103e5611b24565b3480156107a8575f80fd5b5061047c6107b7366004614aa0565b63bc197c8160e01b95945050505050565b3480156107d3575f80fd5b506103e56107e2366004614228565b611b2e565b6103266107f5366004614b2d565b611b5d565b348015610805575f80fd5b506103e561081436600461464d565b611c92565b348015610824575f80fd5b50600a546001600160a01b03165b6040516001600160a01b03909116815260200161039d565b348015610855575f80fd5b506103e5610864366004614be9565b611ccb565b348015610874575f80fd5b5060408051808201909152601a81527f737570706f72743d627261766f2671756f72756d3d627261766f0000000000006020820152610445565b3480156108b9575f80fd5b506103266108c8366004614228565b611d66565b3480156108d8575f80fd5b506103e57f150214d74d59b7d1e90c73fc22ef3d991dd0a76b046543d4d80ab92d2a50328f81565b34801561090b575f80fd5b5061099c61091a36600461486a565b604080516060810182525f8082526020820181905291810191909152505f9182526007602090815260408084206001600160a01b0393909316845260089092018152918190208151606081018352905460ff8082161515835261010082041693820193909352620100009092046bffffffffffffffffffffffff169082015290565b6040805182511515815260208084015160ff1690820152918101516bffffffffffffffffffffffff169082015260600161039d565b3480156109dc575f80fd5b506103266109eb366004614228565b611fc5565b3480156109fb575f80fd5b506103e5610a0a366004614c83565b612076565b348015610a1a575f80fd5b50610326610a29366004614228565b612095565b348015610a39575f80fd5b5061047c610a48366004614cad565b63f23a6e6160e01b95945050505050565b348015610a64575f80fd5b506103e5610a73366004614228565b612146565b348015610a83575f80fd5b506108327f000000000000000000000000000000000000000000000000000000000000000081565b610326610ab9366004614228565b6121ed565b5f610ad1600a546001600160a01b031690565b905090565b805f8080808080808080610ae98a611a8e565b9750610af48b61112e565b9650610aff8b611b2e565b5f8c81526007602081905260408220805460058201546006830154938301546001600160a01b039092169e50949a50939850909650919450610b408d61145a565b90506002816007811115610b5657610b56614830565b1493506007816007811115610b6d57610b6d614830565b14925050509193959799509193959799565b5f610b898261244c565b92915050565b5f80610c32610c2a7fb3b3f3b703cd84ce352197dcff232b1b5d3cfb2025ce47cf04742d0651f1af888c8c8c8c604051610bca929190614d11565b60405180910390208b80519060200120604051602001610c0f959493929190948552602085019390935260ff9190911660408401526060830152608082015260a00190565b60405160208183030381529060405280519060200120612470565b8686866124bc565b9050610c778a828b8b8b8080601f0160208091040260200160405190810160405280939291908181526020018383808284375f920191909152508d92506124d8915050565b9a9950505050505050505050565b610c8d610abe565b6001600160a01b0316336001600160a01b031614610ced5760405162461bcd60e51b8152602060048201526018602482015277476f7665726e6f723a206f6e6c79476f7665726e616e636560401b60448201526064015b60405180910390fd5b30610cf6610abe565b6001600160a01b031614610d32575f8036604051610d15929190614d11565b604051809103902090505b80610d2b600261263b565b03610d2057505b610d3b816126c1565b50565b60605f8054610d4c90614d20565b80601f0160208091040260200160405190810160405280929190818152602001828054610d7890614d20565b8015610dc35780601f10610d9a57610100808354040283529160200191610dc3565b820191905f5260205f20905b815481529060010190602001808311610da657829003601f168201915b5050505050905090565b5f80610ddb86868686611c92565b90506004610de88261145a565b6007811115610df957610df9614830565b14610e505760405162461bcd60e51b815260206004820152602160248201527f476f7665726e6f723a2070726f706f73616c206e6f74207375636365737366756044820152601b60fa1b6064820152608401610ce4565b600a546040805163793d064960e11b815290515f926001600160a01b03169163f27a0c929160048083019260209291908290030181865afa158015610e97573d5f803e3d5ffd5b505050506040513d601f19601f82011682018060405250810190610ebb9190614d58565b600a5460405163b1c5f42760e01b81529192506001600160a01b03169063b1c5f42790610ef4908a908a908a905f908b90600401614d6f565b602060405180830381865afa158015610f0f573d5f803e3d5ffd5b505050506040513d601f19601f82011682018060405250810190610f339190614d58565b5f838152600b602052604080822092909255600a5491516308f2a0bb60e41b81526001600160a01b0390921691638f2a0bb091610f7d918b918b918b91908b908990600401614dbc565b5f604051808303815f87803b158015610f94575f80fd5b505af1158015610fa6573d5f803e3d5ffd5b505050507f9a2e42fd6722813d69113e7d0079d3d940171428df7373df9c7f7617cfda2892828242610fd89190614e27565b604080519283526020830191909152015b60405180910390a15095945050505050565b5f610ad1610a73600143614e3a565b5f8061101886868686611c92565b90505f6110248261145a565b9050600481600781111561103a5761103a614830565b14806110575750600581600781111561105557611055614830565b145b6110ad5760405162461bcd60e51b815260206004820152602160248201527f476f7665726e6f723a2070726f706f73616c206e6f74207375636365737366756044820152601b60fa1b6064820152608401610ce4565b5f82815260016020818152604092839020600201805460ff191690921790915590518381527f712ae1383f79ac853f8d882153778e0260ef8f03b504e2866e0593e04d2b291f910160405180910390a161110a828888888861280b565b61111782888888886128ac565b61112482888888886128b9565b5095945050505050565b5f81815260016020908152604080832081519283019091525467ffffffffffffffff16908190525b67ffffffffffffffff1692915050565b6060806060805f60075f8781526020019081526020015f20905080600101816002018260030183600401838054806020026020016040519081016040528092919081815260200182805480156111e357602002820191905f5260205f20905b81546001600160a01b031681526001909101906020018083116111c5575b505050505093508280548060200260200160405190810160405280929190818152602001828054801561123357602002820191905f5260205f20905b81548152602001906001019080831161121f575b5050505050925081805480602002602001604051908101604052809291908181526020015f905b82821015611302578382905f5260205f2001805461127790614d20565b80601f01602080910402602001604051908101604052809291908181526020018280546112a390614d20565b80156112ee5780601f106112c5576101008083540402835291602001916112ee565b820191905f5260205f20905b8154815290600101906020018083116112d157829003601f168201915b50505050508152602001906001019061125a565b50505050915080805480602002602001604051908101604052809291908181526020015f905b828210156113d0578382905f5260205f2001805461134590614d20565b80601f016020809104026020016040519081016040528092919081815260200182805461137190614d20565b80156113bc5780601f10611393576101008083540402835291602001916113bc565b820191905f5260205f20905b81548152906001019060200180831161139f57829003601f168201915b505050505081526020019060010190611328565b5050505090509450945094509450509193509193565b604080517f150214d74d59b7d1e90c73fc22ef3d991dd0a76b046543d4d80ab92d2a50328f602082015290810186905260ff851660608201525f90819061143390610c2a90608001610c0f565b905061144f87828860405180602001604052805f8152506128f1565b979650505050505050565b5f610b8982612912565b5f81815260076020526040902080546001600160a01b0316336001600160a01b031614806114b15750611495611b24565b81546114af906001600160a01b0316610a0a600143614e3a565b105b6115235760405162461bcd60e51b815260206004820152602760248201527f476f7665726e6f72427261766f3a2070726f706f7365722061626f766520746860448201527f726573686f6c64000000000000000000000000000000000000000000000000006064820152608401610ce4565b61177e8160010180548060200260200160405190810160405280929190818152602001828054801561157c57602002820191905f5260205f20905b81546001600160a01b0316815260019091019060200180831161155e575b5050505050826002018054806020026020016040519081016040528092919081815260200182805480156115cd57602002820191905f5260205f20905b8154815260200190600101908083116115b9575b505050505061177484600301805480602002602001604051908101604052809291908181526020015f905b828210156116a0578382905f5260205f2001805461161590614d20565b80601f016020809104026020016040519081016040528092919081815260200182805461164190614d20565b801561168c5780601f106116635761010080835404028352916020019161168c565b820191905f5260205f20905b81548152906001019060200180831161166f57829003601f168201915b5050505050815260200190600101906115f8565b5050506004870180546040805160208084028201810190925282815293505f9084015b8282101561176b578382905f5260205f200180546116e090614d20565b80601f016020809104026020016040519081016040528092919081815260200182805461170c90614d20565b80156117575780601f1061172e57610100808354040283529160200191611757565b820191905f5260205f20905b81548152906001019060200180831161173a57829003601f168201915b5050505050815260200190600101906116c3565b50505050612a56565b8460090154612b86565b505050565b5f803390506117a284828560405180602001604052805f8152506128f1565b949350505050565b5f8033905061144f87828888888080601f0160208091040260200160405190810160405280939291908181526020018383808284375f920191909152508a92506124d8915050565b6009545f90808203611808575050600854919050565b5f6009611816600184614e3a565b8154811061182657611826614e4d565b5f9182526020918290206040805180820190915291015463ffffffff81168083526401000000009091046001600160e01b0316928201929092529150841061187c57602001516001600160e01b03169392505050565b6117a2600985612b93565b61188f610abe565b6001600160a01b0316336001600160a01b0316146118ea5760405162461bcd60e51b8152602060048201526018602482015277476f7665726e6f723a206f6e6c79476f7665726e616e636560401b6044820152606401610ce4565b306118f3610abe565b6001600160a01b03161461192f575f8036604051611912929190614d11565b604051809103902090505b80611928600261263b565b0361191d57505b610d3b81612c4f565b5f8033905061197e86828787878080601f0160208091040260200160405190810160405280939291908181526020018383808284375f920191909152506128f192505050565b9695505050505050565b5f61199585858585612c90565b95945050505050565b5f6119aa848484612cf8565b90505b9392505050565b6009545f90156119d6576119c86009612d8b565b6001600160e01b0316905090565b5060085490565b6119e5610abe565b6001600160a01b0316336001600160a01b031614611a405760405162461bcd60e51b8152602060048201526018602482015277476f7665726e6f723a206f6e6c79476f7665726e616e636560401b6044820152606401610ce4565b30611a49610abe565b6001600160a01b031614611a85575f8036604051611a68929190614d11565b604051809103902090505b80611a7e600261263b565b03611a7357505b610d3b81612dbb565b600a545f828152600b602052604080822054905163d45c443560e01b81526004810191909152909182916001600160a01b039091169063d45c443590602401602060405180830381865afa158015611ae8573d5f803e3d5ffd5b505050506040513d601f19601f82011682018060405250810190611b0c9190614d58565b905080600114611b1c57806119ad565b5f9392505050565b5f610ad160065490565b5f81815260016020818152604080842081519283019091529091015467ffffffffffffffff1690819052611156565b611b65610abe565b6001600160a01b0316336001600160a01b031614611bc05760405162461bcd60e51b8152602060048201526018602482015277476f7665726e6f723a206f6e6c79476f7665726e616e636560401b6044820152606401610ce4565b30611bc9610abe565b6001600160a01b031614611c05575f8036604051611be8929190614d11565b604051809103902090505b80611bfe600261263b565b03611bf357505b5f80856001600160a01b0316858585604051611c22929190614d11565b5f6040518083038185875af1925050503d805f8114611c5c576040519150601f19603f3d011682016040523d82523d5f602084013e611c61565b606091505b5091509150611c89828260405180606001604052806028815260200161517f60289139612e31565b50505050505050565b5f84848484604051602001611caa9493929190614e61565b60408051601f19818403018152919052805160209091012095945050505050565b5f8251845114611d435760405162461bcd60e51b815260206004820152602860248201527f476f7665726e6f72427261766f3a20696e76616c6964207369676e617475726560448201527f73206c656e6774680000000000000000000000000000000000000000000000006064820152608401610ce4565b611d51338787878787612e4a565b61197e8686611d608787612a56565b85611988565b5f81815260076020908152604091829020600181018054845181850281018501909552808552919361177e93909290830182828015611dcc57602002820191905f5260205f20905b81546001600160a01b03168152600190910190602001808311611dae575b505050505082600201805480602002602001604051908101604052809291908181526020018280548015611e1d57602002820191905f5260205f20905b815481526020019060010190808311611e09575b5050505050611fbb84600301805480602002602001604051908101604052809291908181526020015f905b82821015611ef0578382905f5260205f20018054611e6590614d20565b80601f0160208091040260200160405190810160405280929190818152602001828054611e9190614d20565b8015611edc5780601f10611eb357610100808354040283529160200191611edc565b820191905f5260205f20905b815481529060010190602001808311611ebf57829003601f168201915b505050505081526020019060010190611e48565b5050506004870180546040805160208084028201810190925282815293505f9084015b8282101561176b578382905f5260205f20018054611f3090614d20565b80601f0160208091040260200160405190810160405280929190818152602001828054611f5c90614d20565b8015611fa75780601f10611f7e57610100808354040283529160200191611fa7565b820191905f5260205f20905b815481529060010190602001808311611f8a57829003601f168201915b505050505081526020019060010190611f13565b8460090154610dcd565b611fcd610abe565b6001600160a01b0316336001600160a01b0316146120285760405162461bcd60e51b8152602060048201526018602482015277476f7665726e6f723a206f6e6c79476f7665726e616e636560401b6044820152606401610ce4565b30612031610abe565b6001600160a01b03161461206d575f8036604051612050929190614d11565b604051809103902090505b80612066600261263b565b0361205b57505b610d3b81612f12565b5f6119ad838361209060408051602081019091525f815290565b612cf8565b61209d610abe565b6001600160a01b0316336001600160a01b0316146120f85760405162461bcd60e51b8152602060048201526018602482015277476f7665726e6f723a206f6e6c79476f7665726e616e636560401b6044820152606401610ce4565b30612101610abe565b6001600160a01b03161461213d575f8036604051612120929190614d11565b604051809103902090505b80612136600261263b565b0361212b57505b610d3b81612fc8565b5f6064612152836117f2565b604051632394e7a360e21b8152600481018590527f00000000000000000000000000000000000000000000000000000000000000006001600160a01b031690638e539e8c90602401602060405180830381865afa1580156121b5573d5f803e3d5ffd5b505050506040513d601f19601f820116820180604052508101906121d99190614d58565b6121e39190614eab565b610b899190614ec2565b5f81815260076020908152604091829020600181018054845181850281018501909552808552919361177e9390929083018282801561225357602002820191905f5260205f20905b81546001600160a01b03168152600190910190602001808311612235575b5050505050826002018054806020026020016040519081016040528092919081815260200182805480156122a457602002820191905f5260205f20905b815481526020019060010190808311612290575b505050505061244284600301805480602002602001604051908101604052809291908181526020015f905b82821015612377578382905f5260205f200180546122ec90614d20565b80601f016020809104026020016040519081016040528092919081815260200182805461231890614d20565b80156123635780601f1061233a57610100808354040283529160200191612363565b820191905f5260205f20905b81548152906001019060200180831161234657829003601f168201915b5050505050815260200190600101906122cf565b5050506004870180546040805160208084028201810190925282815293505f9084015b8282101561176b578382905f5260205f200180546123b790614d20565b80601f01602080910402602001604051908101604052809291908181526020018280546123e390614d20565b801561242e5780601f106124055761010080835404028352916020019161242e565b820191905f5260205f20905b81548152906001019060200180831161241157829003601f168201915b50505050508152602001906001019061239a565b846009015461100a565b5f6001600160e01b03198216636e665ced60e01b1480610b895750610b8982613009565b5f610b8961247c613073565b8360405161190160f01b602082015260228101839052604281018290525f9060620160405160208183030381529060405280519060200120905092915050565b5f805f6124cb87878787613199565b9150915061112481613256565b5f8581526001602081905260408220906124f18861145a565b600781111561250257612502614830565b1461255b5760405162461bcd60e51b815260206004820152602360248201527f476f7665726e6f723a20766f7465206e6f742063757272656e746c792061637460448201526269766560e81b6064820152608401610ce4565b6040805160208101909152815467ffffffffffffffff16908190525f9061258490889086612cf8565b9050612593888888848861339f565b83515f036125e757866001600160a01b03167fb8e138887d0aa13bab447e82de9d5c1777041ecd21ca36ba824ff1e6c07ddda4898884896040516125da9493929190614ee1565b60405180910390a261144f565b866001600160a01b03167fe2babfbac5889a709b63bb7f598b324e08bc5a4fb9ec647fb3cbc9ec07eb87128988848989604051612628959493929190614f08565b60405180910390a2979650505050505050565b5f6126558254600f81810b600160801b909204900b131590565b1561267357604051631ed9509560e11b815260040160405180910390fd5b508054600f0b5f818152600180840160205260408220805492905583546fffffffffffffffffffffffffffffffff191692016fffffffffffffffffffffffffffffffff169190911790915590565b60648111156127445760405162461bcd60e51b815260206004820152604360248201527f476f7665726e6f72566f74657351756f72756d4672616374696f6e3a2071756f60448201527f72756d4e756d657261746f72206f7665722071756f72756d44656e6f6d696e616064820152623a37b960e91b608482015260a401610ce4565b5f61274d6119b4565b9050801580159061275e5750600954155b156127c157604080518082019091525f8152600990602081016127808461355c565b6001600160e01b0390811690915282546001810184555f938452602093849020835194909301519091166401000000000263ffffffff909316929092179101555b6127cc6009836135de565b505060408051828152602081018490527f0553476bf02ef2726e8ce5ced78d63e26e602e4a2257b1f559418e24b4633997910160405180910390a15050565b30612814610abe565b6001600160a01b0316146128a5575f5b84518110156128a357306001600160a01b031685828151811061284957612849614e4d565b60200260200101516001600160a01b0316036128935761289383828151811061287457612874614e4d565b602002602001015180519060200120600261361390919063ffffffff16565b61289c81614f4d565b9050612824565b505b5050505050565b6128a58585858585613657565b306128c2610abe565b6001600160a01b0316146128a557600254600f81810b600160801b909204900b13156128a5575f6002556128a5565b5f6119958585858561290d60408051602081019091525f815290565b6124d8565b5f8061291d836136c6565b9050600481600781111561293357612933614830565b1461293e5792915050565b5f838152600b602052604090205480612958575092915050565b600a54604051632ab0f52960e01b8152600481018390526001600160a01b0390911690632ab0f52990602401602060405180830381865afa15801561299f573d5f803e3d5ffd5b505050506040513d601f19601f820116820180604052508101906129c39190614f65565b156129d2575060079392505050565b600a54604051632c258a9f60e11b8152600481018390526001600160a01b039091169063584b153e90602401602060405180830381865afa158015612a19573d5f803e3d5ffd5b505050506040513d601f19601f82011682018060405250810190612a3d9190614f65565b15612a4c575060059392505050565b5060029392505050565b60605f825167ffffffffffffffff811115612a7357612a736142b9565b604051908082528060200260200182016040528015612aa657816020015b6060815260200190600190039081612a915790505b5090505f5b8151811015612b7e57848181518110612ac657612ac6614e4d565b6020026020010151515f14612b3557848181518110612ae757612ae7614e4d565b602002602001015180519060200120848281518110612b0857612b08614e4d565b6020026020010151604051602001612b21929190614f84565b604051602081830303815290604052612b50565b838181518110612b4757612b47614e4d565b60200260200101515b828281518110612b6257612b62614e4d565b602002602001018190525080612b7790614f4d565b9050612aab565b509392505050565b5f611995858585856137d2565b5f438210612be35760405162461bcd60e51b815260206004820181905260248201527f436865636b706f696e74733a20626c6f636b206e6f7420796574206d696e65646044820152606401610ce4565b5f612bed8361387b565b84549091505f612bff868483856138df565b90508015612c3a57612c2386612c16600184614e3a565b5f91825260209091200190565b5464010000000090046001600160e01b0316612c3c565b5f5b6001600160e01b03169695505050505050565b60045460408051918252602082018390527fc565b045403dc03c2eea82b81a0465edad9e2e7fc4d97e11421c209da93d7a93910160405180910390a1600455565b5f612cec338686865167ffffffffffffffff811115612cb157612cb16142b9565b604051908082528060200260200182016040528015612ce457816020015b6060815260200190600190039081612ccf5790505b508787612e4a565b61199585858585613932565b604051630748d63560e31b81526001600160a01b038481166004830152602482018490525f917f000000000000000000000000000000000000000000000000000000000000000090911690633a46b1a890604401602060405180830381865afa158015612d67573d5f803e3d5ffd5b505050506040513d601f19601f820116820180604052508101906119aa9190614d58565b80545f908015611b1c57612da483612c16600184614e3a565b5464010000000090046001600160e01b03166119ad565b600a54604080516001600160a01b03928316815291831660208301527f08f74ea46ef7894f65eabfb5e6e695de773a000b47c529ab559178069b226401910160405180910390a1600a805473ffffffffffffffffffffffffffffffffffffffff19166001600160a01b0392909216919091179055565b60608315612e405750816119ad565b6119ad8383613c75565b805160208201205f612e678787612e618888612a56565b85611c92565b5f818152600760205260409020600981015491925090612f0757805473ffffffffffffffffffffffffffffffffffffffff19166001600160a01b038a161781558751612ebc90600183019060208b0190614060565b508651612ed290600283019060208a01906140cc565b508551612ee89060038301906020890190614105565b508451612efe9060048301906020880190614155565b50600981018390555b505050505050505050565b5f8111612f875760405162461bcd60e51b815260206004820152602760248201527f476f7665726e6f7253657474696e67733a20766f74696e6720706572696f642060448201527f746f6f206c6f77000000000000000000000000000000000000000000000000006064820152608401610ce4565b60055460408051918252602082018390527f7e3f7f0708a84de9203036abaa450dccc85ad5ff52f78c170f3edb55cf5e8828910160405180910390a1600555565b60065460408051918252602082018390527fccb45da8d5717e6c4544694297c4ba5cf151d455c9bb0ed4fc7a38411bc05461910160405180910390a1600655565b5f6001600160e01b0319821663bf26d89760e01b148061303957506001600160e01b031982166379dd796f60e01b145b8061305457506001600160e01b03198216630271189760e51b145b80610b8957506301ffc9a760e01b6001600160e01b0319831614610b89565b5f306001600160a01b037f0000000000000000000000000000000000000000000000000000000000000000161480156130cb57507f000000000000000000000000000000000000000000000000000000000000000046145b156130f557507f000000000000000000000000000000000000000000000000000000000000000090565b50604080517f00000000000000000000000000000000000000000000000000000000000000006020808301919091527f0000000000000000000000000000000000000000000000000000000000000000828401527f000000000000000000000000000000000000000000000000000000000000000060608301524660808301523060a0808401919091528351808403909101815260c0909201909252805191012090565b5f807f7fffffffffffffffffffffffffffffff5d576e7357a4501ddfe92f46681b20a08311156131ce57505f9050600361324d565b604080515f8082526020820180845289905260ff881692820192909252606081018690526080810185905260019060a0016020604051602081039080840390855afa15801561321f573d5f803e3d5ffd5b5050604051601f1901519150506001600160a01b038116613247575f6001925092505061324d565b91505f90505b94509492505050565b5f81600481111561326957613269614830565b036132715750565b600181600481111561328557613285614830565b036132d25760405162461bcd60e51b815260206004820152601860248201527f45434453413a20696e76616c6964207369676e617475726500000000000000006044820152606401610ce4565b60028160048111156132e6576132e6614830565b036133335760405162461bcd60e51b815260206004820152601f60248201527f45434453413a20696e76616c6964207369676e6174757265206c656e677468006044820152606401610ce4565b600381600481111561334757613347614830565b03610d3b5760405162461bcd60e51b815260206004820152602260248201527f45434453413a20696e76616c6964207369676e6174757265202773272076616c604482015261756560f01b6064820152608401610ce4565b5f8581526007602090815260408083206001600160a01b038816845260088101909252909120805460ff161561343d5760405162461bcd60e51b815260206004820152602d60248201527f476f7665726e6f72436f6d7061746962696c697479427261766f3a20766f746560448201527f20616c72656164792063617374000000000000000000000000000000000000006064820152608401610ce4565b805460ff86166101000261ffff1990911617600117815561345d84613c9f565b81546bffffffffffffffffffffffff9190911662010000026dffffffffffffffffffffffff00001990911617815560ff85166134b15783826006015f8282546134a69190614e27565b90915550611c899050565b5f1960ff8616016134cf5783826005015f8282546134a69190614e27565b60011960ff8616016134ee5783826007015f8282546134a69190614e27565b60405162461bcd60e51b815260206004820152602d60248201527f476f7665726e6f72436f6d7061746962696c697479427261766f3a20696e766160448201527f6c696420766f74652074797065000000000000000000000000000000000000006064820152608401610ce4565b5f6001600160e01b038211156135da5760405162461bcd60e51b815260206004820152602760248201527f53616665436173743a2076616c756520646f65736e27742066697420696e203260448201527f32342062697473000000000000000000000000000000000000000000000000006064820152608401610ce4565b5090565b5f806135fb846135ed4361387b565b6135f68661355c565b613d0b565b6001600160e01b0391821693501690505b9250929050565b8154600160801b90819004600f0b5f818152600180860160205260409091209390935583546fffffffffffffffffffffffffffffffff908116939091011602179055565b600a5460405163e38335e560e01b81526001600160a01b039091169063e38335e5903490613691908890889088905f908990600401614d6f565b5f604051808303818588803b1580156136a8575f80fd5b505af11580156136ba573d5f803e3d5ffd5b50505050505050505050565b5f818152600160205260408120600281015460ff16156136e95750600792915050565b6002810154610100900460ff16156137045750600292915050565b5f61370e8461112e565b9050805f0361375f5760405162461bcd60e51b815260206004820152601d60248201527f476f7665726e6f723a20756e6b6e6f776e2070726f706f73616c2069640000006044820152606401610ce4565b43811061376f57505f9392505050565b5f61377985611b2e565b905043811061378d57506001949350505050565b61379685613eae565b80156137b757505f8581526007602052604090206006810154600590910154115b156137c757506004949350505050565b506003949350505050565b5f806137e086868686613ed5565b5f818152600b60205260409020549091501561199557600a545f828152600b60205260409081902054905163c4d252f560e01b81526001600160a01b039092169163c4d252f5916138379160040190815260200190565b5f604051808303815f87803b15801561384e575f80fd5b505af1158015613860573d5f803e3d5ffd5b5050505f828152600b60205260408120555095945050505050565b5f63ffffffff8211156135da5760405162461bcd60e51b815260206004820152602660248201527f53616665436173743a2076616c756520646f65736e27742066697420696e203360448201526532206269747360d01b6064820152608401610ce4565b5f5b81831015612b7e575f6138f48484613fde565b5f8781526020902090915063ffffffff86169082015463ffffffff16111561391e5780925061392c565b613929816001614e27565b93505b506138e1565b5f61393b611b24565b61394a33610a0a600143614e3a565b10156139be5760405162461bcd60e51b815260206004820152603160248201527f476f7665726e6f723a2070726f706f73657220766f7465732062656c6f77207060448201527f726f706f73616c207468726573686f6c640000000000000000000000000000006064820152608401610ce4565b5f6139d28686868680519060200120611c92565b90508451865114613a2f5760405162461bcd60e51b815260206004820152602160248201527f476f7665726e6f723a20696e76616c69642070726f706f73616c206c656e67746044820152600d60fb1b6064820152608401610ce4565b8351865114613a8a5760405162461bcd60e51b815260206004820152602160248201527f476f7665726e6f723a20696e76616c69642070726f706f73616c206c656e67746044820152600d60fb1b6064820152608401610ce4565b5f865111613ada5760405162461bcd60e51b815260206004820152601860248201527f476f7665726e6f723a20656d7074792070726f706f73616c00000000000000006044820152606401610ce4565b5f818152600160209081526040918290208251918201909252815467ffffffffffffffff169081905215613b5a5760405162461bcd60e51b815260206004820152602160248201527f476f7665726e6f723a2070726f706f73616c20616c72656164792065786973746044820152607360f81b6064820152608401610ce4565b5f613b6c613b6760045490565b613ff8565b613b7543613ff8565b613b7f9190614fb4565b90505f613b8e613b6760055490565b613b989083614fb4565b835467ffffffffffffffff191667ffffffffffffffff8416178455905060018301805467ffffffffffffffff191667ffffffffffffffff83161790557f7d84a6263ae0d98d3329bd7b46bb4e8d6f98cd35a7adb45c274c8b7fd5ebd5e084338b8b8d5167ffffffffffffffff811115613c1357613c136142b9565b604051908082528060200260200182016040528015613c4657816020015b6060815260200190600190039081613c315790505b508c88888e604051613c6099989796959493929190614fdc565b60405180910390a15091979650505050505050565b815115613c855781518083602001fd5b8060405162461bcd60e51b8152600401610ce49190614457565b5f6bffffffffffffffffffffffff8211156135da5760405162461bcd60e51b815260206004820152602660248201527f53616665436173743a2076616c756520646f65736e27742066697420696e203960448201526536206269747360d01b6064820152608401610ce4565b82545f9081908015613e51575f613d2787612c16600185614e3a565b60408051808201909152905463ffffffff8082168084526401000000009092046001600160e01b031660208401529192509087161015613da95760405162461bcd60e51b815260206004820152601760248201527f436865636b706f696e743a20696e76616c6964206b65790000000000000000006044820152606401610ce4565b805163ffffffff808816911603613df25784613dca88612c16600186614e3a565b80546001600160e01b03929092166401000000000263ffffffff909216919091179055613e41565b6040805180820190915263ffffffff80881682526001600160e01b0380881660208085019182528b54600181018d555f8d81529190912094519151909216640100000000029216919091179101555b602001519250839150613ea69050565b50506040805180820190915263ffffffff80851682526001600160e01b0380851660208085019182528854600181018a555f8a8152918220955192519093166401000000000291909316179201919091559050815b935093915050565b5f8181526007602052604081206005810154613ecc610a738561112e565b11159392505050565b5f80613ee386868686611c92565b90505f613eef8261145a565b90506002816007811115613f0557613f05614830565b14158015613f2557506006816007811115613f2257613f22614830565b14155b8015613f4357506007816007811115613f4057613f40614830565b14155b613f8f5760405162461bcd60e51b815260206004820152601d60248201527f476f7665726e6f723a2070726f706f73616c206e6f74206163746976650000006044820152606401610ce4565b5f8281526001602052604090819020600201805461ff001916610100179055517f789cf55be980739dad1d0699b93b58e806b51c9d96619bfa8fe0a28abaa7b30c90610fe99084815260200190565b5f613fec6002848418614ec2565b6119ad90848416614e27565b5f67ffffffffffffffff8211156135da5760405162461bcd60e51b815260206004820152602660248201527f53616665436173743a2076616c756520646f65736e27742066697420696e203660448201526534206269747360d01b6064820152608401610ce4565b828054828255905f5260205f209081019282156140c0579160200282015b828111156140c0578251825473ffffffffffffffffffffffffffffffffffffffff19166001600160a01b0390911617825560209092019160019091019061407e565b506135da9291506141a5565b828054828255905f5260205f209081019282156140c0579160200282015b828111156140c05782518255916020019190600101906140ea565b828054828255905f5260205f20908101928215614149579160200282015b82811115614149578251829061413990826150c2565b5091602001919060010190614123565b506135da9291506141b9565b828054828255905f5260205f20908101928215614199579160200282015b82811115614199578251829061418990826150c2565b5091602001919060010190614173565b506135da9291506141d5565b5b808211156135da575f81556001016141a6565b808211156135da575f6141cc82826141f1565b506001016141b9565b808211156135da575f6141e882826141f1565b506001016141d5565b5080546141fd90614d20565b5f825580601f1061420c575050565b601f0160209004905f5260205f2090810190610d3b91906141a5565b5f60208284031215614238575f80fd5b5035919050565b5f6020828403121561424f575f80fd5b81356001600160e01b0319811681146119ad575f80fd5b803560ff81168114614276575f80fd5b919050565b5f8083601f84011261428b575f80fd5b50813567ffffffffffffffff8111156142a2575f80fd5b60208301915083602082850101111561360c575f80fd5b634e487b7160e01b5f52604160045260245ffd5b604051601f8201601f1916810167ffffffffffffffff811182821017156142f6576142f66142b9565b604052919050565b5f82601f83011261430d575f80fd5b813567ffffffffffffffff811115614327576143276142b9565b61433a601f8201601f19166020016142cd565b81815284602083860101111561434e575f80fd5b816020850160208301375f918101602001919091529392505050565b5f805f805f805f8060e0898b031215614381575f80fd5b8835975061439160208a01614266565b9650604089013567ffffffffffffffff808211156143ad575f80fd5b6143b98c838d0161427b565b909850965060608b01359150808211156143d1575f80fd5b506143de8b828c016142fe565b9450506143ed60808a01614266565b925060a0890135915060c089013590509295985092959890939650565b5f5b8381101561442457818101518382015260200161440c565b50505f910152565b5f815180845261444381602086016020860161440a565b601f01601f19169290920160200192915050565b602081525f6119ad602083018461442c565b6001600160a01b0381168114610d3b575f80fd5b5f805f8060808587031215614490575f80fd5b843561449b81614469565b935060208501356144ab81614469565b925060408501359150606085013567ffffffffffffffff8111156144cd575f80fd5b6144d9878288016142fe565b91505092959194509250565b5f67ffffffffffffffff8211156144fe576144fe6142b9565b5060051b60200190565b5f82601f830112614517575f80fd5b8135602061452c614527836144e5565b6142cd565b82815260059290921b8401810191818101908684111561454a575f80fd5b8286015b8481101561456e57803561456181614469565b835291830191830161454e565b509695505050505050565b5f82601f830112614588575f80fd5b81356020614598614527836144e5565b82815260059290921b840181019181810190868411156145b6575f80fd5b8286015b8481101561456e57803583529183019183016145ba565b5f82601f8301126145e0575f80fd5b813560206145f0614527836144e5565b82815260059290921b8401810191818101908684111561460e575f80fd5b8286015b8481101561456e57803567ffffffffffffffff811115614631575f8081fd5b61463f8986838b01016142fe565b845250918301918301614612565b5f805f8060808587031215614660575f80fd5b843567ffffffffffffffff80821115614677575f80fd5b61468388838901614508565b95506020870135915080821115614698575f80fd5b6146a488838901614579565b945060408701359150808211156146b9575f80fd5b506146c6878288016145d1565b949793965093946060013593505050565b5f8151808452602080850194508084015f5b8381101561470e5781516001600160a01b0316875295820195908201906001016146e9565b509495945050505050565b5f8151808452602080850194508084015f5b8381101561470e5781518752958201959082019060010161472b565b5f81518084526020808501808196508360051b810191508286015f5b8581101561478d57828403895261477b84835161442c565b98850198935090840190600101614763565b5091979650505050505050565b608081525f6147ac60808301876146d7565b82810360208401526147be8187614719565b905082810360408401526147d28186614747565b9050828103606084015261144f8185614747565b5f805f805f60a086880312156147fa575f80fd5b8535945061480a60208701614266565b935061481860408701614266565b94979396509394606081013594506080013592915050565b634e487b7160e01b5f52602160045260245ffd5b602081016008831061486457634e487b7160e01b5f52602160045260245ffd5b91905290565b5f806040838503121561487b575f80fd5b82359150602083013561488d81614469565b809150509250929050565b5f80604083850312156148a9575f80fd5b823591506148b960208401614266565b90509250929050565b5f805f805f608086880312156148d6575f80fd5b853594506148e660208701614266565b9350604086013567ffffffffffffffff80821115614902575f80fd5b61490e89838a0161427b565b90955093506060880135915080821115614926575f80fd5b50614933888289016142fe565b9150509295509295909350565b5f805f8060608587031215614953575f80fd5b8435935061496360208601614266565b9250604085013567ffffffffffffffff81111561497e575f80fd5b61498a8782880161427b565b95989497509550505050565b5f805f80608085870312156149a9575f80fd5b843567ffffffffffffffff808211156149c0575f80fd5b6149cc88838901614508565b955060208701359150808211156149e1575f80fd5b6149ed88838901614579565b94506040870135915080821115614a02575f80fd5b614a0e888389016145d1565b93506060870135915080821115614a23575f80fd5b506144d9878288016142fe565b5f805f60608486031215614a42575f80fd5b8335614a4d81614469565b925060208401359150604084013567ffffffffffffffff811115614a6f575f80fd5b614a7b868287016142fe565b9150509250925092565b5f60208284031215614a95575f80fd5b81356119ad81614469565b5f805f805f60a08688031215614ab4575f80fd5b8535614abf81614469565b94506020860135614acf81614469565b9350604086013567ffffffffffffffff80821115614aeb575f80fd5b614af789838a01614579565b94506060880135915080821115614b0c575f80fd5b614b1889838a01614579565b93506080880135915080821115614926575f80fd5b5f805f8060608587031215614b40575f80fd5b8435614b4b81614469565b935060208501359250604085013567ffffffffffffffff81111561497e575f80fd5b5f82601f830112614b7c575f80fd5b81356020614b8c614527836144e5565b82815260059290921b84018101918181019086841115614baa575f80fd5b8286015b8481101561456e57803567ffffffffffffffff811115614bcd575f8081fd5b614bdb8986838b01016142fe565b845250918301918301614bae565b5f805f805f60a08688031215614bfd575f80fd5b853567ffffffffffffffff80821115614c14575f80fd5b614c2089838a01614508565b96506020880135915080821115614c35575f80fd5b614c4189838a01614579565b95506040880135915080821115614c56575f80fd5b614c6289838a01614b6d565b94506060880135915080821115614c77575f80fd5b614b1889838a016145d1565b5f8060408385031215614c94575f80fd5b8235614c9f81614469565b946020939093013593505050565b5f805f805f60a08688031215614cc1575f80fd5b8535614ccc81614469565b94506020860135614cdc81614469565b93506040860135925060608601359150608086013567ffffffffffffffff811115614d05575f80fd5b614933888289016142fe565b818382375f9101908152919050565b600181811c90821680614d3457607f821691505b602082108103614d5257634e487b7160e01b5f52602260045260245ffd5b50919050565b5f60208284031215614d68575f80fd5b5051919050565b60a081525f614d8160a08301886146d7565b8281036020840152614d938188614719565b90508281036040840152614da78187614747565b60608401959095525050608001529392505050565b60c081525f614dce60c08301896146d7565b8281036020840152614de08189614719565b90508281036040840152614df48188614747565b60608401969096525050608081019290925260a0909101529392505050565b634e487b7160e01b5f52601160045260245ffd5b80820180821115610b8957610b89614e13565b81810381811115610b8957610b89614e13565b634e487b7160e01b5f52603260045260245ffd5b608081525f614e7360808301876146d7565b8281036020840152614e858187614719565b90508281036040840152614e998186614747565b91505082606083015295945050505050565b8082028115828204841417610b8957610b89614e13565b5f82614edc57634e487b7160e01b5f52601260045260245ffd5b500490565b84815260ff84166020820152826040820152608060608201525f61197e608083018461442c565b85815260ff8516602082015283604082015260a060608201525f614f2f60a083018561442c565b8281036080840152614f41818561442c565b98975050505050505050565b5f60018201614f5e57614f5e614e13565b5060010190565b5f60208284031215614f75575f80fd5b815180151581146119ad575f80fd5b6001600160e01b03198316815281515f90614fa681600485016020870161440a565b919091016004019392505050565b67ffffffffffffffff818116838216019080821115614fd557614fd5614e13565b5092915050565b5f6101208b83526001600160a01b038b1660208401528060408401526150048184018b6146d7565b90508281036060840152615018818a614719565b9050828103608084015261502c8189614747565b905082810360a08401526150408188614747565b67ffffffffffffffff87811660c0860152861660e0850152838103610100850152905061506d818561442c565b9c9b505050505050505050505050565b601f82111561177e575f81815260208120601f850160051c810160208610156150a35750805b601f850160051c820191505b818110156128a3578281556001016150af565b815167ffffffffffffffff8111156150dc576150dc6142b9565b6150f0816150ea8454614d20565b8461507d565b602080601f831160018114615123575f841561510c5750858301515b5f19600386901b1c1916600185901b1785556128a3565b5f85815260208120601f198616915b8281101561515157888601518255948401946001909101908401615132565b508582101561516e57878501515f19600388901b60f8161c191681555b5050505050600190811b0190555056fe476f7665726e6f723a2072656c617920726576657274656420776974686f7574206d657373616765a26469706673582212203feb36c0fe1435c47b38ffce9f8f37857c4a3b343e40c699dc591de2b97ed71764736f6c63430008140033",
  "linkReferences": {},
  "deployedLinkReferences": {}
}