{
  "_format": "hh-sol-artifact-1",
  "contractName": "BridgedERC20",
  "sourceName": "contracts/bridges/BridgedERC20.sol",
  "abi": [
    {
      "inputs": [
        {
          "internalType": "string",
          "name": "_name",
          "type": "string"
        },
        {
          "internalType": "string",
          "name": "_symbol",
          "type": "string"
        },
        {
          "internalType": "uint8",
          "name": "_decimals",
          "type": "uint8"
        }
      ],
      "stateMutability": "nonpayable",
      "type": "constructor"
    },
    {
      "inputs": [
        {
          "internalType": "address",
          "name": "sender",
          "type": "address"
        },
        {
          "internalType": "address",
          "name": "owner",
          "type": "address"
        }
      ],
      "name": "OwnerOnly",
      "type": "error"
    },
    {
      "inputs": [],
      "name": "ZeroAddress",
      "type": "error"
    },
    {
      "anonymous": false,
      "inputs": [
        {
          "indexed": true,
          "internalType": "address",
          "name": "owner",
          "type": "address"
        },
        {
          "indexed": true,
          "internalType": "address",
          "name": "spender",
          "type": "address"
        },
        {
          "indexed": false,
          "internalType": "uint256",
          "name": "amount",
          "type": "uint256"
        }
      ],
      "name": "Approval",
      "type": "event"
    },
    {
      "anonymous": false,
      "inputs": [
        {
          "indexed": true,
          "internalType": "address",
          "name": "owner",
          "type": "address"
        }
      ],
      "name": "OwnerUpdated",
      "type": "event"
    },
    {
      "anonymous": false,
      "inputs": [
        {
          "indexed": true,
          "internalType": "address",
          "name": "from",
          "type": "address"
        },
        {
          "indexed": true,
          "internalType": "address",
          "name": "to",
          "type": "address"
        },
        {
          "indexed": false,
          "internalType": "uint256",
          "name": "amount",
          "type": "uint256"
        }
      ],
      "name": "Transfer",
      "type": "event"
    },
    {
      "inputs": [],
      "name": "DOMAIN_SEPARATOR",
      "outputs": [
        {
          "internalType": "bytes32",
          "name": "",
          "type": "bytes32"
        }
      ],
      "stateMutability": "view",
      "type": "function"
    },
    {
      "inputs": [
        {
          "internalType": "address",
          "name": "",
          "type": "address"
        },
        {
          "internalType": "address",
          "name": "",
          "type": "address"
        }
      ],
      "name": "allowance",
      "outputs": [
        {
          "internalType": "uint256",
          "name": "",
          "type": "uint256"
        }
      ],
      "stateMutability": "view",
      "type": "function"
    },
    {
      "inputs": [
        {
          "internalType": "address",
          "name": "spender",
          "type": "address"
        },
        {
          "internalType": "uint256",
          "name": "amount",
          "type": "uint256"
        }
      ],
      "name": "approve",
      "outputs": [
        {
          "internalType": "bool",
          "name": "",
          "type": "bool"
        }
      ],
      "stateMutability": "nonpayable",
      "type": "function"
    },
    {
      "inputs": [
        {
          "internalType": "address",
          "name": "",
          "type": "address"
        }
      ],
      "name": "balanceOf",
      "outputs": [
        {
          "internalType": "uint256",
          "name": "",
          "type": "uint256"
        }
      ],
      "stateMutability": "view",
      "type": "function"
    },
    {
      "inputs": [
        {
          "internalType": "uint256",
          "name": "amount",
          "type": "uint256"
        }
      ],
      "name": "burn",
      "outputs": [],
      "stateMutability": "nonpayable",
      "type": "function"
    },
    {
      "inputs": [
        {
          "internalType": "address",
          "name": "newOwner",
          "type": "address"
        }
      ],
      "name": "changeOwner",
      "outputs": [],
      "stateMutability": "nonpayable",
      "type": "function"
    },
    {
      "inputs": [],
      "name": "decimals",
      "outputs": [
        {
          "internalType": "uint8",
          "name": "",
          "type": "uint8"
        }
      ],
      "stateMutability": "view",
      "type": "function"
    },
    {
      "inputs": [
        {
          "internalType": "address",
          "name": "account",
          "type": "address"
        },
        {
          "internalType": "uint256",
          "name": "amount",
          "type": "uint256"
        }
      ],
      "name": "mint",
      "outputs": [],
      "stateMutability": "nonpayable",
      "type": "function"
    },
    {
      "inputs": [],
      "name": "name",
      "outputs": [
        {
          "internalType": "string",
          "name": "",
          "type": "string"
        }
      ],
      "stateMutability": "view",
      "type": "function"
    },
    {
      "inputs": [
        {
          "internalType": "address",
          "name": "",
          "type": "address"
        }
      ],
      "name": "nonces",
      "outputs": [
        {
          "internalType": "uint256",
          "name": "",
          "type": "uint256"
        }
      ],
      "stateMutability": "view",
      "type": "function"
    },
    {
      "inputs": [],
      "name": "owner",
      "outputs": [
        {
          "internalType": "address",
          "name": "",
          "type": "address"
        }
      ],
      "stateMutability": "view",
      "type": "function"
    },
    {
      "inputs": [
        {
          "internalType": "address",
          "name": "owner",
          "type": "address"
        },
        {
          "internalType": "address",
          "name": "spender",
          "type": "address"
        },
        {
          "internalType": "uint256",
          "name": "value",
          "type": "uint256"
        },
        {
          "internalType": "uint256",
          "name": "deadline",
          "type": "uint256"
        },
        {
          "internalType": "uint8",
          "name": "v",
          "type": "uint8"
        },
        {
          "internalType": "bytes32",
          "name": "r",
          "type": "bytes32"
        },
        {
          "internalType": "bytes32",
          "name": "s",
          "type": "bytes32"
        }
      ],
      "name": "permit",
      "outputs": [],
      "stateMutability": "nonpayable",
      "type": "function"
    },
    {
      "inputs": [],
      "name": "symbol",
      "outputs": [
        {
          "internalType": "string",
          "name": "",
          "type": "string"
        }
      ],
      "stateMutability": "view",
      "type": "function"
    },
    {
      "inputs": [],
      "name": "totalSupply",
      "outputs": [
        {
          "internalType": "uint256",
          "name": "",
          "type": "uint256"
        }
      ],
      "stateMutability": "view",
      "type": "function"
    },
    {
      "inputs": [
        {
          "internalType": "address",
          "name": "to",
          "type": "address"
        },
        {
          "internalType": "uint256",
          "name": "amount",
          "type": "uint256"
        }
      ],
      "name": "transfer",
      "outputs": [
        {
          "internalType": "bool",
          "name": "",
          "type": "bool"
        }
      ],
      "stateMutability": "nonpayable",
      "type": "function"
    },
    {
      "inputs": [
        {
          "internalType": "address",
          "name": "from",
          "type": "address"
        },
        {
          "internalType": "address",
          "name": "to",
          "type": "address"
        },
        {
          "internalType": "uint256",
          "name": "amount",
          "type": "uint256"
        }
      ],
      "name": "transferFrom",
      "outputs": [
        {
          "internalType": "bool",
          "name": "",
          "type": "bool"
        }
      ],
      "stateMutability": "nonpayable",
      "type": "function"
    }
  ],
  "bytecode": "0x60e060405234801562000010575f80fd5b50604051620014ad380380620014ad8339810160408190526200003391620001e5565b8282825f620000438482620002ee565b506001620000528382620002ee565b5060ff81166080524660a052620000686200008a565b60c0525050600680546001600160a01b03191633179055506200043492505050565b5f7f8b73c3c69bb8fe3d512ecc4cf759cc79239f7b179b0ffacaa9a75d522b39400f5f604051620000bc9190620003ba565b6040805191829003822060208301939093528101919091527fc89efdaa54c0f20c7adf612882df0950f5a951637e0307cdcb4c672f298b8bc660608201524660808201523060a082015260c00160405160208183030381529060405280519060200120905090565b634e487b7160e01b5f52604160045260245ffd5b5f82601f83011262000148575f80fd5b81516001600160401b038082111562000165576200016562000124565b604051601f8301601f19908116603f0116810190828211818310171562000190576200019062000124565b8160405283815260209250866020858801011115620001ad575f80fd5b5f91505b83821015620001d05785820183015181830184015290820190620001b1565b5f602085830101528094505050505092915050565b5f805f60608486031215620001f8575f80fd5b83516001600160401b03808211156200020f575f80fd5b6200021d8783880162000138565b9450602086015191508082111562000233575f80fd5b50620002428682870162000138565b925050604084015160ff8116811462000259575f80fd5b809150509250925092565b600181811c908216806200027957607f821691505b6020821081036200029857634e487b7160e01b5f52602260045260245ffd5b50919050565b601f821115620002e957805f5260205f20601f840160051c81016020851015620002c55750805b601f840160051c820191505b81811015620002e6575f8155600101620002d1565b50505b505050565b81516001600160401b038111156200030a576200030a62000124565b62000322816200031b845462000264565b846200029e565b602080601f83116001811462000358575f8415620003405750858301515b5f19600386901b1c1916600185901b178555620003b2565b5f85815260208120601f198616915b82811015620003885788860151825594840194600190910190840162000367565b5085821015620003a657878501515f19600388901b60f8161c191681555b505060018460011b0185555b505050505050565b5f808354620003c98162000264565b60018281168015620003e45760018114620003fa5762000428565b60ff198416875282151583028701945062000428565b875f526020805f205f5b858110156200041f5781548a82015290840190820162000404565b50505082870194505b50929695505050505050565b60805160a05160c05161104e6200045f5f395f61053d01525f61050801525f61016f015261104e5ff3fe608060405234801561000f575f80fd5b50600436106100fb575f3560e01c806370a0823111610093578063a6f9dae111610063578063a6f9dae11461025e578063a9059cbb14610271578063d505accf14610284578063dd62ed3e14610297575f80fd5b806370a08231146101d35780637ecebe00146101f25780638da5cb5b1461021157806395d89b4114610256575f80fd5b8063313ce567116100ce578063313ce5671461016a5780633644e515146101a357806340c10f19146101ab57806342966c68146101c0575f80fd5b806306fdde03146100ff578063095ea7b31461011d57806318160ddd1461014057806323b872dd14610157575b5f80fd5b6101076102c1565b6040516101149190610cd7565b60405180910390f35b61013061012b366004610d69565b61034c565b6040519015158152602001610114565b61014960025481565b604051908152602001610114565b610130610165366004610d91565b6103c5565b6101917f000000000000000000000000000000000000000000000000000000000000000081565b60405160ff9091168152602001610114565b610149610505565b6101be6101b9366004610d69565b61055f565b005b6101be6101ce366004610dca565b6105e5565b6101496101e1366004610de1565b60036020525f908152604090205481565b610149610200366004610de1565b60056020525f908152604090205481565b6006546102319073ffffffffffffffffffffffffffffffffffffffff1681565b60405173ffffffffffffffffffffffffffffffffffffffff9091168152602001610114565b610107610665565b6101be61026c366004610de1565b610672565b61013061027f366004610d69565b6107a0565b6101be610292366004610e01565b610823565b6101496102a5366004610e6e565b600460209081525f928352604080842090915290825290205481565b5f80546102cd90610e9f565b80601f01602080910402602001604051908101604052809291908181526020018280546102f990610e9f565b80156103445780601f1061031b57610100808354040283529160200191610344565b820191905f5260205f20905b81548152906001019060200180831161032757829003601f168201915b505050505081565b335f81815260046020908152604080832073ffffffffffffffffffffffffffffffffffffffff8716808552925280832085905551919290917f8c5be1e5ebec7d5bd14f71427d1e84f3dd0314c0f7b2291e5b200ac8c7c3b925906103b39086815260200190565b60405180910390a35060015b92915050565b73ffffffffffffffffffffffffffffffffffffffff83165f9081526004602090815260408083203384529091528120547fffffffffffffffffffffffffffffffffffffffffffffffffffffffffffffffff8114610457576104268382610f1d565b73ffffffffffffffffffffffffffffffffffffffff86165f9081526004602090815260408083203384529091529020555b73ffffffffffffffffffffffffffffffffffffffff85165f908152600360205260408120805485929061048b908490610f1d565b909155505073ffffffffffffffffffffffffffffffffffffffff8085165f81815260036020526040908190208054870190555190918716907fddf252ad1be2c89b69c2b068fc378daa952ba7f163c4a11628f55a4df523b3ef906104f29087815260200190565b60405180910390a3506001949350505050565b5f7f0000000000000000000000000000000000000000000000000000000000000000461461053a57610535610b3c565b905090565b507f000000000000000000000000000000000000000000000000000000000000000090565b60065473ffffffffffffffffffffffffffffffffffffffff1633146105d7576006546040517fa43d6ada00000000000000000000000000000000000000000000000000000000815233600482015273ffffffffffffffffffffffffffffffffffffffff90911660248201526044015b60405180910390fd5b6105e18282610bd4565b5050565b60065473ffffffffffffffffffffffffffffffffffffffff163314610658576006546040517fa43d6ada00000000000000000000000000000000000000000000000000000000815233600482015273ffffffffffffffffffffffffffffffffffffffff90911660248201526044016105ce565b6106623382610c4b565b50565b600180546102cd90610e9f565b60065473ffffffffffffffffffffffffffffffffffffffff1633146106e5576006546040517fa43d6ada00000000000000000000000000000000000000000000000000000000815233600482015273ffffffffffffffffffffffffffffffffffffffff90911660248201526044016105ce565b73ffffffffffffffffffffffffffffffffffffffff8116610732576040517fd92e233d00000000000000000000000000000000000000000000000000000000815260040160405180910390fd5b600680547fffffffffffffffffffffffff00000000000000000000000000000000000000001673ffffffffffffffffffffffffffffffffffffffff83169081179091556040517f4ffd725fc4a22075e9ec71c59edf9c38cdeb588a91b24fc5b61388c5be41282b905f90a250565b335f908152600360205260408120805483919083906107c0908490610f1d565b909155505073ffffffffffffffffffffffffffffffffffffffff83165f81815260036020526040908190208054850190555133907fddf252ad1be2c89b69c2b068fc378daa952ba7f163c4a11628f55a4df523b3ef906103b39086815260200190565b4284101561088d576040517f08c379a000000000000000000000000000000000000000000000000000000000815260206004820152601760248201527f5045524d49545f444541444c494e455f4558504952454400000000000000000060448201526064016105ce565b5f6001610898610505565b73ffffffffffffffffffffffffffffffffffffffff8a81165f8181526005602090815260409182902080546001810190915582517f6e71edae12b1b97f4d1f60370fef10105fa2faae0126114a169c64845d6126c98184015280840194909452938d166060840152608083018c905260a083019390935260c08083018b90528151808403909101815260e0830190915280519201919091207f190100000000000000000000000000000000000000000000000000000000000061010083015261010282019290925261012281019190915261014201604080517fffffffffffffffffffffffffffffffffffffffffffffffffffffffffffffffe081840301815282825280516020918201205f84529083018083525260ff871690820152606081018590526080810184905260a0016020604051602081039080840390855afa1580156109e6573d5f803e3d5ffd5b50506040517fffffffffffffffffffffffffffffffffffffffffffffffffffffffffffffffe0015191505073ffffffffffffffffffffffffffffffffffffffff811615801590610a6157508773ffffffffffffffffffffffffffffffffffffffff168173ffffffffffffffffffffffffffffffffffffffff16145b610ac7576040517f08c379a000000000000000000000000000000000000000000000000000000000815260206004820152600e60248201527f494e56414c49445f5349474e455200000000000000000000000000000000000060448201526064016105ce565b73ffffffffffffffffffffffffffffffffffffffff9081165f9081526004602090815260408083208a8516808552908352928190208990555188815291928a16917f8c5be1e5ebec7d5bd14f71427d1e84f3dd0314c0f7b2291e5b200ac8c7c3b925910160405180910390a350505050505050565b5f7f8b73c3c69bb8fe3d512ecc4cf759cc79239f7b179b0ffacaa9a75d522b39400f5f604051610b6c9190610f30565b6040805191829003822060208301939093528101919091527fc89efdaa54c0f20c7adf612882df0950f5a951637e0307cdcb4c672f298b8bc660608201524660808201523060a082015260c00160405160208183030381529060405280519060200120905090565b8060025f828254610be59190611005565b909155505073ffffffffffffffffffffffffffffffffffffffff82165f818152600360209081526040808320805486019055518481527fddf252ad1be2c89b69c2b068fc378daa952ba7f163c4a11628f55a4df523b3ef91015b60405180910390a35050565b73ffffffffffffffffffffffffffffffffffffffff82165f9081526003602052604081208054839290610c7f908490610f1d565b90915550506002805482900390556040518181525f9073ffffffffffffffffffffffffffffffffffffffff8416907fddf252ad1be2c89b69c2b068fc378daa952ba7f163c4a11628f55a4df523b3ef90602001610c3f565b5f602080835283518060208501525f5b81811015610d0357858101830151858201604001528201610ce7565b505f6040828601015260407fffffffffffffffffffffffffffffffffffffffffffffffffffffffffffffffe0601f8301168501019250505092915050565b803573ffffffffffffffffffffffffffffffffffffffff81168114610d64575f80fd5b919050565b5f8060408385031215610d7a575f80fd5b610d8383610d41565b946020939093013593505050565b5f805f60608486031215610da3575f80fd5b610dac84610d41565b9250610dba60208501610d41565b9150604084013590509250925092565b5f60208284031215610dda575f80fd5b5035919050565b5f60208284031215610df1575f80fd5b610dfa82610d41565b9392505050565b5f805f805f805f60e0888a031215610e17575f80fd5b610e2088610d41565b9650610e2e60208901610d41565b95506040880135945060608801359350608088013560ff81168114610e51575f80fd5b9699959850939692959460a0840135945060c09093013592915050565b5f8060408385031215610e7f575f80fd5b610e8883610d41565b9150610e9660208401610d41565b90509250929050565b600181811c90821680610eb357607f821691505b602082108103610eea577f4e487b71000000000000000000000000000000000000000000000000000000005f52602260045260245ffd5b50919050565b7f4e487b71000000000000000000000000000000000000000000000000000000005f52601160045260245ffd5b818103818111156103bf576103bf610ef0565b5f8083545f60018260011c91506001831680610f4d57607f831692505b60208084108203610f85577f4e487b71000000000000000000000000000000000000000000000000000000005f52602260045260245ffd5b818015610f995760018114610fcc57610ff7565b7fffffffffffffffffffffffffffffffffffffffffffffffffffffffffffffff0086168952841515850289019650610ff7565b5f8a8152602090205f5b86811015610fef5781548b820152908501908301610fd6565b505084890196505b509498975050505050505050565b808201808211156103bf576103bf610ef056fea2646970667358221220c2ec47bbb65ff8f3e989b4c828b41629c25cbb4eb631cf74254437cdc035557f64736f6c63430008170033",
  "linkReferences": {},
  "deployedLinkReferences": {}
}