{
  "_format": "hh-sol-artifact-1",
  "contractName": "FxERC20ChildTunnel",
  "sourceName": "contracts/bridges/FxERC20ChildTunnel.sol",
  "abi": [
    {
      "inputs": [
        {
          "internalType": "address",
          "name": "_fxChild",
          "type": "address"
        },
        {
          "internalType": "address",
          "name": "_childToken",
          "type": "address"
        },
        {
          "internalType": "address",
          "name": "_rootToken",
          "type": "address"
        }
      ],
      "stateMutability": "nonpayable",
      "type": "constructor"
    },
    {
      "inputs": [
        {
          "internalType": "address",
          "name": "token",
          "type": "address"
        },
        {
          "internalType": "address",
          "name": "from",
          "type": "address"
        },
        {
          "internalType": "address",
          "name": "to",
          "type": "address"
        },
        {
          "internalType": "uint256",
          "name": "amount",
          "type": "uint256"
        }
      ],
      "name": "TransferFailed",
      "type": "error"
    },
    {
      "inputs": [],
      "name": "ZeroAddress",
      "type": "error"
    },
    {
      "inputs": [],
      "name": "ZeroValue",
      "type": "error"
    },
    {
      "anonymous": false,
      "inputs": [
        {
          "indexed": true,
          "internalType": "address",
          "name": "childToken",
          "type": "address"
        },
        {
          "indexed": true,
          "internalType": "address",
          "name": "rootToken",
          "type": "address"
        },
        {
          "indexed": false,
          "internalType": "address",
          "name": "from",
          "type": "address"
        },
        {
          "indexed": true,
          "internalType": "address",
          "name": "to",
          "type": "address"
        },
        {
          "indexed": false,
          "internalType": "uint256",
          "name": "amount",
          "type": "uint256"
        }
      ],
      "name": "FxDepositERC20",
      "type": "event"
    },
    {
      "anonymous": false,
      "inputs": [
        {
          "indexed": true,
          "internalType": "address",
          "name": "rootToken",
          "type": "address"
        },
        {
          "indexed": true,
          "internalType": "address",
          "name": "childToken",
          "type": "address"
        },
        {
          "indexed": false,
          "internalType": "address",
          "name": "from",
          "type": "address"
        },
        {
          "indexed": true,
          "internalType": "address",
          "name": "to",
          "type": "address"
        },
        {
          "indexed": false,
          "internalType": "uint256",
          "name": "amount",
          "type": "uint256"
        }
      ],
      "name": "FxWithdrawERC20",
      "type": "event"
    },
    {
      "anonymous": false,
      "inputs": [
        {
          "indexed": false,
          "internalType": "bytes",
          "name": "message",
          "type": "bytes"
        }
      ],
      "name": "MessageSent",
      "type": "event"
    },
    {
      "inputs": [],
      "name": "childToken",
      "outputs": [
        {
          "internalType": "address",
          "name": "",
          "type": "address"
        }
      ],
      "stateMutability": "view",
      "type": "function"
    },
    {
      "inputs": [
        {
          "internalType": "uint256",
          "name": "amount",
          "type": "uint256"
        }
      ],
      "name": "deposit",
      "outputs": [],
      "stateMutability": "nonpayable",
      "type": "function"
    },
    {
      "inputs": [
        {
          "internalType": "address",
          "name": "to",
          "type": "address"
        },
        {
          "internalType": "uint256",
          "name": "amount",
          "type": "uint256"
        }
      ],
      "name": "depositTo",
      "outputs": [],
      "stateMutability": "nonpayable",
      "type": "function"
    },
    {
      "inputs": [],
      "name": "fxChild",
      "outputs": [
        {
          "internalType": "address",
          "name": "",
          "type": "address"
        }
      ],
      "stateMutability": "view",
      "type": "function"
    },
    {
      "inputs": [],
      "name": "fxRootTunnel",
      "outputs": [
        {
          "internalType": "address",
          "name": "",
          "type": "address"
        }
      ],
      "stateMutability": "view",
      "type": "function"
    },
    {
      "inputs": [
        {
          "internalType": "uint256",
          "name": "stateId",
          "type": "uint256"
        },
        {
          "internalType": "address",
          "name": "rootMessageSender",
          "type": "address"
        },
        {
          "internalType": "bytes",
          "name": "data",
          "type": "bytes"
        }
      ],
      "name": "processMessageFromRoot",
      "outputs": [],
      "stateMutability": "nonpayable",
      "type": "function"
    },
    {
      "inputs": [],
      "name": "rootToken",
      "outputs": [
        {
          "internalType": "address",
          "name": "",
          "type": "address"
        }
      ],
      "stateMutability": "view",
      "type": "function"
    },
    {
      "inputs": [
        {
          "internalType": "address",
          "name": "_fxRootTunnel",
          "type": "address"
        }
      ],
      "name": "setFxRootTunnel",
      "outputs": [],
      "stateMutability": "nonpayable",
      "type": "function"
    }
  ],
  "bytecode": "0x60c060405234801561000f575f80fd5b50604051610cbf380380610cbf83398101604081905261002e916100c1565b5f80546001600160a01b0319166001600160a01b038516908117909155158061005e57506001600160a01b038216155b8061007057506001600160a01b038116155b1561008e5760405163d92e233d60e01b815260040160405180910390fd5b6001600160a01b039182166080521660a05250610101565b80516001600160a01b03811681146100bc575f80fd5b919050565b5f805f606084860312156100d3575f80fd5b6100dc846100a6565b92506100ea602085016100a6565b91506100f8604085016100a6565b90509250925092565b60805160a051610b666101595f395f8181608e0152818161062c01526108af01525f8181610145015281816104ec0152818161059a015281816105f5015281816107830152818161084601526108d30152610b665ff3fe608060405234801561000f575f80fd5b5060043610610085575f3560e01c80639a7c4b71116100585780639a7c4b711461012d578063ac0007de14610140578063b6b55f2514610167578063ffaad6a51461017a575f80fd5b80631f2d006514610089578063450d11f0146100d95780637f1e9cb0146100f85780638883709414610118575b5f80fd5b6100b07f000000000000000000000000000000000000000000000000000000000000000081565b60405173ffffffffffffffffffffffffffffffffffffffff909116815260200160405180910390f35b5f546100b09073ffffffffffffffffffffffffffffffffffffffff1681565b6001546100b09073ffffffffffffffffffffffffffffffffffffffff1681565b61012b610126366004610982565b61018d565b005b61012b61013b3660046109a4565b61027f565b6100b07f000000000000000000000000000000000000000000000000000000000000000081565b61012b610175366004610a26565b61036b565b61012b610188366004610a3d565b610378565b60015473ffffffffffffffffffffffffffffffffffffffff1615610238576040517f08c379a000000000000000000000000000000000000000000000000000000000815260206004820152602a60248201527f4678426173654368696c6454756e6e656c3a20524f4f545f54554e4e454c5f4160448201527f4c52454144595f5345540000000000000000000000000000000000000000000060648201526084015b60405180910390fd5b600180547fffffffffffffffffffffffff00000000000000000000000000000000000000001673ffffffffffffffffffffffffffffffffffffffff92909216919091179055565b5f5473ffffffffffffffffffffffffffffffffffffffff163314610325576040517f08c379a000000000000000000000000000000000000000000000000000000000815260206004820152602160248201527f4678426173654368696c6454756e6e656c3a20494e56414c49445f53454e444560448201527f5200000000000000000000000000000000000000000000000000000000000000606482015260840161022f565b610365848484848080601f0160208091040260200160405190810160405280939291908181526020018383808284375f920191909152506103d392505050565b50505050565b61037533826106c5565b50565b73ffffffffffffffffffffffffffffffffffffffff82166103c5576040517fd92e233d00000000000000000000000000000000000000000000000000000000815260040160405180910390fd5b6103cf82826106c5565b5050565b600154829073ffffffffffffffffffffffffffffffffffffffff80831691161461047f576040517f08c379a000000000000000000000000000000000000000000000000000000000815260206004820152602b60248201527f4678426173654368696c6454756e6e656c3a20494e56414c49445f53454e444560448201527f525f46524f4d5f524f4f54000000000000000000000000000000000000000000606482015260840161022f565b5f805f848060200190518101906104969190610a67565b6040517fa9059cbb00000000000000000000000000000000000000000000000000000000815273ffffffffffffffffffffffffffffffffffffffff80841660048301526024820183905293965091945092505f917f0000000000000000000000000000000000000000000000000000000000000000169063a9059cbb906044016020604051808303815f875af1158015610532573d5f803e3d5ffd5b505050506040513d601f19601f820116820180604052508101906105569190610aa7565b9050806105dc576040517fcd3f165900000000000000000000000000000000000000000000000000000000815273ffffffffffffffffffffffffffffffffffffffff7f000000000000000000000000000000000000000000000000000000000000000081166004830152306024830152841660448201526064810183905260840161022f565b8273ffffffffffffffffffffffffffffffffffffffff167f000000000000000000000000000000000000000000000000000000000000000073ffffffffffffffffffffffffffffffffffffffff167f000000000000000000000000000000000000000000000000000000000000000073ffffffffffffffffffffffffffffffffffffffff167f1c1b8a14a9aa37156f1a60ab7bfd9c52106866e15ae4827e38e27cd8aaab34d987866040516106b392919073ffffffffffffffffffffffffffffffffffffffff929092168252602082015260400190565b60405180910390a45050505050505050565b805f036106fe576040517f7c946ed700000000000000000000000000000000000000000000000000000000815260040160405180910390fd5b6040805133602082015273ffffffffffffffffffffffffffffffffffffffff841681830152606080820184905282518083039091018152608090910190915261074681610927565b6040517f23b872dd000000000000000000000000000000000000000000000000000000008152336004820152306024820152604481018390525f907f000000000000000000000000000000000000000000000000000000000000000073ffffffffffffffffffffffffffffffffffffffff16906323b872dd906064016020604051808303815f875af11580156107de573d5f803e3d5ffd5b505050506040513d601f19601f820116820180604052508101906108029190610aa7565b905080610886576040517fcd3f165900000000000000000000000000000000000000000000000000000000815273ffffffffffffffffffffffffffffffffffffffff7f00000000000000000000000000000000000000000000000000000000000000001660048201523360248201523060448201526064810184905260840161022f565b604080513381526020810185905273ffffffffffffffffffffffffffffffffffffffff808716927f00000000000000000000000000000000000000000000000000000000000000008216927f0000000000000000000000000000000000000000000000000000000000000000909216917f5286e7fd9555e9f496aacf262a43fa5bd26597317e83db01ce04b8a1f4224b8e910160405180910390a450505050565b7f8c5261668696ce22758910d05bab8f186d6eb247ceac2af2e82c7dc17669b036816040516109569190610ac6565b60405180910390a150565b73ffffffffffffffffffffffffffffffffffffffff81168114610375575f80fd5b5f60208284031215610992575f80fd5b813561099d81610961565b9392505050565b5f805f80606085870312156109b7575f80fd5b8435935060208501356109c981610961565b9250604085013567ffffffffffffffff808211156109e5575f80fd5b818701915087601f8301126109f8575f80fd5b813581811115610a06575f80fd5b886020828501011115610a17575f80fd5b95989497505060200194505050565b5f60208284031215610a36575f80fd5b5035919050565b5f8060408385031215610a4e575f80fd5b8235610a5981610961565b946020939093013593505050565b5f805f60608486031215610a79575f80fd5b8351610a8481610961565b6020850151909350610a9581610961565b80925050604084015190509250925092565b5f60208284031215610ab7575f80fd5b8151801515811461099d575f80fd5b5f602080835283518060208501525f5b81811015610af257858101830151858201604001528201610ad6565b505f6040828601015260407fffffffffffffffffffffffffffffffffffffffffffffffffffffffffffffffe0601f830116850101925050509291505056fea26469706673582212201bf6b72e6b8c193d5c2bd374c22079425c6a3495c90214e11018b77cd4c3538164736f6c63430008170033",
  "linkReferences": {},
  "deployedLinkReferences": {}
}