{
  "_format": "hh-sol-artifact-1",
  "contractName": "FxERC20RootTunnel",
  "sourceName": "contracts/bridges/FxERC20RootTunnel.sol",
  "abi": [
    {
      "inputs": [
        {
          "internalType": "address",
          "name": "_checkpointManager",
          "type": "address"
        },
        {
          "internalType": "address",
          "name": "_fxRoot",
          "type": "address"
        },
        {
          "internalType": "address",
          "name": "_childToken",
          "type": "address"
        },
        {
          "internalType": "address",
          "name": "_rootToken",
          "type": "address"
        }
      ],
      "stateMutability": "nonpayable",
      "type": "constructor"
    },
    {
      "inputs": [
        {
          "internalType": "address",
          "name": "token",
          "type": "address"
        },
        {
          "internalType": "address",
          "name": "from",
          "type": "address"
        },
        {
          "internalType": "address",
          "name": "to",
          "type": "address"
        },
        {
          "internalType": "uint256",
          "name": "amount",
          "type": "uint256"
        }
      ],
      "name": "TransferFailed",
      "type": "error"
    },
    {
      "inputs": [],
      "name": "ZeroAddress",
      "type": "error"
    },
    {
      "inputs": [],
      "name": "ZeroValue",
      "type": "error"
    },
    {
      "anonymous": false,
      "inputs": [
        {
          "indexed": true,
          "internalType": "address",
          "name": "childToken",
          "type": "address"
        },
        {
          "indexed": true,
          "internalType": "address",
          "name": "rootToken",
          "type": "address"
        },
        {
          "indexed": false,
          "internalType": "address",
          "name": "from",
          "type": "address"
        },
        {
          "indexed": true,
          "internalType": "address",
          "name": "to",
          "type": "address"
        },
        {
          "indexed": false,
          "internalType": "uint256",
          "name": "amount",
          "type": "uint256"
        }
      ],
      "name": "FxDepositERC20",
      "type": "event"
    },
    {
      "anonymous": false,
      "inputs": [
        {
          "indexed": true,
          "internalType": "address",
          "name": "rootToken",
          "type": "address"
        },
        {
          "indexed": true,
          "internalType": "address",
          "name": "childToken",
          "type": "address"
        },
        {
          "indexed": false,
          "internalType": "address",
          "name": "from",
          "type": "address"
        },
        {
          "indexed": true,
          "internalType": "address",
          "name": "to",
          "type": "address"
        },
        {
          "indexed": false,
          "internalType": "uint256",
          "name": "amount",
          "type": "uint256"
        }
      ],
      "name": "FxWithdrawERC20",
      "type": "event"
    },
    {
      "inputs": [],
      "name": "SEND_MESSAGE_EVENT_SIG",
      "outputs": [
        {
          "internalType": "bytes32",
          "name": "",
          "type": "bytes32"
        }
      ],
      "stateMutability": "view",
      "type": "function"
    },
    {
      "inputs": [],
      "name": "checkpointManager",
      "outputs": [
        {
          "internalType": "contract ICheckpointManager",
          "name": "",
          "type": "address"
        }
      ],
      "stateMutability": "view",
      "type": "function"
    },
    {
      "inputs": [],
      "name": "childToken",
      "outputs": [
        {
          "internalType": "address",
          "name": "",
          "type": "address"
        }
      ],
      "stateMutability": "view",
      "type": "function"
    },
    {
      "inputs": [],
      "name": "fxChildTunnel",
      "outputs": [
        {
          "internalType": "address",
          "name": "",
          "type": "address"
        }
      ],
      "stateMutability": "view",
      "type": "function"
    },
    {
      "inputs": [],
      "name": "fxRoot",
      "outputs": [
        {
          "internalType": "contract IFxStateSender",
          "name": "",
          "type": "address"
        }
      ],
      "stateMutability": "view",
      "type": "function"
    },
    {
      "inputs": [
        {
          "internalType": "bytes32",
          "name": "",
          "type": "bytes32"
        }
      ],
      "name": "processedExits",
      "outputs": [
        {
          "internalType": "bool",
          "name": "",
          "type": "bool"
        }
      ],
      "stateMutability": "view",
      "type": "function"
    },
    {
      "inputs": [
        {
          "internalType": "bytes",
          "name": "inputData",
          "type": "bytes"
        }
      ],
      "name": "receiveMessage",
      "outputs": [],
      "stateMutability": "nonpayable",
      "type": "function"
    },
    {
      "inputs": [],
      "name": "rootToken",
      "outputs": [
        {
          "internalType": "address",
          "name": "",
          "type": "address"
        }
      ],
      "stateMutability": "view",
      "type": "function"
    },
    {
      "inputs": [
        {
          "internalType": "address",
          "name": "_fxChildTunnel",
          "type": "address"
        }
      ],
      "name": "setFxChildTunnel",
      "outputs": [],
      "stateMutability": "nonpayable",
      "type": "function"
    },
    {
      "inputs": [
        {
          "internalType": "uint256",
          "name": "amount",
          "type": "uint256"
        }
      ],
      "name": "withdraw",
      "outputs": [],
      "stateMutability": "nonpayable",
      "type": "function"
    },
    {
      "inputs": [
        {
          "internalType": "address",
          "name": "to",
          "type": "address"
        },
        {
          "internalType": "uint256",
          "name": "amount",
          "type": "uint256"
        }
      ],
      "name": "withdrawTo",
      "outputs": [],
      "stateMutability": "nonpayable",
      "type": "function"
    }
  ],
  "bytecode": "0x60c060405234801562000010575f80fd5b506040516200272d3803806200272d8339810160408190526200003391620000f0565b600180546001600160a01b038087166001600160a01b031992831681179093555f80549187169190921617905515806200007457506001600160a01b038316155b806200008757506001600160a01b038216155b806200009a57506001600160a01b038116155b15620000b95760405163d92e233d60e01b815260040160405180910390fd5b6001600160a01b039182166080521660a052506200014a9050565b80516001600160a01b0381168114620000eb575f80fd5b919050565b5f805f806080858703121562000104575f80fd5b6200010f85620000d4565b93506200011f60208601620000d4565b92506200012f60408601620000d4565b91506200013f60608601620000d4565b905092959194509250565b60805160a051612589620001a45f395f81816101070152818161048101528181610544015281816105b30152818161066c01528181610b000152610b8301525f81816101cd015281816106470152610ba801526125895ff3fe608060405234801561000f575f80fd5b50600436106100c4575f3560e01c8063972c49281161007d578063c0857ba011610058578063c0857ba014610202578063de9b771f14610222578063f953cec714610241575f80fd5b8063972c4928146101a8578063ac0007de146101c8578063aea4e49e146101ef575f80fd5b8063205c2878116100ad578063205c28781461014e5780632e1a7d4d14610163578063607f2d4214610176575f80fd5b80630e387de6146100c85780631f2d006514610102575b5f80fd5b6100ef7f8c5261668696ce22758910d05bab8f186d6eb247ceac2af2e82c7dc17669b03681565b6040519081526020015b60405180910390f35b6101297f000000000000000000000000000000000000000000000000000000000000000081565b60405173ffffffffffffffffffffffffffffffffffffffff90911681526020016100f9565b61016161015c366004611f42565b610254565b005b610161610171366004611f6c565b6102af565b610198610184366004611f6c565b60036020525f908152604090205460ff1681565b60405190151581526020016100f9565b6002546101299073ffffffffffffffffffffffffffffffffffffffff1681565b6101297f000000000000000000000000000000000000000000000000000000000000000081565b6101616101fd366004611f83565b6102bc565b6001546101299073ffffffffffffffffffffffffffffffffffffffff1681565b5f546101299073ffffffffffffffffffffffffffffffffffffffff1681565b61016161024f36600461205f565b6103ae565b73ffffffffffffffffffffffffffffffffffffffff82166102a1576040517fd92e233d00000000000000000000000000000000000000000000000000000000815260040160405180910390fd5b6102ab82826103c3565b5050565b6102b933826103c3565b50565b60025473ffffffffffffffffffffffffffffffffffffffff1615610367576040517f08c379a000000000000000000000000000000000000000000000000000000000815260206004820152602a60248201527f467842617365526f6f7454756e6e656c3a204348494c445f54554e4e454c5f4160448201527f4c52454144595f5345540000000000000000000000000000000000000000000060648201526084015b60405180910390fd5b600280547fffffffffffffffffffffffff00000000000000000000000000000000000000001673ffffffffffffffffffffffffffffffffffffffff92909216919091179055565b5f6103b8826106bf565b90506102ab81610a95565b805f036103fc576040517f7c946ed700000000000000000000000000000000000000000000000000000000815260040160405180910390fd5b6040805133602082015273ffffffffffffffffffffffffffffffffffffffff841681830152606080820184905282518083039091018152608090910190915261044481610bf1565b6040517f23b872dd000000000000000000000000000000000000000000000000000000008152336004820152306024820152604481018390525f907f000000000000000000000000000000000000000000000000000000000000000073ffffffffffffffffffffffffffffffffffffffff16906323b872dd906064016020604051808303815f875af11580156104dc573d5f803e3d5ffd5b505050506040513d601f19601f8201168201806040525081019061050091906120d9565b905080610584576040517fcd3f165900000000000000000000000000000000000000000000000000000000815273ffffffffffffffffffffffffffffffffffffffff7f00000000000000000000000000000000000000000000000000000000000000001660048201523360248201523060448201526064810184905260840161035e565b6040517f42966c68000000000000000000000000000000000000000000000000000000008152600481018490527f000000000000000000000000000000000000000000000000000000000000000073ffffffffffffffffffffffffffffffffffffffff16906342966c68906024015f604051808303815f87803b158015610609575f80fd5b505af115801561061b573d5f803e3d5ffd5b5050604080513381526020810187905273ffffffffffffffffffffffffffffffffffffffff80891694507f0000000000000000000000000000000000000000000000000000000000000000811693507f000000000000000000000000000000000000000000000000000000000000000016917f1c1b8a14a9aa37156f1a60ab7bfd9c52106866e15ae4827e38e27cd8aaab34d991015b60405180910390a450505050565b60605f6106cb83610c7c565b90505f6106d782610cd9565b90505f6106e383610d07565b90505f816106f084610d2e565b6106f986610f0a565b60405160200161070b9392919061211a565b604080517fffffffffffffffffffffffffffffffffffffffffffffffffffffffffffffffe081840301815291815281516020928301205f818152600390935291205490915060ff16156107df576040517f08c379a0000000000000000000000000000000000000000000000000000000008152602060048201526024808201527f4678526f6f7454756e6e656c3a20455849545f414c52454144595f50524f434560448201527f5353454400000000000000000000000000000000000000000000000000000000606482015260840161035e565b5f81815260036020526040812080547fffffffffffffffffffffffffffffffffffffffffffffffffffffffffffffff0016600117905561081e85610f24565b90505f61082a82611068565b9050610835816110f5565b60025473ffffffffffffffffffffffffffffffffffffffff9081169116146108df576040517f08c379a000000000000000000000000000000000000000000000000000000000815260206004820152602560248201527f4678526f6f7454756e6e656c3a20494e56414c49445f46585f4348494c445f5460448201527f554e4e454c000000000000000000000000000000000000000000000000000000606482015260840161035e565b5f6108e98761111c565b90506109096108f9846020015190565b876109038a611136565b84611151565b610995576040517f08c379a000000000000000000000000000000000000000000000000000000000815260206004820152602360248201527f4678526f6f7454756e6e656c3a20494e56414c49445f524543454950545f505260448201527f4f4f460000000000000000000000000000000000000000000000000000000000606482015260840161035e565b6109c3856109a2896113e9565b6109ab8a611403565b846109b58c61141d565b6109be8d611436565b611451565b5f6109cd836115ae565b90507f8c5261668696ce22758910d05bab8f186d6eb247ceac2af2e82c7dc17669b036610a026109fd835f6115ea565b611621565b14610a69576040517f08c379a000000000000000000000000000000000000000000000000000000000815260206004820152601f60248201527f4678526f6f7454756e6e656c3a20494e56414c49445f5349474e415455524500604482015260640161035e565b5f610a7384611696565b806020019051810190610a869190612146565b9b9a5050505050505050505050565b5f805f83806020019051810190610aac91906121b8565b6040517f40c10f1900000000000000000000000000000000000000000000000000000000815273ffffffffffffffffffffffffffffffffffffffff83811660048301526024820183905293965091945092507f0000000000000000000000000000000000000000000000000000000000000000909116906340c10f19906044015f604051808303815f87803b158015610b43575f80fd5b505af1158015610b55573d5f803e3d5ffd5b50506040805173ffffffffffffffffffffffffffffffffffffffff87811682526020820186905280871694507f0000000000000000000000000000000000000000000000000000000000000000811693507f000000000000000000000000000000000000000000000000000000000000000016917f5286e7fd9555e9f496aacf262a43fa5bd26597317e83db01ce04b8a1f4224b8e91016106b1565b5f546002546040517fb472047700000000000000000000000000000000000000000000000000000000815273ffffffffffffffffffffffffffffffffffffffff9283169263b472047792610c4c9291169085906004016121f8565b5f604051808303815f87803b158015610c63575f80fd5b505af1158015610c75573d5f803e3d5ffd5b5050505050565b6040805160208101909152606081525f610cc4610cbf846040805180820182525f8082526020918201528151808301909252825182529182019181019190915290565b6116b2565b60408051602081019091529081529392505050565b6060610d01825f0151600881518110610cf457610cf4612265565b60200260200101516117b8565b92915050565b5f610d01825f0151600281518110610d2157610d21612265565b6020026020010151611621565b60408051602081019091525f815281516060919015610d01575f80610d535f8661184f565b60f81c90506001811480610d6a57508060ff166003145b15610e2757600185516002610d7f91906122bf565b610d8991906122d6565b67ffffffffffffffff811115610da157610da1611f9e565b6040519080825280601f01601f191660200182016040528015610dcb576020820181803683370190505b5092505f610dda60018761184f565b905080845f81518110610def57610def612265565b60200101907effffffffffffffffffffffffffffffffffffffffffffffffffffffffffffff191690815f1a9053506001925050610e8a565b600285516002610e3791906122bf565b610e4191906122d6565b67ffffffffffffffff811115610e5957610e59611f9e565b6040519080825280601f01601f191660200182016040528015610e83576020820181803683370190505b5092505f91505b60ff82165b8351811015610f0157610eb9610ea860ff8516836122d6565b610eb39060026122e9565b8761184f565b848281518110610ecb57610ecb612265565b60200101907effffffffffffffffffffffffffffffffffffffffffffffffffffffffffffff191690815f1a905350600101610e8f565b50505092915050565b5f610d01825f0151600981518110610d2157610d21612265565b610f47604051806060016040528060608152602001606081526020015f81525090565b610f60825f0151600681518110610cf457610cf4612265565b60208281018290526040805180820182525f8082529083015280518082019091528251815291810190820152610f95816118cf565b15610faa57610fa3816116b2565b8252611054565b602082015180515f90610fbf906001906122d6565b67ffffffffffffffff811115610fd757610fd7611f9e565b6040519080825280601f01601f191660200182016040528015611001576020820181803683370190505b5090505f8083602101915082602001905061101e82828551611906565b6040805180820182525f8082526020918201528151808301909252845182528085019082015261104d906116b2565b8652505050505b61105d83610f0a565b604083015250919050565b604080516080810182525f918101828152606080830193909352815260208101919091525f6110b3835f01516003815181106110a6576110a6612265565b60200260200101516116b2565b8360400151815181106110c8576110c8612265565b6020026020010151905060405180604001604052808281526020016110ec836116b2565b90529392505050565b5f610d0182602001515f8151811061110f5761110f612265565b602002602001015161198e565b5f610d01825f0151600581518110610d2157610d21612265565b6060610d01825f0151600781518110610cf457610cf4612265565b5f80611183846040805180820182525f8082526020918201528151808301909252825182529182019181019190915290565b90505f61118f826116b2565b9050606080855f806111a08b610d2e565b905080515f036111b9575f9750505050505050506113e1565b5f5b86518110156113d85781518311156111dd575f985050505050505050506113e1565b6111ff8782815181106111f2576111f2612265565b60200260200101516119a6565b95508580519060200120841461121f575f985050505050505050506113e1565b6112348782815181106110a6576110a6612265565b945084516011036113035781518303611292578c8051906020012061126586601081518110610cf457610cf4612265565b8051906020012003611282576001985050505050505050506113e1565b5f985050505050505050506113e1565b5f8284815181106112a5576112a5612265565b016020015160f81c905060108111156112c9575f99505050505050505050506113e1565b6112ee868260ff16815181106112e1576112e1612265565b6020026020010151611a20565b94506112fb6001856122e9565b9350506113d0565b8451600203611282575f61132c611325875f81518110610cf457610cf4612265565b8486611a4b565b835190915061133b82866122e9565b0361138d578d8051906020012061135e87600181518110610cf457610cf4612265565b805190602001200361137c57600199505050505050505050506113e1565b5f99505050505050505050506113e1565b805f036113a5575f99505050505050505050506113e1565b6113af81856122e9565b93506113c7866001815181106112e1576112e1612265565b94506113d09050565b6001016111bb565b50505050505050505b949350505050565b5f610d01825f0151600381518110610d2157610d21612265565b5f610d01825f0151600481518110610d2157610d21612265565b5f610d01825f01515f81518110610d2157610d21612265565b6060610d01825f0151600181518110610cf457610cf4612265565b6001546040517f41539d4a000000000000000000000000000000000000000000000000000000008152600481018490525f918291829173ffffffffffffffffffffffffffffffffffffffff16906341539d4a9060240160a060405180830381865afa1580156114c2573d5f803e3d5ffd5b505050506040513d601f19601f820116820180604052508101906114e691906122fc565b509350509250925061153d828a6114fd91906122d6565b6040805160208082018e90528183018d9052606082018c905260808083018c90528351808403909101815260a09092019092528051910120908587611b73565b6115a3576040517f08c379a000000000000000000000000000000000000000000000000000000000815260206004820152601c60248201527f4678526f6f7454756e6e656c3a20494e56414c49445f48454144455200000000604482015260640161035e565b505050505050505050565b60408051602081019091526060815260405180602001604052806115e284602001516001815181106110a6576110a6612265565b905292915050565b604080518082019091525f8082526020820152825180518390811061161157611611612265565b6020026020010151905092915050565b80515f901580159061163557508151602110155b61163d575f80fd5b5f61164b8360200151611d1c565b90505f81845f015161165d91906122d6565b90505f8083866020015161167191906122e9565b905080519150602083101561168d57826020036101000a820491505b50949350505050565b6060610d018260200151600281518110610cf457610cf4612265565b60606116bd826118cf565b6116c5575f80fd5b5f6116cf83611d9c565b90505f8167ffffffffffffffff8111156116eb576116eb611f9e565b60405190808252806020026020018201604052801561172f57816020015b604080518082019091525f80825260208201528152602001906001900390816117095790505b5090505f6117408560200151611d1c565b856020015161174f91906122e9565b90505f805b848110156117ad5761176583611e1c565b915060405180604001604052808381526020018481525084828151811061178e5761178e612265565b60209081029190910101526117a382846122e9565b9250600101611754565b509195945050505050565b80516060906117c5575f80fd5b5f6117d38360200151611d1c565b90505f81845f01516117e591906122d6565b90505f8167ffffffffffffffff81111561180157611801611f9e565b6040519080825280601f01601f19166020018201604052801561182b576020820181803683370190505b5090505f81602001905061168d84876020015161184891906122e9565b8285611edd565b5f61185b600284612372565b156118955760108261186e600286612385565b8151811061187e5761187e612265565b0160200151611890919060f81c612398565b6118c5565b6010826118a3600286612385565b815181106118b3576118b3612265565b01602001516118c5919060f81c6123b9565b60f81b9392505050565b80515f9081036118e057505f919050565b602082015180515f1a9060c08210156118fc57505f9392505050565b5060019392505050565b805f0361191257505050565b6020811061194a57825182526119296020846122e9565b92506119366020836122e9565b91506119436020826122d6565b9050611912565b805f0361195657505050565b5f60016119648360206122d6565b611970906101006124f8565b61197a91906122d6565b935183518516941916939093179091525050565b80515f9060151461199d575f80fd5b610d0182611621565b60605f825f015167ffffffffffffffff8111156119c5576119c5611f9e565b6040519080825280601f01601f1916602001820160405280156119ef576020820181803683370190505b50905080515f03611a005792915050565b5f816020019050611a19846020015182865f0151611edd565b5092915050565b80515f90602114611a2f575f80fd5b5f8083602001516001611a4291906122e9565b51949350505050565b5f8080611a5786610d2e565b90505f815167ffffffffffffffff811115611a7457611a74611f9e565b6040519080825280601f01601f191660200182016040528015611a9e576020820181803683370190505b509050845b8251611aaf90876122e9565b811015611b45575f878281518110611ac957611ac9612265565b01602001517fff000000000000000000000000000000000000000000000000000000000000001690508083611afe89856122d6565b81518110611b0e57611b0e612265565b60200101907effffffffffffffffffffffffffffffffffffffffffffffffffffffffffffff191690815f1a90535050600101611aa3565b508080519060200120828051906020012003611b645781519250611b68565b5f92505b509095945050505050565b5f60208251611b829190612372565b15611be9576040517f08c379a000000000000000000000000000000000000000000000000000000000815260206004820152601460248201527f496e76616c69642070726f6f66206c656e677468000000000000000000000000604482015260640161035e565b5f60208351611bf89190612385565b9050611c058160026124f8565b8510611c6d576040517f08c379a000000000000000000000000000000000000000000000000000000000815260206004820152601560248201527f4c65616620696e64657820697320746f6f206269670000000000000000000000604482015260640161035e565b5f8660205b85518111611d0e57858101519250611c8b600289612372565b5f03611cc2576040805160208101849052908101849052606001604051602081830303815290604052805190602001209150611cef565b60408051602081018590529081018390526060016040516020818303038152906040528051906020012091505b611cfa600289612385565b9750611d076020826122e9565b9050611c72565b509094149695505050505050565b80515f90811a6080811015611d3357505f92915050565b60b8811080611d4e575060c08110801590611d4e575060f881105b15611d5c5750600192915050565b60c0811015611d9057611d71600160b8612503565b611d7e9060ff16826122d6565b611d899060016122e9565b9392505050565b611d71600160f8612503565b80515f908103611dad57505f919050565b5f80611dbc8460200151611d1c565b8460200151611dcb91906122e9565b90505f845f01518560200151611de191906122e9565b90505b80821015611e1357611df582611e1c565b611dff90836122e9565b915082611e0b8161251c565b935050611de4565b50909392505050565b80515f908190811a6080811015611e365760019150611a19565b60b8811015611e5c57611e4a6080826122d6565b611e559060016122e9565b9150611a19565b60c0811015611e895760b78103600185019450806020036101000a85510460018201810193505050611a19565b60f8811015611e9d57611e4a60c0826122d6565b60019390930151602084900360f7016101000a90049092017fffffffffffffffffffffffffffffffffffffffffffffffffffffffffffffff0a0192915050565b805f03611ee957505050565b6020811061194a5782518252611f006020846122e9565b9250611f0d6020836122e9565b9150611f1a6020826122d6565b9050611ee9565b73ffffffffffffffffffffffffffffffffffffffff811681146102b9575f80fd5b5f8060408385031215611f53575f80fd5b8235611f5e81611f21565b946020939093013593505050565b5f60208284031215611f7c575f80fd5b5035919050565b5f60208284031215611f93575f80fd5b8135611d8981611f21565b7f4e487b71000000000000000000000000000000000000000000000000000000005f52604160045260245ffd5b604051601f82017fffffffffffffffffffffffffffffffffffffffffffffffffffffffffffffffe016810167ffffffffffffffff8111828210171561201257612012611f9e565b604052919050565b5f67ffffffffffffffff82111561203357612033611f9e565b50601f017fffffffffffffffffffffffffffffffffffffffffffffffffffffffffffffffe01660200190565b5f6020828403121561206f575f80fd5b813567ffffffffffffffff811115612085575f80fd5b8201601f81018413612095575f80fd5b80356120a86120a38261201a565b611fcb565b8181528560208385010111156120bc575f80fd5b816020840160208301375f91810160200191909152949350505050565b5f602082840312156120e9575f80fd5b81518015158114611d89575f80fd5b5f5b838110156121125781810151838201526020016120fa565b50505f910152565b8381525f83516121318160208501602088016120f8565b60209201918201929092526040019392505050565b5f60208284031215612156575f80fd5b815167ffffffffffffffff81111561216c575f80fd5b8201601f8101841361217c575f80fd5b805161218a6120a38261201a565b81815285602083850101111561219e575f80fd5b6121af8260208301602086016120f8565b95945050505050565b5f805f606084860312156121ca575f80fd5b83516121d581611f21565b60208501519093506121e681611f21565b80925050604084015190509250925092565b73ffffffffffffffffffffffffffffffffffffffff83168152604060208201525f82518060408401526122328160608501602087016120f8565b601f017fffffffffffffffffffffffffffffffffffffffffffffffffffffffffffffffe016919091016060019392505050565b7f4e487b71000000000000000000000000000000000000000000000000000000005f52603260045260245ffd5b7f4e487b71000000000000000000000000000000000000000000000000000000005f52601160045260245ffd5b8082028115828204841417610d0157610d01612292565b81810381811115610d0157610d01612292565b80820180821115610d0157610d01612292565b5f805f805f60a08688031215612310575f80fd5b85519450602086015193506040860151925060608601519150608086015161233781611f21565b809150509295509295909350565b7f4e487b71000000000000000000000000000000000000000000000000000000005f52601260045260245ffd5b5f8261238057612380612345565b500690565b5f8261239357612393612345565b500490565b5f60ff8316806123aa576123aa612345565b8060ff84160691505092915050565b5f60ff8316806123cb576123cb612345565b8060ff84160491505092915050565b600181815b8085111561243357817fffffffffffffffffffffffffffffffffffffffffffffffffffffffffffffffff0482111561241957612419612292565b8085161561242657918102915b93841c93908002906123df565b509250929050565b5f8261244957506001610d01565b8161245557505f610d01565b816001811461246b576002811461247557612491565b6001915050610d01565b60ff84111561248657612486612292565b50506001821b610d01565b5060208310610133831016604e8410600b84101617156124b4575081810a610d01565b6124be83836123da565b807fffffffffffffffffffffffffffffffffffffffffffffffffffffffffffffffff048211156124f0576124f0612292565b029392505050565b5f611d89838361243b565b60ff8281168282160390811115610d0157610d01612292565b5f7fffffffffffffffffffffffffffffffffffffffffffffffffffffffffffffffff820361254c5761254c612292565b506001019056fea2646970667358221220d2497d06aaaec64037c4b03c8756296fd653a93fe93de111ce852032a60e6a0764736f6c63430008170033",
  "linkReferences": {},
  "deployedLinkReferences": {}
}