{
  "_format": "hh-sol-artifact-1",
  "contractName": "OptimismMessenger",
  "sourceName": "contracts/bridges/OptimismMessenger.sol",
  "abi": [
    {
      "inputs": [
        {
          "internalType": "address",
          "name": "_CDMContractProxyHome",
          "type": "address"
        },
        {
          "internalType": "address",
          "name": "_foreignGovernor",
          "type": "address"
        }
      ],
      "stateMutability": "nonpayable",
      "type": "constructor"
    },
    {
      "inputs": [
        {
          "internalType": "bytes32",
          "name": "deliveryHash",
          "type": "bytes32"
        }
      ],
      "name": "AlreadyDelivered",
      "type": "error"
    },
    {
      "inputs": [
        {
          "internalType": "uint256",
          "name": "expected",
          "type": "uint256"
        },
        {
          "internalType": "uint256",
          "name": "provided",
          "type": "uint256"
        }
      ],
      "name": "IncorrectDataLength",
      "type": "error"
    },
    {
      "inputs": [
        {
          "internalType": "uint256",
          "name": "value",
          "type": "uint256"
        },
        {
          "internalType": "uint256",
          "name": "balance",
          "type": "uint256"
        }
      ],
      "name": "InsufficientBalance",
      "type": "error"
    },
    {
      "inputs": [
        {
          "internalType": "address",
          "name": "sender",
          "type": "address"
        },
        {
          "internalType": "address",
          "name": "instance",
          "type": "address"
        }
      ],
      "name": "SelfCallOnly",
      "type": "error"
    },
    {
      "inputs": [
        {
          "internalType": "address",
          "name": "sender",
          "type": "address"
        },
        {
          "internalType": "address",
          "name": "sourceGovernor",
          "type": "address"
        }
      ],
      "name": "SourceGovernorOnly",
      "type": "error"
    },
    {
      "inputs": [
        {
          "internalType": "address",
          "name": "target",
          "type": "address"
        },
        {
          "internalType": "uint256",
          "name": "value",
          "type": "uint256"
        },
        {
          "internalType": "bytes",
          "name": "payload",
          "type": "bytes"
        }
      ],
      "name": "TargetExecFailed",
      "type": "error"
    },
    {
      "inputs": [
        {
          "internalType": "uint256",
          "name": "received",
          "type": "uint256"
        },
        {
          "internalType": "uint256",
          "name": "required",
          "type": "uint256"
        }
      ],
      "name": "WrongSourceChainId",
      "type": "error"
    },
    {
      "inputs": [],
      "name": "ZeroAddress",
      "type": "error"
    },
    {
      "inputs": [],
      "name": "ZeroValue",
      "type": "error"
    },
    {
      "inputs": [
        {
          "internalType": "address",
          "name": "sender",
          "type": "address"
        },
        {
          "internalType": "address",
          "name": "sourceRelayer",
          "type": "address"
        }
      ],
      "name": "sourceRelayerOnly",
      "type": "error"
    },
    {
      "anonymous": false,
      "inputs": [
        {
          "indexed": true,
          "internalType": "address",
          "name": "sender",
          "type": "address"
        },
        {
          "indexed": false,
          "internalType": "uint256",
          "name": "value",
          "type": "uint256"
        }
      ],
      "name": "FundsReceived",
      "type": "event"
    },
    {
      "anonymous": false,
      "inputs": [
        {
          "indexed": true,
          "internalType": "address",
          "name": "foreignMessageSender",
          "type": "address"
        },
        {
          "indexed": false,
          "internalType": "bytes",
          "name": "data",
          "type": "bytes"
        }
      ],
      "name": "MessageReceived",
      "type": "event"
    },
    {
      "anonymous": false,
      "inputs": [
        {
          "indexed": true,
          "internalType": "address",
          "name": "sourceGovernor",
          "type": "address"
        }
      ],
      "name": "SourceGovernorUpdated",
      "type": "event"
    },
    {
      "inputs": [],
      "name": "CDMContractProxyHome",
      "outputs": [
        {
          "internalType": "address",
          "name": "",
          "type": "address"
        }
      ],
      "stateMutability": "view",
      "type": "function"
    },
    {
      "inputs": [],
      "name": "DEFAULT_DATA_LENGTH",
      "outputs": [
        {
          "internalType": "uint256",
          "name": "",
          "type": "uint256"
        }
      ],
      "stateMutability": "view",
      "type": "function"
    },
    {
      "inputs": [
        {
          "internalType": "address",
          "name": "newSourceGovernor",
          "type": "address"
        }
      ],
      "name": "changeSourceGovernor",
      "outputs": [],
      "stateMutability": "nonpayable",
      "type": "function"
    },
    {
      "inputs": [],
      "name": "foreignGovernor",
      "outputs": [
        {
          "internalType": "address",
          "name": "",
          "type": "address"
        }
      ],
      "stateMutability": "view",
      "type": "function"
    },
    {
      "inputs": [
        {
          "internalType": "bytes",
          "name": "data",
          "type": "bytes"
        }
      ],
      "name": "processMessageFromForeign",
      "outputs": [],
      "stateMutability": "payable",
      "type": "function"
    },
    {
      "inputs": [],
      "name": "sourceGovernor",
      "outputs": [
        {
          "internalType": "address",
          "name": "",
          "type": "address"
        }
      ],
      "stateMutability": "view",
      "type": "function"
    },
    {
      "stateMutability": "payable",
      "type": "receive"
    }
  ],
  "bytecode": "0x60a060405234801561001057600080fd5b50604051610bca380380610bca83398101604081905261002f916100ae565b6001600160a01b038216158061004c57506001600160a01b038116155b1561006a5760405163d92e233d60e01b815260040160405180910390fd5b6001600160a01b03918216608052600180546001600160a01b031916919092161790556100e1565b80516001600160a01b03811681146100a957600080fd5b919050565b600080604083850312156100c157600080fd5b6100ca83610092565b91506100d860208401610092565b90509250929050565b608051610aba6101106000396000818160bc015281816101d20152818161023a01526102970152610aba6000f3fe6080604052600436106100695760003560e01c8063e3b94a2311610043578063e3b94a231461014a578063f02fb77414610177578063f8b4870f1461019a57600080fd5b8063c8404330146100aa578063cd9e30d914610108578063dd32a5061461011d57600080fd5b366100a55760405134815233907f8e47b87b0ef542cdfa1659c551d88bad38aa7f452d2bbb349ab7530dfec8be8f9060200160405180910390a2005b600080fd5b3480156100b657600080fd5b506100de7f000000000000000000000000000000000000000000000000000000000000000081565b60405173ffffffffffffffffffffffffffffffffffffffff90911681526020015b60405180910390f35b61011b6101163660046107f7565b6101ba565b005b34801561012957600080fd5b506001546100de9073ffffffffffffffffffffffffffffffffffffffff1681565b34801561015657600080fd5b506000546100de9073ffffffffffffffffffffffffffffffffffffffff1681565b34801561018357600080fd5b5061018c602481565b6040519081526020016100ff565b3480156101a657600080fd5b5061011b6101b53660046108eb565b610409565b3373ffffffffffffffffffffffffffffffffffffffff7f0000000000000000000000000000000000000000000000000000000000000000161461026c576040517f264cd9ca00000000000000000000000000000000000000000000000000000000815233600482015273ffffffffffffffffffffffffffffffffffffffff7f00000000000000000000000000000000000000000000000000000000000000001660248201526044015b60405180910390fd5b6000600160009054906101000a900473ffffffffffffffffffffffffffffffffffffffff16905060007f000000000000000000000000000000000000000000000000000000000000000073ffffffffffffffffffffffffffffffffffffffff16636e296e456040518163ffffffff1660e01b81526004016020604051808303816000875af1158015610302573d6000803e3d6000fd5b505050506040513d601f19601f82011682018060405250810190610326919061090f565b90508173ffffffffffffffffffffffffffffffffffffffff168173ffffffffffffffffffffffffffffffffffffffff16146103ad576040517f978c830c00000000000000000000000000000000000000000000000000000000815273ffffffffffffffffffffffffffffffffffffffff808316600483015283166024820152604401610263565b6103b683610504565b8173ffffffffffffffffffffffffffffffffffffffff167f3c64b439784b3c09eba93acf868463aed0e339a92920e1d8822118261dfc1a7d846040516103fc919061099a565b60405180910390a2505050565b33301461044a576040517f0dbc9bfc000000000000000000000000000000000000000000000000000000008152336004820152306024820152604401610263565b73ffffffffffffffffffffffffffffffffffffffff8116610497576040517fd92e233d00000000000000000000000000000000000000000000000000000000815260040160405180910390fd5b600080547fffffffffffffffffffffffff00000000000000000000000000000000000000001673ffffffffffffffffffffffffffffffffffffffff8316908117825560405190917fbbc9d5867fd60faf098cfaa8adb3402dd83501cc76385968ddbb6b2610800f8e91a250565b8051602481101561054f5781516040517f34c9027a00000000000000000000000000000000000000000000000000000000815261026391602491600401918252602082015260400190565b60005b818110156107c357828101601481015160208201516024928301519290930192909173ffffffffffffffffffffffffffffffffffffffff83166105c1576040517fd92e233d00000000000000000000000000000000000000000000000000000000815260040160405180910390fd5b47826bffffffffffffffffffffffff16111561061f576040517fcf4791810000000000000000000000000000000000000000000000000000000081526bffffffffffffffffffffffff83166004820152476024820152604401610263565b60008163ffffffff1667ffffffffffffffff811115610640576106406107c8565b6040519080825280601f01601f19166020018201604052801561066a576020820181803683370190505b50905060005b8263ffffffff168110156106ed578761068982886109ad565b81518110610699576106996109ed565b602001015160f81c60f81b8282815181106106b6576106b66109ed565b60200101907effffffffffffffffffffffffffffffffffffffffffffffffffffffffffffff1916908160001a905350600101610670565b506106fe63ffffffff8316866109ad565b945060008473ffffffffffffffffffffffffffffffffffffffff16846bffffffffffffffffffffffff16836040516107369190610a1c565b60006040518083038185875af1925050503d8060008114610773576040519150601f19603f3d011682016040523d82523d6000602084013e610778565b606091505b50509050806107b9578484836040517f6cfc79a500000000000000000000000000000000000000000000000000000000815260040161026393929190610a38565b5050505050610552565b505050565b7f4e487b7100000000000000000000000000000000000000000000000000000000600052604160045260246000fd5b60006020828403121561080957600080fd5b813567ffffffffffffffff8082111561082157600080fd5b818401915084601f83011261083557600080fd5b813581811115610847576108476107c8565b604051601f82017fffffffffffffffffffffffffffffffffffffffffffffffffffffffffffffffe0908116603f0116810190838211818310171561088d5761088d6107c8565b816040528281528760208487010111156108a657600080fd5b826020860160208301376000928101602001929092525095945050505050565b73ffffffffffffffffffffffffffffffffffffffff811681146108e857600080fd5b50565b6000602082840312156108fd57600080fd5b8135610908816108c6565b9392505050565b60006020828403121561092157600080fd5b8151610908816108c6565b60005b8381101561094757818101518382015260200161092f565b50506000910152565b6000815180845261096881602086016020860161092c565b601f017fffffffffffffffffffffffffffffffffffffffffffffffffffffffffffffffe0169290920160200192915050565b6020815260006109086020830184610950565b808201808211156109e7577f4e487b7100000000000000000000000000000000000000000000000000000000600052601160045260246000fd5b92915050565b7f4e487b7100000000000000000000000000000000000000000000000000000000600052603260045260246000fd5b60008251610a2e81846020870161092c565b9190910192915050565b73ffffffffffffffffffffffffffffffffffffffff841681526bffffffffffffffffffffffff83166020820152606060408201526000610a7b6060830184610950565b9594505050505056fea2646970667358221220ae653f9aafa635f317a390827150d6fda83a572884b398ddd9bfe84024f5591564736f6c63430008170033",
  "linkReferences": {},
  "deployedLinkReferences": {}
}