{
  "_format": "hh-sol-artifact-1",
  "contractName": "OptimismMessenger",
  "sourceName": "contracts/bridges/OptimismMessenger.sol",
  "abi": [
    {
      "inputs": [
        {
          "internalType": "address",
          "name": "_CDMContractProxyHome",
          "type": "address"
        },
        {
          "internalType": "address",
          "name": "_foreignGovernor",
          "type": "address"
        }
      ],
      "stateMutability": "nonpayable",
      "type": "constructor"
    },
    {
      "inputs": [
        {
          "internalType": "address",
          "name": "sender",
          "type": "address"
        },
        {
          "internalType": "address",
          "name": "CDMContractProxyHome",
          "type": "address"
        }
      ],
      "name": "CDMContractProxyHomeOnly",
      "type": "error"
    },
    {
      "inputs": [
        {
          "internalType": "address",
          "name": "sender",
          "type": "address"
        },
        {
          "internalType": "address",
          "name": "foreignGovernor",
          "type": "address"
        }
      ],
      "name": "ForeignGovernorOnly",
      "type": "error"
    },
    {
      "inputs": [
        {
          "internalType": "uint256",
          "name": "expected",
          "type": "uint256"
        },
        {
          "internalType": "uint256",
          "name": "provided",
          "type": "uint256"
        }
      ],
      "name": "IncorrectDataLength",
      "type": "error"
    },
    {
      "inputs": [
        {
          "internalType": "uint256",
          "name": "value",
          "type": "uint256"
        },
        {
          "internalType": "uint256",
          "name": "balance",
          "type": "uint256"
        }
      ],
      "name": "InsufficientBalance",
      "type": "error"
    },
    {
      "inputs": [
        {
          "internalType": "address",
          "name": "sender",
          "type": "address"
        },
        {
          "internalType": "address",
          "name": "instance",
          "type": "address"
        }
      ],
      "name": "SelfCallOnly",
      "type": "error"
    },
    {
      "inputs": [
        {
          "internalType": "address",
          "name": "target",
          "type": "address"
        },
        {
          "internalType": "uint256",
          "name": "value",
          "type": "uint256"
        },
        {
          "internalType": "bytes",
          "name": "payload",
          "type": "bytes"
        }
      ],
      "name": "TargetExecFailed",
      "type": "error"
    },
    {
      "inputs": [],
      "name": "ZeroAddress",
      "type": "error"
    },
    {
      "anonymous": false,
      "inputs": [
        {
          "indexed": true,
          "internalType": "address",
          "name": "foreignMessageSender",
          "type": "address"
        }
      ],
      "name": "ForeignGovernorUpdated",
      "type": "event"
    },
    {
      "anonymous": false,
      "inputs": [
        {
          "indexed": true,
          "internalType": "address",
          "name": "sender",
          "type": "address"
        },
        {
          "indexed": false,
          "internalType": "uint256",
          "name": "value",
          "type": "uint256"
        }
      ],
      "name": "FundsReceived",
      "type": "event"
    },
    {
      "anonymous": false,
      "inputs": [
        {
          "indexed": true,
          "internalType": "address",
          "name": "foreignMessageSender",
          "type": "address"
        },
        {
          "indexed": false,
          "internalType": "bytes",
          "name": "data",
          "type": "bytes"
        }
      ],
      "name": "MessageReceived",
      "type": "event"
    },
    {
      "inputs": [],
      "name": "CDMContractProxyHome",
      "outputs": [
        {
          "internalType": "address",
          "name": "",
          "type": "address"
        }
      ],
      "stateMutability": "view",
      "type": "function"
    },
    {
      "inputs": [],
      "name": "DEFAULT_DATA_LENGTH",
      "outputs": [
        {
          "internalType": "uint256",
          "name": "",
          "type": "uint256"
        }
      ],
      "stateMutability": "view",
      "type": "function"
    },
    {
      "inputs": [
        {
          "internalType": "address",
          "name": "newForeignGovernor",
          "type": "address"
        }
      ],
      "name": "changeForeignGovernor",
      "outputs": [],
      "stateMutability": "nonpayable",
      "type": "function"
    },
    {
      "inputs": [],
      "name": "foreignGovernor",
      "outputs": [
        {
          "internalType": "address",
          "name": "",
          "type": "address"
        }
      ],
      "stateMutability": "view",
      "type": "function"
    },
    {
      "inputs": [
        {
          "internalType": "bytes",
          "name": "data",
          "type": "bytes"
        }
      ],
      "name": "processMessageFromForeign",
      "outputs": [],
      "stateMutability": "payable",
      "type": "function"
    },
    {
      "stateMutability": "payable",
      "type": "receive"
    }
  ],
  "bytecode": "0x60a060405234801561001057600080fd5b50604051610b85380380610b8583398101604081905261002f916100ae565b6001600160a01b038216158061004c57506001600160a01b038116155b1561006a5760405163d92e233d60e01b815260040160405180910390fd5b6001600160a01b03918216608052600080546001600160a01b031916919092161790556100e1565b80516001600160a01b03811681146100a957600080fd5b919050565b600080604083850312156100c157600080fd5b6100ca83610092565b91506100d860208401610092565b90509250929050565b608051610a756101106000396000818160d30152818161029a0152818161030201526103780152610a756000f3fe60806040526004361061005e5760003560e01c8063cd9e30d911610043578063cd9e30d91461011f578063dd32a50614610132578063f02fb7741461015f57600080fd5b8063400a2c101461009f578063c8404330146100c157600080fd5b3661009a5760405134815233907f8e47b87b0ef542cdfa1659c551d88bad38aa7f452d2bbb349ab7530dfec8be8f9060200160405180910390a2005b600080fd5b3480156100ab57600080fd5b506100bf6100ba3660046107a8565b610182565b005b3480156100cd57600080fd5b506100f57f000000000000000000000000000000000000000000000000000000000000000081565b60405173ffffffffffffffffffffffffffffffffffffffff90911681526020015b60405180910390f35b6100bf61012d3660046107fb565b610282565b34801561013e57600080fd5b506000546100f59073ffffffffffffffffffffffffffffffffffffffff1681565b34801561016b57600080fd5b50610174602481565b604051908152602001610116565b3330146101c8576040517f0dbc9bfc0000000000000000000000000000000000000000000000000000000081523360048201523060248201526044015b60405180910390fd5b73ffffffffffffffffffffffffffffffffffffffff8116610215576040517fd92e233d00000000000000000000000000000000000000000000000000000000815260040160405180910390fd5b600080547fffffffffffffffffffffffff00000000000000000000000000000000000000001673ffffffffffffffffffffffffffffffffffffffff8316908117825560405190917ff453e38063153897c0cb53422f7eb5eed0ee1866e8d47fd6b302acbe3b5d221d91a250565b3373ffffffffffffffffffffffffffffffffffffffff7f0000000000000000000000000000000000000000000000000000000000000000161461032f576040517f9a63be9400000000000000000000000000000000000000000000000000000000815233600482015273ffffffffffffffffffffffffffffffffffffffff7f00000000000000000000000000000000000000000000000000000000000000001660248201526044016101bf565b60008054604080517f6e296e45000000000000000000000000000000000000000000000000000000008152905173ffffffffffffffffffffffffffffffffffffffff92831693927f00000000000000000000000000000000000000000000000000000000000000001691636e296e45916004808301926020929190829003018187875af11580156103c4573d6000803e3d6000fd5b505050506040513d601f19601f820116820180604052508101906103e891906108ca565b90508173ffffffffffffffffffffffffffffffffffffffff168173ffffffffffffffffffffffffffffffffffffffff161461046f576040517f33527f4900000000000000000000000000000000000000000000000000000000815273ffffffffffffffffffffffffffffffffffffffff8083166004830152831660248201526044016101bf565b825160248110156104ba5783516040517f34c9027a0000000000000000000000000000000000000000000000000000000081526101bf91602491600401918252602082015260400190565b60005b8181101561072e57848101601481015160208201516024928301519290930192909173ffffffffffffffffffffffffffffffffffffffff831661052c576040517fd92e233d00000000000000000000000000000000000000000000000000000000815260040160405180910390fd5b47826bffffffffffffffffffffffff16111561058a576040517fcf4791810000000000000000000000000000000000000000000000000000000081526bffffffffffffffffffffffff831660048201524760248201526044016101bf565b60008163ffffffff1667ffffffffffffffff8111156105ab576105ab6107cc565b6040519080825280601f01601f1916602001820160405280156105d5576020820181803683370190505b50905060005b8263ffffffff1681101561065857896105f482886108e7565b8151811061060457610604610927565b602001015160f81c60f81b82828151811061062157610621610927565b60200101907effffffffffffffffffffffffffffffffffffffffffffffffffffffffffffff1916908160001a9053506001016105db565b5061066963ffffffff8316866108e7565b945060008473ffffffffffffffffffffffffffffffffffffffff16846bffffffffffffffffffffffff16836040516106a1919061097a565b60006040518083038185875af1925050503d80600081146106de576040519150601f19603f3d011682016040523d82523d6000602084013e6106e3565b606091505b5050905080610724578484836040517f6cfc79a50000000000000000000000000000000000000000000000000000000081526004016101bf939291906109e0565b50505050506104bd565b508273ffffffffffffffffffffffffffffffffffffffff167f3c64b439784b3c09eba93acf868463aed0e339a92920e1d8822118261dfc1a7d856040516107759190610a2c565b60405180910390a250505050565b73ffffffffffffffffffffffffffffffffffffffff811681146107a557600080fd5b50565b6000602082840312156107ba57600080fd5b81356107c581610783565b9392505050565b7f4e487b7100000000000000000000000000000000000000000000000000000000600052604160045260246000fd5b60006020828403121561080d57600080fd5b813567ffffffffffffffff8082111561082557600080fd5b818401915084601f83011261083957600080fd5b81358181111561084b5761084b6107cc565b604051601f82017fffffffffffffffffffffffffffffffffffffffffffffffffffffffffffffffe0908116603f01168101908382118183101715610891576108916107cc565b816040528281528760208487010111156108aa57600080fd5b826020860160208301376000928101602001929092525095945050505050565b6000602082840312156108dc57600080fd5b81516107c581610783565b80820180821115610921577f4e487b7100000000000000000000000000000000000000000000000000000000600052601160045260246000fd5b92915050565b7f4e487b7100000000000000000000000000000000000000000000000000000000600052603260045260246000fd5b60005b83811015610971578181015183820152602001610959565b50506000910152565b6000825161098c818460208701610956565b9190910192915050565b600081518084526109ae816020860160208601610956565b601f017fffffffffffffffffffffffffffffffffffffffffffffffffffffffffffffffe0169290920160200192915050565b73ffffffffffffffffffffffffffffffffffffffff841681526bffffffffffffffffffffffff83166020820152606060408201526000610a236060830184610996565b95945050505050565b6020815260006107c5602083018461099656fea2646970667358221220381abedf3775d88e2e081ffe65e30b72b085480f347c42d91b3b7d50af46706564736f6c63430008170033",
  "linkReferences": {},
  "deployedLinkReferences": {}
}