{
  "_format": "hh-sol-artifact-1",
  "contractName": "VoteWeighting",
  "sourceName": "contracts/VoteWeighting.sol",
  "abi": [
    {
      "inputs": [
        {
          "internalType": "address",
          "name": "_ve",
          "type": "address"
        }
      ],
      "stateMutability": "nonpayable",
      "type": "constructor"
    },
    {
      "inputs": [
        {
          "internalType": "uint256",
          "name": "provided",
          "type": "uint256"
        },
        {
          "internalType": "uint256",
          "name": "expected",
          "type": "uint256"
        }
      ],
      "name": "InsufficientAllowance",
      "type": "error"
    },
    {
      "inputs": [
        {
          "internalType": "address",
          "name": "account",
          "type": "address"
        },
        {
          "internalType": "uint256",
          "name": "deadline",
          "type": "uint256"
        },
        {
          "internalType": "uint256",
          "name": "curTime",
          "type": "uint256"
        }
      ],
      "name": "LockExpired",
      "type": "error"
    },
    {
      "inputs": [
        {
          "internalType": "address",
          "name": "account",
          "type": "address"
        },
        {
          "internalType": "uint256",
          "name": "deadline",
          "type": "uint256"
        },
        {
          "internalType": "uint256",
          "name": "curTime",
          "type": "uint256"
        }
      ],
      "name": "LockNotExpired",
      "type": "error"
    },
    {
      "inputs": [
        {
          "internalType": "address",
          "name": "account",
          "type": "address"
        },
        {
          "internalType": "uint256",
          "name": "amount",
          "type": "uint256"
        }
      ],
      "name": "LockedValueNotZero",
      "type": "error"
    },
    {
      "inputs": [
        {
          "internalType": "address",
          "name": "account",
          "type": "address"
        },
        {
          "internalType": "uint256",
          "name": "maxUnlockTime",
          "type": "uint256"
        },
        {
          "internalType": "uint256",
          "name": "providedUnlockTime",
          "type": "uint256"
        }
      ],
      "name": "MaxUnlockTimeReached",
      "type": "error"
    },
    {
      "inputs": [
        {
          "internalType": "address",
          "name": "account",
          "type": "address"
        }
      ],
      "name": "NoValueLocked",
      "type": "error"
    },
    {
      "inputs": [
        {
          "internalType": "bytes32",
          "name": "account",
          "type": "bytes32"
        },
        {
          "internalType": "uint256",
          "name": "chainId",
          "type": "uint256"
        }
      ],
      "name": "NomineeAlreadyExists",
      "type": "error"
    },
    {
      "inputs": [
        {
          "internalType": "bytes32",
          "name": "account",
          "type": "bytes32"
        },
        {
          "internalType": "uint256",
          "name": "chainId",
          "type": "uint256"
        }
      ],
      "name": "NomineeDoesNotExist",
      "type": "error"
    },
    {
      "inputs": [
        {
          "internalType": "bytes32",
          "name": "account",
          "type": "bytes32"
        },
        {
          "internalType": "uint256",
          "name": "chainId",
          "type": "uint256"
        }
      ],
      "name": "NomineeNotRemoved",
      "type": "error"
    },
    {
      "inputs": [
        {
          "internalType": "bytes32",
          "name": "account",
          "type": "bytes32"
        },
        {
          "internalType": "uint256",
          "name": "chainId",
          "type": "uint256"
        }
      ],
      "name": "NomineeRemoved",
      "type": "error"
    },
    {
      "inputs": [
        {
          "internalType": "address",
          "name": "account",
          "type": "address"
        }
      ],
      "name": "NonDelegatable",
      "type": "error"
    },
    {
      "inputs": [
        {
          "internalType": "address",
          "name": "account",
          "type": "address"
        }
      ],
      "name": "NonTransferable",
      "type": "error"
    },
    {
      "inputs": [],
      "name": "NonZeroValue",
      "type": "error"
    },
    {
      "inputs": [
        {
          "internalType": "uint256",
          "name": "provided",
          "type": "uint256"
        },
        {
          "internalType": "uint256",
          "name": "max",
          "type": "uint256"
        }
      ],
      "name": "Overflow",
      "type": "error"
    },
    {
      "inputs": [
        {
          "internalType": "address",
          "name": "sender",
          "type": "address"
        },
        {
          "internalType": "address",
          "name": "owner",
          "type": "address"
        }
      ],
      "name": "OwnerOnly",
      "type": "error"
    },
    {
      "inputs": [
        {
          "internalType": "uint256",
          "name": "provided",
          "type": "uint256"
        },
        {
          "internalType": "uint256",
          "name": "expected",
          "type": "uint256"
        }
      ],
      "name": "Underflow",
      "type": "error"
    },
    {
      "inputs": [
        {
          "internalType": "address",
          "name": "account",
          "type": "address"
        },
        {
          "internalType": "uint256",
          "name": "minUnlockTime",
          "type": "uint256"
        },
        {
          "internalType": "uint256",
          "name": "providedUnlockTime",
          "type": "uint256"
        }
      ],
      "name": "UnlockTimeIncorrect",
      "type": "error"
    },
    {
      "inputs": [
        {
          "internalType": "address",
          "name": "voter",
          "type": "address"
        },
        {
          "internalType": "uint256",
          "name": "curTime",
          "type": "uint256"
        },
        {
          "internalType": "uint256",
          "name": "nextAllowedVotingTime",
          "type": "uint256"
        }
      ],
      "name": "VoteTooOften",
      "type": "error"
    },
    {
      "inputs": [
        {
          "internalType": "uint256",
          "name": "numValues1",
          "type": "uint256"
        },
        {
          "internalType": "uint256",
          "name": "numValues2",
          "type": "uint256"
        }
      ],
      "name": "WrongArrayLength",
      "type": "error"
    },
    {
      "inputs": [
        {
          "internalType": "uint256",
          "name": "providedBlockNumber",
          "type": "uint256"
        },
        {
          "internalType": "uint256",
          "name": "actualBlockNumber",
          "type": "uint256"
        }
      ],
      "name": "WrongBlockNumber",
      "type": "error"
    },
    {
      "inputs": [],
      "name": "ZeroAddress",
      "type": "error"
    },
    {
      "inputs": [],
      "name": "ZeroValue",
      "type": "error"
    },
    {
      "anonymous": false,
      "inputs": [
        {
          "indexed": true,
          "internalType": "bytes32",
          "name": "account",
          "type": "bytes32"
        },
        {
          "indexed": false,
          "internalType": "uint256",
          "name": "chainId",
          "type": "uint256"
        },
        {
          "indexed": false,
          "internalType": "uint256",
          "name": "id",
          "type": "uint256"
        }
      ],
      "name": "AddNominee",
      "type": "event"
    },
    {
      "anonymous": false,
      "inputs": [
        {
          "indexed": true,
          "internalType": "address",
          "name": "owner",
          "type": "address"
        }
      ],
      "name": "OwnerUpdated",
      "type": "event"
    },
    {
      "anonymous": false,
      "inputs": [
        {
          "indexed": true,
          "internalType": "bytes32",
          "name": "account",
          "type": "bytes32"
        },
        {
          "indexed": false,
          "internalType": "uint256",
          "name": "chainId",
          "type": "uint256"
        },
        {
          "indexed": false,
          "internalType": "uint256",
          "name": "newSum",
          "type": "uint256"
        }
      ],
      "name": "RemoveNominee",
      "type": "event"
    },
    {
      "anonymous": false,
      "inputs": [
        {
          "indexed": true,
          "internalType": "address",
          "name": "user",
          "type": "address"
        },
        {
          "indexed": true,
          "internalType": "bytes32",
          "name": "nominee",
          "type": "bytes32"
        },
        {
          "indexed": false,
          "internalType": "uint256",
          "name": "chainId",
          "type": "uint256"
        },
        {
          "indexed": false,
          "internalType": "uint256",
          "name": "weight",
          "type": "uint256"
        }
      ],
      "name": "VoteForNominee",
      "type": "event"
    },
    {
      "inputs": [],
      "name": "MAX_EVM_CHAIN_ID",
      "outputs": [
        {
          "internalType": "uint256",
          "name": "",
          "type": "uint256"
        }
      ],
      "stateMutability": "view",
      "type": "function"
    },
    {
      "inputs": [],
      "name": "MAX_WEIGHT",
      "outputs": [
        {
          "internalType": "uint256",
          "name": "",
          "type": "uint256"
        }
      ],
      "stateMutability": "view",
      "type": "function"
    },
    {
      "inputs": [],
      "name": "WEEK",
      "outputs": [
        {
          "internalType": "uint256",
          "name": "",
          "type": "uint256"
        }
      ],
      "stateMutability": "view",
      "type": "function"
    },
    {
      "inputs": [],
      "name": "WEIGHT_VOTE_DELAY",
      "outputs": [
        {
          "internalType": "uint256",
          "name": "",
          "type": "uint256"
        }
      ],
      "stateMutability": "view",
      "type": "function"
    },
    {
      "inputs": [
        {
          "internalType": "address",
          "name": "account",
          "type": "address"
        },
        {
          "internalType": "uint256",
          "name": "chainId",
          "type": "uint256"
        }
      ],
      "name": "addNomineeEVM",
      "outputs": [],
      "stateMutability": "nonpayable",
      "type": "function"
    },
    {
      "inputs": [
        {
          "internalType": "bytes32",
          "name": "account",
          "type": "bytes32"
        },
        {
          "internalType": "uint256",
          "name": "chainId",
          "type": "uint256"
        }
      ],
      "name": "addNomineeNonEVM",
      "outputs": [],
      "stateMutability": "nonpayable",
      "type": "function"
    },
    {
      "inputs": [
        {
          "internalType": "address",
          "name": "newDispenser",
          "type": "address"
        }
      ],
      "name": "changeDispenser",
      "outputs": [],
      "stateMutability": "nonpayable",
      "type": "function"
    },
    {
      "inputs": [
        {
          "internalType": "address",
          "name": "newOwner",
          "type": "address"
        }
      ],
      "name": "changeOwner",
      "outputs": [],
      "stateMutability": "nonpayable",
      "type": "function"
    },
    {
      "inputs": [
        {
          "internalType": "uint256",
          "name": "",
          "type": "uint256"
        }
      ],
      "name": "changesSum",
      "outputs": [
        {
          "internalType": "uint256",
          "name": "",
          "type": "uint256"
        }
      ],
      "stateMutability": "view",
      "type": "function"
    },
    {
      "inputs": [
        {
          "internalType": "bytes32",
          "name": "",
          "type": "bytes32"
        },
        {
          "internalType": "uint256",
          "name": "",
          "type": "uint256"
        }
      ],
      "name": "changesWeight",
      "outputs": [
        {
          "internalType": "uint256",
          "name": "",
          "type": "uint256"
        }
      ],
      "stateMutability": "view",
      "type": "function"
    },
    {
      "inputs": [],
      "name": "checkpoint",
      "outputs": [],
      "stateMutability": "nonpayable",
      "type": "function"
    },
    {
      "inputs": [
        {
          "internalType": "bytes32",
          "name": "account",
          "type": "bytes32"
        },
        {
          "internalType": "uint256",
          "name": "chainId",
          "type": "uint256"
        }
      ],
      "name": "checkpointNominee",
      "outputs": [],
      "stateMutability": "nonpayable",
      "type": "function"
    },
    {
      "inputs": [],
      "name": "dispenser",
      "outputs": [
        {
          "internalType": "address",
          "name": "",
          "type": "address"
        }
      ],
      "stateMutability": "view",
      "type": "function"
    },
    {
      "inputs": [],
      "name": "getAllNominees",
      "outputs": [
        {
          "components": [
            {
              "internalType": "bytes32",
              "name": "account",
              "type": "bytes32"
            },
            {
              "internalType": "uint256",
              "name": "chainId",
              "type": "uint256"
            }
          ],
          "internalType": "struct Nominee[]",
          "name": "nominees",
          "type": "tuple[]"
        }
      ],
      "stateMutability": "view",
      "type": "function"
    },
    {
      "inputs": [
        {
          "internalType": "bytes32[]",
          "name": "accounts",
          "type": "bytes32[]"
        },
        {
          "internalType": "uint256[]",
          "name": "chainIds",
          "type": "uint256[]"
        },
        {
          "internalType": "address[]",
          "name": "voters",
          "type": "address[]"
        }
      ],
      "name": "getNextAllowedVotingTimes",
      "outputs": [
        {
          "internalType": "uint256[]",
          "name": "nextAllowedVotingTimes",
          "type": "uint256[]"
        }
      ],
      "stateMutability": "view",
      "type": "function"
    },
    {
      "inputs": [
        {
          "internalType": "uint256",
          "name": "id",
          "type": "uint256"
        }
      ],
      "name": "getNominee",
      "outputs": [
        {
          "components": [
            {
              "internalType": "bytes32",
              "name": "account",
              "type": "bytes32"
            },
            {
              "internalType": "uint256",
              "name": "chainId",
              "type": "uint256"
            }
          ],
          "internalType": "struct Nominee",
          "name": "nominee",
          "type": "tuple"
        }
      ],
      "stateMutability": "view",
      "type": "function"
    },
    {
      "inputs": [
        {
          "internalType": "bytes32",
          "name": "account",
          "type": "bytes32"
        },
        {
          "internalType": "uint256",
          "name": "chainId",
          "type": "uint256"
        }
      ],
      "name": "getNomineeId",
      "outputs": [
        {
          "internalType": "uint256",
          "name": "id",
          "type": "uint256"
        }
      ],
      "stateMutability": "view",
      "type": "function"
    },
    {
      "inputs": [
        {
          "internalType": "bytes32",
          "name": "account",
          "type": "bytes32"
        },
        {
          "internalType": "uint256",
          "name": "chainId",
          "type": "uint256"
        }
      ],
      "name": "getNomineeWeight",
      "outputs": [
        {
          "internalType": "uint256",
          "name": "",
          "type": "uint256"
        }
      ],
      "stateMutability": "view",
      "type": "function"
    },
    {
      "inputs": [
        {
          "internalType": "uint256",
          "name": "startId",
          "type": "uint256"
        },
        {
          "internalType": "uint256",
          "name": "numNominees",
          "type": "uint256"
        }
      ],
      "name": "getNominees",
      "outputs": [
        {
          "components": [
            {
              "internalType": "bytes32",
              "name": "account",
              "type": "bytes32"
            },
            {
              "internalType": "uint256",
              "name": "chainId",
              "type": "uint256"
            }
          ],
          "internalType": "struct Nominee[]",
          "name": "nominees",
          "type": "tuple[]"
        }
      ],
      "stateMutability": "view",
      "type": "function"
    },
    {
      "inputs": [],
      "name": "getNumNominees",
      "outputs": [
        {
          "internalType": "uint256",
          "name": "",
          "type": "uint256"
        }
      ],
      "stateMutability": "view",
      "type": "function"
    },
    {
      "inputs": [],
      "name": "getWeightsSum",
      "outputs": [
        {
          "internalType": "uint256",
          "name": "",
          "type": "uint256"
        }
      ],
      "stateMutability": "view",
      "type": "function"
    },
    {
      "inputs": [
        {
          "internalType": "address",
          "name": "",
          "type": "address"
        },
        {
          "internalType": "bytes32",
          "name": "",
          "type": "bytes32"
        }
      ],
      "name": "lastUserVote",
      "outputs": [
        {
          "internalType": "uint256",
          "name": "",
          "type": "uint256"
        }
      ],
      "stateMutability": "view",
      "type": "function"
    },
    {
      "inputs": [
        {
          "internalType": "bytes32",
          "name": "",
          "type": "bytes32"
        }
      ],
      "name": "mapNomineeIds",
      "outputs": [
        {
          "internalType": "uint256",
          "name": "",
          "type": "uint256"
        }
      ],
      "stateMutability": "view",
      "type": "function"
    },
    {
      "inputs": [
        {
          "internalType": "bytes32",
          "name": "",
          "type": "bytes32"
        }
      ],
      "name": "mapRemovedNominees",
      "outputs": [
        {
          "internalType": "bool",
          "name": "",
          "type": "bool"
        }
      ],
      "stateMutability": "view",
      "type": "function"
    },
    {
      "inputs": [
        {
          "internalType": "bytes32",
          "name": "account",
          "type": "bytes32"
        },
        {
          "internalType": "uint256",
          "name": "chainId",
          "type": "uint256"
        },
        {
          "internalType": "uint256",
          "name": "time",
          "type": "uint256"
        }
      ],
      "name": "nomineeRelativeWeight",
      "outputs": [
        {
          "internalType": "uint256",
          "name": "weight",
          "type": "uint256"
        },
        {
          "internalType": "uint256",
          "name": "totalSum",
          "type": "uint256"
        }
      ],
      "stateMutability": "view",
      "type": "function"
    },
    {
      "inputs": [
        {
          "internalType": "bytes32",
          "name": "account",
          "type": "bytes32"
        },
        {
          "internalType": "uint256",
          "name": "chainId",
          "type": "uint256"
        },
        {
          "internalType": "uint256",
          "name": "time",
          "type": "uint256"
        }
      ],
      "name": "nomineeRelativeWeightWrite",
      "outputs": [
        {
          "internalType": "uint256",
          "name": "weight",
          "type": "uint256"
        },
        {
          "internalType": "uint256",
          "name": "totalSum",
          "type": "uint256"
        }
      ],
      "stateMutability": "nonpayable",
      "type": "function"
    },
    {
      "inputs": [],
      "name": "owner",
      "outputs": [
        {
          "internalType": "address",
          "name": "",
          "type": "address"
        }
      ],
      "stateMutability": "view",
      "type": "function"
    },
    {
      "inputs": [
        {
          "internalType": "uint256",
          "name": "",
          "type": "uint256"
        }
      ],
      "name": "pointsSum",
      "outputs": [
        {
          "internalType": "uint256",
          "name": "bias",
          "type": "uint256"
        },
        {
          "internalType": "uint256",
          "name": "slope",
          "type": "uint256"
        }
      ],
      "stateMutability": "view",
      "type": "function"
    },
    {
      "inputs": [
        {
          "internalType": "bytes32",
          "name": "",
          "type": "bytes32"
        },
        {
          "internalType": "uint256",
          "name": "",
          "type": "uint256"
        }
      ],
      "name": "pointsWeight",
      "outputs": [
        {
          "internalType": "uint256",
          "name": "bias",
          "type": "uint256"
        },
        {
          "internalType": "uint256",
          "name": "slope",
          "type": "uint256"
        }
      ],
      "stateMutability": "view",
      "type": "function"
    },
    {
      "inputs": [
        {
          "internalType": "bytes32",
          "name": "account",
          "type": "bytes32"
        },
        {
          "internalType": "uint256",
          "name": "chainId",
          "type": "uint256"
        }
      ],
      "name": "removeNominee",
      "outputs": [],
      "stateMutability": "nonpayable",
      "type": "function"
    },
    {
      "inputs": [
        {
          "internalType": "bytes32",
          "name": "account",
          "type": "bytes32"
        },
        {
          "internalType": "uint256",
          "name": "chainId",
          "type": "uint256"
        }
      ],
      "name": "retrieveRemovedNomineeVotingPower",
      "outputs": [],
      "stateMutability": "nonpayable",
      "type": "function"
    },
    {
      "inputs": [
        {
          "internalType": "uint256",
          "name": "",
          "type": "uint256"
        }
      ],
      "name": "setNominees",
      "outputs": [
        {
          "internalType": "bytes32",
          "name": "account",
          "type": "bytes32"
        },
        {
          "internalType": "uint256",
          "name": "chainId",
          "type": "uint256"
        }
      ],
      "stateMutability": "view",
      "type": "function"
    },
    {
      "inputs": [],
      "name": "timeSum",
      "outputs": [
        {
          "internalType": "uint256",
          "name": "",
          "type": "uint256"
        }
      ],
      "stateMutability": "view",
      "type": "function"
    },
    {
      "inputs": [
        {
          "internalType": "bytes32",
          "name": "",
          "type": "bytes32"
        }
      ],
      "name": "timeWeight",
      "outputs": [
        {
          "internalType": "uint256",
          "name": "",
          "type": "uint256"
        }
      ],
      "stateMutability": "view",
      "type": "function"
    },
    {
      "inputs": [],
      "name": "ve",
      "outputs": [
        {
          "internalType": "address",
          "name": "",
          "type": "address"
        }
      ],
      "stateMutability": "view",
      "type": "function"
    },
    {
      "inputs": [
        {
          "internalType": "bytes32",
          "name": "account",
          "type": "bytes32"
        },
        {
          "internalType": "uint256",
          "name": "chainId",
          "type": "uint256"
        },
        {
          "internalType": "uint256",
          "name": "weight",
          "type": "uint256"
        }
      ],
      "name": "voteForNomineeWeights",
      "outputs": [],
      "stateMutability": "nonpayable",
      "type": "function"
    },
    {
      "inputs": [
        {
          "internalType": "bytes32[]",
          "name": "accounts",
          "type": "bytes32[]"
        },
        {
          "internalType": "uint256[]",
          "name": "chainIds",
          "type": "uint256[]"
        },
        {
          "internalType": "uint256[]",
          "name": "weights",
          "type": "uint256[]"
        }
      ],
      "name": "voteForNomineeWeightsBatch",
      "outputs": [],
      "stateMutability": "nonpayable",
      "type": "function"
    },
    {
      "inputs": [
        {
          "internalType": "address",
          "name": "",
          "type": "address"
        }
      ],
      "name": "voteUserPower",
      "outputs": [
        {
          "internalType": "uint256",
          "name": "",
          "type": "uint256"
        }
      ],
      "stateMutability": "view",
      "type": "function"
    },
    {
      "inputs": [
        {
          "internalType": "address",
          "name": "",
          "type": "address"
        },
        {
          "internalType": "bytes32",
          "name": "",
          "type": "bytes32"
        }
      ],
      "name": "voteUserSlopes",
      "outputs": [
        {
          "internalType": "uint256",
          "name": "slope",
          "type": "uint256"
        },
        {
          "internalType": "uint256",
          "name": "power",
          "type": "uint256"
        },
        {
          "internalType": "uint256",
          "name": "end",
          "type": "uint256"
        }
      ],
      "stateMutability": "view",
      "type": "function"
    }
  ],
  "bytecode": "0x60a06040523480156200001157600080fd5b5060405162002ebf38038062002ebf833981016040819052620000349162000119565b6001600160a01b0381166200005c5760405163d92e233d60e01b815260040160405180910390fd5b600080546001600160a01b031916331790556001600160a01b03811660805262093a806200008b81426200014b565b6200009791906200016e565b600d55506040805180820190915260008082526020820181815260028054600181018255928190529251919092027f405787fa12a823e0f2b7631cc41b3ba8828b3321ca811111fa75cd3aa3bb5ace81019190915590517f405787fa12a823e0f2b7631cc41b3ba8828b3321ca811111fa75cd3aa3bb5acf909101556200019a565b6000602082840312156200012c57600080fd5b81516001600160a01b03811681146200014457600080fd5b9392505050565b6000826200016957634e487b7160e01b600052601260045260246000fd5b500490565b80820281158282048414176200019457634e487b7160e01b600052601160045260246000fd5b92915050565b608051612cfb620001c460003960008181610342015281816119ca0152611aaa0152612cfb6000f3fe608060405234801561001057600080fd5b50600436106102ac5760003560e01c806385556a951161017b578063c54dd0d4116100d8578063ec73d9061161008c578063f4359ce511610071578063f4359ce5146106c4578063f4da12ba146106ce578063f9572f7c146106d657600080fd5b8063ec73d90614610684578063f0cd64af146106a457600080fd5b8063dc87f536116100bd578063dc87f53614610630578063e09d894d1461065b578063e4a28a521461067b57600080fd5b8063c54dd0d41461060a578063c88d47f01461061d57600080fd5b8063a51248031161012f578063b174b41c11610114578063b174b41c146105bc578063beaf44e8146105ef578063c2c4c5c11461060257600080fd5b8063a5124803146105a1578063a6f9dae1146105a957600080fd5b80638e28764b116101605780638e28764b146105405780639d17505314610572578063a18f99ff1461059957600080fd5b806385556a95146104f55780638da5cb5b1461052057600080fd5b80634159703611610229578063609c6b87116101dd5780636b39ac1a116101c25780636b39ac1a146104af5780637a75b27e146104c25780637ee8bfe9146104e257600080fd5b8063609c6b87146104475780636a28a33c1461049c57600080fd5b8063456f09971161020e578063456f09971461042157806348264997146104345780634f6ffd071461043d57600080fd5b806341597036146103f75780634479b5cf1461040e57600080fd5b80631f8507161161028057806327ebf5311161026557806327ebf5311461039c5780632a53b2af146103bc5780633b766b3d146103cf57600080fd5b80631f8507161461033d57806326abaf241461038957600080fd5b806292a596146102b15780630c423201146102da5780631765ab7f146103085780631b98dd901461031d575b600080fd5b6102c46102bf36600461267c565b6106e9565b6040516102d1919061269e565b60405180910390f35b6102fa6102e83660046126f5565b600c6020526000908152604090205481565b6040519081526020016102d1565b61031b61031636600461267c565b610871565b005b6102fa61032b3660046126f5565b600a6020526000908152604090205481565b6103647f000000000000000000000000000000000000000000000000000000000000000081565b60405173ffffffffffffffffffffffffffffffffffffffff90911681526020016102d1565b61031b61039736600461281f565b610969565b6103af6103aa3660046126f5565b610a30565b6040516102d191906128a7565b61031b6103ca3660046128e7565b610b1e565b6103e26103dd3660046126f5565b610bd8565b604080519283526020830191909152016102d1565b600d546000908152600b60205260409020546102fa565b6102fa61041c36600461267c565b610c06565b6102fa61042f36600461267c565b610c8a565b6102fa600d5481565b6102fa620d2f0081565b610481610455366004612902565b600560209081526000928352604080842090915290825290208054600182015460029092015490919083565b604080519384526020840192909252908201526060016102d1565b61031b6104aa36600461267c565b610cfd565b61031b6104bd366004612902565b610ef1565b6104d56104d036600461292c565b611040565b6040516102d19190612a11565b6103e26104f0366004612a55565b611294565b6102fa610503366004612902565b600760209081526000928352604080842090915290825290205481565b6000546103649073ffffffffffffffffffffffffffffffffffffffff1681565b6103e261054e36600461267c565b60086020908152600092835260408084209091529082529020805460019091015482565b6103e26105803660046126f5565b600b602052600090815260409020805460019091015482565b6102fa6112c2565b6102c46112d9565b61031b6105b73660046128e7565b61134c565b6105df6105ca3660046126f5565b60046020526000908152604090205460ff1681565b60405190151581526020016102d1565b61031b6105fd36600461267c565b611479565b61031b61148c565b61031b61061836600461267c565b611497565b6103e261062b366004612a55565b6118ae565b6102fa61063e36600461267c565b600960209081526000928352604080842090915290825290205481565b6001546103649073ffffffffffffffffffffffffffffffffffffffff1681565b6102fa61271081565b6102fa6106923660046128e7565b60066020526000908152604090205481565b6102fa6106b23660046126f5565b60036020526000908152604090205481565b6102fa62093a8081565b6102fa6118bc565b61031b6106e4366004612a55565b6118e8565b60608215806106f6575081155b1561072d576040517f7c946ed700000000000000000000000000000000000000000000000000000000815260040160405180910390fd5b60006107398385612ab0565b60025490915080821115610788576040517f7ae5968500000000000000000000000000000000000000000000000000000000815260048101839052602481018290526044015b60405180910390fd5b8367ffffffffffffffff8111156107a1576107a161270e565b6040519080825280602002602001820160405280156107e657816020015b60408051808201909152600080825260208201528152602001906001900390816107bf5790505b50925060005b848110156108685760006108008783612ab0565b90506002818154811061081557610815612ac3565b90600052602060002090600202016040518060400160405290816000820154815260200160018201548152505085838151811061085457610854612ac3565b6020908102919091010152506001016107ec565b50505092915050565b816108a8576040517fd92e233d00000000000000000000000000000000000000000000000000000000815260040160405180910390fd5b8060246108be600267ffffffffffffffff612b21565b6108c89190612b48565b67ffffffffffffffff1610610947578060246108ed600267ffffffffffffffff612b21565b6108f79190612b48565b61090c9067ffffffffffffffff166001612ab0565b6040517fc076384b0000000000000000000000000000000000000000000000000000000081526004810192909252602482015260440161077f565b60408051808201909152828152602081018290526109648161201f565b505050565b8151835114158061097c57508051835114155b156109c057825181516040517f8151c1100000000000000000000000000000000000000000000000000000000081526004810192909252602482015260440161077f565b60005b8351811015610a2a57610a228482815181106109e1576109e1612ac3565b60200260200101518483815181106109fb576109fb612ac3565b6020026020010151848481518110610a1557610a15612ac3565b60200260200101516118e8565b6001016109c3565b50505050565b6040805180820190915260008082526020820152600254600090610a5690600190612b70565b905082600003610a92576040517f7c946ed700000000000000000000000000000000000000000000000000000000815260040160405180910390fd5b80831115610ad6576040517f7ae59685000000000000000000000000000000000000000000000000000000008152600481018490526024810182905260440161077f565b60028381548110610ae957610ae9612ac3565b906000526020600020906002020160405180604001604052908160008201548152602001600182015481525050915050919050565b60005473ffffffffffffffffffffffffffffffffffffffff163314610b91576000546040517fa43d6ada00000000000000000000000000000000000000000000000000000000815233600482015273ffffffffffffffffffffffffffffffffffffffff909116602482015260440161077f565b600180547fffffffffffffffffffffffff00000000000000000000000000000000000000001673ffffffffffffffffffffffffffffffffffffffff92909216919091179055565b60028181548110610be857600080fd5b60009182526020909120600290910201805460019091015490915082565b604080518082018252838152602080820184905291516000928391610c2d918491016128a7565b604080517fffffffffffffffffffffffffffffffffffffffffffffffffffffffffffffffe08184030181529181528151602092830120600090815260088352818120600a8452828220548252909252902054925050505b92915050565b604080518082018252838152602080820184905291516000928391610cb1918491016128a7565b604080517fffffffffffffffffffffffffffffffffffffffffffffffffffffffffffffffe081840301815291815281516020928301206000908152600390925290205495945050505050565b60006040518060400160405280848152602001838152509050600081604051602001610d2991906128a7565b604080517fffffffffffffffffffffffffffffffffffffffffffffffffffffffffffffffe081840301815291815281516020928301206000818152600490935291205490915060ff16610db2576040517fa43ec26f000000000000000000000000000000000000000000000000000000008152600481018590526024810184905260440161077f565b33600090815260056020908152604080832084845282528083208151606081018352815481526001820154938101849052600290910154918101919091529103610e28576040517f7c946ed700000000000000000000000000000000000000000000000000000000815260040160405180910390fd5b4281604001511115610e92578051600083815260096020908152604080832081860151845290915281208054909190610e62908490612b70565b909155505080516040808301516000908152600c6020529081208054909190610e8c908490612b70565b90915550505b3360009081526006602090815260409091205490820151610eb39082612b70565b336000908152600660209081526040808320939093556005815282822095825294909452832083815560018101849055600201929092555050505050565b73ffffffffffffffffffffffffffffffffffffffff8216610f3e576040517fd92e233d00000000000000000000000000000000000000000000000000000000815260040160405180910390fd5b80600003610f78576040517f7c946ed700000000000000000000000000000000000000000000000000000000815260040160405180910390fd5b6024610f8d600267ffffffffffffffff612b21565b610f979190612b48565b67ffffffffffffffff1681111561100d57806024610fbe600267ffffffffffffffff612b21565b610fc89190612b48565b6040517f7ae59685000000000000000000000000000000000000000000000000000000008152600481019290925267ffffffffffffffff16602482015260440161077f565b6040805180820190915273ffffffffffffffffffffffffffffffffffffffff83168152602081018290526109648161201f565b60608251845114158061105557508151845114155b1561109957835183516040517f8151c1100000000000000000000000000000000000000000000000000000000081526004810192909252602482015260440161077f565b835167ffffffffffffffff8111156110b3576110b361270e565b6040519080825280602002602001820160405280156110dc578160200160208202803683370190505b50905060005b845181101561128c576000604051806040016040528087848151811061110a5761110a612ac3565b6020026020010151815260200186848151811061112957611129612ac3565b6020026020010151815250905060008160405160200161114991906128a7565b60405160208183030381529060405280519060200120905060036000828152602001908152602001600020546000036111ed5786838151811061118e5761118e612ac3565b60200260200101518684815181106111a8576111a8612ac3565b60200260200101516040517f31b05a8000000000000000000000000000000000000000000000000000000000815260040161077f929190918252602082015260400190565b620d2f006007600087868151811061120757611207612ac3565b602002602001015173ffffffffffffffffffffffffffffffffffffffff1673ffffffffffffffffffffffffffffffffffffffff1681526020019081526020016000206000838152602001908152602001600020546112659190612ab0565b84848151811061127757611277612ac3565b602090810291909101015250506001016110e2565b509392505050565b6000806112a185856122ac565b506112aa6124a1565b506112b68585856125a1565b90969095509350505050565b6002546000906112d490600190612b70565b905090565b60606002805480602002602001604051908101604052809291908181526020016000905b82821015611343578382906000526020600020906002020160405180604001604052908160008201548152602001600182015481525050815260200190600101906112fd565b50505050905090565b60005473ffffffffffffffffffffffffffffffffffffffff1633146113bf576000546040517fa43d6ada00000000000000000000000000000000000000000000000000000000815233600482015273ffffffffffffffffffffffffffffffffffffffff909116602482015260440161077f565b73ffffffffffffffffffffffffffffffffffffffff811661140c576040517fd92e233d00000000000000000000000000000000000000000000000000000000815260040160405180910390fd5b600080547fffffffffffffffffffffffff00000000000000000000000000000000000000001673ffffffffffffffffffffffffffffffffffffffff8316908117825560405190917f4ffd725fc4a22075e9ec71c59edf9c38cdeb588a91b24fc5b61388c5be41282b91a250565b61148382826122ac565b506109646124a1565b6114946124a1565b50565b60005473ffffffffffffffffffffffffffffffffffffffff16331461150a576000546040517fa43d6ada00000000000000000000000000000000000000000000000000000000815273ffffffffffffffffffffffffffffffffffffffff909116600482015233602482015260440161077f565b6000604051806040016040528084815260200183815250905060008160405160200161153691906128a7565b604080517fffffffffffffffffffffffffffffffffffffffffffffffffffffffffffffffe081840301815291815281516020928301206000818152600390935290822054909250908190036115c1576040517f31b05a80000000000000000000000000000000000000000000000000000000008152600481018690526024810185905260440161077f565b60006115cd86866122ac565b905060006115d96124a1565b9050600062093a80806115ec8142612ab0565b6115f69190612b83565b6116009190612b97565b60008681526008602090815260408083208484528252808320839055888352600a90915281208290559091506116368484612b70565b6000838152600b60209081526040808320849055600d8690558983526004909152902080547fffffffffffffffffffffffffffffffffffffffffffffffffffffffffffffff001660019081179091555490915073ffffffffffffffffffffffffffffffffffffffff168015611726576040517f63c4d28e0000000000000000000000000000000000000000000000000000000081526004810188905273ffffffffffffffffffffffffffffffffffffffff8216906363c4d28e90602401600060405180830381600087803b15801561170d57600080fd5b505af1158015611721573d6000803e3d6000fd5b505050505b6000878152600360205260408120556002805461174590600190612b70565b8154811061175557611755612ac3565b600091825260209182902060408051808201825260029093029091018054835260010154828401525190995061178d918a91016128a7565b604080517fffffffffffffffffffffffffffffffffffffffffffffffffffffffffffffffe08184030181529181528151602092830120600081815260039093529120879055600280549198508991889081106117eb576117eb612ac3565b90600052602060002090600202016000820151816000015560208201518160010155905050600280548061182157611821612bae565b60008281526020812060027fffffffffffffffffffffffffffffffffffffffffffffffffffffffffffffffff909301928302018181556001015590556040518a907f30b83ce9dbee69f017e7059540e314cdce9e25b2288840cfe65ca96c2d7bab069061189a908c908690918252602082015260400190565b60405180910390a250505050505050505050565b6000806112b68585856125a1565b60246118d1600267ffffffffffffffff612b21565b6118db9190612b48565b67ffffffffffffffff1681565b600060405180604001604052808581526020018481525060405160200161190f91906128a7565b604080517fffffffffffffffffffffffffffffffffffffffffffffffffffffffffffffffe081840301815291815281516020928301206000818152600490935291205490915060ff1615611999576040517ffcd19b5d000000000000000000000000000000000000000000000000000000008152600481018590526024810184905260440161077f565b6040517fc4698ee50000000000000000000000000000000000000000000000000000000081523360048201526000907f000000000000000000000000000000000000000000000000000000000000000073ffffffffffffffffffffffffffffffffffffffff169063c4698ee59060240160a060405180830381865afa158015611a26573d6000803e3d6000fd5b505050506040513d601f19601f82011682018060405250810190611a4a9190612c07565b602001516040517f4deafcae0000000000000000000000000000000000000000000000000000000081523360048201526fffffffffffffffffffffffffffffffff909116915060009073ffffffffffffffffffffffffffffffffffffffff7f00000000000000000000000000000000000000000000000000000000000000001690634deafcae90602401602060405180830381865afa158015611af1573d6000803e3d6000fd5b505050506040513d601f19601f82011682018060405250810190611b159190612cac565b9050600062093a8080611b288142612ab0565b611b329190612b83565b611b3c9190612b97565b9050818110611b87576040517fd78507e1000000000000000000000000000000000000000000000000000000008152336004820152602481018390526044810182905260640161077f565b612710851115611bce576040517f7ae5968500000000000000000000000000000000000000000000000000000000815260048101869052612710602482015260440161077f565b336000908152600760209081526040808320878452909152812054611bf790620d2f0090612ab0565b905042811115611c42576040517f176017650000000000000000000000000000000000000000000000000000000081523360048201524260248201526044810182905260640161077f565b336000908152600560209081526040808320888452825280832081516060810183528154815260018201549381019390935260020154908201819052909190841015611ca757838260400151611c989190612b70565b8251611ca49190612b97565b90505b600060405180606001604052806127108b8a611cc39190612b97565b611ccd9190612b83565b8152602081018b905260400187905290506000611cea8688612b70565b8251611cf69190612b97565b33600090815260066020908152604090912054868201519185015192935091611d1f9083612ab0565b611d299190612b70565b3360009081526006602052604090208190559050612710811115611d84576040517f7ae5968500000000000000000000000000000000000000000000000000000000815260048101829052612710602482015260440161077f565b611da282611d928f8f6122ac565b611d9c9190612ab0565b8561265b565b60008b81526008602090815260408083208b8452909152902055611dc882611d926124a1565b6000888152600b60205260409081902091909155850151871015611e6d57825160008b81526008602090815260408083208b8452909152902060010154611e1991611e1291612ab0565b865161265b565b60008b81526008602090815260408083208b845282528083206001908101949094558651600b90925290912090910154611e5691611e1291612ab0565b6000888152600b6020526040902060010155611ec9565b825160008b81526008602090815260408083208b845290915281206001018054909190611e9b908490612ab0565b909155505082516000888152600b602052604081206001018054909190611ec3908490612ab0565b90915550505b4285604001511115611f3357845160008b8152600960209081526040808320818a0151845290915281208054909190611f03908490612b70565b909155505084516040808701516000908152600c6020529081208054909190611f2d908490612b70565b90915550505b825160008b815260096020908152604080832081880151845290915281208054909190611f61908490612ab0565b909155505082516040808501516000908152600c6020529081208054909190611f8b908490612ab0565b90915550503360008181526005602090815260408083208e845282528083208751815582880151600182015581880151600290910155838352600782528083208e845282529182902042905581518f81529081018e90528f92917f4e44aa6a7d9639e4546a021e5baf51f7aae3bcd1f96e0f5f26880d6834b737ee910160405180910390a350505050505050505050505050565b60008160405160200161203291906128a7565b604080517fffffffffffffffffffffffffffffffffffffffffffffffffffffffffffffffe0818403018152918152815160209283012060008181526003909352912054909150156120bf57815160208301516040517f5855e2480000000000000000000000000000000000000000000000000000000081526004810192909252602482015260440161077f565b60008181526004602052604090205460ff161561211857815160208301516040517ffcd19b5d0000000000000000000000000000000000000000000000000000000081526004810192909252602482015260440161077f565b600280546000838152600360209081526040822083905560018301845583825285517f405787fa12a823e0f2b7631cc41b3ba8828b3321ca811111fa75cd3aa3bb5ace948402948501558501517f405787fa12a823e0f2b7631cc41b3ba8828b3321ca811111fa75cd3aa3bb5acf909301929092559062093a808061219d8142612ab0565b6121a79190612b83565b6121b19190612b97565b6000848152600a6020526040902081905560015490915073ffffffffffffffffffffffffffffffffffffffff168015612265576040517f03e510200000000000000000000000000000000000000000000000000000000081526004810185905273ffffffffffffffffffffffffffffffffffffffff8216906303e5102090602401600060405180830381600087803b15801561224c57600080fd5b505af1158015612260573d6000803e3d6000fd5b505050505b8451602080870151604080519182529181018690527fe990f780082e9ce1c98e6c3b814d9885dd1772962a49213d96b58a946819a565910160405180910390a25050505050565b6040805180820182528381526020808201849052915160009283916122d3918491016128a7565b604080517fffffffffffffffffffffffffffffffffffffffffffffffffffffffffffffffe081840301815291815281516020928301206000818152600490935291205490915060ff161580156123355750600081815260036020526040902054155b15612376576040517f31b05a80000000000000000000000000000000000000000000000000000000008152600481018690526024810185905260440161077f565b6000818152600a6020908152604080832054600883528184208185528352818420825180840190935280548352600101549282019290925290915b6101f481101561249557428311612495576123cf62093a8084612ab0565b9250600062093a8083602001516123e69190612b97565b905080836000015111156124405780836000018181516124069190612b70565b90525060008581526009602090815260408083208784528252909120549084018051829190612436908390612b70565b90525061244b9050565b600080845260208401525b6000858152600860209081526040808320878452825290912084518155908401516001909101554284111561248c576000858152600a602052604090208490555b506001016123b1565b50519695505050505050565b600d546000818152600b602090815260408083208151808301909252805482526001015491810191909152909190825b6101f481101561259957428311612599576124ef62093a8084612ab0565b9250600062093a8083602001516125069190612b97565b905080836000015111156125585780836000018181516125269190612b70565b9052506000848152600c6020908152604090912054908401805182919061254e908390612b70565b9052506125639050565b600080845260208401525b6000848152600b6020908152604090912084518155908401516001909101554284111561259057600d8490555b506001016124d1565b505192915050565b6000808062093a806125b38186612b83565b6125bd9190612b97565b6000818152600b6020908152604080832054815180830183528b81528084018b90529151909650939450926125f4918491016128a7565b60405160208183030381529060405280519060200120905060008411156126505760008181526008602090815260408083208684529091529020548461264282670de0b6b3a7640000612b97565b61264c9190612b83565b9550505b505050935093915050565b600081831161266b576000612675565b6126758284612b70565b9392505050565b6000806040838503121561268f57600080fd5b50508035926020909101359150565b602080825282518282018190526000919060409081850190868401855b828110156126e8576126d884835180518252602090810151910152565b92840192908501906001016126bb565b5091979650505050505050565b60006020828403121561270757600080fd5b5035919050565b7f4e487b7100000000000000000000000000000000000000000000000000000000600052604160045260246000fd5b604051601f82017fffffffffffffffffffffffffffffffffffffffffffffffffffffffffffffffe016810167ffffffffffffffff811182821017156127845761278461270e565b604052919050565b600067ffffffffffffffff8211156127a6576127a661270e565b5060051b60200190565b600082601f8301126127c157600080fd5b813560206127d66127d18361278c565b61273d565b8083825260208201915060208460051b8701019350868411156127f857600080fd5b602086015b8481101561281457803583529183019183016127fd565b509695505050505050565b60008060006060848603121561283457600080fd5b833567ffffffffffffffff8082111561284c57600080fd5b612858878388016127b0565b9450602086013591508082111561286e57600080fd5b61287a878388016127b0565b9350604086013591508082111561289057600080fd5b5061289d868287016127b0565b9150509250925092565b815181526020808301519082015260408101610c84565b803573ffffffffffffffffffffffffffffffffffffffff811681146128e257600080fd5b919050565b6000602082840312156128f957600080fd5b612675826128be565b6000806040838503121561291557600080fd5b61291e836128be565b946020939093013593505050565b60008060006060848603121561294157600080fd5b833567ffffffffffffffff8082111561295957600080fd5b612965878388016127b0565b945060209150818601358181111561297c57600080fd5b612988888289016127b0565b94505060408601358181111561299d57600080fd5b86019050601f810187136129b057600080fd5b80356129be6127d18261278c565b81815260059190911b820183019083810190898311156129dd57600080fd5b928401925b82841015612a02576129f3846128be565b825292840192908401906129e2565b80955050505050509250925092565b6020808252825182820181905260009190848201906040850190845b81811015612a4957835183529284019291840191600101612a2d565b50909695505050505050565b600080600060608486031215612a6a57600080fd5b505081359360208301359350604090920135919050565b7f4e487b7100000000000000000000000000000000000000000000000000000000600052601160045260246000fd5b80820180821115610c8457610c84612a81565b7f4e487b7100000000000000000000000000000000000000000000000000000000600052603260045260246000fd5b7f4e487b7100000000000000000000000000000000000000000000000000000000600052601260045260246000fd5b600067ffffffffffffffff80841680612b3c57612b3c612af2565b92169190910492915050565b67ffffffffffffffff828116828216039080821115612b6957612b69612a81565b5092915050565b81810381811115610c8457610c84612a81565b600082612b9257612b92612af2565b500490565b8082028115828204841417610c8457610c84612a81565b7f4e487b7100000000000000000000000000000000000000000000000000000000600052603160045260246000fd5b8051600f81900b81146128e257600080fd5b805167ffffffffffffffff811681146128e257600080fd5b600060a08284031215612c1957600080fd5b60405160a0810181811067ffffffffffffffff82111715612c3c57612c3c61270e565b604052612c4883612bdd565b8152612c5660208401612bdd565b6020820152612c6760408401612bef565b6040820152612c7860608401612bef565b606082015260808301516fffffffffffffffffffffffffffffffff81168114612ca057600080fd5b60808201529392505050565b600060208284031215612cbe57600080fd5b505191905056fea26469706673582212207ff2d3fd628521fd4b80fb77475677c5118e40eda5abb526b328f5da06c8703564736f6c63430008170033",
  "linkReferences": {},
  "deployedLinkReferences": {}
}