{
  "_format": "hh-sol-artifact-1",
  "contractName": "VoteWeighting",
  "sourceName": "contracts/VoteWeighting.sol",
  "abi": [
    {
      "inputs": [
        {
          "internalType": "address",
          "name": "_ve",
          "type": "address"
        }
      ],
      "stateMutability": "nonpayable",
      "type": "constructor"
    },
    {
      "inputs": [
        {
          "internalType": "uint256",
          "name": "provided",
          "type": "uint256"
        },
        {
          "internalType": "uint256",
          "name": "expected",
          "type": "uint256"
        }
      ],
      "name": "InsufficientAllowance",
      "type": "error"
    },
    {
      "inputs": [
        {
          "internalType": "address",
          "name": "account",
          "type": "address"
        },
        {
          "internalType": "uint256",
          "name": "deadline",
          "type": "uint256"
        },
        {
          "internalType": "uint256",
          "name": "curTime",
          "type": "uint256"
        }
      ],
      "name": "LockExpired",
      "type": "error"
    },
    {
      "inputs": [
        {
          "internalType": "address",
          "name": "account",
          "type": "address"
        },
        {
          "internalType": "uint256",
          "name": "deadline",
          "type": "uint256"
        },
        {
          "internalType": "uint256",
          "name": "curTime",
          "type": "uint256"
        }
      ],
      "name": "LockNotExpired",
      "type": "error"
    },
    {
      "inputs": [
        {
          "internalType": "address",
          "name": "account",
          "type": "address"
        },
        {
          "internalType": "uint256",
          "name": "amount",
          "type": "uint256"
        }
      ],
      "name": "LockedValueNotZero",
      "type": "error"
    },
    {
      "inputs": [
        {
          "internalType": "address",
          "name": "account",
          "type": "address"
        },
        {
          "internalType": "uint256",
          "name": "maxUnlockTime",
          "type": "uint256"
        },
        {
          "internalType": "uint256",
          "name": "providedUnlockTime",
          "type": "uint256"
        }
      ],
      "name": "MaxUnlockTimeReached",
      "type": "error"
    },
    {
      "inputs": [
        {
          "internalType": "address",
          "name": "account",
          "type": "address"
        }
      ],
      "name": "NoValueLocked",
      "type": "error"
    },
    {
      "inputs": [
        {
          "internalType": "bytes32",
          "name": "account",
          "type": "bytes32"
        },
        {
          "internalType": "uint256",
          "name": "chainId",
          "type": "uint256"
        }
      ],
      "name": "NomineeAlreadyExists",
      "type": "error"
    },
    {
      "inputs": [
        {
          "internalType": "bytes32",
          "name": "account",
          "type": "bytes32"
        },
        {
          "internalType": "uint256",
          "name": "chainId",
          "type": "uint256"
        }
      ],
      "name": "NomineeDoesNotExist",
      "type": "error"
    },
    {
      "inputs": [
        {
          "internalType": "address",
          "name": "account",
          "type": "address"
        }
      ],
      "name": "NonDelegatable",
      "type": "error"
    },
    {
      "inputs": [
        {
          "internalType": "address",
          "name": "account",
          "type": "address"
        }
      ],
      "name": "NonTransferable",
      "type": "error"
    },
    {
      "inputs": [],
      "name": "NonZeroValue",
      "type": "error"
    },
    {
      "inputs": [
        {
          "internalType": "uint256",
          "name": "provided",
          "type": "uint256"
        },
        {
          "internalType": "uint256",
          "name": "max",
          "type": "uint256"
        }
      ],
      "name": "Overflow",
      "type": "error"
    },
    {
      "inputs": [
        {
          "internalType": "address",
          "name": "sender",
          "type": "address"
        },
        {
          "internalType": "address",
          "name": "owner",
          "type": "address"
        }
      ],
      "name": "OwnerOnly",
      "type": "error"
    },
    {
      "inputs": [
        {
          "internalType": "uint256",
          "name": "provided",
          "type": "uint256"
        },
        {
          "internalType": "uint256",
          "name": "expected",
          "type": "uint256"
        }
      ],
      "name": "Underflow",
      "type": "error"
    },
    {
      "inputs": [
        {
          "internalType": "address",
          "name": "account",
          "type": "address"
        },
        {
          "internalType": "uint256",
          "name": "minUnlockTime",
          "type": "uint256"
        },
        {
          "internalType": "uint256",
          "name": "providedUnlockTime",
          "type": "uint256"
        }
      ],
      "name": "UnlockTimeIncorrect",
      "type": "error"
    },
    {
      "inputs": [
        {
          "internalType": "address",
          "name": "voter",
          "type": "address"
        },
        {
          "internalType": "uint256",
          "name": "curTime",
          "type": "uint256"
        },
        {
          "internalType": "uint256",
          "name": "nextAllowedVotingTime",
          "type": "uint256"
        }
      ],
      "name": "VoteTooOften",
      "type": "error"
    },
    {
      "inputs": [
        {
          "internalType": "uint256",
          "name": "numValues1",
          "type": "uint256"
        },
        {
          "internalType": "uint256",
          "name": "numValues2",
          "type": "uint256"
        }
      ],
      "name": "WrongArrayLength",
      "type": "error"
    },
    {
      "inputs": [
        {
          "internalType": "uint256",
          "name": "providedBlockNumber",
          "type": "uint256"
        },
        {
          "internalType": "uint256",
          "name": "actualBlockNumber",
          "type": "uint256"
        }
      ],
      "name": "WrongBlockNumber",
      "type": "error"
    },
    {
      "inputs": [],
      "name": "ZeroAddress",
      "type": "error"
    },
    {
      "inputs": [],
      "name": "ZeroValue",
      "type": "error"
    },
    {
      "anonymous": false,
      "inputs": [
        {
          "indexed": true,
          "internalType": "bytes32",
          "name": "account",
          "type": "bytes32"
        },
        {
          "indexed": false,
          "internalType": "uint256",
          "name": "chainId",
          "type": "uint256"
        },
        {
          "indexed": false,
          "internalType": "uint256",
          "name": "id",
          "type": "uint256"
        }
      ],
      "name": "AddNominee",
      "type": "event"
    },
    {
      "anonymous": false,
      "inputs": [
        {
          "indexed": true,
          "internalType": "address",
          "name": "owner",
          "type": "address"
        }
      ],
      "name": "OwnerUpdated",
      "type": "event"
    },
    {
      "anonymous": false,
      "inputs": [
        {
          "indexed": true,
          "internalType": "bytes32",
          "name": "account",
          "type": "bytes32"
        },
        {
          "indexed": false,
          "internalType": "uint256",
          "name": "chainId",
          "type": "uint256"
        },
        {
          "indexed": false,
          "internalType": "uint256",
          "name": "newSum",
          "type": "uint256"
        }
      ],
      "name": "RemoveNominee",
      "type": "event"
    },
    {
      "anonymous": false,
      "inputs": [
        {
          "indexed": true,
          "internalType": "address",
          "name": "user",
          "type": "address"
        },
        {
          "indexed": true,
          "internalType": "bytes32",
          "name": "nominee",
          "type": "bytes32"
        },
        {
          "indexed": false,
          "internalType": "uint256",
          "name": "chainId",
          "type": "uint256"
        },
        {
          "indexed": false,
          "internalType": "uint256",
          "name": "weight",
          "type": "uint256"
        }
      ],
      "name": "VoteForNominee",
      "type": "event"
    },
    {
      "inputs": [],
      "name": "MAX_EVM_CHAIN_ID",
      "outputs": [
        {
          "internalType": "uint256",
          "name": "",
          "type": "uint256"
        }
      ],
      "stateMutability": "view",
      "type": "function"
    },
    {
      "inputs": [],
      "name": "MAX_WEIGHT",
      "outputs": [
        {
          "internalType": "uint256",
          "name": "",
          "type": "uint256"
        }
      ],
      "stateMutability": "view",
      "type": "function"
    },
    {
      "inputs": [],
      "name": "WEEK",
      "outputs": [
        {
          "internalType": "uint256",
          "name": "",
          "type": "uint256"
        }
      ],
      "stateMutability": "view",
      "type": "function"
    },
    {
      "inputs": [],
      "name": "WEIGHT_VOTE_DELAY",
      "outputs": [
        {
          "internalType": "uint256",
          "name": "",
          "type": "uint256"
        }
      ],
      "stateMutability": "view",
      "type": "function"
    },
    {
      "inputs": [
        {
          "internalType": "address",
          "name": "account",
          "type": "address"
        },
        {
          "internalType": "uint256",
          "name": "chainId",
          "type": "uint256"
        }
      ],
      "name": "addNomineeEVM",
      "outputs": [],
      "stateMutability": "nonpayable",
      "type": "function"
    },
    {
      "inputs": [
        {
          "internalType": "bytes32",
          "name": "account",
          "type": "bytes32"
        },
        {
          "internalType": "uint256",
          "name": "chainId",
          "type": "uint256"
        }
      ],
      "name": "addNomineeNonEVM",
      "outputs": [],
      "stateMutability": "nonpayable",
      "type": "function"
    },
    {
      "inputs": [
        {
          "internalType": "address",
          "name": "newOwner",
          "type": "address"
        }
      ],
      "name": "changeOwner",
      "outputs": [],
      "stateMutability": "nonpayable",
      "type": "function"
    },
    {
      "inputs": [
        {
          "internalType": "uint256",
          "name": "",
          "type": "uint256"
        }
      ],
      "name": "changesSum",
      "outputs": [
        {
          "internalType": "uint256",
          "name": "",
          "type": "uint256"
        }
      ],
      "stateMutability": "view",
      "type": "function"
    },
    {
      "inputs": [
        {
          "internalType": "bytes32",
          "name": "",
          "type": "bytes32"
        },
        {
          "internalType": "uint256",
          "name": "",
          "type": "uint256"
        }
      ],
      "name": "changesWeight",
      "outputs": [
        {
          "internalType": "uint256",
          "name": "",
          "type": "uint256"
        }
      ],
      "stateMutability": "view",
      "type": "function"
    },
    {
      "inputs": [],
      "name": "checkpoint",
      "outputs": [],
      "stateMutability": "nonpayable",
      "type": "function"
    },
    {
      "inputs": [
        {
          "internalType": "bytes32",
          "name": "account",
          "type": "bytes32"
        },
        {
          "internalType": "uint256",
          "name": "chainId",
          "type": "uint256"
        }
      ],
      "name": "checkpointNominee",
      "outputs": [],
      "stateMutability": "nonpayable",
      "type": "function"
    },
    {
      "inputs": [],
      "name": "getAllNominees",
      "outputs": [
        {
          "components": [
            {
              "internalType": "bytes32",
              "name": "account",
              "type": "bytes32"
            },
            {
              "internalType": "uint256",
              "name": "chainId",
              "type": "uint256"
            }
          ],
          "internalType": "struct Nominee[]",
          "name": "nominees",
          "type": "tuple[]"
        }
      ],
      "stateMutability": "view",
      "type": "function"
    },
    {
      "inputs": [
        {
          "internalType": "bytes32[]",
          "name": "accounts",
          "type": "bytes32[]"
        },
        {
          "internalType": "uint256[]",
          "name": "chainIds",
          "type": "uint256[]"
        },
        {
          "internalType": "address[]",
          "name": "voters",
          "type": "address[]"
        }
      ],
      "name": "getNextAllowedVotingTimes",
      "outputs": [
        {
          "internalType": "uint256[]",
          "name": "nextAllowedVotingTimes",
          "type": "uint256[]"
        }
      ],
      "stateMutability": "view",
      "type": "function"
    },
    {
      "inputs": [
        {
          "internalType": "uint256",
          "name": "id",
          "type": "uint256"
        }
      ],
      "name": "getNominee",
      "outputs": [
        {
          "components": [
            {
              "internalType": "bytes32",
              "name": "account",
              "type": "bytes32"
            },
            {
              "internalType": "uint256",
              "name": "chainId",
              "type": "uint256"
            }
          ],
          "internalType": "struct Nominee",
          "name": "nominee",
          "type": "tuple"
        }
      ],
      "stateMutability": "view",
      "type": "function"
    },
    {
      "inputs": [
        {
          "internalType": "bytes32",
          "name": "account",
          "type": "bytes32"
        },
        {
          "internalType": "uint256",
          "name": "chainId",
          "type": "uint256"
        }
      ],
      "name": "getNomineeId",
      "outputs": [
        {
          "internalType": "uint256",
          "name": "id",
          "type": "uint256"
        }
      ],
      "stateMutability": "view",
      "type": "function"
    },
    {
      "inputs": [
        {
          "internalType": "bytes32",
          "name": "account",
          "type": "bytes32"
        },
        {
          "internalType": "uint256",
          "name": "chainId",
          "type": "uint256"
        }
      ],
      "name": "getNomineeWeight",
      "outputs": [
        {
          "internalType": "uint256",
          "name": "",
          "type": "uint256"
        }
      ],
      "stateMutability": "view",
      "type": "function"
    },
    {
      "inputs": [
        {
          "internalType": "uint256",
          "name": "startId",
          "type": "uint256"
        },
        {
          "internalType": "uint256",
          "name": "numNominees",
          "type": "uint256"
        }
      ],
      "name": "getNominees",
      "outputs": [
        {
          "components": [
            {
              "internalType": "bytes32",
              "name": "account",
              "type": "bytes32"
            },
            {
              "internalType": "uint256",
              "name": "chainId",
              "type": "uint256"
            }
          ],
          "internalType": "struct Nominee[]",
          "name": "nominees",
          "type": "tuple[]"
        }
      ],
      "stateMutability": "view",
      "type": "function"
    },
    {
      "inputs": [],
      "name": "getNumNominees",
      "outputs": [
        {
          "internalType": "uint256",
          "name": "",
          "type": "uint256"
        }
      ],
      "stateMutability": "view",
      "type": "function"
    },
    {
      "inputs": [],
      "name": "getWeightsSum",
      "outputs": [
        {
          "internalType": "uint256",
          "name": "",
          "type": "uint256"
        }
      ],
      "stateMutability": "view",
      "type": "function"
    },
    {
      "inputs": [
        {
          "internalType": "address",
          "name": "",
          "type": "address"
        },
        {
          "internalType": "bytes32",
          "name": "",
          "type": "bytes32"
        }
      ],
      "name": "lastUserVote",
      "outputs": [
        {
          "internalType": "uint256",
          "name": "",
          "type": "uint256"
        }
      ],
      "stateMutability": "view",
      "type": "function"
    },
    {
      "inputs": [
        {
          "internalType": "bytes32",
          "name": "",
          "type": "bytes32"
        }
      ],
      "name": "mapNomineeIds",
      "outputs": [
        {
          "internalType": "uint256",
          "name": "",
          "type": "uint256"
        }
      ],
      "stateMutability": "view",
      "type": "function"
    },
    {
      "inputs": [
        {
          "internalType": "bytes32",
          "name": "account",
          "type": "bytes32"
        },
        {
          "internalType": "uint256",
          "name": "chainId",
          "type": "uint256"
        },
        {
          "internalType": "uint256",
          "name": "time",
          "type": "uint256"
        }
      ],
      "name": "nomineeRelativeWeight",
      "outputs": [
        {
          "internalType": "uint256",
          "name": "weight",
          "type": "uint256"
        },
        {
          "internalType": "uint256",
          "name": "totalSum",
          "type": "uint256"
        }
      ],
      "stateMutability": "view",
      "type": "function"
    },
    {
      "inputs": [
        {
          "internalType": "bytes32",
          "name": "account",
          "type": "bytes32"
        },
        {
          "internalType": "uint256",
          "name": "chainId",
          "type": "uint256"
        },
        {
          "internalType": "uint256",
          "name": "time",
          "type": "uint256"
        }
      ],
      "name": "nomineeRelativeWeightWrite",
      "outputs": [
        {
          "internalType": "uint256",
          "name": "weight",
          "type": "uint256"
        },
        {
          "internalType": "uint256",
          "name": "totalSum",
          "type": "uint256"
        }
      ],
      "stateMutability": "nonpayable",
      "type": "function"
    },
    {
      "inputs": [],
      "name": "owner",
      "outputs": [
        {
          "internalType": "address",
          "name": "",
          "type": "address"
        }
      ],
      "stateMutability": "view",
      "type": "function"
    },
    {
      "inputs": [
        {
          "internalType": "uint256",
          "name": "",
          "type": "uint256"
        }
      ],
      "name": "pointsSum",
      "outputs": [
        {
          "internalType": "uint256",
          "name": "bias",
          "type": "uint256"
        },
        {
          "internalType": "uint256",
          "name": "slope",
          "type": "uint256"
        }
      ],
      "stateMutability": "view",
      "type": "function"
    },
    {
      "inputs": [
        {
          "internalType": "bytes32",
          "name": "",
          "type": "bytes32"
        },
        {
          "internalType": "uint256",
          "name": "",
          "type": "uint256"
        }
      ],
      "name": "pointsWeight",
      "outputs": [
        {
          "internalType": "uint256",
          "name": "bias",
          "type": "uint256"
        },
        {
          "internalType": "uint256",
          "name": "slope",
          "type": "uint256"
        }
      ],
      "stateMutability": "view",
      "type": "function"
    },
    {
      "inputs": [
        {
          "internalType": "bytes32",
          "name": "account",
          "type": "bytes32"
        },
        {
          "internalType": "uint256",
          "name": "chainId",
          "type": "uint256"
        }
      ],
      "name": "removeNominee",
      "outputs": [],
      "stateMutability": "nonpayable",
      "type": "function"
    },
    {
      "inputs": [
        {
          "internalType": "uint256",
          "name": "",
          "type": "uint256"
        }
      ],
      "name": "setNominees",
      "outputs": [
        {
          "internalType": "bytes32",
          "name": "account",
          "type": "bytes32"
        },
        {
          "internalType": "uint256",
          "name": "chainId",
          "type": "uint256"
        }
      ],
      "stateMutability": "view",
      "type": "function"
    },
    {
      "inputs": [],
      "name": "timeSum",
      "outputs": [
        {
          "internalType": "uint256",
          "name": "",
          "type": "uint256"
        }
      ],
      "stateMutability": "view",
      "type": "function"
    },
    {
      "inputs": [
        {
          "internalType": "bytes32",
          "name": "",
          "type": "bytes32"
        }
      ],
      "name": "timeWeight",
      "outputs": [
        {
          "internalType": "uint256",
          "name": "",
          "type": "uint256"
        }
      ],
      "stateMutability": "view",
      "type": "function"
    },
    {
      "inputs": [],
      "name": "ve",
      "outputs": [
        {
          "internalType": "address",
          "name": "",
          "type": "address"
        }
      ],
      "stateMutability": "view",
      "type": "function"
    },
    {
      "inputs": [
        {
          "internalType": "bytes32",
          "name": "account",
          "type": "bytes32"
        },
        {
          "internalType": "uint256",
          "name": "chainId",
          "type": "uint256"
        },
        {
          "internalType": "uint256",
          "name": "weight",
          "type": "uint256"
        }
      ],
      "name": "voteForNomineeWeights",
      "outputs": [],
      "stateMutability": "nonpayable",
      "type": "function"
    },
    {
      "inputs": [
        {
          "internalType": "bytes32[]",
          "name": "accounts",
          "type": "bytes32[]"
        },
        {
          "internalType": "uint256[]",
          "name": "chainIds",
          "type": "uint256[]"
        },
        {
          "internalType": "uint256[]",
          "name": "weights",
          "type": "uint256[]"
        }
      ],
      "name": "voteForNomineeWeightsBatch",
      "outputs": [],
      "stateMutability": "nonpayable",
      "type": "function"
    },
    {
      "inputs": [
        {
          "internalType": "address",
          "name": "",
          "type": "address"
        }
      ],
      "name": "voteUserPower",
      "outputs": [
        {
          "internalType": "uint256",
          "name": "",
          "type": "uint256"
        }
      ],
      "stateMutability": "view",
      "type": "function"
    },
    {
      "inputs": [
        {
          "internalType": "address",
          "name": "",
          "type": "address"
        },
        {
          "internalType": "bytes32",
          "name": "",
          "type": "bytes32"
        }
      ],
      "name": "voteUserSlopes",
      "outputs": [
        {
          "internalType": "uint256",
          "name": "slope",
          "type": "uint256"
        },
        {
          "internalType": "uint256",
          "name": "power",
          "type": "uint256"
        },
        {
          "internalType": "uint256",
          "name": "end",
          "type": "uint256"
        }
      ],
      "stateMutability": "view",
      "type": "function"
    }
  ],
  "bytecode": "0x60a06040523480156200001157600080fd5b50604051620028b8380380620028b8833981016040819052620000349162000115565b6001600160a01b0381166200005c5760405163d92e233d60e01b815260040160405180910390fd5b600080546001600160a01b031916331790556001600160a01b03811660805262093a806200008b814262000147565b6200009791906200016a565b600b555060408051808201909152600080825260208201818152600180548082018255925291517fb10e2d527612073b26eecdfd717e6a320cf44b4afac2b0732d9fcbe2b7fa0cf660029092029182015590517fb10e2d527612073b26eecdfd717e6a320cf44b4afac2b0732d9fcbe2b7fa0cf79091015562000196565b6000602082840312156200012857600080fd5b81516001600160a01b03811681146200014057600080fd5b9392505050565b6000826200016557634e487b7160e01b600052601260045260246000fd5b500490565b80820281158282048414176200019057634e487b7160e01b600052601160045260246000fd5b92915050565b6080516126f8620001c0600039600081816102d60152818161150a01526115d501526126f86000f3fe608060405234801561001057600080fd5b50600436106102405760003560e01c806385556a9511610145578063c54dd0d4116100bd578063ec73d9061161008c578063f4359ce511610071578063f4359ce5146105df578063f4da12ba146105e9578063f9572f7c146105f157600080fd5b8063ec73d9061461059f578063f0cd64af146105bf57600080fd5b8063c54dd0d414610545578063c88d47f014610558578063dc87f5361461056b578063e4a28a521461059657600080fd5b8063a18f99ff11610114578063a6f9dae1116100f9578063a6f9dae114610517578063beaf44e81461052a578063c2c4c5c11461053d57600080fd5b8063a18f99ff14610507578063a51248031461050f57600080fd5b806385556a95146104635780638da5cb5b1461048e5780638e28764b146104ae5780639d175053146104e057600080fd5b806341597036116101d85780634f6ffd07116101a75780636b39ac1a1161018c5780636b39ac1a1461041d5780637a75b27e146104305780637ee8bfe91461045057600080fd5b80634f6ffd07146103be578063609c6b87146103c857600080fd5b806341597036146103785780634479b5cf1461038f578063456f0997146103a257806348264997146103b557600080fd5b80631f850716116102145780631f850716146102d157806326abaf241461031d57806327ebf531146103305780633b766b3d1461035057600080fd5b806292a596146102455780630c4232011461026e5780631765ab7f1461029c5780631b98dd90146102b1575b600080fd5b610258610253366004612079565b610604565b604051610265919061209b565b60405180910390f35b61028e61027c3660046120f2565b600a6020526000908152604090205481565b604051908152602001610265565b6102af6102aa366004612079565b61078c565b005b61028e6102bf3660046120f2565b60086020526000908152604090205481565b6102f87f000000000000000000000000000000000000000000000000000000000000000081565b60405173ffffffffffffffffffffffffffffffffffffffff9091168152602001610265565b6102af61032b36600461221c565b610884565b61034361033e3660046120f2565b61094b565b60405161026591906122a4565b61036361035e3660046120f2565b610a37565b60408051928352602083019190915201610265565b600b5460009081526009602052604090205461028e565b61028e61039d366004612079565b610a65565b61028e6103b0366004612079565b610ae9565b61028e600b5481565b61028e620d2f0081565b6104026103d63660046122e4565b600360209081526000928352604080842090915290825290208054600182015460029092015490919083565b60408051938452602084019290925290820152606001610265565b6102af61042b3660046122e4565b610b5c565b61044361043e36600461230e565b610cab565b60405161026591906123f3565b61036361045e366004612437565b610eff565b61028e6104713660046122e4565b600560209081526000928352604080842090915290825290205481565b6000546102f89073ffffffffffffffffffffffffffffffffffffffff1681565b6103636104bc366004612079565b60066020908152600092835260408084209091529082529020805460019091015482565b6103636104ee3660046120f2565b6009602052600090815260409020805460019091015482565b61028e610f2d565b610258610f42565b6102af610525366004612463565b610fb5565b6102af610538366004612079565b6110e2565b6102af6110f5565b6102af610553366004612079565b611100565b610363610566366004612437565b61142d565b61028e610579366004612079565b600760209081526000928352604080842090915290825290205481565b61028e61271081565b61028e6105ad366004612463565b60046020526000908152604090205481565b61028e6105cd3660046120f2565b60026020526000908152604090205481565b61028e62093a8081565b61028e61143b565b6102af6105ff366004612437565b611467565b6060821580610611575081155b15610648576040517f7c946ed700000000000000000000000000000000000000000000000000000000815260040160405180910390fd5b600061065483856124ad565b600154909150808211156106a3576040517f7ae5968500000000000000000000000000000000000000000000000000000000815260048101839052602481018290526044015b60405180910390fd5b8367ffffffffffffffff8111156106bc576106bc61210b565b60405190808252806020026020018201604052801561070157816020015b60408051808201909152600080825260208201528152602001906001900390816106da5790505b50925060005b8481101561078357600061071b87836124ad565b905060018181548110610730576107306124c0565b90600052602060002090600202016040518060400160405290816000820154815260200160018201548152505085838151811061076f5761076f6124c0565b602090810291909101015250600101610707565b50505092915050565b816107c3576040517fd92e233d00000000000000000000000000000000000000000000000000000000815260040160405180910390fd5b8060246107d9600267ffffffffffffffff61251e565b6107e39190612545565b67ffffffffffffffff161061086257806024610808600267ffffffffffffffff61251e565b6108129190612545565b6108279067ffffffffffffffff1660016124ad565b6040517fc076384b0000000000000000000000000000000000000000000000000000000081526004810192909252602482015260440161069a565b604080518082019091528281526020810182905261087f81611b4a565b505050565b8151835114158061089757508051835114155b156108db57825181516040517f8151c1100000000000000000000000000000000000000000000000000000000081526004810192909252602482015260440161069a565b60005b83518110156109455761093d8482815181106108fc576108fc6124c0565b6020026020010151848381518110610916576109166124c0565b6020026020010151848481518110610930576109306124c0565b6020026020010151611467565b6001016108de565b50505050565b60408051808201909152600080825260208201526001805460009161096f9161256d565b9050826000036109ab576040517f7c946ed700000000000000000000000000000000000000000000000000000000815260040160405180910390fd5b808311156109ef576040517f7ae59685000000000000000000000000000000000000000000000000000000008152600481018490526024810182905260440161069a565b60018381548110610a0257610a026124c0565b906000526020600020906002020160405180604001604052908160008201548152602001600182015481525050915050919050565b60018181548110610a4757600080fd5b60009182526020909120600290910201805460019091015490915082565b604080518082018252838152602080820184905291516000928391610a8c918491016122a4565b604080517fffffffffffffffffffffffffffffffffffffffffffffffffffffffffffffffe0818403018152918152815160209283012060009081526006835281812060088452828220548252909252902054925050505b92915050565b604080518082018252838152602080820184905291516000928391610b10918491016122a4565b604080517fffffffffffffffffffffffffffffffffffffffffffffffffffffffffffffffe081840301815291815281516020928301206000908152600290925290205495945050505050565b73ffffffffffffffffffffffffffffffffffffffff8216610ba9576040517fd92e233d00000000000000000000000000000000000000000000000000000000815260040160405180910390fd5b80600003610be3576040517f7c946ed700000000000000000000000000000000000000000000000000000000815260040160405180910390fd5b6024610bf8600267ffffffffffffffff61251e565b610c029190612545565b67ffffffffffffffff16811115610c7857806024610c29600267ffffffffffffffff61251e565b610c339190612545565b6040517f7ae59685000000000000000000000000000000000000000000000000000000008152600481019290925267ffffffffffffffff16602482015260440161069a565b6040805180820190915273ffffffffffffffffffffffffffffffffffffffff831681526020810182905261087f81611b4a565b606082518451141580610cc057508151845114155b15610d0457835183516040517f8151c1100000000000000000000000000000000000000000000000000000000081526004810192909252602482015260440161069a565b835167ffffffffffffffff811115610d1e57610d1e61210b565b604051908082528060200260200182016040528015610d47578160200160208202803683370190505b50905060005b8451811015610ef75760006040518060400160405280878481518110610d7557610d756124c0565b60200260200101518152602001868481518110610d9457610d946124c0565b60200260200101518152509050600081604051602001610db491906122a4565b6040516020818303038152906040528051906020012090506002600082815260200190815260200160002054600003610e5857868381518110610df957610df96124c0565b6020026020010151868481518110610e1357610e136124c0565b60200260200101516040517f31b05a8000000000000000000000000000000000000000000000000000000000815260040161069a929190918252602082015260400190565b620d2f0060056000878681518110610e7257610e726124c0565b602002602001015173ffffffffffffffffffffffffffffffffffffffff1673ffffffffffffffffffffffffffffffffffffffff168152602001908152602001600020600083815260200190815260200160002054610ed091906124ad565b848481518110610ee257610ee26124c0565b60209081029190910101525050600101610d4d565b509392505050565b600080610f0c8585611cdd565b50610f15611e9e565b50610f21858585611f9e565b90969095509350505050565b60018054600091610f3d9161256d565b905090565b60606001805480602002602001604051908101604052809291908181526020016000905b82821015610fac57838290600052602060002090600202016040518060400160405290816000820154815260200160018201548152505081526020019060010190610f66565b50505050905090565b60005473ffffffffffffffffffffffffffffffffffffffff163314611028576000546040517fa43d6ada00000000000000000000000000000000000000000000000000000000815233600482015273ffffffffffffffffffffffffffffffffffffffff909116602482015260440161069a565b73ffffffffffffffffffffffffffffffffffffffff8116611075576040517fd92e233d00000000000000000000000000000000000000000000000000000000815260040160405180910390fd5b600080547fffffffffffffffffffffffff00000000000000000000000000000000000000001673ffffffffffffffffffffffffffffffffffffffff8316908117825560405190917f4ffd725fc4a22075e9ec71c59edf9c38cdeb588a91b24fc5b61388c5be41282b91a250565b6110ec8282611cdd565b5061087f611e9e565b6110fd611e9e565b50565b60005473ffffffffffffffffffffffffffffffffffffffff163314611173576000546040517fa43d6ada00000000000000000000000000000000000000000000000000000000815273ffffffffffffffffffffffffffffffffffffffff909116600482015233602482015260440161069a565b6000604051806040016040528084815260200183815250905060008160405160200161119f91906122a4565b604080517fffffffffffffffffffffffffffffffffffffffffffffffffffffffffffffffe0818403018152918152815160209283012060008181526002909352908220549092509081900361122a576040517f31b05a80000000000000000000000000000000000000000000000000000000008152600481018690526024810185905260440161069a565b6000828152600260205260408120556001805461124890829061256d565b81548110611258576112586124c0565b6000918252602091829020604080518082018252600290930290910180548352600101548284015251909450611290918591016122a4565b604080517fffffffffffffffffffffffffffffffffffffffffffffffffffffffffffffffe08184030181529181528151602092830120600081815260029093529120829055600180549193508491839081106112ee576112ee6124c0565b6000918252602091829020835160029092020190815591015160019182015580548061131c5761131c612580565b60008281526020812060027fffffffffffffffffffffffffffffffffffffffffffffffffffffffffffffffff9093019283020181815560010181905591556113648686611cdd565b90506000611370611e9e565b9050600062093a808061138381426124ad565b61138d91906125af565b61139791906125c3565b60008681526006602090815260408083208484528252808320839055888352600890915281208290559091506113cd848461256d565b600083815260096020908152604091829020839055600b85905581518b81529081018390529192508a917f30b83ce9dbee69f017e7059540e314cdce9e25b2288840cfe65ca96c2d7bab06910160405180910390a2505050505050505050565b600080610f21858585611f9e565b6024611450600267ffffffffffffffff61251e565b61145a9190612545565b67ffffffffffffffff1681565b600060405180604001604052808581526020018481525060405160200161148e91906122a4565b604080517fffffffffffffffffffffffffffffffffffffffffffffffffffffffffffffffe08184030181529082905280516020909101207fc4698ee5000000000000000000000000000000000000000000000000000000008252336004830152915060009073ffffffffffffffffffffffffffffffffffffffff7f0000000000000000000000000000000000000000000000000000000000000000169063c4698ee59060240160a060405180830381865afa158015611551573d6000803e3d6000fd5b505050506040513d601f19601f820116820180604052508101906115759190612604565b602001516040517f4deafcae0000000000000000000000000000000000000000000000000000000081523360048201526fffffffffffffffffffffffffffffffff909116915060009073ffffffffffffffffffffffffffffffffffffffff7f00000000000000000000000000000000000000000000000000000000000000001690634deafcae90602401602060405180830381865afa15801561161c573d6000803e3d6000fd5b505050506040513d601f19601f8201168201806040525081019061164091906126a9565b9050600062093a808061165381426124ad565b61165d91906125af565b61166791906125c3565b90508181106116b2576040517fd78507e1000000000000000000000000000000000000000000000000000000008152336004820152602481018390526044810182905260640161069a565b6127108511156116f9576040517f7ae5968500000000000000000000000000000000000000000000000000000000815260048101869052612710602482015260440161069a565b33600090815260056020908152604080832087845290915281205461172290620d2f00906124ad565b90504281111561176d576040517f176017650000000000000000000000000000000000000000000000000000000081523360048201524260248201526044810182905260640161069a565b3360009081526003602090815260408083208884528252808320815160608101835281548152600182015493810193909352600201549082018190529091908410156117d2578382604001516117c3919061256d565b82516117cf91906125c3565b90505b600060405180606001604052806127108b8a6117ee91906125c3565b6117f891906125af565b8152602081018b905260400187905290506000611815868861256d565b825161182191906125c3565b3360009081526004602090815260409091205486820151918501519293509161184a90836124ad565b611854919061256d565b33600090815260046020526040902081905590506127108111156118af576040517f7ae5968500000000000000000000000000000000000000000000000000000000815260048101829052612710602482015260440161069a565b6118cd826118bd8f8f611cdd565b6118c791906124ad565b85612058565b60008b81526006602090815260408083208b84529091529020556118f3826118bd611e9e565b600088815260096020526040908190209190915585015187101561199857825160008b81526006602090815260408083208b84529091529020600101546119449161193d916124ad565b8651612058565b60008b81526006602090815260408083208b8452825280832060019081019490945586516009909252909120909101546119819161193d916124ad565b6000888152600960205260409020600101556119f4565b825160008b81526006602090815260408083208b8452909152812060010180549091906119c69084906124ad565b90915550508251600088815260096020526040812060010180549091906119ee9084906124ad565b90915550505b4285604001511115611a5e57845160008b8152600760209081526040808320818a0151845290915281208054909190611a2e90849061256d565b909155505084516040808701516000908152600a6020529081208054909190611a5890849061256d565b90915550505b825160008b815260076020908152604080832081880151845290915281208054909190611a8c9084906124ad565b909155505082516040808501516000908152600a6020529081208054909190611ab69084906124ad565b90915550503360008181526003602090815260408083208e845282528083208751815582880151600182015581880151600290910155838352600582528083208e845282529182902042905581518f81529081018e90528f92917f4e44aa6a7d9639e4546a021e5baf51f7aae3bcd1f96e0f5f26880d6834b737ee910160405180910390a350505050505050505050505050565b600081604051602001611b5d91906122a4565b604080517fffffffffffffffffffffffffffffffffffffffffffffffffffffffffffffffe081840301815291815281516020928301206000818152600290935291205490915015611bea57815160208301516040517f5855e2480000000000000000000000000000000000000000000000000000000081526004810192909252602482015260440161069a565b6001805460008381526002602081815260408320849055838501855593825285517fb10e2d527612073b26eecdfd717e6a320cf44b4afac2b0732d9fcbe2b7fa0cf691840291820155928501517fb10e2d527612073b26eecdfd717e6a320cf44b4afac2b0732d9fcbe2b7fa0cf7909301929092559062093a8080611c6f81426124ad565b611c7991906125af565b611c8391906125c3565b60008481526008602090815260409182902083905586518782015183519081529182018690529293507fe990f780082e9ce1c98e6c3b814d9885dd1772962a49213d96b58a946819a565910160405180910390a250505050565b604080518082018252838152602080820184905291516000928391611d04918491016122a4565b6040516020818303038152906040528051906020012090506002600082815260200190815260200160002054600003611d73576040517f31b05a80000000000000000000000000000000000000000000000000000000008152600481018690526024810185905260440161069a565b600081815260086020908152604080832054600683528184208185528352818420825180840190935280548352600101549282019290925290915b6101f4811015611e9257428311611e9257611dcc62093a80846124ad565b9250600062093a808360200151611de391906125c3565b90508083600001511115611e3d578083600001818151611e03919061256d565b90525060008581526007602090815260408083208784528252909120549084018051829190611e3390839061256d565b905250611e489050565b600080845260208401525b60008581526006602090815260408083208784528252909120845181559084015160019091015542841115611e895760008581526008602052604090208490555b50600101611dae565b50519695505050505050565b600b5460008181526009602090815260408083208151808301909252805482526001015491810191909152909190825b6101f4811015611f9657428311611f9657611eec62093a80846124ad565b9250600062093a808360200151611f0391906125c3565b90508083600001511115611f55578083600001818151611f23919061256d565b9052506000848152600a60209081526040909120549084018051829190611f4b90839061256d565b905250611f609050565b600080845260208401525b6000848152600960209081526040909120845181559084015160019091015542841115611f8d57600b8490555b50600101611ece565b505192915050565b6000808062093a80611fb081866125af565b611fba91906125c3565b600081815260096020908152604080832054815180830183528b81528084018b9052915190965093945092611ff1918491016122a4565b604051602081830303815290604052805190602001209050600084111561204d5760008181526006602090815260408083208684529091529020548461203f82670de0b6b3a76400006125c3565b61204991906125af565b9550505b505050935093915050565b6000818311612068576000612072565b612072828461256d565b9392505050565b6000806040838503121561208c57600080fd5b50508035926020909101359150565b602080825282518282018190526000919060409081850190868401855b828110156120e5576120d584835180518252602090810151910152565b92840192908501906001016120b8565b5091979650505050505050565b60006020828403121561210457600080fd5b5035919050565b7f4e487b7100000000000000000000000000000000000000000000000000000000600052604160045260246000fd5b604051601f82017fffffffffffffffffffffffffffffffffffffffffffffffffffffffffffffffe016810167ffffffffffffffff811182821017156121815761218161210b565b604052919050565b600067ffffffffffffffff8211156121a3576121a361210b565b5060051b60200190565b600082601f8301126121be57600080fd5b813560206121d36121ce83612189565b61213a565b8083825260208201915060208460051b8701019350868411156121f557600080fd5b602086015b8481101561221157803583529183019183016121fa565b509695505050505050565b60008060006060848603121561223157600080fd5b833567ffffffffffffffff8082111561224957600080fd5b612255878388016121ad565b9450602086013591508082111561226b57600080fd5b612277878388016121ad565b9350604086013591508082111561228d57600080fd5b5061229a868287016121ad565b9150509250925092565b815181526020808301519082015260408101610ae3565b803573ffffffffffffffffffffffffffffffffffffffff811681146122df57600080fd5b919050565b600080604083850312156122f757600080fd5b612300836122bb565b946020939093013593505050565b60008060006060848603121561232357600080fd5b833567ffffffffffffffff8082111561233b57600080fd5b612347878388016121ad565b945060209150818601358181111561235e57600080fd5b61236a888289016121ad565b94505060408601358181111561237f57600080fd5b86019050601f8101871361239257600080fd5b80356123a06121ce82612189565b81815260059190911b820183019083810190898311156123bf57600080fd5b928401925b828410156123e4576123d5846122bb565b825292840192908401906123c4565b80955050505050509250925092565b6020808252825182820181905260009190848201906040850190845b8181101561242b5783518352928401929184019160010161240f565b50909695505050505050565b60008060006060848603121561244c57600080fd5b505081359360208301359350604090920135919050565b60006020828403121561247557600080fd5b612072826122bb565b7f4e487b7100000000000000000000000000000000000000000000000000000000600052601160045260246000fd5b80820180821115610ae357610ae361247e565b7f4e487b7100000000000000000000000000000000000000000000000000000000600052603260045260246000fd5b7f4e487b7100000000000000000000000000000000000000000000000000000000600052601260045260246000fd5b600067ffffffffffffffff80841680612539576125396124ef565b92169190910492915050565b67ffffffffffffffff8281168282160390808211156125665761256661247e565b5092915050565b81810381811115610ae357610ae361247e565b7f4e487b7100000000000000000000000000000000000000000000000000000000600052603160045260246000fd5b6000826125be576125be6124ef565b500490565b8082028115828204841417610ae357610ae361247e565b8051600f81900b81146122df57600080fd5b805167ffffffffffffffff811681146122df57600080fd5b600060a0828403121561261657600080fd5b60405160a0810181811067ffffffffffffffff821117156126395761263961210b565b604052612645836125da565b8152612653602084016125da565b6020820152612664604084016125ec565b6040820152612675606084016125ec565b606082015260808301516fffffffffffffffffffffffffffffffff8116811461269d57600080fd5b60808201529392505050565b6000602082840312156126bb57600080fd5b505191905056fea2646970667358221220a8457b91f8f737e3edc92ce46e3b378fb8f129f97e4c52c1dc24d7f232f8a12064736f6c63430008170033",
  "linkReferences": {},
  "deployedLinkReferences": {}
}