{
  "_format": "hh-sol-artifact-1",
  "contractName": "WormholeMessenger",
  "sourceName": "contracts/bridges/WormholeMessenger.sol",
  "abi": [
    {
      "inputs": [
        {
          "internalType": "address",
          "name": "_wormholeRelayer",
          "type": "address"
        },
        {
          "internalType": "address",
          "name": "_sourceGovernor",
          "type": "address"
        },
        {
          "internalType": "uint16",
          "name": "_sourceGovernorChainId",
          "type": "uint16"
        }
      ],
      "stateMutability": "nonpayable",
      "type": "constructor"
    },
    {
      "inputs": [
        {
          "internalType": "bytes32",
          "name": "deliveryHash",
          "type": "bytes32"
        }
      ],
      "name": "AlreadyDelivered",
      "type": "error"
    },
    {
      "inputs": [
        {
          "internalType": "uint256",
          "name": "expected",
          "type": "uint256"
        },
        {
          "internalType": "uint256",
          "name": "provided",
          "type": "uint256"
        }
      ],
      "name": "IncorrectDataLength",
      "type": "error"
    },
    {
      "inputs": [
        {
          "internalType": "uint256",
          "name": "value",
          "type": "uint256"
        },
        {
          "internalType": "uint256",
          "name": "balance",
          "type": "uint256"
        }
      ],
      "name": "InsufficientBalance",
      "type": "error"
    },
    {
      "inputs": [
        {
          "internalType": "address",
          "name": "sender",
          "type": "address"
        },
        {
          "internalType": "address",
          "name": "instance",
          "type": "address"
        }
      ],
      "name": "SelfCallOnly",
      "type": "error"
    },
    {
      "inputs": [
        {
          "internalType": "address",
          "name": "sender",
          "type": "address"
        },
        {
          "internalType": "address",
          "name": "sourceGovernor",
          "type": "address"
        }
      ],
      "name": "SourceGovernorOnly",
      "type": "error"
    },
    {
      "inputs": [
        {
          "internalType": "address",
          "name": "target",
          "type": "address"
        },
        {
          "internalType": "uint256",
          "name": "value",
          "type": "uint256"
        },
        {
          "internalType": "bytes",
          "name": "payload",
          "type": "bytes"
        }
      ],
      "name": "TargetExecFailed",
      "type": "error"
    },
    {
      "inputs": [
        {
          "internalType": "uint256",
          "name": "received",
          "type": "uint256"
        },
        {
          "internalType": "uint256",
          "name": "required",
          "type": "uint256"
        }
      ],
      "name": "WrongSourceChainId",
      "type": "error"
    },
    {
      "inputs": [],
      "name": "ZeroAddress",
      "type": "error"
    },
    {
      "inputs": [],
      "name": "ZeroValue",
      "type": "error"
    },
    {
      "inputs": [
        {
          "internalType": "address",
          "name": "sender",
          "type": "address"
        },
        {
          "internalType": "address",
          "name": "sourceRelayer",
          "type": "address"
        }
      ],
      "name": "sourceRelayerOnly",
      "type": "error"
    },
    {
      "anonymous": false,
      "inputs": [
        {
          "indexed": true,
          "internalType": "address",
          "name": "sender",
          "type": "address"
        },
        {
          "indexed": false,
          "internalType": "uint256",
          "name": "value",
          "type": "uint256"
        }
      ],
      "name": "FundsReceived",
      "type": "event"
    },
    {
      "anonymous": false,
      "inputs": [
        {
          "indexed": true,
          "internalType": "address",
          "name": "sourceMessageSender",
          "type": "address"
        },
        {
          "indexed": false,
          "internalType": "bytes",
          "name": "data",
          "type": "bytes"
        },
        {
          "indexed": false,
          "internalType": "bytes32",
          "name": "deliveryHash",
          "type": "bytes32"
        },
        {
          "indexed": false,
          "internalType": "uint256",
          "name": "sourceChain",
          "type": "uint256"
        }
      ],
      "name": "MessageReceived",
      "type": "event"
    },
    {
      "anonymous": false,
      "inputs": [
        {
          "indexed": true,
          "internalType": "address",
          "name": "sourceGovernor",
          "type": "address"
        }
      ],
      "name": "SourceGovernorUpdated",
      "type": "event"
    },
    {
      "inputs": [],
      "name": "DEFAULT_DATA_LENGTH",
      "outputs": [
        {
          "internalType": "uint256",
          "name": "",
          "type": "uint256"
        }
      ],
      "stateMutability": "view",
      "type": "function"
    },
    {
      "inputs": [
        {
          "internalType": "address",
          "name": "newSourceGovernor",
          "type": "address"
        }
      ],
      "name": "changeSourceGovernor",
      "outputs": [],
      "stateMutability": "nonpayable",
      "type": "function"
    },
    {
      "inputs": [
        {
          "internalType": "bytes32",
          "name": "",
          "type": "bytes32"
        }
      ],
      "name": "mapDeliveryHashes",
      "outputs": [
        {
          "internalType": "bool",
          "name": "",
          "type": "bool"
        }
      ],
      "stateMutability": "view",
      "type": "function"
    },
    {
      "inputs": [
        {
          "internalType": "bytes",
          "name": "data",
          "type": "bytes"
        },
        {
          "internalType": "bytes[]",
          "name": "",
          "type": "bytes[]"
        },
        {
          "internalType": "bytes32",
          "name": "sourceAddress",
          "type": "bytes32"
        },
        {
          "internalType": "uint16",
          "name": "sourceChain",
          "type": "uint16"
        },
        {
          "internalType": "bytes32",
          "name": "deliveryHash",
          "type": "bytes32"
        }
      ],
      "name": "receiveWormholeMessages",
      "outputs": [],
      "stateMutability": "payable",
      "type": "function"
    },
    {
      "inputs": [],
      "name": "sourceGovernor",
      "outputs": [
        {
          "internalType": "address",
          "name": "",
          "type": "address"
        }
      ],
      "stateMutability": "view",
      "type": "function"
    },
    {
      "inputs": [],
      "name": "sourceGovernorChainId",
      "outputs": [
        {
          "internalType": "uint16",
          "name": "",
          "type": "uint16"
        }
      ],
      "stateMutability": "view",
      "type": "function"
    },
    {
      "inputs": [],
      "name": "wormholeRelayer",
      "outputs": [
        {
          "internalType": "address",
          "name": "",
          "type": "address"
        }
      ],
      "stateMutability": "view",
      "type": "function"
    },
    {
      "stateMutability": "payable",
      "type": "receive"
    }
  ],
  "bytecode": "0x60c060405234801561001057600080fd5b50604051610e18380380610e1883398101604081905261002f916100de565b6001600160a01b038316158061004c57506001600160a01b038216155b1561006a5760405163d92e233d60e01b815260040160405180910390fd5b8061ffff1660000361008f57604051637c946ed760e01b815260040160405180910390fd5b6001600160a01b03928316608052600080546001600160a01b031916929093169190911790915561ffff1660a05261012c565b80516001600160a01b03811681146100d957600080fd5b919050565b6000806000606084860312156100f357600080fd5b6100fc846100c2565b925061010a602085016100c2565b9150604084015161ffff8116811461012157600080fd5b809150509250925092565b60805160a051610cab61016d6000396000818161010c015281816102d3015261033301526000818161016801528181610237015261029f0152610cab6000f3fe6080604052600436106100745760003560e01c8063da25b7251161004e578063da25b72514610156578063e3b94a23146101af578063f02fb774146101dc578063f8b4870f146101ff57600080fd5b8063446a9695146100b557806347059760146100fa578063529dca321461014157600080fd5b366100b05760405134815233907f8e47b87b0ef542cdfa1659c551d88bad38aa7f452d2bbb349ab7530dfec8be8f9060200160405180910390a2005b600080fd5b3480156100c157600080fd5b506100e56100d0366004610881565b60016020526000908152604090205460ff1681565b60405190151581526020015b60405180910390f35b34801561010657600080fd5b5061012e7f000000000000000000000000000000000000000000000000000000000000000081565b60405161ffff90911681526020016100f1565b61015461014f3660046109bd565b61021f565b005b34801561016257600080fd5b5061018a7f000000000000000000000000000000000000000000000000000000000000000081565b60405173ffffffffffffffffffffffffffffffffffffffff90911681526020016100f1565b3480156101bb57600080fd5b5060005461018a9073ffffffffffffffffffffffffffffffffffffffff1681565b3480156101e857600080fd5b506101f1602481565b6040519081526020016100f1565b34801561020b57600080fd5b5061015461021a366004610ac6565b6104c2565b3373ffffffffffffffffffffffffffffffffffffffff7f000000000000000000000000000000000000000000000000000000000000000016146102d1576040517f264cd9ca00000000000000000000000000000000000000000000000000000000815233600482015273ffffffffffffffffffffffffffffffffffffffff7f00000000000000000000000000000000000000000000000000000000000000001660248201526044015b60405180910390fd5b7f000000000000000000000000000000000000000000000000000000000000000061ffff168261ffff1614610360576040517fab1e308b00000000000000000000000000000000000000000000000000000000815261ffff80841660048301527f00000000000000000000000000000000000000000000000000000000000000001660248201526044016102c8565b60005473ffffffffffffffffffffffffffffffffffffffff908116908490811682146103d8576040517f978c830c00000000000000000000000000000000000000000000000000000000815273ffffffffffffffffffffffffffffffffffffffff8083166004830152831660248201526044016102c8565b60008381526001602052604090205460ff1615610424576040517f56bc34a1000000000000000000000000000000000000000000000000000000008152600481018490526024016102c8565b600083815260016020819052604090912080547fffffffffffffffffffffffffffffffffffffffffffffffffffffffffffffff00169091179055610467876105bd565b8173ffffffffffffffffffffffffffffffffffffffff167f538b8a300f32521e3c4b1bc21b3bc8bbc5752f33e4186f78ed3a359aa905adec8885876040516104b193929190610b71565b60405180910390a250505050505050565b333014610503576040517f0dbc9bfc0000000000000000000000000000000000000000000000000000000081523360048201523060248201526044016102c8565b73ffffffffffffffffffffffffffffffffffffffff8116610550576040517fd92e233d00000000000000000000000000000000000000000000000000000000815260040160405180910390fd5b600080547fffffffffffffffffffffffff00000000000000000000000000000000000000001673ffffffffffffffffffffffffffffffffffffffff8316908117825560405190917fbbc9d5867fd60faf098cfaa8adb3402dd83501cc76385968ddbb6b2610800f8e91a250565b805160248110156106085781516040517f34c9027a0000000000000000000000000000000000000000000000000000000081526102c891602491600401918252602082015260400190565b60005b8181101561087c57828101601481015160208201516024928301519290930192909173ffffffffffffffffffffffffffffffffffffffff831661067a576040517fd92e233d00000000000000000000000000000000000000000000000000000000815260040160405180910390fd5b47826bffffffffffffffffffffffff1611156106d8576040517fcf4791810000000000000000000000000000000000000000000000000000000081526bffffffffffffffffffffffff831660048201524760248201526044016102c8565b60008163ffffffff1667ffffffffffffffff8111156106f9576106f961089a565b6040519080825280601f01601f191660200182016040528015610723576020820181803683370190505b50905060005b8263ffffffff168110156107a657876107428288610b9e565b8151811061075257610752610bde565b602001015160f81c60f81b82828151811061076f5761076f610bde565b60200101907effffffffffffffffffffffffffffffffffffffffffffffffffffffffffffff1916908160001a905350600101610729565b506107b763ffffffff831686610b9e565b945060008473ffffffffffffffffffffffffffffffffffffffff16846bffffffffffffffffffffffff16836040516107ef9190610c0d565b60006040518083038185875af1925050503d806000811461082c576040519150601f19603f3d011682016040523d82523d6000602084013e610831565b606091505b5050905080610872578484836040517f6cfc79a50000000000000000000000000000000000000000000000000000000081526004016102c893929190610c29565b505050505061060b565b505050565b60006020828403121561089357600080fd5b5035919050565b7f4e487b7100000000000000000000000000000000000000000000000000000000600052604160045260246000fd5b604051601f82017fffffffffffffffffffffffffffffffffffffffffffffffffffffffffffffffe016810167ffffffffffffffff811182821017156109105761091061089a565b604052919050565b600082601f83011261092957600080fd5b813567ffffffffffffffff8111156109435761094361089a565b61097460207fffffffffffffffffffffffffffffffffffffffffffffffffffffffffffffffe0601f840116016108c9565b81815284602083860101111561098957600080fd5b816020850160208301376000918101602001919091529392505050565b803561ffff811681146109b857600080fd5b919050565b600080600080600060a086880312156109d557600080fd5b853567ffffffffffffffff808211156109ed57600080fd5b6109f989838a01610918565b9650602091508188013581811115610a1057600080fd5b8801601f81018a13610a2157600080fd5b803582811115610a3357610a3361089a565b8060051b610a428582016108c9565b918252828101850191858101908d841115610a5c57600080fd5b86850192505b83831015610a9857823586811115610a7a5760008081fd5b610a888f8983890101610918565b8352509186019190860190610a62565b809a505050505050505060408601359250610ab5606087016109a6565b949793965091946080013592915050565b600060208284031215610ad857600080fd5b813573ffffffffffffffffffffffffffffffffffffffff81168114610afc57600080fd5b9392505050565b60005b83811015610b1e578181015183820152602001610b06565b50506000910152565b60008151808452610b3f816020860160208601610b03565b601f017fffffffffffffffffffffffffffffffffffffffffffffffffffffffffffffffe0169290920160200192915050565b606081526000610b846060830186610b27565b905083602083015261ffff83166040830152949350505050565b80820180821115610bd8577f4e487b7100000000000000000000000000000000000000000000000000000000600052601160045260246000fd5b92915050565b7f4e487b7100000000000000000000000000000000000000000000000000000000600052603260045260246000fd5b60008251610c1f818460208701610b03565b9190910192915050565b73ffffffffffffffffffffffffffffffffffffffff841681526bffffffffffffffffffffffff83166020820152606060408201526000610c6c6060830184610b27565b9594505050505056fea2646970667358221220d436c8dbe28cc449da521ac2e4e278b4d3ab40996ae6e9d170ef0bb4186da40b64736f6c63430008170033",
  "linkReferences": {},
  "deployedLinkReferences": {}
}