{
  "_format": "hh-sol-artifact-1",
  "contractName": "WormholeMessenger",
  "sourceName": "contracts/bridges/WormholeMessenger.sol",
  "abi": [
    {
      "inputs": [
        {
          "internalType": "address",
          "name": "_wormholeRelayer",
          "type": "address"
        },
        {
          "internalType": "address",
          "name": "_foreignGovernor",
          "type": "address"
        }
      ],
      "stateMutability": "nonpayable",
      "type": "constructor"
    },
    {
      "inputs": [
        {
          "internalType": "bytes32",
          "name": "deliveryHash",
          "type": "bytes32"
        }
      ],
      "name": "AlreadyDelivered",
      "type": "error"
    },
    {
      "inputs": [
        {
          "internalType": "address",
          "name": "sender",
          "type": "address"
        },
        {
          "internalType": "address",
          "name": "foreignGovernor",
          "type": "address"
        }
      ],
      "name": "ForeignGovernorOnly",
      "type": "error"
    },
    {
      "inputs": [
        {
          "internalType": "uint256",
          "name": "expected",
          "type": "uint256"
        },
        {
          "internalType": "uint256",
          "name": "provided",
          "type": "uint256"
        }
      ],
      "name": "IncorrectDataLength",
      "type": "error"
    },
    {
      "inputs": [
        {
          "internalType": "uint256",
          "name": "value",
          "type": "uint256"
        },
        {
          "internalType": "uint256",
          "name": "balance",
          "type": "uint256"
        }
      ],
      "name": "InsufficientBalance",
      "type": "error"
    },
    {
      "inputs": [
        {
          "internalType": "address",
          "name": "sender",
          "type": "address"
        },
        {
          "internalType": "address",
          "name": "instance",
          "type": "address"
        }
      ],
      "name": "SelfCallOnly",
      "type": "error"
    },
    {
      "inputs": [
        {
          "internalType": "address",
          "name": "target",
          "type": "address"
        },
        {
          "internalType": "uint256",
          "name": "value",
          "type": "uint256"
        },
        {
          "internalType": "bytes",
          "name": "payload",
          "type": "bytes"
        }
      ],
      "name": "TargetExecFailed",
      "type": "error"
    },
    {
      "inputs": [],
      "name": "ZeroAddress",
      "type": "error"
    },
    {
      "inputs": [
        {
          "internalType": "address",
          "name": "sender",
          "type": "address"
        },
        {
          "internalType": "address",
          "name": "wormholeRelayer",
          "type": "address"
        }
      ],
      "name": "wormholeRelayerOnly",
      "type": "error"
    },
    {
      "anonymous": false,
      "inputs": [
        {
          "indexed": true,
          "internalType": "address",
          "name": "foreignMessageSender",
          "type": "address"
        }
      ],
      "name": "ForeignGovernorUpdated",
      "type": "event"
    },
    {
      "anonymous": false,
      "inputs": [
        {
          "indexed": true,
          "internalType": "address",
          "name": "sender",
          "type": "address"
        },
        {
          "indexed": false,
          "internalType": "uint256",
          "name": "value",
          "type": "uint256"
        }
      ],
      "name": "FundsReceived",
      "type": "event"
    },
    {
      "anonymous": false,
      "inputs": [
        {
          "indexed": true,
          "internalType": "address",
          "name": "foreignMessageSender",
          "type": "address"
        },
        {
          "indexed": false,
          "internalType": "bytes",
          "name": "data",
          "type": "bytes"
        },
        {
          "indexed": false,
          "internalType": "bytes32",
          "name": "deliveryHash",
          "type": "bytes32"
        },
        {
          "indexed": false,
          "internalType": "uint16",
          "name": "sourceChain",
          "type": "uint16"
        }
      ],
      "name": "MessageReceived",
      "type": "event"
    },
    {
      "inputs": [],
      "name": "DEFAULT_DATA_LENGTH",
      "outputs": [
        {
          "internalType": "uint256",
          "name": "",
          "type": "uint256"
        }
      ],
      "stateMutability": "view",
      "type": "function"
    },
    {
      "inputs": [],
      "name": "FOREIGN_GOVERNOR_CHAIN_ID",
      "outputs": [
        {
          "internalType": "uint16",
          "name": "",
          "type": "uint16"
        }
      ],
      "stateMutability": "view",
      "type": "function"
    },
    {
      "inputs": [
        {
          "internalType": "address",
          "name": "newForeignGovernor",
          "type": "address"
        }
      ],
      "name": "changeForeignGovernor",
      "outputs": [],
      "stateMutability": "nonpayable",
      "type": "function"
    },
    {
      "inputs": [],
      "name": "foreignGovernor",
      "outputs": [
        {
          "internalType": "address",
          "name": "",
          "type": "address"
        }
      ],
      "stateMutability": "view",
      "type": "function"
    },
    {
      "inputs": [
        {
          "internalType": "bytes32",
          "name": "",
          "type": "bytes32"
        }
      ],
      "name": "mapDeliveryHashes",
      "outputs": [
        {
          "internalType": "bool",
          "name": "",
          "type": "bool"
        }
      ],
      "stateMutability": "view",
      "type": "function"
    },
    {
      "inputs": [
        {
          "internalType": "bytes",
          "name": "data",
          "type": "bytes"
        },
        {
          "internalType": "bytes[]",
          "name": "",
          "type": "bytes[]"
        },
        {
          "internalType": "bytes32",
          "name": "sourceAddress",
          "type": "bytes32"
        },
        {
          "internalType": "uint16",
          "name": "sourceChain",
          "type": "uint16"
        },
        {
          "internalType": "bytes32",
          "name": "deliveryHash",
          "type": "bytes32"
        }
      ],
      "name": "receiveWormholeMessages",
      "outputs": [],
      "stateMutability": "payable",
      "type": "function"
    },
    {
      "inputs": [],
      "name": "wormholeRelayer",
      "outputs": [
        {
          "internalType": "address",
          "name": "",
          "type": "address"
        }
      ],
      "stateMutability": "view",
      "type": "function"
    },
    {
      "stateMutability": "payable",
      "type": "receive"
    }
  ],
  "bytecode": "0x60a060405234801561001057600080fd5b50604051610cfb380380610cfb83398101604081905261002f916100ae565b6001600160a01b038216158061004c57506001600160a01b038116155b1561006a5760405163d92e233d60e01b815260040160405180910390fd5b6001600160a01b03918216608052600080546001600160a01b031916919092161790556100e1565b80516001600160a01b03811681146100a957600080fd5b919050565b600080604083850312156100c157600080fd5b6100ca83610092565b91506100d860208401610092565b90509250929050565b608051610bf161010a600039600081816101690152818161031801526103800152610bf16000f3fe6080604052600436106100745760003560e01c806380b2b8401161004e57806380b2b8401461012f578063da25b72514610157578063dd32a506146101b0578063f02fb774146101dd57600080fd5b8063400a2c10146100b5578063446a9695146100d7578063529dca321461011c57600080fd5b366100b05760405134815233907f8e47b87b0ef542cdfa1659c551d88bad38aa7f452d2bbb349ab7530dfec8be8f9060200160405180910390a2005b600080fd5b3480156100c157600080fd5b506100d56100d03660046107c7565b610200565b005b3480156100e357600080fd5b506101076100f2366004610804565b60016020526000908152604090205460ff1681565b60405190151581526020015b60405180910390f35b6100d561012a366004610940565b610300565b34801561013b57600080fd5b50610144600281565b60405161ffff9091168152602001610113565b34801561016357600080fd5b5061018b7f000000000000000000000000000000000000000000000000000000000000000081565b60405173ffffffffffffffffffffffffffffffffffffffff9091168152602001610113565b3480156101bc57600080fd5b5060005461018b9073ffffffffffffffffffffffffffffffffffffffff1681565b3480156101e957600080fd5b506101f2602481565b604051908152602001610113565b333014610246576040517f0dbc9bfc0000000000000000000000000000000000000000000000000000000081523360048201523060248201526044015b60405180910390fd5b73ffffffffffffffffffffffffffffffffffffffff8116610293576040517fd92e233d00000000000000000000000000000000000000000000000000000000815260040160405180910390fd5b600080547fffffffffffffffffffffffff00000000000000000000000000000000000000001673ffffffffffffffffffffffffffffffffffffffff8316908117825560405190917ff453e38063153897c0cb53422f7eb5eed0ee1866e8d47fd6b302acbe3b5d221d91a250565b3373ffffffffffffffffffffffffffffffffffffffff7f000000000000000000000000000000000000000000000000000000000000000016146103ad576040517ffb8d9f7600000000000000000000000000000000000000000000000000000000815233600482015273ffffffffffffffffffffffffffffffffffffffff7f000000000000000000000000000000000000000000000000000000000000000016602482015260440161023d565b60005473ffffffffffffffffffffffffffffffffffffffff90811690849081168214610425576040517f33527f4900000000000000000000000000000000000000000000000000000000815273ffffffffffffffffffffffffffffffffffffffff80831660048301528316602482015260440161023d565b60008381526001602052604090205460ff1615610471576040517f56bc34a10000000000000000000000000000000000000000000000000000000081526004810184905260240161023d565b600083815260016020819052604090912080547fffffffffffffffffffffffffffffffffffffffffffffffffffffffffffffff00169091179055865160248110156104f65787516040517f34c9027a00000000000000000000000000000000000000000000000000000000815261023d91602491600401918252602082015260400190565b60005b8181101561076a57888101601481015160208201516024928301519290930192909173ffffffffffffffffffffffffffffffffffffffff8316610568576040517fd92e233d00000000000000000000000000000000000000000000000000000000815260040160405180910390fd5b47826bffffffffffffffffffffffff1611156105c6576040517fcf4791810000000000000000000000000000000000000000000000000000000081526bffffffffffffffffffffffff8316600482015247602482015260440161023d565b60008163ffffffff1667ffffffffffffffff8111156105e7576105e761081d565b6040519080825280601f01601f191660200182016040528015610611576020820181803683370190505b50905060005b8263ffffffff16811015610694578d6106308288610a49565b8151811061064057610640610a89565b602001015160f81c60f81b82828151811061065d5761065d610a89565b60200101907effffffffffffffffffffffffffffffffffffffffffffffffffffffffffffff1916908160001a905350600101610617565b506106a563ffffffff831686610a49565b945060008473ffffffffffffffffffffffffffffffffffffffff16846bffffffffffffffffffffffff16836040516106dd9190610adc565b60006040518083038185875af1925050503d806000811461071a576040519150601f19603f3d011682016040523d82523d6000602084013e61071f565b606091505b5050905080610760578484836040517f6cfc79a500000000000000000000000000000000000000000000000000000000815260040161023d93929190610b42565b50505050506104f9565b508273ffffffffffffffffffffffffffffffffffffffff167f2e472f921bc1cee4fc72bccf67d98eb10dda3289b0e59ca881ed8b05056492e98986886040516107b593929190610b8e565b60405180910390a25050505050505050565b6000602082840312156107d957600080fd5b813573ffffffffffffffffffffffffffffffffffffffff811681146107fd57600080fd5b9392505050565b60006020828403121561081657600080fd5b5035919050565b7f4e487b7100000000000000000000000000000000000000000000000000000000600052604160045260246000fd5b604051601f82017fffffffffffffffffffffffffffffffffffffffffffffffffffffffffffffffe016810167ffffffffffffffff811182821017156108935761089361081d565b604052919050565b600082601f8301126108ac57600080fd5b813567ffffffffffffffff8111156108c6576108c661081d565b6108f760207fffffffffffffffffffffffffffffffffffffffffffffffffffffffffffffffe0601f8401160161084c565b81815284602083860101111561090c57600080fd5b816020850160208301376000918101602001919091529392505050565b803561ffff8116811461093b57600080fd5b919050565b600080600080600060a0868803121561095857600080fd5b853567ffffffffffffffff8082111561097057600080fd5b61097c89838a0161089b565b965060209150818801358181111561099357600080fd5b8801601f81018a136109a457600080fd5b8035828111156109b6576109b661081d565b8060051b6109c585820161084c565b918252828101850191858101908d8411156109df57600080fd5b86850192505b83831015610a1b578235868111156109fd5760008081fd5b610a0b8f898389010161089b565b83525091860191908601906109e5565b809a505050505050505060408601359250610a3860608701610929565b949793965091946080013592915050565b80820180821115610a83577f4e487b7100000000000000000000000000000000000000000000000000000000600052601160045260246000fd5b92915050565b7f4e487b7100000000000000000000000000000000000000000000000000000000600052603260045260246000fd5b60005b83811015610ad3578181015183820152602001610abb565b50506000910152565b60008251610aee818460208701610ab8565b9190910192915050565b60008151808452610b10816020860160208601610ab8565b601f017fffffffffffffffffffffffffffffffffffffffffffffffffffffffffffffffe0169290920160200192915050565b73ffffffffffffffffffffffffffffffffffffffff841681526bffffffffffffffffffffffff83166020820152606060408201526000610b856060830184610af8565b95945050505050565b606081526000610ba16060830186610af8565b905083602083015261ffff8316604083015294935050505056fea2646970667358221220838fbf79f1434f7ce7db36ad6117fcbbf897b935e9051557dc859db67e4900ac64736f6c63430008170033",
  "linkReferences": {},
  "deployedLinkReferences": {}
}