{
  "_format": "hh-sol-artifact-1",
  "contractName": "WormholeMessenger",
  "sourceName": "contracts/bridges/WormholeMessenger.sol",
  "abi": [
    {
      "inputs": [
        {
          "internalType": "address",
          "name": "_wormholeRelayer",
          "type": "address"
        },
        {
          "internalType": "address",
          "name": "_sourceGovernor",
          "type": "address"
        },
        {
          "internalType": "uint16",
          "name": "_sourceGovernorChainId",
          "type": "uint16"
        }
      ],
      "stateMutability": "nonpayable",
      "type": "constructor"
    },
    {
      "inputs": [
        {
          "internalType": "bytes32",
          "name": "deliveryHash",
          "type": "bytes32"
        }
      ],
      "name": "AlreadyDelivered",
      "type": "error"
    },
    {
      "inputs": [
        {
          "internalType": "uint256",
          "name": "expected",
          "type": "uint256"
        },
        {
          "internalType": "uint256",
          "name": "provided",
          "type": "uint256"
        }
      ],
      "name": "IncorrectDataLength",
      "type": "error"
    },
    {
      "inputs": [
        {
          "internalType": "uint256",
          "name": "value",
          "type": "uint256"
        },
        {
          "internalType": "uint256",
          "name": "balance",
          "type": "uint256"
        }
      ],
      "name": "InsufficientBalance",
      "type": "error"
    },
    {
      "inputs": [
        {
          "internalType": "address",
          "name": "sender",
          "type": "address"
        },
        {
          "internalType": "address",
          "name": "instance",
          "type": "address"
        }
      ],
      "name": "SelfCallOnly",
      "type": "error"
    },
    {
      "inputs": [
        {
          "internalType": "address",
          "name": "sender",
          "type": "address"
        },
        {
          "internalType": "address",
          "name": "sourceGovernor",
          "type": "address"
        }
      ],
      "name": "SourceGovernorOnly",
      "type": "error"
    },
    {
      "inputs": [
        {
          "internalType": "address",
          "name": "target",
          "type": "address"
        },
        {
          "internalType": "uint256",
          "name": "value",
          "type": "uint256"
        },
        {
          "internalType": "bytes",
          "name": "payload",
          "type": "bytes"
        }
      ],
      "name": "TargetExecFailed",
      "type": "error"
    },
    {
      "inputs": [
        {
          "internalType": "uint256",
          "name": "received",
          "type": "uint256"
        },
        {
          "internalType": "uint256",
          "name": "required",
          "type": "uint256"
        }
      ],
      "name": "WrongSourceChainId",
      "type": "error"
    },
    {
      "inputs": [],
      "name": "ZeroAddress",
      "type": "error"
    },
    {
      "inputs": [],
      "name": "ZeroValue",
      "type": "error"
    },
    {
      "inputs": [
        {
          "internalType": "address",
          "name": "sender",
          "type": "address"
        },
        {
          "internalType": "address",
          "name": "wormholeRelayer",
          "type": "address"
        }
      ],
      "name": "wormholeRelayerOnly",
      "type": "error"
    },
    {
      "anonymous": false,
      "inputs": [
        {
          "indexed": true,
          "internalType": "address",
          "name": "sender",
          "type": "address"
        },
        {
          "indexed": false,
          "internalType": "uint256",
          "name": "value",
          "type": "uint256"
        }
      ],
      "name": "FundsReceived",
      "type": "event"
    },
    {
      "anonymous": false,
      "inputs": [
        {
          "indexed": true,
          "internalType": "address",
          "name": "sourceMessageSender",
          "type": "address"
        },
        {
          "indexed": false,
          "internalType": "bytes",
          "name": "data",
          "type": "bytes"
        },
        {
          "indexed": false,
          "internalType": "bytes32",
          "name": "deliveryHash",
          "type": "bytes32"
        },
        {
          "indexed": false,
          "internalType": "uint256",
          "name": "sourceChain",
          "type": "uint256"
        }
      ],
      "name": "MessageReceived",
      "type": "event"
    },
    {
      "anonymous": false,
      "inputs": [
        {
          "indexed": true,
          "internalType": "address",
          "name": "sourceMessageSender",
          "type": "address"
        }
      ],
      "name": "SourceGovernorUpdated",
      "type": "event"
    },
    {
      "inputs": [],
      "name": "DEFAULT_DATA_LENGTH",
      "outputs": [
        {
          "internalType": "uint256",
          "name": "",
          "type": "uint256"
        }
      ],
      "stateMutability": "view",
      "type": "function"
    },
    {
      "inputs": [
        {
          "internalType": "address",
          "name": "newSourceGovernor",
          "type": "address"
        }
      ],
      "name": "changeSourceGovernor",
      "outputs": [],
      "stateMutability": "nonpayable",
      "type": "function"
    },
    {
      "inputs": [
        {
          "internalType": "bytes32",
          "name": "",
          "type": "bytes32"
        }
      ],
      "name": "mapDeliveryHashes",
      "outputs": [
        {
          "internalType": "bool",
          "name": "",
          "type": "bool"
        }
      ],
      "stateMutability": "view",
      "type": "function"
    },
    {
      "inputs": [
        {
          "internalType": "bytes",
          "name": "data",
          "type": "bytes"
        },
        {
          "internalType": "bytes[]",
          "name": "",
          "type": "bytes[]"
        },
        {
          "internalType": "bytes32",
          "name": "sourceAddress",
          "type": "bytes32"
        },
        {
          "internalType": "uint16",
          "name": "sourceChain",
          "type": "uint16"
        },
        {
          "internalType": "bytes32",
          "name": "deliveryHash",
          "type": "bytes32"
        }
      ],
      "name": "receiveWormholeMessages",
      "outputs": [],
      "stateMutability": "payable",
      "type": "function"
    },
    {
      "inputs": [],
      "name": "sourceGovernor",
      "outputs": [
        {
          "internalType": "address",
          "name": "",
          "type": "address"
        }
      ],
      "stateMutability": "view",
      "type": "function"
    },
    {
      "inputs": [],
      "name": "sourceGovernorChainId",
      "outputs": [
        {
          "internalType": "uint16",
          "name": "",
          "type": "uint16"
        }
      ],
      "stateMutability": "view",
      "type": "function"
    },
    {
      "inputs": [],
      "name": "wormholeRelayer",
      "outputs": [
        {
          "internalType": "address",
          "name": "",
          "type": "address"
        }
      ],
      "stateMutability": "view",
      "type": "function"
    },
    {
      "stateMutability": "payable",
      "type": "receive"
    }
  ],
  "bytecode": "0x60c060405234801561001057600080fd5b50604051610e0c380380610e0c83398101604081905261002f916100de565b6001600160a01b038316158061004c57506001600160a01b038216155b1561006a5760405163d92e233d60e01b815260040160405180910390fd5b8061ffff1660000361008f57604051637c946ed760e01b815260040160405180910390fd5b6001600160a01b03928316608052600080546001600160a01b031916929093169190911790915561ffff1660a05261012c565b80516001600160a01b03811681146100d957600080fd5b919050565b6000806000606084860312156100f357600080fd5b6100fc846100c2565b925061010a602085016100c2565b9150604084015161ffff8116811461012157600080fd5b809150509250925092565b60805160a051610c9f61016d6000396000818161010c015281816102d3015261033301526000818161016801528181610237015261029f0152610c9f6000f3fe6080604052600436106100745760003560e01c8063da25b7251161004e578063da25b72514610156578063e3b94a23146101af578063f02fb774146101dc578063f8b4870f146101ff57600080fd5b8063446a9695146100b557806347059760146100fa578063529dca321461014157600080fd5b366100b05760405134815233907f8e47b87b0ef542cdfa1659c551d88bad38aa7f452d2bbb349ab7530dfec8be8f9060200160405180910390a2005b600080fd5b3480156100c157600080fd5b506100e56100d0366004610875565b60016020526000908152604090205460ff1681565b60405190151581526020015b60405180910390f35b34801561010657600080fd5b5061012e7f000000000000000000000000000000000000000000000000000000000000000081565b60405161ffff90911681526020016100f1565b61015461014f3660046109b1565b61021f565b005b34801561016257600080fd5b5061018a7f000000000000000000000000000000000000000000000000000000000000000081565b60405173ffffffffffffffffffffffffffffffffffffffff90911681526020016100f1565b3480156101bb57600080fd5b5060005461018a9073ffffffffffffffffffffffffffffffffffffffff1681565b3480156101e857600080fd5b506101f1602481565b6040519081526020016100f1565b34801561020b57600080fd5b5061015461021a366004610aba565b61077a565b3373ffffffffffffffffffffffffffffffffffffffff7f000000000000000000000000000000000000000000000000000000000000000016146102d1576040517ffb8d9f7600000000000000000000000000000000000000000000000000000000815233600482015273ffffffffffffffffffffffffffffffffffffffff7f00000000000000000000000000000000000000000000000000000000000000001660248201526044015b60405180910390fd5b7f000000000000000000000000000000000000000000000000000000000000000061ffff168261ffff1614610360576040517fab1e308b00000000000000000000000000000000000000000000000000000000815261ffff80841660048301527f00000000000000000000000000000000000000000000000000000000000000001660248201526044016102c8565b60005473ffffffffffffffffffffffffffffffffffffffff908116908490811682146103d8576040517f978c830c00000000000000000000000000000000000000000000000000000000815273ffffffffffffffffffffffffffffffffffffffff8083166004830152831660248201526044016102c8565b60008381526001602052604090205460ff1615610424576040517f56bc34a1000000000000000000000000000000000000000000000000000000008152600481018490526024016102c8565b600083815260016020819052604090912080547fffffffffffffffffffffffffffffffffffffffffffffffffffffffffffffff00169091179055865160248110156104a95787516040517f34c9027a0000000000000000000000000000000000000000000000000000000081526102c891602491600401918252602082015260400190565b60005b8181101561071d57888101601481015160208201516024928301519290930192909173ffffffffffffffffffffffffffffffffffffffff831661051b576040517fd92e233d00000000000000000000000000000000000000000000000000000000815260040160405180910390fd5b47826bffffffffffffffffffffffff161115610579576040517fcf4791810000000000000000000000000000000000000000000000000000000081526bffffffffffffffffffffffff831660048201524760248201526044016102c8565b60008163ffffffff1667ffffffffffffffff81111561059a5761059a61088e565b6040519080825280601f01601f1916602001820160405280156105c4576020820181803683370190505b50905060005b8263ffffffff16811015610647578d6105e38288610af7565b815181106105f3576105f3610b37565b602001015160f81c60f81b82828151811061061057610610610b37565b60200101907effffffffffffffffffffffffffffffffffffffffffffffffffffffffffffff1916908160001a9053506001016105ca565b5061065863ffffffff831686610af7565b945060008473ffffffffffffffffffffffffffffffffffffffff16846bffffffffffffffffffffffff16836040516106909190610b8a565b60006040518083038185875af1925050503d80600081146106cd576040519150601f19603f3d011682016040523d82523d6000602084013e6106d2565b606091505b5050905080610713578484836040517f6cfc79a50000000000000000000000000000000000000000000000000000000081526004016102c893929190610bf0565b50505050506104ac565b508273ffffffffffffffffffffffffffffffffffffffff167f538b8a300f32521e3c4b1bc21b3bc8bbc5752f33e4186f78ed3a359aa905adec89868860405161076893929190610c3c565b60405180910390a25050505050505050565b3330146107bb576040517f0dbc9bfc0000000000000000000000000000000000000000000000000000000081523360048201523060248201526044016102c8565b73ffffffffffffffffffffffffffffffffffffffff8116610808576040517fd92e233d00000000000000000000000000000000000000000000000000000000815260040160405180910390fd5b600080547fffffffffffffffffffffffff00000000000000000000000000000000000000001673ffffffffffffffffffffffffffffffffffffffff8316908117825560405190917fbbc9d5867fd60faf098cfaa8adb3402dd83501cc76385968ddbb6b2610800f8e91a250565b60006020828403121561088757600080fd5b5035919050565b7f4e487b7100000000000000000000000000000000000000000000000000000000600052604160045260246000fd5b604051601f82017fffffffffffffffffffffffffffffffffffffffffffffffffffffffffffffffe016810167ffffffffffffffff811182821017156109045761090461088e565b604052919050565b600082601f83011261091d57600080fd5b813567ffffffffffffffff8111156109375761093761088e565b61096860207fffffffffffffffffffffffffffffffffffffffffffffffffffffffffffffffe0601f840116016108bd565b81815284602083860101111561097d57600080fd5b816020850160208301376000918101602001919091529392505050565b803561ffff811681146109ac57600080fd5b919050565b600080600080600060a086880312156109c957600080fd5b853567ffffffffffffffff808211156109e157600080fd5b6109ed89838a0161090c565b9650602091508188013581811115610a0457600080fd5b8801601f81018a13610a1557600080fd5b803582811115610a2757610a2761088e565b8060051b610a368582016108bd565b918252828101850191858101908d841115610a5057600080fd5b86850192505b83831015610a8c57823586811115610a6e5760008081fd5b610a7c8f898389010161090c565b8352509186019190860190610a56565b809a505050505050505060408601359250610aa96060870161099a565b949793965091946080013592915050565b600060208284031215610acc57600080fd5b813573ffffffffffffffffffffffffffffffffffffffff81168114610af057600080fd5b9392505050565b80820180821115610b31577f4e487b7100000000000000000000000000000000000000000000000000000000600052601160045260246000fd5b92915050565b7f4e487b7100000000000000000000000000000000000000000000000000000000600052603260045260246000fd5b60005b83811015610b81578181015183820152602001610b69565b50506000910152565b60008251610b9c818460208701610b66565b9190910192915050565b60008151808452610bbe816020860160208601610b66565b601f017fffffffffffffffffffffffffffffffffffffffffffffffffffffffffffffffe0169290920160200192915050565b73ffffffffffffffffffffffffffffffffffffffff841681526bffffffffffffffffffffffff83166020820152606060408201526000610c336060830184610ba6565b95945050505050565b606081526000610c4f6060830186610ba6565b905083602083015261ffff8316604083015294935050505056fea2646970667358221220fbb337d6c5d31f5f2d37ec627e14d114241f70956907f60075b7ce6dd30543e164736f6c63430008170033",
  "linkReferences": {},
  "deployedLinkReferences": {}
}