{
  "_format": "hh-sol-artifact-1",
  "contractName": "WormholeMessenger",
  "sourceName": "contracts/bridges/WormholeMessenger.sol",
  "abi": [
    {
      "inputs": [
        {
          "internalType": "address",
          "name": "_wormholeRelayer",
          "type": "address"
        },
        {
          "internalType": "bytes32",
          "name": "_sourceGovernor",
          "type": "bytes32"
        },
        {
          "internalType": "uint16",
          "name": "_sourceGovernorChainId",
          "type": "uint16"
        }
      ],
      "stateMutability": "nonpayable",
      "type": "constructor"
    },
    {
      "inputs": [
        {
          "internalType": "bytes32",
          "name": "deliveryHash",
          "type": "bytes32"
        }
      ],
      "name": "AlreadyDelivered",
      "type": "error"
    },
    {
      "inputs": [
        {
          "internalType": "uint256",
          "name": "expected",
          "type": "uint256"
        },
        {
          "internalType": "uint256",
          "name": "provided",
          "type": "uint256"
        }
      ],
      "name": "IncorrectDataLength",
      "type": "error"
    },
    {
      "inputs": [
        {
          "internalType": "uint256",
          "name": "value",
          "type": "uint256"
        },
        {
          "internalType": "uint256",
          "name": "balance",
          "type": "uint256"
        }
      ],
      "name": "InsufficientBalance",
      "type": "error"
    },
    {
      "inputs": [
        {
          "internalType": "address",
          "name": "sender",
          "type": "address"
        },
        {
          "internalType": "address",
          "name": "instance",
          "type": "address"
        }
      ],
      "name": "SelfCallOnly",
      "type": "error"
    },
    {
      "inputs": [
        {
          "internalType": "address",
          "name": "sender",
          "type": "address"
        },
        {
          "internalType": "address",
          "name": "sourceGovernor",
          "type": "address"
        }
      ],
      "name": "SourceGovernorOnly",
      "type": "error"
    },
    {
      "inputs": [
        {
          "internalType": "bytes32",
          "name": "sender",
          "type": "bytes32"
        },
        {
          "internalType": "bytes32",
          "name": "sourceGovernor",
          "type": "bytes32"
        }
      ],
      "name": "SourceGovernorOnly32",
      "type": "error"
    },
    {
      "inputs": [
        {
          "internalType": "address",
          "name": "target",
          "type": "address"
        },
        {
          "internalType": "uint256",
          "name": "value",
          "type": "uint256"
        },
        {
          "internalType": "bytes",
          "name": "payload",
          "type": "bytes"
        }
      ],
      "name": "TargetExecFailed",
      "type": "error"
    },
    {
      "inputs": [
        {
          "internalType": "address",
          "name": "sender",
          "type": "address"
        },
        {
          "internalType": "address",
          "name": "targetRelayer",
          "type": "address"
        }
      ],
      "name": "TargetRelayerOnly",
      "type": "error"
    },
    {
      "inputs": [
        {
          "internalType": "uint256",
          "name": "received",
          "type": "uint256"
        },
        {
          "internalType": "uint256",
          "name": "required",
          "type": "uint256"
        }
      ],
      "name": "WrongSourceChainId",
      "type": "error"
    },
    {
      "inputs": [],
      "name": "ZeroAddress",
      "type": "error"
    },
    {
      "inputs": [],
      "name": "ZeroValue",
      "type": "error"
    },
    {
      "anonymous": false,
      "inputs": [
        {
          "indexed": true,
          "internalType": "address",
          "name": "sender",
          "type": "address"
        },
        {
          "indexed": false,
          "internalType": "uint256",
          "name": "value",
          "type": "uint256"
        }
      ],
      "name": "FundsReceived",
      "type": "event"
    },
    {
      "anonymous": false,
      "inputs": [
        {
          "indexed": true,
          "internalType": "bytes32",
          "name": "sourceMessageSender",
          "type": "bytes32"
        },
        {
          "indexed": false,
          "internalType": "bytes",
          "name": "data",
          "type": "bytes"
        },
        {
          "indexed": false,
          "internalType": "bytes32",
          "name": "deliveryHash",
          "type": "bytes32"
        },
        {
          "indexed": false,
          "internalType": "uint256",
          "name": "sourceChain",
          "type": "uint256"
        }
      ],
      "name": "MessageReceived",
      "type": "event"
    },
    {
      "anonymous": false,
      "inputs": [
        {
          "indexed": true,
          "internalType": "bytes32",
          "name": "sourceGovernor",
          "type": "bytes32"
        }
      ],
      "name": "SourceGovernorUpdated",
      "type": "event"
    },
    {
      "inputs": [],
      "name": "DEFAULT_DATA_LENGTH",
      "outputs": [
        {
          "internalType": "uint256",
          "name": "",
          "type": "uint256"
        }
      ],
      "stateMutability": "view",
      "type": "function"
    },
    {
      "inputs": [
        {
          "internalType": "bytes32",
          "name": "newSourceGovernor",
          "type": "bytes32"
        }
      ],
      "name": "changeSourceGovernor",
      "outputs": [],
      "stateMutability": "nonpayable",
      "type": "function"
    },
    {
      "inputs": [
        {
          "internalType": "bytes32",
          "name": "",
          "type": "bytes32"
        }
      ],
      "name": "mapDeliveryHashes",
      "outputs": [
        {
          "internalType": "bool",
          "name": "",
          "type": "bool"
        }
      ],
      "stateMutability": "view",
      "type": "function"
    },
    {
      "inputs": [
        {
          "internalType": "bytes",
          "name": "data",
          "type": "bytes"
        },
        {
          "internalType": "bytes[]",
          "name": "",
          "type": "bytes[]"
        },
        {
          "internalType": "bytes32",
          "name": "sourceAddress",
          "type": "bytes32"
        },
        {
          "internalType": "uint16",
          "name": "sourceChain",
          "type": "uint16"
        },
        {
          "internalType": "bytes32",
          "name": "deliveryHash",
          "type": "bytes32"
        }
      ],
      "name": "receiveWormholeMessages",
      "outputs": [],
      "stateMutability": "payable",
      "type": "function"
    },
    {
      "inputs": [],
      "name": "sourceGovernor",
      "outputs": [
        {
          "internalType": "bytes32",
          "name": "",
          "type": "bytes32"
        }
      ],
      "stateMutability": "view",
      "type": "function"
    },
    {
      "inputs": [],
      "name": "sourceGovernorChainId",
      "outputs": [
        {
          "internalType": "uint16",
          "name": "",
          "type": "uint16"
        }
      ],
      "stateMutability": "view",
      "type": "function"
    },
    {
      "inputs": [],
      "name": "wormholeRelayer",
      "outputs": [
        {
          "internalType": "address",
          "name": "",
          "type": "address"
        }
      ],
      "stateMutability": "view",
      "type": "function"
    },
    {
      "stateMutability": "payable",
      "type": "receive"
    }
  ],
  "bytecode": "0x60c060405234801561001057600080fd5b50604051610cf6380380610cf683398101604081905261002f916100a0565b6001600160a01b0383166100565760405163d92e233d60e01b815260040160405180910390fd5b811580610065575061ffff8116155b1561008357604051637c946ed760e01b815260040160405180910390fd5b6001600160a01b0390921660805260005561ffff1660a0526100f6565b6000806000606084860312156100b557600080fd5b83516001600160a01b03811681146100cc57600080fd5b60208501516040860151919450925061ffff811681146100eb57600080fd5b809150509250925092565b60805160a051610bbf6101376000396000818161010c015281816102bc015261031c0152600081816101680152818161022001526102880152610bbf6000f3fe6080604052600436106100745760003560e01c8063da25b7251161004e578063da25b72514610156578063e3b94a23146101af578063f02fb774146101d3578063fb9a487e146101e857600080fd5b8063446a9695146100b557806347059760146100fa578063529dca321461014157600080fd5b366100b05760405134815233907f8e47b87b0ef542cdfa1659c551d88bad38aa7f452d2bbb349ab7530dfec8be8f9060200160405180910390a2005b600080fd5b3480156100c157600080fd5b506100e56100d03660046107d2565b60016020526000908152604090205460ff1681565b60405190151581526020015b60405180910390f35b34801561010657600080fd5b5061012e7f000000000000000000000000000000000000000000000000000000000000000081565b60405161ffff90911681526020016100f1565b61015461014f36600461090e565b610208565b005b34801561016257600080fd5b5061018a7f000000000000000000000000000000000000000000000000000000000000000081565b60405173ffffffffffffffffffffffffffffffffffffffff90911681526020016100f1565b3480156101bb57600080fd5b506101c560005481565b6040519081526020016100f1565b3480156101df57600080fd5b506101c5602481565b3480156101f457600080fd5b506101546102033660046107d2565b610462565b3373ffffffffffffffffffffffffffffffffffffffff7f000000000000000000000000000000000000000000000000000000000000000016146102ba576040517f2f3111fa00000000000000000000000000000000000000000000000000000000815233600482015273ffffffffffffffffffffffffffffffffffffffff7f00000000000000000000000000000000000000000000000000000000000000001660248201526044015b60405180910390fd5b7f000000000000000000000000000000000000000000000000000000000000000061ffff168261ffff1614610349576040517fab1e308b00000000000000000000000000000000000000000000000000000000815261ffff80841660048301527f00000000000000000000000000000000000000000000000000000000000000001660248201526044016102b1565b60005483811461038f576040517fe4e8887200000000000000000000000000000000000000000000000000000000815260048101859052602481018290526044016102b1565b60008281526001602052604090205460ff16156103db576040517f56bc34a1000000000000000000000000000000000000000000000000000000008152600481018390526024016102b1565b600082815260016020819052604090912080547fffffffffffffffffffffffffffffffffffffffffffffffffffffffffffffff0016909117905561041e8661050e565b807fd8cd153bfe87c1532b57496df668459b04cf5517c686a785817278fae362daac87848660405161045293929190610a85565b60405180910390a2505050505050565b3330146104a3576040517f0dbc9bfc0000000000000000000000000000000000000000000000000000000081523360048201523060248201526044016102b1565b60008190036104de576040517f7c946ed700000000000000000000000000000000000000000000000000000000815260040160405180910390fd5b600081815560405182917f5a44f84b9c7ddf51c2fc1ff0026700203679762f67a7425804d9d9801d8d61e691a250565b805160248110156105595781516040517f34c9027a0000000000000000000000000000000000000000000000000000000081526102b191602491600401918252602082015260400190565b60005b818110156107cd57828101601481015160208201516024928301519290930192909173ffffffffffffffffffffffffffffffffffffffff83166105cb576040517fd92e233d00000000000000000000000000000000000000000000000000000000815260040160405180910390fd5b47826bffffffffffffffffffffffff161115610629576040517fcf4791810000000000000000000000000000000000000000000000000000000081526bffffffffffffffffffffffff831660048201524760248201526044016102b1565b60008163ffffffff1667ffffffffffffffff81111561064a5761064a6107eb565b6040519080825280601f01601f191660200182016040528015610674576020820181803683370190505b50905060005b8263ffffffff168110156106f757876106938288610ab2565b815181106106a3576106a3610af2565b602001015160f81c60f81b8282815181106106c0576106c0610af2565b60200101907effffffffffffffffffffffffffffffffffffffffffffffffffffffffffffff1916908160001a90535060010161067a565b5061070863ffffffff831686610ab2565b945060008473ffffffffffffffffffffffffffffffffffffffff16846bffffffffffffffffffffffff16836040516107409190610b21565b60006040518083038185875af1925050503d806000811461077d576040519150601f19603f3d011682016040523d82523d6000602084013e610782565b606091505b50509050806107c3578484836040517f6cfc79a50000000000000000000000000000000000000000000000000000000081526004016102b193929190610b3d565b505050505061055c565b505050565b6000602082840312156107e457600080fd5b5035919050565b7f4e487b7100000000000000000000000000000000000000000000000000000000600052604160045260246000fd5b604051601f82017fffffffffffffffffffffffffffffffffffffffffffffffffffffffffffffffe016810167ffffffffffffffff81118282101715610861576108616107eb565b604052919050565b600082601f83011261087a57600080fd5b813567ffffffffffffffff811115610894576108946107eb565b6108c560207fffffffffffffffffffffffffffffffffffffffffffffffffffffffffffffffe0601f8401160161081a565b8181528460208386010111156108da57600080fd5b816020850160208301376000918101602001919091529392505050565b803561ffff8116811461090957600080fd5b919050565b600080600080600060a0868803121561092657600080fd5b853567ffffffffffffffff8082111561093e57600080fd5b61094a89838a01610869565b965060209150818801358181111561096157600080fd5b8801601f81018a1361097257600080fd5b803582811115610984576109846107eb565b8060051b61099385820161081a565b918252828101850191858101908d8411156109ad57600080fd5b86850192505b838310156109e9578235868111156109cb5760008081fd5b6109d98f8983890101610869565b83525091860191908601906109b3565b809a505050505050505060408601359250610a06606087016108f7565b949793965091946080013592915050565b60005b83811015610a32578181015183820152602001610a1a565b50506000910152565b60008151808452610a53816020860160208601610a17565b601f017fffffffffffffffffffffffffffffffffffffffffffffffffffffffffffffffe0169290920160200192915050565b606081526000610a986060830186610a3b565b905083602083015261ffff83166040830152949350505050565b80820180821115610aec577f4e487b7100000000000000000000000000000000000000000000000000000000600052601160045260246000fd5b92915050565b7f4e487b7100000000000000000000000000000000000000000000000000000000600052603260045260246000fd5b60008251610b33818460208701610a17565b9190910192915050565b73ffffffffffffffffffffffffffffffffffffffff841681526bffffffffffffffffffffffff83166020820152606060408201526000610b806060830184610a3b565b9594505050505056fea26469706673582212204db311bcff4340e7ff2b45c2409038e5602e521f704ea4b4fc66aa64f9a069c664736f6c63430008170033",
  "linkReferences": {},
  "deployedLinkReferences": {}
}