{
  "_format": "hh-sol-artifact-1",
  "contractName": "HomeMediator",
  "sourceName": "contracts/bridges/HomeMediator.sol",
  "abi": [
    {
      "inputs": [
        {
          "internalType": "address",
          "name": "_AMBContractProxyHome",
          "type": "address"
        },
        {
          "internalType": "address",
          "name": "_foreignGovernor",
          "type": "address"
        }
      ],
      "stateMutability": "nonpayable",
      "type": "constructor"
    },
    {
      "inputs": [
        {
          "internalType": "address",
          "name": "sender",
          "type": "address"
        },
        {
          "internalType": "address",
          "name": "AMBContractProxyHome",
          "type": "address"
        }
      ],
      "name": "AMBContractProxyHomeOnly",
      "type": "error"
    },
    {
      "inputs": [
        {
          "internalType": "address",
          "name": "sender",
          "type": "address"
        },
        {
          "internalType": "address",
          "name": "foreignGovernor",
          "type": "address"
        }
      ],
      "name": "ForeignGovernorOnly",
      "type": "error"
    },
    {
      "inputs": [
        {
          "internalType": "uint256",
          "name": "expected",
          "type": "uint256"
        },
        {
          "internalType": "uint256",
          "name": "provided",
          "type": "uint256"
        }
      ],
      "name": "IncorrectDataLength",
      "type": "error"
    },
    {
      "inputs": [
        {
          "internalType": "uint256",
          "name": "value",
          "type": "uint256"
        },
        {
          "internalType": "uint256",
          "name": "balance",
          "type": "uint256"
        }
      ],
      "name": "InsufficientBalance",
      "type": "error"
    },
    {
      "inputs": [
        {
          "internalType": "address",
          "name": "sender",
          "type": "address"
        },
        {
          "internalType": "address",
          "name": "instance",
          "type": "address"
        }
      ],
      "name": "SelfCallOnly",
      "type": "error"
    },
    {
      "inputs": [
        {
          "internalType": "address",
          "name": "target",
          "type": "address"
        },
        {
          "internalType": "uint256",
          "name": "value",
          "type": "uint256"
        },
        {
          "internalType": "bytes",
          "name": "payload",
          "type": "bytes"
        }
      ],
      "name": "TargetExecFailed",
      "type": "error"
    },
    {
      "inputs": [],
      "name": "ZeroAddress",
      "type": "error"
    },
    {
      "anonymous": false,
      "inputs": [
        {
          "indexed": true,
          "internalType": "address",
          "name": "foreignMessageSender",
          "type": "address"
        }
      ],
      "name": "ForeignGovernorUpdated",
      "type": "event"
    },
    {
      "anonymous": false,
      "inputs": [
        {
          "indexed": true,
          "internalType": "address",
          "name": "sender",
          "type": "address"
        },
        {
          "indexed": false,
          "internalType": "uint256",
          "name": "value",
          "type": "uint256"
        }
      ],
      "name": "FundsReceived",
      "type": "event"
    },
    {
      "anonymous": false,
      "inputs": [
        {
          "indexed": true,
          "internalType": "address",
          "name": "foreignMessageSender",
          "type": "address"
        },
        {
          "indexed": false,
          "internalType": "bytes",
          "name": "data",
          "type": "bytes"
        }
      ],
      "name": "MessageReceived",
      "type": "event"
    },
    {
      "inputs": [],
      "name": "AMBContractProxyHome",
      "outputs": [
        {
          "internalType": "address",
          "name": "",
          "type": "address"
        }
      ],
      "stateMutability": "view",
      "type": "function"
    },
    {
      "inputs": [],
      "name": "DEFAULT_DATA_LENGTH",
      "outputs": [
        {
          "internalType": "uint256",
          "name": "",
          "type": "uint256"
        }
      ],
      "stateMutability": "view",
      "type": "function"
    },
    {
      "inputs": [
        {
          "internalType": "address",
          "name": "newForeignGovernor",
          "type": "address"
        }
      ],
      "name": "changeForeignGovernor",
      "outputs": [],
      "stateMutability": "nonpayable",
      "type": "function"
    },
    {
      "inputs": [],
      "name": "foreignGovernor",
      "outputs": [
        {
          "internalType": "address",
          "name": "",
          "type": "address"
        }
      ],
      "stateMutability": "view",
      "type": "function"
    },
    {
      "inputs": [
        {
          "internalType": "bytes",
          "name": "data",
          "type": "bytes"
        }
      ],
      "name": "processMessageFromForeign",
      "outputs": [],
      "stateMutability": "nonpayable",
      "type": "function"
    },
    {
      "stateMutability": "payable",
      "type": "receive"
    }
  ],
  "bytecode": "0x60a060405234801561001057600080fd5b5060405161098f38038061098f83398101604081905261002f916100ae565b6001600160a01b038216158061004c57506001600160a01b038116155b1561006a5760405163d92e233d60e01b815260040160405180910390fd5b6001600160a01b03918216608052600080546001600160a01b031916919092161790556100e1565b80516001600160a01b03811681146100a957600080fd5b919050565b600080604083850312156100c157600080fd5b6100ca83610092565b91506100d860208401610092565b90509250929050565b60805161087f6101106000396000818160d3015281816102340152818161027601526102c6015261087f6000f3fe60806040526004361061005e5760003560e01c8063cd9e30d911610043578063cd9e30d914610112578063dd32a50614610132578063f02fb7741461015257600080fd5b8063400a2c101461009f578063c7651153146100c157600080fd5b3661009a5760405134815233907f8e47b87b0ef542cdfa1659c551d88bad38aa7f452d2bbb349ab7530dfec8be8f9060200160405180910390a2005b600080fd5b3480156100ab57600080fd5b506100bf6100ba366004610625565b610175565b005b3480156100cd57600080fd5b506100f57f000000000000000000000000000000000000000000000000000000000000000081565b6040516001600160a01b0390911681526020015b60405180910390f35b34801561011e57600080fd5b506100bf61012d36600461065f565b610229565b34801561013e57600080fd5b506000546100f5906001600160a01b031681565b34801561015e57600080fd5b50610167602481565b604051908152602001610109565b3330146101a25760405163036f26ff60e21b81523360048201523060248201526044015b60405180910390fd5b6001600160a01b0381166101c95760405163d92e233d60e01b815260040160405180910390fd5b600080547fffffffffffffffffffffffff0000000000000000000000000000000000000000166001600160a01b038316908117825560405190917ff453e38063153897c0cb53422f7eb5eed0ee1866e8d47fd6b302acbe3b5d221d91a250565b336001600160a01b037f000000000000000000000000000000000000000000000000000000000000000016146102a3576040516338c958db60e11b81523360048201526001600160a01b037f0000000000000000000000000000000000000000000000000000000000000000166024820152604401610199565b600080546040805163d67bdd2560e01b815290516001600160a01b0392831693927f0000000000000000000000000000000000000000000000000000000000000000169163d67bdd259160048083019260209291908290030181865afa158015610311573d6000803e3d6000fd5b505050506040513d601f19601f820116820180604052508101906103359190610710565b9050816001600160a01b0316816001600160a01b03161461037c576040516333527f4960e01b81526001600160a01b03808316600483015283166024820152604401610199565b825160248110156103ae578351604051631a64813d60e11b815261019991602491600401918252602082015260400190565b60005b818110156105c55784810160148101516020820151602492830151929093019290916001600160a01b0383166103fa5760405163d92e233d60e01b815260040160405180910390fd5b47826bffffffffffffffffffffffff16111561043f5760405163cf47918160e01b81526bffffffffffffffffffffffff83166004820152476024820152604401610199565b60008163ffffffff1667ffffffffffffffff81111561046057610460610649565b6040519080825280601f01601f19166020018201604052801561048a576020820181803683370190505b50905060005b8263ffffffff1681101561051557896104a98288610743565b815181106104b9576104b961075c565b602001015160f81c60f81b8282815181106104d6576104d661075c565b60200101907effffffffffffffffffffffffffffffffffffffffffffffffffffffffffffff1916908160001a90535061050e81610772565b9050610490565b5061052663ffffffff831686610743565b94506000846001600160a01b0316846bffffffffffffffffffffffff168360405161055191906107af565b60006040518083038185875af1925050503d806000811461058e576040519150601f19603f3d011682016040523d82523d6000602084013e610593565b606091505b50509050806105bb57848483604051636cfc79a560e01b8152600401610199939291906107f7565b50505050506103b1565b50826001600160a01b03167f3c64b439784b3c09eba93acf868463aed0e339a92920e1d8822118261dfc1a7d856040516105ff9190610836565b60405180910390a250505050565b6001600160a01b038116811461062257600080fd5b50565b60006020828403121561063757600080fd5b81356106428161060d565b9392505050565b634e487b7160e01b600052604160045260246000fd5b60006020828403121561067157600080fd5b813567ffffffffffffffff8082111561068957600080fd5b818401915084601f83011261069d57600080fd5b8135818111156106af576106af610649565b604051601f8201601f19908116603f011681019083821181831017156106d7576106d7610649565b816040528281528760208487010111156106f057600080fd5b826020860160208301376000928101602001929092525095945050505050565b60006020828403121561072257600080fd5b81516106428161060d565b634e487b7160e01b600052601160045260246000fd5b808201808211156107565761075661072d565b92915050565b634e487b7160e01b600052603260045260246000fd5b6000600182016107845761078461072d565b5060010190565b60005b838110156107a657818101518382015260200161078e565b50506000910152565b600082516107c181846020870161078b565b9190910192915050565b600081518084526107e381602086016020860161078b565b601f01601f19169290920160200192915050565b6001600160a01b03841681526bffffffffffffffffffffffff8316602082015260606040820152600061082d60608301846107cb565b95945050505050565b60208152600061064260208301846107cb56fea264697066735822122089f3a6de63880707d802e4ccd0dd408b618c4f02458939dd1569064cc907f32a64736f6c63430008130033",
  "linkReferences": {},
  "deployedLinkReferences": {}
}