{
  "_format": "hh-sol-artifact-1",
  "contractName": "Sale",
  "sourceName": "contracts/Sale.sol",
  "abi": [
    {
      "inputs": [
        {
          "internalType": "address",
          "name": "_olasToken",
          "type": "address"
        },
        {
          "internalType": "address",
          "name": "_veToken",
          "type": "address"
        },
        {
          "internalType": "address",
          "name": "_buToken",
          "type": "address"
        }
      ],
      "stateMutability": "nonpayable",
      "type": "constructor"
    },
    {
      "inputs": [
        {
          "internalType": "uint256",
          "name": "provided",
          "type": "uint256"
        },
        {
          "internalType": "uint256",
          "name": "expected",
          "type": "uint256"
        }
      ],
      "name": "InsufficientAllowance",
      "type": "error"
    },
    {
      "inputs": [
        {
          "internalType": "address",
          "name": "account",
          "type": "address"
        },
        {
          "internalType": "uint256",
          "name": "deadline",
          "type": "uint256"
        },
        {
          "internalType": "uint256",
          "name": "curTime",
          "type": "uint256"
        }
      ],
      "name": "LockExpired",
      "type": "error"
    },
    {
      "inputs": [
        {
          "internalType": "address",
          "name": "account",
          "type": "address"
        },
        {
          "internalType": "uint256",
          "name": "deadline",
          "type": "uint256"
        },
        {
          "internalType": "uint256",
          "name": "curTime",
          "type": "uint256"
        }
      ],
      "name": "LockNotExpired",
      "type": "error"
    },
    {
      "inputs": [
        {
          "internalType": "address",
          "name": "account",
          "type": "address"
        },
        {
          "internalType": "uint256",
          "name": "amount",
          "type": "uint256"
        }
      ],
      "name": "LockedValueNotZero",
      "type": "error"
    },
    {
      "inputs": [
        {
          "internalType": "address",
          "name": "account",
          "type": "address"
        },
        {
          "internalType": "uint256",
          "name": "maxUnlockTime",
          "type": "uint256"
        },
        {
          "internalType": "uint256",
          "name": "providedUnlockTime",
          "type": "uint256"
        }
      ],
      "name": "MaxUnlockTimeReached",
      "type": "error"
    },
    {
      "inputs": [
        {
          "internalType": "address",
          "name": "account",
          "type": "address"
        }
      ],
      "name": "NoValueLocked",
      "type": "error"
    },
    {
      "inputs": [
        {
          "internalType": "address",
          "name": "account",
          "type": "address"
        }
      ],
      "name": "NonDelegatable",
      "type": "error"
    },
    {
      "inputs": [
        {
          "internalType": "address",
          "name": "account",
          "type": "address"
        }
      ],
      "name": "NonTransferable",
      "type": "error"
    },
    {
      "inputs": [],
      "name": "NonZeroValue",
      "type": "error"
    },
    {
      "inputs": [
        {
          "internalType": "uint256",
          "name": "provided",
          "type": "uint256"
        },
        {
          "internalType": "uint256",
          "name": "max",
          "type": "uint256"
        }
      ],
      "name": "Overflow",
      "type": "error"
    },
    {
      "inputs": [
        {
          "internalType": "address",
          "name": "sender",
          "type": "address"
        },
        {
          "internalType": "address",
          "name": "owner",
          "type": "address"
        }
      ],
      "name": "OwnerOnly",
      "type": "error"
    },
    {
      "inputs": [
        {
          "internalType": "address",
          "name": "account",
          "type": "address"
        },
        {
          "internalType": "uint256",
          "name": "minUnlockTime",
          "type": "uint256"
        },
        {
          "internalType": "uint256",
          "name": "providedUnlockTime",
          "type": "uint256"
        }
      ],
      "name": "UnlockTimeIncorrect",
      "type": "error"
    },
    {
      "inputs": [
        {
          "internalType": "uint256",
          "name": "numValues1",
          "type": "uint256"
        },
        {
          "internalType": "uint256",
          "name": "numValues2",
          "type": "uint256"
        }
      ],
      "name": "WrongArrayLength",
      "type": "error"
    },
    {
      "inputs": [
        {
          "internalType": "uint256",
          "name": "providedBlockNumber",
          "type": "uint256"
        },
        {
          "internalType": "uint256",
          "name": "actualBlockNumber",
          "type": "uint256"
        }
      ],
      "name": "WrongBlockNumber",
      "type": "error"
    },
    {
      "inputs": [],
      "name": "ZeroAddress",
      "type": "error"
    },
    {
      "inputs": [],
      "name": "ZeroValue",
      "type": "error"
    },
    {
      "anonymous": false,
      "inputs": [
        {
          "indexed": true,
          "internalType": "address",
          "name": "account",
          "type": "address"
        },
        {
          "indexed": false,
          "internalType": "uint256",
          "name": "amount",
          "type": "uint256"
        },
        {
          "indexed": false,
          "internalType": "uint256",
          "name": "numSteps",
          "type": "uint256"
        }
      ],
      "name": "ClaimBU",
      "type": "event"
    },
    {
      "anonymous": false,
      "inputs": [
        {
          "indexed": true,
          "internalType": "address",
          "name": "account",
          "type": "address"
        },
        {
          "indexed": false,
          "internalType": "uint256",
          "name": "amount",
          "type": "uint256"
        },
        {
          "indexed": false,
          "internalType": "uint256",
          "name": "timePeriod",
          "type": "uint256"
        }
      ],
      "name": "ClaimVE",
      "type": "event"
    },
    {
      "anonymous": false,
      "inputs": [
        {
          "indexed": true,
          "internalType": "address",
          "name": "account",
          "type": "address"
        },
        {
          "indexed": false,
          "internalType": "uint256",
          "name": "amount",
          "type": "uint256"
        },
        {
          "indexed": false,
          "internalType": "uint256",
          "name": "numSteps",
          "type": "uint256"
        }
      ],
      "name": "CreateBU",
      "type": "event"
    },
    {
      "anonymous": false,
      "inputs": [
        {
          "indexed": true,
          "internalType": "address",
          "name": "account",
          "type": "address"
        },
        {
          "indexed": false,
          "internalType": "uint256",
          "name": "amount",
          "type": "uint256"
        },
        {
          "indexed": false,
          "internalType": "uint256",
          "name": "timePeriod",
          "type": "uint256"
        }
      ],
      "name": "CreateVE",
      "type": "event"
    },
    {
      "anonymous": false,
      "inputs": [
        {
          "indexed": true,
          "internalType": "address",
          "name": "owner",
          "type": "address"
        }
      ],
      "name": "OwnerUpdated",
      "type": "event"
    },
    {
      "inputs": [],
      "name": "balance",
      "outputs": [
        {
          "internalType": "uint256",
          "name": "",
          "type": "uint256"
        }
      ],
      "stateMutability": "view",
      "type": "function"
    },
    {
      "inputs": [],
      "name": "buToken",
      "outputs": [
        {
          "internalType": "address",
          "name": "",
          "type": "address"
        }
      ],
      "stateMutability": "view",
      "type": "function"
    },
    {
      "inputs": [
        {
          "internalType": "address",
          "name": "newOwner",
          "type": "address"
        }
      ],
      "name": "changeOwner",
      "outputs": [],
      "stateMutability": "nonpayable",
      "type": "function"
    },
    {
      "inputs": [],
      "name": "claim",
      "outputs": [],
      "stateMutability": "nonpayable",
      "type": "function"
    },
    {
      "inputs": [
        {
          "internalType": "address",
          "name": "account",
          "type": "address"
        }
      ],
      "name": "claimableBalances",
      "outputs": [
        {
          "internalType": "uint256",
          "name": "veBalance",
          "type": "uint256"
        },
        {
          "internalType": "uint256",
          "name": "buBalance",
          "type": "uint256"
        }
      ],
      "stateMutability": "view",
      "type": "function"
    },
    {
      "inputs": [
        {
          "internalType": "address[]",
          "name": "veAccounts",
          "type": "address[]"
        },
        {
          "internalType": "uint256[]",
          "name": "veAmounts",
          "type": "uint256[]"
        },
        {
          "internalType": "uint256[]",
          "name": "veLockTimes",
          "type": "uint256[]"
        },
        {
          "internalType": "address[]",
          "name": "buAccounts",
          "type": "address[]"
        },
        {
          "internalType": "uint256[]",
          "name": "buAmounts",
          "type": "uint256[]"
        },
        {
          "internalType": "uint256[]",
          "name": "buNumSteps",
          "type": "uint256[]"
        }
      ],
      "name": "createBalancesFor",
      "outputs": [],
      "stateMutability": "nonpayable",
      "type": "function"
    },
    {
      "inputs": [
        {
          "internalType": "address",
          "name": "",
          "type": "address"
        }
      ],
      "name": "mapBU",
      "outputs": [
        {
          "internalType": "uint128",
          "name": "amount",
          "type": "uint128"
        },
        {
          "internalType": "uint64",
          "name": "period",
          "type": "uint64"
        }
      ],
      "stateMutability": "view",
      "type": "function"
    },
    {
      "inputs": [
        {
          "internalType": "address",
          "name": "",
          "type": "address"
        }
      ],
      "name": "mapVE",
      "outputs": [
        {
          "internalType": "uint128",
          "name": "amount",
          "type": "uint128"
        },
        {
          "internalType": "uint64",
          "name": "period",
          "type": "uint64"
        }
      ],
      "stateMutability": "view",
      "type": "function"
    },
    {
      "inputs": [],
      "name": "olasToken",
      "outputs": [
        {
          "internalType": "address",
          "name": "",
          "type": "address"
        }
      ],
      "stateMutability": "view",
      "type": "function"
    },
    {
      "inputs": [],
      "name": "owner",
      "outputs": [
        {
          "internalType": "address",
          "name": "",
          "type": "address"
        }
      ],
      "stateMutability": "view",
      "type": "function"
    },
    {
      "inputs": [],
      "name": "veToken",
      "outputs": [
        {
          "internalType": "address",
          "name": "",
          "type": "address"
        }
      ],
      "stateMutability": "view",
      "type": "function"
    }
  ],
  "bytecode": "0x60e06040523480156200001157600080fd5b506040516200160938038062001609833981016040819052620000349162000170565b6001600160a01b03838116608081905283821660a081905291831660c052600180546001600160a01b0319163317905560405163095ea7b360e01b8152600481019290925260001960248301529063095ea7b3906044016020604051808303816000875af1158015620000ab573d6000803e3d6000fd5b505050506040513d601f19601f82011682018060405250810190620000d19190620001ba565b5060405163095ea7b360e01b81526001600160a01b038281166004830152600019602483015284169063095ea7b3906044016020604051808303816000875af115801562000123573d6000803e3d6000fd5b505050506040513d601f19601f82011682018060405250810190620001499190620001ba565b50505050620001e5565b80516001600160a01b03811681146200016b57600080fd5b919050565b6000806000606084860312156200018657600080fd5b620001918462000153565b9250620001a16020850162000153565b9150620001b16040850162000153565b90509250925092565b600060208284031215620001cd57600080fd5b81518015158114620001de57600080fd5b9392505050565b60805160a05160c0516113e062000229600039600081816102900152610edc01526000818160e80152610d3b0152600081816102690152610bcd01526113e06000f3fe608060405234801561001057600080fd5b50600436106100c95760003560e01c80639f3aa93c11610081578063b69ef8a81161005b578063b69ef8a81461024d578063ece4b87814610264578063efcd60b71461028b57600080fd5b80639f3aa93c1461019a578063a6f9dae1146101fe578063b4f395371461021157600080fd5b80634e71d92d116100b25780634e71d92d1461012757806368c8278f1461012f5780638da5cb5b1461018757600080fd5b80633a1f3faf146100ce5780633b92eb23146100e3575b600080fd5b6100e16100dc36600461121d565b6102b2565b005b61010a7f000000000000000000000000000000000000000000000000000000000000000081565b6040516001600160a01b0390911681526020015b60405180910390f35b6100e1610cb3565b61017261013d366004611312565b6001600160a01b03166000908152600260209081526040808320546003909252909120546001600160801b0391821692911690565b6040805192835260208301919091520161011e565b60015461010a906001600160a01b031681565b6101d66101a8366004611312565b6003602052600090815260409020546001600160801b03811690600160801b900467ffffffffffffffff1682565b604080516001600160801b03909316835267ffffffffffffffff90911660208301520161011e565b6100e161020c366004611312565b611000565b6101d661021f366004611312565b6002602052600090815260409020546001600160801b03811690600160801b900467ffffffffffffffff1682565b61025660005481565b60405190815260200161011e565b61010a7f000000000000000000000000000000000000000000000000000000000000000081565b61010a7f000000000000000000000000000000000000000000000000000000000000000081565b6001546001600160a01b031633146102f75760015460405163521eb56d60e11b81523360048201526001600160a01b0390911660248201526044015b60405180910390fd5b8451865114158061030a57508351865114155b1561033557855185516040516308151c1160e41b8152600481019290925260248201526044016102ee565b8151835114158061034857508051835114155b1561037357825182516040516308151c1160e41b8152600481019290925260248201526044016102ee565b60008060005b885181101561080f5760006001600160a01b031689828151811061039f5761039f611334565b60200260200101516001600160a01b0316036103ce5760405163d92e233d60e01b815260040160405180910390fd5b8781815181106103e0576103e0611334565b602002602001015160000361040857604051637c946ed760e01b815260040160405180910390fd5b6001600160801b03801688828151811061042457610424611334565b602002602001015111156104815787818151811061044457610444611334565b60200260200101516001600160801b03604051637ae5968560e01b81526004016102ee9291909182526001600160801b0316602082015260400190565b6301e1338087828151811061049857610498611334565b6020026020010151101561052d578881815181106104b8576104b8611334565b60200260200101516301e133808883815181106104d7576104d7611334565b60209081029190910101516040517f311d1bf90000000000000000000000000000000000000000000000000000000081526001600160a01b039093166004840152602483019190915260448201526064016102ee565b630784ce0087828151811061054457610544611334565b602002602001015111156105d95788818151811061056457610564611334565b6020026020010151630784ce0088838151811061058357610583611334565b60209081029190910101516040517fc172987b0000000000000000000000000000000000000000000000000000000081526001600160a01b039093166004840152602483019190915260448201526064016102ee565b6000600260008b84815181106105f1576105f1611334565b6020908102919091018101516001600160a01b031682528181019290925260409081016000208151808301909252546001600160801b038116808352600160801b90910467ffffffffffffffff16928201929092529150156106665760405163e320176b60e01b815260040160405180910390fd5b88828151811061067857610678611334565b60200260200101518461068b9190611360565b935088828151811061069f5761069f611334565b60209081029190910101516001600160801b0316815287518890839081106106c9576106c9611334565b6020026020010151816020019067ffffffffffffffff16908167ffffffffffffffff168152505080600260008c858151811061070757610707611334565b6020908102919091018101516001600160a01b031682528181019290925260400160002082518154939092015167ffffffffffffffff16600160801b026001600160c01b03199093166001600160801b039092169190911791909117905589518a908390811061077957610779611334565b60200260200101516001600160a01b03167fff8aa13114809052599c210acd2b83c07770bd5a7ec4fcf0d61051f7c994fa448a84815181106107bd576107bd611334565b60200260200101518a85815181106107d7576107d7611334565b60200260200101516040516107f6929190918252602082015260400190565b60405180910390a25061080881611378565b9050610379565b5060005b8551811015610b9b5760006001600160a01b031686828151811061083957610839611334565b60200260200101516001600160a01b0316036108685760405163d92e233d60e01b815260040160405180910390fd5b84818151811061087a5761087a611334565b6020026020010151600014806108a9575083818151811061089d5761089d611334565b60200260200101516000145b156108c757604051637c946ed760e01b815260040160405180910390fd5b6001600160801b0380168582815181106108e3576108e3611334565b602002602001015111156109035784818151811061044457610444611334565b600a84828151811061091757610917611334565b602002602001015111156109655783818151811061093757610937611334565b6020026020010151600a604051637ae5968560e01b81526004016102ee929190918252602082015260400190565b60006003600088848151811061097d5761097d611334565b6020908102919091018101516001600160a01b031682528181019290925260409081016000208151808301909252546001600160801b038116808352600160801b90910467ffffffffffffffff16928201929092529150156109f25760405163e320176b60e01b815260040160405180910390fd5b858281518110610a0457610a04611334565b602002602001015183610a179190611360565b9250858281518110610a2b57610a2b611334565b60209081029190910101516001600160801b031681528451859083908110610a5557610a55611334565b6020026020010151816020019067ffffffffffffffff16908167ffffffffffffffff16815250508060036000898581518110610a9357610a93611334565b6020908102919091018101516001600160a01b031682528181019290925260400160002082518154939092015167ffffffffffffffff16600160801b026001600160c01b03199093166001600160801b03909216919091179190911790558651879083908110610b0557610b05611334565b60200260200101516001600160a01b03167fa8955cece96fc686cc436e787d1a363e3f4199a96ef23c06014589407fbc5a3b878481518110610b4957610b49611334565b6020026020010151878581518110610b6357610b63611334565b6020026020010151604051610b82929190918252602082015260400190565b60405180910390a250610b9481611378565b9050610813565b506040517f70a082310000000000000000000000000000000000000000000000000000000081523060048201526000907f00000000000000000000000000000000000000000000000000000000000000006001600160a01b0316906370a08231906024016020604051808303816000875af1158015610c1e573d6000803e3d6000fd5b505050506040513d601f19601f82011682018060405250810190610c429190611391565b905060008383600054610c559190611360565b610c5f9190611360565b905080821015610ca5576040517f2a1b2dd800000000000000000000000000000000000000000000000000000000815260048101829052602481018390526044016102ee565b600055505050505050505050565b3360009081526002602090815260408083208151808301909252546001600160801b038116808352600160801b90910467ffffffffffffffff16928201929092529015610e3957805160208201516040516329b55ca760e01b81523360048201526001600160801b039092166024830181905267ffffffffffffffff909116604483015292507f00000000000000000000000000000000000000000000000000000000000000006001600160a01b0316906329b55ca790606401600060405180830381600087803b158015610d8757600080fd5b505af1158015610d9b573d6000803e3d6000fd5b5050604080518082018252600080825260208083018281523380845260028352928590209351845491516001600160801b039182166001600160c01b031990931692909217600160801b67ffffffffffffffff9384160217909455875188830151865191909516815293169083015293507f08ab073eec60a41a05a6fd61f76c50a8df6f5910f4580e2aa2db8f25f60862a792500160405180910390a25b50336000908152600360209081526040918290208251808401909352546001600160801b038116808452600160801b90910467ffffffffffffffff169183019190915215610fd2578051610e96906001600160801b031683611360565b815160208301516040516329b55ca760e01b81523360048201526001600160801b03909216602483015267ffffffffffffffff1660448201529092506001600160a01b037f000000000000000000000000000000000000000000000000000000000000000016906329b55ca790606401600060405180830381600087803b158015610f2057600080fd5b505af1158015610f34573d6000803e3d6000fd5b5050604080518082018252600080825260208083018281523380845260038352928590209351845491516001600160801b039182166001600160c01b031990931692909217600160801b67ffffffffffffffff9384160217909455875188830151865191909516815293169083015293507f8bbad19e47f5ad79b41ed2b7c4edc7e8dc4b46fd6fec9c551116f9e17a1cd4e392500160405180910390a25b81600003610ff357604051637c946ed760e01b815260040160405180910390fd5b5060008054919091039055565b6001600160a01b0381166110275760405163d92e233d60e01b815260040160405180910390fd5b6001546001600160a01b031633146110675760015460405163521eb56d60e11b81523360048201526001600160a01b0390911660248201526044016102ee565b600180547fffffffffffffffffffffffff0000000000000000000000000000000000000000166001600160a01b0383169081179091556040517f4ffd725fc4a22075e9ec71c59edf9c38cdeb588a91b24fc5b61388c5be41282b90600090a250565b634e487b7160e01b600052604160045260246000fd5b604051601f8201601f1916810167ffffffffffffffff81118282101715611108576111086110c9565b604052919050565b600067ffffffffffffffff82111561112a5761112a6110c9565b5060051b60200190565b80356001600160a01b038116811461114b57600080fd5b919050565b600082601f83011261116157600080fd5b8135602061117661117183611110565b6110df565b82815260059290921b8401810191818101908684111561119557600080fd5b8286015b848110156111b7576111aa81611134565b8352918301918301611199565b509695505050505050565b600082601f8301126111d357600080fd5b813560206111e361117183611110565b82815260059290921b8401810191818101908684111561120257600080fd5b8286015b848110156111b75780358352918301918301611206565b60008060008060008060c0878903121561123657600080fd5b863567ffffffffffffffff8082111561124e57600080fd5b61125a8a838b01611150565b9750602089013591508082111561127057600080fd5b61127c8a838b016111c2565b9650604089013591508082111561129257600080fd5b61129e8a838b016111c2565b955060608901359150808211156112b457600080fd5b6112c08a838b01611150565b945060808901359150808211156112d657600080fd5b6112e28a838b016111c2565b935060a08901359150808211156112f857600080fd5b5061130589828a016111c2565b9150509295509295509295565b60006020828403121561132457600080fd5b61132d82611134565b9392505050565b634e487b7160e01b600052603260045260246000fd5b634e487b7160e01b600052601160045260246000fd5b600082198211156113735761137361134a565b500190565b60006001820161138a5761138a61134a565b5060010190565b6000602082840312156113a357600080fd5b505191905056fea2646970667358221220c94f173579e4d93e4804248e0be6186d3f54aa8f6252f70986aad5485128d98e64736f6c634300080f0033",
  "linkReferences": {},
  "deployedLinkReferences": {}
}